{
  "_format": "hh-sol-artifact-1",
  "contractName": "AgoraToken",
  "sourceName": "contracts/AgoraToken.sol",
  "abi": [
    {
      "inputs": [],
      "stateMutability": "nonpayable",
      "type": "constructor"
    },
    {
      "anonymous": false,
      "inputs": [
        {
          "indexed": true,
          "internalType": "address",
          "name": "owner",
          "type": "address"
        },
        {
          "indexed": true,
          "internalType": "address",
          "name": "spender",
          "type": "address"
        },
        {
          "indexed": false,
          "internalType": "uint256",
          "name": "value",
          "type": "uint256"
        }
      ],
      "name": "Approval",
      "type": "event"
    },
    {
      "anonymous": false,
      "inputs": [
        {
          "indexed": true,
          "internalType": "address",
          "name": "from",
          "type": "address"
        },
        {
          "indexed": true,
          "internalType": "address",
          "name": "to",
          "type": "address"
        },
        {
          "indexed": false,
          "internalType": "uint256",
          "name": "value",
          "type": "uint256"
        }
      ],
      "name": "Transfer",
      "type": "event"
    },
    {
      "inputs": [
        {
          "internalType": "address",
          "name": "owner",
          "type": "address"
        },
        {
          "internalType": "address",
          "name": "spender",
          "type": "address"
        }
      ],
      "name": "allowance",
      "outputs": [
        {
          "internalType": "uint256",
          "name": "",
          "type": "uint256"
        }
      ],
      "stateMutability": "view",
      "type": "function"
    },
    {
      "inputs": [
        {
          "internalType": "address",
          "name": "spender",
          "type": "address"
        },
        {
          "internalType": "uint256",
          "name": "amount",
          "type": "uint256"
        }
      ],
      "name": "approve",
      "outputs": [
        {
          "internalType": "bool",
          "name": "",
          "type": "bool"
        }
      ],
      "stateMutability": "nonpayable",
      "type": "function"
    },
    {
      "inputs": [
        {
          "internalType": "address",
          "name": "account",
          "type": "address"
        }
      ],
      "name": "balanceOf",
      "outputs": [
        {
          "internalType": "uint256",
          "name": "",
          "type": "uint256"
        }
      ],
      "stateMutability": "view",
      "type": "function"
    },
    {
      "inputs": [],
      "name": "buyTokens",
      "outputs": [],
      "stateMutability": "payable",
      "type": "function"
    },
    {
      "inputs": [],
      "name": "decimals",
      "outputs": [
        {
          "internalType": "uint8",
          "name": "",
          "type": "uint8"
        }
      ],
      "stateMutability": "view",
      "type": "function"
    },
    {
      "inputs": [
        {
          "internalType": "address",
          "name": "spender",
          "type": "address"
        },
        {
          "internalType": "uint256",
          "name": "subtractedValue",
          "type": "uint256"
        }
      ],
      "name": "decreaseAllowance",
      "outputs": [
        {
          "internalType": "bool",
          "name": "",
          "type": "bool"
        }
      ],
      "stateMutability": "nonpayable",
      "type": "function"
    },
    {
      "inputs": [
        {
          "internalType": "address",
          "name": "spender",
          "type": "address"
        },
        {
          "internalType": "uint256",
          "name": "addedValue",
          "type": "uint256"
        }
      ],
      "name": "increaseAllowance",
      "outputs": [
        {
          "internalType": "bool",
          "name": "",
          "type": "bool"
        }
      ],
      "stateMutability": "nonpayable",
      "type": "function"
    },
    {
      "inputs": [],
      "name": "name",
      "outputs": [
        {
          "internalType": "string",
          "name": "",
          "type": "string"
        }
      ],
      "stateMutability": "view",
      "type": "function"
    },
    {
      "inputs": [
        {
          "internalType": "uint256",
          "name": "amount",
          "type": "uint256"
        }
      ],
      "name": "sellTokens",
      "outputs": [],
      "stateMutability": "nonpayable",
      "type": "function"
    },
    {
      "inputs": [],
      "name": "symbol",
      "outputs": [
        {
          "internalType": "string",
          "name": "",
          "type": "string"
        }
      ],
      "stateMutability": "view",
      "type": "function"
    },
    {
      "inputs": [],
      "name": "totalSupply",
      "outputs": [
        {
          "internalType": "uint256",
          "name": "",
          "type": "uint256"
        }
      ],
      "stateMutability": "view",
      "type": "function"
    },
    {
      "inputs": [
        {
          "internalType": "uint256",
          "name": "expiration",
          "type": "uint256"
        },
        {
          "internalType": "bytes32",
          "name": "nonce",
          "type": "bytes32"
        },
        {
          "internalType": "uint256",
          "name": "amount",
          "type": "uint256"
        },
        {
          "internalType": "address",
          "name": "from",
          "type": "address"
        },
        {
          "internalType": "address",
          "name": "to",
          "type": "address"
        },
        {
          "internalType": "bytes",
          "name": "signature",
          "type": "bytes"
        }
      ],
      "name": "transactiWithSignature",
      "outputs": [],
      "stateMutability": "nonpayable",
      "type": "function"
    },
    {
      "inputs": [
        {
          "internalType": "address",
          "name": "to",
          "type": "address"
        },
        {
          "internalType": "uint256",
          "name": "amount",
          "type": "uint256"
        }
      ],
      "name": "transfer",
      "outputs": [
        {
          "internalType": "bool",
          "name": "",
          "type": "bool"
        }
      ],
      "stateMutability": "nonpayable",
      "type": "function"
    },
    {
      "inputs": [
        {
          "internalType": "address",
          "name": "from",
          "type": "address"
        },
        {
          "internalType": "address",
          "name": "to",
          "type": "address"
        },
        {
          "internalType": "uint256",
          "name": "amount",
          "type": "uint256"
        }
      ],
      "name": "transferFrom",
      "outputs": [
        {
          "internalType": "bool",
          "name": "",
          "type": "bool"
        }
      ],
      "stateMutability": "nonpayable",
      "type": "function"
    }
  ],
  "bytecode": "0x60806040523480156200001157600080fd5b506040518060400160405280600a81526020017f41676f7261546f6b656e000000000000000000000000000000000000000000008152506040518060400160405280600381526020017f4147520000000000000000000000000000000000000000000000000000000000815250816003908051906020019062000096929190620000ef565b508060049080519060200190620000af929190620000ef565b505050620000e67fe66e8964dd0f93092d9c0d01ae3db28d17ef7133ef10c4e3d1f832440af194cb60001b620000ec60201b60201c565b62000203565b50565b828054620000fd90620001ce565b90600052602060002090601f0160209004810192826200012157600085556200016d565b82601f106200013c57805160ff19168380011785556200016d565b828001600101855582156200016d579182015b828111156200016c5782518255916020019190600101906200014f565b5b5090506200017c919062000180565b5090565b5b808211156200019b57600081600090555060010162000181565b5090565b7f4e487b7100000000000000000000000000000000000000000000000000000000600052602260045260246000fd5b60006002820490506001821680620001e757607f821691505b602082108103620001fd57620001fc6200019f565b5b50919050565b6134c380620002136000396000f3fe6080604052600436106100dd5760003560e01c806370a082311161007f578063a457c2d711610059578063a457c2d7146102d4578063a9059cbb14610311578063d0febe4c1461034e578063dd62ed3e14610358576100dd565b806370a082311461024357806395d89b41146102805780639f4fae12146102ab576100dd565b806323b872dd116100bb57806323b872dd14610175578063313ce567146101b257806339509351146101dd5780636c11bcd31461021a576100dd565b806306fdde03146100e2578063095ea7b31461010d57806318160ddd1461014a575b600080fd5b3480156100ee57600080fd5b506100f7610395565b6040516101049190612296565b60405180910390f35b34801561011957600080fd5b50610134600480360381019061012f9190612360565b610427565b60405161014191906123bb565b60405180910390f35b34801561015657600080fd5b5061015f61044a565b60405161016c91906123e5565b60405180910390f35b34801561018157600080fd5b5061019c60048036038101906101979190612400565b610454565b6040516101a991906123bb565b60405180910390f35b3480156101be57600080fd5b506101c7610483565b6040516101d4919061246f565b60405180910390f35b3480156101e957600080fd5b5061020460048036038101906101ff9190612360565b61048c565b60405161021191906123bb565b60405180910390f35b34801561022657600080fd5b50610241600480360381019061023c919061248a565b6104c3565b005b34801561024f57600080fd5b5061026a600480360381019061026591906124b7565b610852565b60405161027791906123e5565b60405180910390f35b34801561028c57600080fd5b5061029561089a565b6040516102a29190612296565b60405180910390f35b3480156102b757600080fd5b506102d260048036038101906102cd919061264f565b61092c565b005b3480156102e057600080fd5b506102fb60048036038101906102f69190612360565b61128d565b60405161030891906123bb565b60405180910390f35b34801561031d57600080fd5b5061033860048036038101906103339190612360565b611304565b60405161034591906123bb565b60405180910390f35b610356611327565b005b34801561036457600080fd5b5061037f600480360381019061037a91906126f8565b6114aa565b60405161038c91906123e5565b60405180910390f35b6060600380546103a490612767565b80601f01602080910402602001604051908101604052809291908181526020018280546103d090612767565b801561041d5780601f106103f25761010080835404028352916020019161041d565b820191906000526020600020905b81548152906001019060200180831161040057829003601f168201915b5050505050905090565b600080610432611531565b905061043f818585611539565b600191505092915050565b6000600254905090565b60008061045f611531565b905061046c858285611702565b61047785858561178e565b60019150509392505050565b60006012905090565b600080610497611531565b90506104b88185856104a985896114aa565b6104b391906127c7565b611539565b600191505092915050565b6104ef7ffe9df6c54dbeee75d1a2b576b61403029b462a4d232d5560d8bad1e22ffa987260001b611a04565b61051b7fb6420d5b7c4b23499a48244e07248e31eaabfd2678751d5c19d538c02f57f42760001b611a04565b6105477f13df8a634981dfd8489bae83498c4fd0d56f23773d9e2bad944f082f79570b7560001b611a04565b6105737ffb80ee50df4f7cb14729f5eebadb86db12d17b3ebd109824881f6a58d632343560001b611a04565b600081116105b6576040517f08c379a00000000000000000000000000000000000000000000000000000000081526004016105ad90612869565b60405180910390fd5b6105e27f1a8fc64eef096d6ec3488ac5b1e9b6f7a8f012e2e991a759f299b3c25442da2160001b611a04565b61060e7fbb14e59b156e195d1dca3016c22455d8f26386cbfa44c32e7a5a8775a24158af60001b611a04565b61063a7f70452173b2a2957fb9d4b4efef8b3ac37cc1f565cac4459968d18c1600541bf160001b611a04565b6106667fdd5f914242753c5ae7322140458974226fe17a7335d7bc249cee8a561c698bcd60001b611a04565b803073ffffffffffffffffffffffffffffffffffffffff166370a08231336040518263ffffffff1660e01b81526004016106a09190612898565b602060405180830381865afa1580156106bd573d6000803e3d6000fd5b505050506040513d601f19601f820116820180604052508101906106e191906128c8565b1015610722576040517f08c379a000000000000000000000000000000000000000000000000000000000815260040161071990612967565b60405180910390fd5b61074e7f9f138c3cc2938f105547e7edf9db249f164591a2f81aed07813e7a121d2df90b60001b611a04565b61077a7fbaad7f86a2acec06cfb918f9c40b955d7ee96946f5ba32fc0b5c36e9327a456e60001b611a04565b6107a67f9e4d44e7284caf1f20db8a24981094f6dbf881f9aaea541fca166575961aff8760001b611a04565b6107b03382611a07565b6107dc7f4ef8af7b70cb27b39bd0f0ffaf24998a87029226dc2d9a5f4e06e3d75987d57360001b611a04565b6108087f1084a2fe2f83b78e390a0993472235b6067cd38a922378f8b50fed3ab1a5016b60001b611a04565b3373ffffffffffffffffffffffffffffffffffffffff166108fc829081150290604051600060405180830381858888f1935050505015801561084e573d6000803e3d6000fd5b5050565b60008060008373ffffffffffffffffffffffffffffffffffffffff1673ffffffffffffffffffffffffffffffffffffffff168152602001908152602001600020549050919050565b6060600480546108a990612767565b80601f01602080910402602001604051908101604052809291908181526020018280546108d590612767565b80156109225780601f106108f757610100808354040283529160200191610922565b820191906000526020600020905b81548152906001019060200180831161090557829003601f168201915b5050505050905090565b6109587f7e0ac7d7104ecac54eaa1a093a513c1afbee5e4300a47f0072b4f4ba3ba6191460001b611a04565b6109847f42da86b6d1870ba9d073da9fd68e8dad9606f3064989c8b0ecf1028858cd2f0860001b611a04565b6109b07ff778046ff40e177aacefca8fbbd09987f5731beba4c8464ed2f4dfc4be478b1f60001b611a04565b6109dc7fe61f6e7d48fc11787234ed51cc353ca042a9786d86ad93803df7e70920f92ffb60001b611a04565b428611610a1e576040517f08c379a0000000000000000000000000000000000000000000000000000000008152600401610a15906129d3565b60405180910390fd5b610a4a7f10f90f978c6f37c0ca9f328a87bb7939a9f6fc312da7d1c2c991368cb3482aaa60001b611a04565b610a767f902661cad2263e5450f0be98ccd21557f147dcf9aca137b831b8d4139308acad60001b611a04565b610aa27f569970a1dc0b8280181156c95c57ac0cad818542badf0f8999c1be4ee5a7d19560001b611a04565b610ace7fb6949bf1b79dc68c47b36e9efc1b75193281ae78c89b00e07f8f2521f45dd61760001b611a04565b600015156005600087815260200190815260200160002060009054906101000a900460ff16151514610b35576040517f08c379a0000000000000000000000000000000000000000000000000000000008152600401610b2c90612a3f565b60405180910390fd5b610b617fb644f5bf0ea407acf8bd704616d05b19dca4227428304cfead5ee33ca279ef5d60001b611a04565b610b8d7f41f27b00104387efc7d2996fb8db459e623559220e90582b7ad0531a2c9e5cc760001b611a04565b610bb97f7757cb9ffdc041e457b1ca9623e5e6a9c23a43eb2f6be68d2405054b5d6d04a060001b611a04565b610be57f43ec6ba12dfce19108592da7a0faf0eafb8f9b6dac94227457b9fc0a2e7d770d60001b611a04565b60008411610c28576040517f08c379a0000000000000000000000000000000000000000000000000000000008152600401610c1f90612aab565b60405180910390fd5b610c547f1140d18f5ddd07bdd1c7b46211660273f8c7519118e57a9cc0378fd53decb52860001b611a04565b610c807f53a07ce07d8c20733495f7258bbe36b88c69a02d8d5b36794adec97dcf79e27160001b611a04565b610cac7fc68c133c7fe5dba9e6429ff431a43545bf83d4b663c3b7bdf25ed5804c800f4560001b611a04565b610cd87f8c17db5d8d08a84a3fa67da4de8bed4da17e7800de7fab11d3a95e0bd8fabc2f60001b611a04565b600073ffffffffffffffffffffffffffffffffffffffff168373ffffffffffffffffffffffffffffffffffffffff1603610d47576040517f08c379a0000000000000000000000000000000000000000000000000000000008152600401610d3e90612b17565b60405180910390fd5b610d737f4a496b326df0efce6e4f0a0a21fba26d9cb6d92364b378d414beb01bf0810ebc60001b611a04565b610d9f7f065d25e7f433321819cde00a6656b4b7f8b9d94eb2380315b66565abdebe6c9e60001b611a04565b610dcb7f4a64002ccedd15153bc0752cfac3ef77a41a1c9d3de27ebe02a9e743aa1f3e0c60001b611a04565b610df77f5c01425b70d04b96db7e8ed76a1e966361e03a75ac83e8edf80ec984b6edd0bd60001b611a04565b600073ffffffffffffffffffffffffffffffffffffffff168273ffffffffffffffffffffffffffffffffffffffff1603610e66576040517f08c379a0000000000000000000000000000000000000000000000000000000008152600401610e5d90612b83565b60405180910390fd5b610e927fec7704a438071dc13ef789cfd127346beaadc388c0345b35830d79e3574f9a6960001b611a04565b610ebe7f33c34523027bc67b1ebb237bf0106462aa7ca097c3a3063c779cc5495a3bab7f60001b611a04565b610eea7f433ea0272f3dc9c0f5246ddfb964341fcfd600f94b5200c33ff4afbb1be32a9360001b611a04565b610f167f86b9582419f78d45e487599ae9c01508a93619bb654cc557b108b03915a23dfb60001b611a04565b610f1f83610852565b841115610f61576040517f08c379a0000000000000000000000000000000000000000000000000000000008152600401610f5890612bef565b60405180910390fd5b610f8d7fa74d1854326cdab29144533a8217755141da01cf8833de188de1ec075c9d80bb60001b611a04565b610fb97fd8e9d1e47c6d683ecf22216136073049db029002ccf2b49f4eeeaddde7e2e71460001b611a04565b610fe57ff5f65656987fb8a061220bc5791be640dbe46b8af130af6030ad551636edb96f60001b611a04565b60008686868686604051602001611000959493929190612c99565b6040516020818303038152906040528051906020012090506110447f1f19fc60a4cfc4c82355e01d9e92534ea7f66beb71a6aa6928fe7be078cec77460001b611a04565b6110707f87e9c35d434e63c3e9b48d71fa5b25c9d53efe52b6831554a5a7c2d049ce301060001b611a04565b600061107c8284611bd4565b90506110aa7f14b3a94a9776f4a3ba3b62f7fa1d8410d42724966b7a72ee5efc9664f806a73f60001b611a04565b6110d67f5e85988fac6cf4e50801f6e67a8d6a34c4249a2d620b1f2d5d0b50b67ac690e660001b611a04565b6111027fa3e600808b6ce3ea8c699c2cc9b259c5c8e03b77d06216f775c059f877a4214860001b611a04565b8473ffffffffffffffffffffffffffffffffffffffff168173ffffffffffffffffffffffffffffffffffffffff1614611170576040517f08c379a000000000000000000000000000000000000000000000000000000000815260040161116790612d6a565b60405180910390fd5b61119c7f15c5339404562dbb32bfb46fac77c2be17aaed3e3b5dac1995079e359a8574a660001b611a04565b6111c87fc1d0efc423cf435f04d2e553207bbc097b140a8a98ca5fab3c481698568dcb9c60001b611a04565b6111f47f5dd92d7403d2952da938e2032e1ed7e69fa373711c34433827e69f12a157a62c60001b611a04565b60016005600089815260200190815260200160002060006101000a81548160ff02191690831515021790555061124c7fb1cb96f6a038a1719c9a6831baebf52c664080b5b540643847e4196c6a1bce9460001b611a04565b6112787f7e74c85b952c11295be7c48e45bf859131d8cb7112b86a5bdf1b54644066c80e60001b611a04565b61128385858861178e565b5050505050505050565b600080611298611531565b905060006112a682866114aa565b9050838110156112eb576040517f08c379a00000000000000000000000000000000000000000000000000000000081526004016112e290612dfc565b60405180910390fd5b6112f88286868403611539565b60019250505092915050565b60008061130f611531565b905061131c81858561178e565b600191505092915050565b6113537ffb78dc2e483267e1ceaa9b8a542e6db3d6d5b2f0156cae446f90e287983bd45a60001b611a04565b61137f7f682761ea0c03b2e9e49097642a05f9d35aecbff14a466abea29344badf4bd89860001b611a04565b6113ab7f8c97cb711751175996791f2f2dcaf28f79072b4936f230dd108312fcf3a2425960001b611a04565b6113d77f1168e3fc6e9037a3ae991bc1ab1374e60783f07c3eaa175ed55405acd900400060001b611a04565b6000341161141a576040517f08c379a000000000000000000000000000000000000000000000000000000000815260040161141190612e68565b60405180910390fd5b6114467f6c49756f625e7c370e70c03ae4635c67e8d3d5e85e5d046ed3740821895bf86d60001b611a04565b6114727f24ccd5aac06968ef228e01e9a19c8435f0b924a26ad3c19798880a8050eee82d60001b611a04565b61149e7fdb3e1e914b3950178bde7a7daa1ac7d5ef165e5f58f536a3270f3bad327a2ced60001b611a04565b6114a83334611de4565b565b6000600160008473ffffffffffffffffffffffffffffffffffffffff1673ffffffffffffffffffffffffffffffffffffffff16815260200190815260200160002060008373ffffffffffffffffffffffffffffffffffffffff1673ffffffffffffffffffffffffffffffffffffffff16815260200190815260200160002054905092915050565b600033905090565b600073ffffffffffffffffffffffffffffffffffffffff168373ffffffffffffffffffffffffffffffffffffffff16036115a8576040517f08c379a000000000000000000000000000000000000000000000000000000000815260040161159f90612efa565b60405180910390fd5b600073ffffffffffffffffffffffffffffffffffffffff168273ffffffffffffffffffffffffffffffffffffffff1603611617576040517f08c379a000000000000000000000000000000000000000000000000000000000815260040161160e90612f8c565b60405180910390fd5b80600160008573ffffffffffffffffffffffffffffffffffffffff1673ffffffffffffffffffffffffffffffffffffffff16815260200190815260200160002060008473ffffffffffffffffffffffffffffffffffffffff1673ffffffffffffffffffffffffffffffffffffffff168152602001908152602001600020819055508173ffffffffffffffffffffffffffffffffffffffff168373ffffffffffffffffffffffffffffffffffffffff167f8c5be1e5ebec7d5bd14f71427d1e84f3dd0314c0f7b2291e5b200ac8c7c3b925836040516116f591906123e5565b60405180910390a3505050565b600061170e84846114aa565b90507fffffffffffffffffffffffffffffffffffffffffffffffffffffffffffffffff8114611788578181101561177a576040517f08c379a000000000000000000000000000000000000000000000000000000000815260040161177190612ff8565b60405180910390fd5b6117878484848403611539565b5b50505050565b600073ffffffffffffffffffffffffffffffffffffffff168373ffffffffffffffffffffffffffffffffffffffff16036117fd576040517f08c379a00000000000000000000000000000000000000000000000000000000081526004016117f49061308a565b60405180910390fd5b600073ffffffffffffffffffffffffffffffffffffffff168273ffffffffffffffffffffffffffffffffffffffff160361186c576040517f08c379a00000000000000000000000000000000000000000000000000000000081526004016118639061311c565b60405180910390fd5b611877838383611f3a565b60008060008573ffffffffffffffffffffffffffffffffffffffff1673ffffffffffffffffffffffffffffffffffffffff168152602001908152602001600020549050818110156118fd576040517f08c379a00000000000000000000000000000000000000000000000000000000081526004016118f4906131ae565b60405180910390fd5b8181036000808673ffffffffffffffffffffffffffffffffffffffff1673ffffffffffffffffffffffffffffffffffffffff16815260200190815260200160002081905550816000808573ffffffffffffffffffffffffffffffffffffffff1673ffffffffffffffffffffffffffffffffffffffff168152602001908152602001600020600082825401925050819055508273ffffffffffffffffffffffffffffffffffffffff168473ffffffffffffffffffffffffffffffffffffffff167fddf252ad1be2c89b69c2b068fc378daa952ba7f163c4a11628f55a4df523b3ef846040516119eb91906123e5565b60405180910390a36119fe848484611f3f565b50505050565b50565b600073ffffffffffffffffffffffffffffffffffffffff168273ffffffffffffffffffffffffffffffffffffffff1603611a76576040517f08c379a0000000000000000000000000000000000000000000000000000000008152600401611a6d90613240565b60405180910390fd5b611a8282600083611f3a565b60008060008473ffffffffffffffffffffffffffffffffffffffff1673ffffffffffffffffffffffffffffffffffffffff16815260200190815260200160002054905081811015611b08576040517f08c379a0000000000000000000000000000000000000000000000000000000008152600401611aff906132d2565b60405180910390fd5b8181036000808573ffffffffffffffffffffffffffffffffffffffff1673ffffffffffffffffffffffffffffffffffffffff1681526020019081526020016000208190555081600260008282540392505081905550600073ffffffffffffffffffffffffffffffffffffffff168373ffffffffffffffffffffffffffffffffffffffff167fddf252ad1be2c89b69c2b068fc378daa952ba7f163c4a11628f55a4df523b3ef84604051611bbb91906123e5565b60405180910390a3611bcf83600084611f3f565b505050565b6000611c027f267a4c34731acf5e2fcba085bc2d4c1ad405170ce1392017152e6349414f39d860001b611a04565b611c2e7f260b2d758a63b5134cc1465eb97819f4b35f0216632d641dcd27cb954f5c098060001b611a04565b611c5a7ff3099f89e34267b71b48c6715d15a37cf2bd67c2db442ecafcfbfaf6a78af8a960001b611a04565b6000611c6584611f44565b9050611c937fa2e0fc9e40d5d57127f2d088c93466dcdb482b7f8fc6316c3caed76f671eba6160001b611a04565b611cbf7fb88a5cdea4dc95077eca4251fd9507d15bde655f3dcb1e8b223686d0d4d4805f60001b611a04565b6000806000611ccd8661208d565b925092509250611cff7fc216b61224bb1379542f9de22874c8639548a61adabbcb9206247bd02329a4ea60001b611a04565b611d2b7f289ce4c2f97530da787ca9ce7404f4b9630de9f960564972d67ece5a6fad005d60001b611a04565b600060018585858560405160008152602001604052604051611d509493929190613301565b6020604051602081039080840390855afa158015611d72573d6000803e3d6000fd5b505050602060405103519050611daa7fb1393ce46ab696c1702c3d51e3807cbdda71716faf71cbd5a2b68482c72950f660001b611a04565b611dd67f13f6a8bd539567ae68770309e3ff2f35301e337656ed6dd81e06b9ac196c85f560001b611a04565b809550505050505092915050565b600073ffffffffffffffffffffffffffffffffffffffff168273ffffffffffffffffffffffffffffffffffffffff1603611e53576040517f08c379a0000000000000000000000000000000000000000000000000000000008152600401611e4a90613392565b60405180910390fd5b611e5f60008383611f3a565b8060026000828254611e7191906127c7565b92505081905550806000808473ffffffffffffffffffffffffffffffffffffffff1673ffffffffffffffffffffffffffffffffffffffff168152602001908152602001600020600082825401925050819055508173ffffffffffffffffffffffffffffffffffffffff16600073ffffffffffffffffffffffffffffffffffffffff167fddf252ad1be2c89b69c2b068fc378daa952ba7f163c4a11628f55a4df523b3ef83604051611f2291906123e5565b60405180910390a3611f3660008383611f3f565b5050565b505050565b505050565b6000611f727f4d2d5fea9cf6a6c351d2df5571a3b9e6bbba9e45c08b00cc96c23e2aed069ddb60001b611a04565b611f9e7fe08250a026102e60b8c144853fcf95d7e2ee62668c61563abf012c989babccba60001b611a04565b611fca7f8a6e0d275d835ea4713e18ee79121ae9e6f31390c6c1947f4c32b8d8dc79790f60001b611a04565b60006040518060400160405280601c81526020017f19457468657265756d205369676e6564204d6573736167653a0a33320000000081525090506120307fb17d89bd674df7ba9c1122dc7547eb7f03c73f588fee9d99bf5d323d9114eaf560001b611a04565b61205c7f025cfb4156fcfa7494fb1197cad4c9b2e0e2d1b2cd8310a2bcfb9458fedad30d60001b611a04565b808360405160200161206f9291906133f9565b60405160208183030381529060405280519060200120915050919050565b60008060006120be7f919398a8a33ce8f246421b56b2a6862d505784f4dd5cb83661ac1aa13512b67260001b611a04565b6120ea7fa36a8fc59b39c77873c64e13412497934749c4147fe71a459d1fad61009c395960001b611a04565b6121167ff3b93c3f381c96850d4fafe1bdb8542d546bc066616da8f3bce6d6f960bb3aa660001b611a04565b6121427fc3fb4fed0ebd90e50c7fbe178dc3b16aa1e752a33f3831a18e640a809718c0b560001b611a04565b6041845114612186576040517f08c379a000000000000000000000000000000000000000000000000000000000815260040161217d9061346d565b60405180910390fd5b6121b27f95fb40d8ccac50ba645364062103ce522f500d03fcf8e736700d00ed212785bc60001b611a04565b6121de7fed3a90b32ec6697eac56b1263cd6c2b888675c5cff636dd21cc539b702f1a86e60001b611a04565b6020840151915060408401519050606084015160001a92509193909250565b600081519050919050565b600082825260208201905092915050565b60005b8381101561223757808201518184015260208101905061221c565b83811115612246576000848401525b50505050565b6000601f19601f8301169050919050565b6000612268826121fd565b6122728185612208565b9350612282818560208601612219565b61228b8161224c565b840191505092915050565b600060208201905081810360008301526122b0818461225d565b905092915050565b6000604051905090565b600080fd5b600080fd5b600073ffffffffffffffffffffffffffffffffffffffff82169050919050565b60006122f7826122cc565b9050919050565b612307816122ec565b811461231257600080fd5b50565b600081359050612324816122fe565b92915050565b6000819050919050565b61233d8161232a565b811461234857600080fd5b50565b60008135905061235a81612334565b92915050565b60008060408385031215612377576123766122c2565b5b600061238585828601612315565b92505060206123968582860161234b565b9150509250929050565b60008115159050919050565b6123b5816123a0565b82525050565b60006020820190506123d060008301846123ac565b92915050565b6123df8161232a565b82525050565b60006020820190506123fa60008301846123d6565b92915050565b600080600060608486031215612419576124186122c2565b5b600061242786828701612315565b935050602061243886828701612315565b92505060406124498682870161234b565b9150509250925092565b600060ff82169050919050565b61246981612453565b82525050565b60006020820190506124846000830184612460565b92915050565b6000602082840312156124a05761249f6122c2565b5b60006124ae8482850161234b565b91505092915050565b6000602082840312156124cd576124cc6122c2565b5b60006124db84828501612315565b91505092915050565b6000819050919050565b6124f7816124e4565b811461250257600080fd5b50565b600081359050612514816124ee565b92915050565b600080fd5b600080fd5b7f4e487b7100000000000000000000000000000000000000000000000000000000600052604160045260246000fd5b61255c8261224c565b810181811067ffffffffffffffff8211171561257b5761257a612524565b5b80604052505050565b600061258e6122b8565b905061259a8282612553565b919050565b600067ffffffffffffffff8211156125ba576125b9612524565b5b6125c38261224c565b9050602081019050919050565b82818337600083830152505050565b60006125f26125ed8461259f565b612584565b90508281526020810184848401111561260e5761260d61251f565b5b6126198482856125d0565b509392505050565b600082601f8301126126365761263561251a565b5b81356126468482602086016125df565b91505092915050565b60008060008060008060c0878903121561266c5761266b6122c2565b5b600061267a89828a0161234b565b965050602061268b89828a01612505565b955050604061269c89828a0161234b565b94505060606126ad89828a01612315565b93505060806126be89828a01612315565b92505060a087013567ffffffffffffffff8111156126df576126de6122c7565b5b6126eb89828a01612621565b9150509295509295509295565b6000806040838503121561270f5761270e6122c2565b5b600061271d85828601612315565b925050602061272e85828601612315565b9150509250929050565b7f4e487b7100000000000000000000000000000000000000000000000000000000600052602260045260246000fd5b6000600282049050600182168061277f57607f821691505b60208210810361279257612791612738565b5b50919050565b7f4e487b7100000000000000000000000000000000000000000000000000000000600052601160045260246000fd5b60006127d28261232a565b91506127dd8361232a565b9250827fffffffffffffffffffffffffffffffffffffffffffffffffffffffffffffffff0382111561281257612811612798565b5b828201905092915050565b7f416d6f756e74206d757374206265203e30000000000000000000000000000000600082015250565b6000612853601183612208565b915061285e8261281d565b602082019050919050565b6000602082019050818103600083015261288281612846565b9050919050565b612892816122ec565b82525050565b60006020820190506128ad6000830184612889565b92915050565b6000815190506128c281612334565b92915050565b6000602082840312156128de576128dd6122c2565b5b60006128ec848285016128b3565b91505092915050565b7f596f75722062616c616e6365206973203c20616d6f756e7420796f752077616e60008201527f7420746f2073656c6c0000000000000000000000000000000000000000000000602082015250565b6000612951602983612208565b915061295c826128f5565b604082019050919050565b6000602082019050818103600083015261298081612944565b9050919050565b7f5369676e61747572652065787069726564000000000000000000000000000000600082015250565b60006129bd601183612208565b91506129c882612987565b602082019050919050565b600060208201905081810360008301526129ec816129b0565b9050919050565b7f4e6f6e6365207573656400000000000000000000000000000000000000000000600082015250565b6000612a29600a83612208565b9150612a34826129f3565b602082019050919050565b60006020820190508181036000830152612a5881612a1c565b9050919050565b7f416d6f756e742073686f756c64206265203e3000000000000000000000000000600082015250565b6000612a95601383612208565b9150612aa082612a5f565b602082019050919050565b60006020820190508181036000830152612ac481612a88565b9050919050565b7f46726f6d2063616e277420626520616464726573732830290000000000000000600082015250565b6000612b01601883612208565b9150612b0c82612acb565b602082019050919050565b60006020820190508181036000830152612b3081612af4565b9050919050565b7f546f2063616e2774206265206164647265737328302900000000000000000000600082015250565b6000612b6d601683612208565b9150612b7882612b37565b602082019050919050565b60006020820190508181036000830152612b9c81612b60565b9050919050565b7f4e6f7420656e6f75676820746f6b656e73000000000000000000000000000000600082015250565b6000612bd9601183612208565b9150612be482612ba3565b602082019050919050565b60006020820190508181036000830152612c0881612bcc565b9050919050565b6000819050919050565b612c2a612c258261232a565b612c0f565b82525050565b6000819050919050565b612c4b612c46826124e4565b612c30565b82525050565b60008160601b9050919050565b6000612c6982612c51565b9050919050565b6000612c7b82612c5e565b9050919050565b612c93612c8e826122ec565b612c70565b82525050565b6000612ca58288612c19565b602082019150612cb58287612c3a565b602082019150612cc58286612c19565b602082019150612cd58285612c82565b601482019150612ce58284612c82565b6014820191508190509695505050505050565b7f57726f6e6720617267756d656e747320287265636f766572656441646472657360008201527f73213d66726f6d29000000000000000000000000000000000000000000000000602082015250565b6000612d54602883612208565b9150612d5f82612cf8565b604082019050919050565b60006020820190508181036000830152612d8381612d47565b9050919050565b7f45524332303a2064656372656173656420616c6c6f77616e63652062656c6f7760008201527f207a65726f000000000000000000000000000000000000000000000000000000602082015250565b6000612de6602583612208565b9150612df182612d8a565b604082019050919050565b60006020820190508181036000830152612e1581612dd9565b9050919050565b7f53686f756c642073656e6420736f6d6520657468000000000000000000000000600082015250565b6000612e52601483612208565b9150612e5d82612e1c565b602082019050919050565b60006020820190508181036000830152612e8181612e45565b9050919050565b7f45524332303a20617070726f76652066726f6d20746865207a65726f2061646460008201527f7265737300000000000000000000000000000000000000000000000000000000602082015250565b6000612ee4602483612208565b9150612eef82612e88565b604082019050919050565b60006020820190508181036000830152612f1381612ed7565b9050919050565b7f45524332303a20617070726f766520746f20746865207a65726f20616464726560008201527f7373000000000000000000000000000000000000000000000000000000000000602082015250565b6000612f76602283612208565b9150612f8182612f1a565b604082019050919050565b60006020820190508181036000830152612fa581612f69565b9050919050565b7f45524332303a20696e73756666696369656e7420616c6c6f77616e6365000000600082015250565b6000612fe2601d83612208565b9150612fed82612fac565b602082019050919050565b6000602082019050818103600083015261301181612fd5565b9050919050565b7f45524332303a207472616e736665722066726f6d20746865207a65726f20616460008201527f6472657373000000000000000000000000000000000000000000000000000000602082015250565b6000613074602583612208565b915061307f82613018565b604082019050919050565b600060208201905081810360008301526130a381613067565b9050919050565b7f45524332303a207472616e7366657220746f20746865207a65726f206164647260008201527f6573730000000000000000000000000000000000000000000000000000000000602082015250565b6000613106602383612208565b9150613111826130aa565b604082019050919050565b60006020820190508181036000830152613135816130f9565b9050919050565b7f45524332303a207472616e7366657220616d6f756e742065786365656473206260008201527f616c616e63650000000000000000000000000000000000000000000000000000602082015250565b6000613198602683612208565b91506131a38261313c565b604082019050919050565b600060208201905081810360008301526131c78161318b565b9050919050565b7f45524332303a206275726e2066726f6d20746865207a65726f2061646472657360008201527f7300000000000000000000000000000000000000000000000000000000000000602082015250565b600061322a602183612208565b9150613235826131ce565b604082019050919050565b600060208201905081810360008301526132598161321d565b9050919050565b7f45524332303a206275726e20616d6f756e7420657863656564732062616c616e60008201527f6365000000000000000000000000000000000000000000000000000000000000602082015250565b60006132bc602283612208565b91506132c782613260565b604082019050919050565b600060208201905081810360008301526132eb816132af565b9050919050565b6132fb816124e4565b82525050565b600060808201905061331660008301876132f2565b6133236020830186612460565b61333060408301856132f2565b61333d60608301846132f2565b95945050505050565b7f45524332303a206d696e7420746f20746865207a65726f206164647265737300600082015250565b600061337c601f83612208565b915061338782613346565b602082019050919050565b600060208201905081810360008301526133ab8161336f565b9050919050565b600081519050919050565b600081905092915050565b60006133d3826133b2565b6133dd81856133bd565b93506133ed818560208601612219565b80840191505092915050565b600061340582856133c8565b91506134118284612c3a565b6020820191508190509392505050565b7f5369676e61747572652068617320626164206c656e6774680000000000000000600082015250565b6000613457601883612208565b915061346282613421565b602082019050919050565b600060208201905081810360008301526134868161344a565b905091905056fea2646970667358221220016408ecfe4df5f5e1de44a67ca294f1bf0a4eb55abd79ff7a979d8d4bc0806b64736f6c634300080d0033",
  "linkReferences": {},
  "deployedLinkReferences": {}
}