{
  "_format": "hh-sol-artifact-1",
  "contractName": "Marketplace",
  "sourceName": "contracts/Marketplace.sol",
  "abi": [
    {
      "anonymous": false,
      "inputs": [
        {
          "indexed": true,
          "internalType": "address",
          "name": "previousOwner",
          "type": "address"
        },
        {
          "indexed": true,
          "internalType": "address",
          "name": "newOwner",
          "type": "address"
        }
      ],
      "name": "OwnershipTransferred",
      "type": "event"
    },
    {
      "anonymous": false,
      "inputs": [
        {
          "indexed": false,
          "internalType": "address",
          "name": "adder",
          "type": "address"
        },
        {
          "indexed": false,
          "internalType": "address",
          "name": "courier",
          "type": "address"
        }
      ],
      "name": "addedCourier",
      "type": "event"
    },
    {
      "anonymous": false,
      "inputs": [
        {
          "indexed": false,
          "internalType": "address",
          "name": "remover",
          "type": "address"
        },
        {
          "indexed": false,
          "internalType": "address",
          "name": "courier",
          "type": "address"
        }
      ],
      "name": "removedCourier",
      "type": "event"
    },
    {
      "inputs": [
        {
          "internalType": "address",
          "name": "admin",
          "type": "address"
        }
      ],
      "name": "addAdmin",
      "outputs": [],
      "stateMutability": "nonpayable",
      "type": "function"
    },
    {
      "inputs": [
        {
          "internalType": "address",
          "name": "contractAddress",
          "type": "address"
        },
        {
          "internalType": "string",
          "name": "name",
          "type": "string"
        }
      ],
      "name": "addContract",
      "outputs": [],
      "stateMutability": "nonpayable",
      "type": "function"
    },
    {
      "inputs": [
        {
          "internalType": "address",
          "name": "courier",
          "type": "address"
        }
      ],
      "name": "addCourier",
      "outputs": [],
      "stateMutability": "nonpayable",
      "type": "function"
    },
    {
      "inputs": [
        {
          "internalType": "address",
          "name": "",
          "type": "address"
        }
      ],
      "name": "admins",
      "outputs": [
        {
          "internalType": "bool",
          "name": "",
          "type": "bool"
        }
      ],
      "stateMutability": "view",
      "type": "function"
    },
    {
      "inputs": [
        {
          "internalType": "address",
          "name": "",
          "type": "address"
        }
      ],
      "name": "couriers",
      "outputs": [
        {
          "internalType": "bool",
          "name": "",
          "type": "bool"
        }
      ],
      "stateMutability": "view",
      "type": "function"
    },
    {
      "inputs": [],
      "name": "getMarketAddresses",
      "outputs": [
        {
          "internalType": "address[]",
          "name": "",
          "type": "address[]"
        }
      ],
      "stateMutability": "view",
      "type": "function"
    },
    {
      "inputs": [
        {
          "internalType": "uint256",
          "name": "",
          "type": "uint256"
        }
      ],
      "name": "marketAddresses",
      "outputs": [
        {
          "internalType": "address",
          "name": "",
          "type": "address"
        }
      ],
      "stateMutability": "view",
      "type": "function"
    },
    {
      "inputs": [],
      "name": "marketCount",
      "outputs": [
        {
          "internalType": "uint256",
          "name": "",
          "type": "uint256"
        }
      ],
      "stateMutability": "view",
      "type": "function"
    },
    {
      "inputs": [
        {
          "internalType": "address",
          "name": "",
          "type": "address"
        }
      ],
      "name": "markets",
      "outputs": [
        {
          "internalType": "address",
          "name": "contractAddress",
          "type": "address"
        },
        {
          "internalType": "address",
          "name": "addedBy",
          "type": "address"
        },
        {
          "internalType": "string",
          "name": "name",
          "type": "string"
        },
        {
          "internalType": "uint256",
          "name": "addDate",
          "type": "uint256"
        }
      ],
      "stateMutability": "view",
      "type": "function"
    },
    {
      "inputs": [],
      "name": "myToken",
      "outputs": [
        {
          "internalType": "address",
          "name": "",
          "type": "address"
        }
      ],
      "stateMutability": "view",
      "type": "function"
    },
    {
      "inputs": [],
      "name": "owner",
      "outputs": [
        {
          "internalType": "address",
          "name": "",
          "type": "address"
        }
      ],
      "stateMutability": "view",
      "type": "function"
    },
    {
      "inputs": [
        {
          "internalType": "address",
          "name": "admin",
          "type": "address"
        }
      ],
      "name": "removeAdmin",
      "outputs": [],
      "stateMutability": "nonpayable",
      "type": "function"
    },
    {
      "inputs": [
        {
          "internalType": "address",
          "name": "courier",
          "type": "address"
        }
      ],
      "name": "removeCourier",
      "outputs": [],
      "stateMutability": "nonpayable",
      "type": "function"
    },
    {
      "inputs": [],
      "name": "renounceOwnership",
      "outputs": [],
      "stateMutability": "nonpayable",
      "type": "function"
    },
    {
      "inputs": [
        {
          "internalType": "address",
          "name": "_token",
          "type": "address"
        }
      ],
      "name": "setToken",
      "outputs": [],
      "stateMutability": "nonpayable",
      "type": "function"
    },
    {
      "inputs": [
        {
          "internalType": "address",
          "name": "newOwner",
          "type": "address"
        }
      ],
      "name": "transferOwnership",
      "outputs": [],
      "stateMutability": "nonpayable",
      "type": "function"
    },
    {
      "stateMutability": "payable",
      "type": "receive"
    }
  ],
  "bytecode": "0x608060405234801561001057600080fd5b5061002d61002261003260201b60201c565b61003a60201b60201c565b6100fe565b600033905090565b60008060009054906101000a900473ffffffffffffffffffffffffffffffffffffffff169050816000806101000a81548173ffffffffffffffffffffffffffffffffffffffff021916908373ffffffffffffffffffffffffffffffffffffffff1602179055508173ffffffffffffffffffffffffffffffffffffffff168173ffffffffffffffffffffffffffffffffffffffff167f8be0079c531659141344cd1fd0a4f28419497f9722a3daafe3b4186f6b6457e060405160405180910390a35050565b61198f8061010d6000396000f3fe6080604052600436106100f75760003560e01c8063715018a61161008a578063b8fcf93711610059578063b8fcf93714610320578063ccd5fcb91461034b578063ec97908214610388578063f2fde38b146103b3576100fe565b8063715018a6146102735780638da5cb5b1461028a5780638e8f294b146102b557806397ce0d31146102f5576100fe565b8063429b62e5116100c6578063429b62e5146101bb5780634300e8ef146101f85780636fd5483a14610221578063704802751461024a576100fe565b8063144fa6d7146101035780631785f53c1461012c5780632445d6d714610155578063350293a11461017e576100fe565b366100fe57005b600080fd5b34801561010f57600080fd5b5061012a60048036038101906101259190611167565b6103dc565b005b34801561013857600080fd5b50610153600480360381019061014e9190611167565b610497565b005b34801561016157600080fd5b5061017c60048036038101906101779190611167565b6104fa565b005b34801561018a57600080fd5b506101a560048036038101906101a091906111ca565b610690565b6040516101b29190611206565b60405180910390f35b3480156101c757600080fd5b506101e260048036038101906101dd9190611167565b6106cf565b6040516101ef919061123c565b60405180910390f35b34801561020457600080fd5b5061021f600480360381019061021a91906112bc565b6106ef565b005b34801561022d57600080fd5b5061024860048036038101906102439190611167565b610a87565b005b34801561025657600080fd5b50610271600480360381019061026c9190611167565b610bae565b005b34801561027f57600080fd5b50610288610c80565b005b34801561029657600080fd5b5061029f610c94565b6040516102ac9190611206565b60405180910390f35b3480156102c157600080fd5b506102dc60048036038101906102d79190611167565b610cbd565b6040516102ec94939291906113c4565b60405180910390f35b34801561030157600080fd5b5061030a610db5565b60405161031791906114ce565b60405180910390f35b34801561032c57600080fd5b50610335610e43565b6040516103429190611206565b60405180910390f35b34801561035757600080fd5b50610372600480360381019061036d9190611167565b610e69565b60405161037f919061123c565b60405180910390f35b34801561039457600080fd5b5061039d610e89565b6040516103aa91906114f0565b60405180910390f35b3480156103bf57600080fd5b506103da60048036038101906103d59190611167565b610e8f565b005b6103e4610f12565b600073ffffffffffffffffffffffffffffffffffffffff168173ffffffffffffffffffffffffffffffffffffffff1603610453576040517f08c379a000000000000000000000000000000000000000000000000000000000815260040161044a9061157d565b60405180910390fd5b80600160006101000a81548173ffffffffffffffffffffffffffffffffffffffff021916908373ffffffffffffffffffffffffffffffffffffffff16021790555050565b61049f610f12565b6000600660008373ffffffffffffffffffffffffffffffffffffffff1673ffffffffffffffffffffffffffffffffffffffff16815260200190815260200160002060006101000a81548160ff02191690831515021790555050565b60011515600660003373ffffffffffffffffffffffffffffffffffffffff1673ffffffffffffffffffffffffffffffffffffffff16815260200190815260200160002060009054906101000a900460ff1615151461058d576040517f08c379a0000000000000000000000000000000000000000000000000000000008152600401610584906115e9565b60405180910390fd5b600073ffffffffffffffffffffffffffffffffffffffff168173ffffffffffffffffffffffffffffffffffffffff16036105fc576040517f08c379a00000000000000000000000000000000000000000000000000000000081526004016105f390611655565b60405180910390fd5b6001600560008373ffffffffffffffffffffffffffffffffffffffff1673ffffffffffffffffffffffffffffffffffffffff16815260200190815260200160002060006101000a81548160ff0219169083151502179055507f202a64435606eca406f1f3e4e6ad1260a474db2ab3b7652e903868ba1d0ad1393382604051610685929190611675565b60405180910390a150565b600281815481106106a057600080fd5b906000526020600020016000915054906101000a900473ffffffffffffffffffffffffffffffffffffffff1681565b60066020528060005260406000206000915054906101000a900460ff1681565b6106f7610f12565b600073ffffffffffffffffffffffffffffffffffffffff168373ffffffffffffffffffffffffffffffffffffffff1603610766576040517f08c379a000000000000000000000000000000000000000000000000000000000815260040161075d90611655565b60405180910390fd5b600082829050036107ac576040517f08c379a00000000000000000000000000000000000000000000000000000000081526004016107a3906116ea565b60405180910390fd5b600073ffffffffffffffffffffffffffffffffffffffff16600460008573ffffffffffffffffffffffffffffffffffffffff1673ffffffffffffffffffffffffffffffffffffffff16815260200190815260200160002060000160009054906101000a900473ffffffffffffffffffffffffffffffffffffffff1673ffffffffffffffffffffffffffffffffffffffff161461087d576040517f08c379a000000000000000000000000000000000000000000000000000000000815260040161087490611756565b60405180910390fd5b60405180608001604052808473ffffffffffffffffffffffffffffffffffffffff1681526020013373ffffffffffffffffffffffffffffffffffffffff16815260200183838080601f016020809104026020016040519081016040528093929190818152602001838380828437600081840152601f19601f82011690508083019250505050505050815260200142815250600460008573ffffffffffffffffffffffffffffffffffffffff1673ffffffffffffffffffffffffffffffffffffffff16815260200190815260200160002060008201518160000160006101000a81548173ffffffffffffffffffffffffffffffffffffffff021916908373ffffffffffffffffffffffffffffffffffffffff16021790555060208201518160010160006101000a81548173ffffffffffffffffffffffffffffffffffffffff021916908373ffffffffffffffffffffffffffffffffffffffff16021790555060408201518160020190805190602001906109f792919061105c565b50606082015181600301559050506002839080600181540180825580915050600190039060005260206000200160009091909190916101000a81548173ffffffffffffffffffffffffffffffffffffffff021916908373ffffffffffffffffffffffffffffffffffffffff160217905550600160036000828254610a7b91906117a5565b92505081905550505050565b60011515600660003373ffffffffffffffffffffffffffffffffffffffff1673ffffffffffffffffffffffffffffffffffffffff16815260200190815260200160002060009054906101000a900460ff16151514610b1a576040517f08c379a0000000000000000000000000000000000000000000000000000000008152600401610b11906115e9565b60405180910390fd5b6000600560008373ffffffffffffffffffffffffffffffffffffffff1673ffffffffffffffffffffffffffffffffffffffff16815260200190815260200160002060006101000a81548160ff0219169083151502179055507f54f505827a06b8103699d7c737e591eaff7f2f13b6fb05708854f9f665878d1e3382604051610ba3929190611675565b60405180910390a150565b610bb6610f12565b600073ffffffffffffffffffffffffffffffffffffffff168173ffffffffffffffffffffffffffffffffffffffff1603610c25576040517f08c379a0000000000000000000000000000000000000000000000000000000008152600401610c1c90611655565b60405180910390fd5b6001600660008373ffffffffffffffffffffffffffffffffffffffff1673ffffffffffffffffffffffffffffffffffffffff16815260200190815260200160002060006101000a81548160ff02191690831515021790555050565b610c88610f12565b610c926000610f90565b565b60008060009054906101000a900473ffffffffffffffffffffffffffffffffffffffff16905090565b60046020528060005260406000206000915090508060000160009054906101000a900473ffffffffffffffffffffffffffffffffffffffff16908060010160009054906101000a900473ffffffffffffffffffffffffffffffffffffffff1690806002018054610d2c9061182a565b80601f0160208091040260200160405190810160405280929190818152602001828054610d589061182a565b8015610da55780601f10610d7a57610100808354040283529160200191610da5565b820191906000526020600020905b815481529060010190602001808311610d8857829003601f168201915b5050505050908060030154905084565b60606002805480602002602001604051908101604052809291908181526020018280548015610e3957602002820191906000526020600020905b8160009054906101000a900473ffffffffffffffffffffffffffffffffffffffff1673ffffffffffffffffffffffffffffffffffffffff1681526020019060010190808311610def575b5050505050905090565b600160009054906101000a900473ffffffffffffffffffffffffffffffffffffffff1681565b60056020528060005260406000206000915054906101000a900460ff1681565b60035481565b610e97610f12565b600073ffffffffffffffffffffffffffffffffffffffff168173ffffffffffffffffffffffffffffffffffffffff1603610f06576040517f08c379a0000000000000000000000000000000000000000000000000000000008152600401610efd906118cd565b60405180910390fd5b610f0f81610f90565b50565b610f1a611054565b73ffffffffffffffffffffffffffffffffffffffff16610f38610c94565b73ffffffffffffffffffffffffffffffffffffffff1614610f8e576040517f08c379a0000000000000000000000000000000000000000000000000000000008152600401610f8590611939565b60405180910390fd5b565b60008060009054906101000a900473ffffffffffffffffffffffffffffffffffffffff169050816000806101000a81548173ffffffffffffffffffffffffffffffffffffffff021916908373ffffffffffffffffffffffffffffffffffffffff1602179055508173ffffffffffffffffffffffffffffffffffffffff168173ffffffffffffffffffffffffffffffffffffffff167f8be0079c531659141344cd1fd0a4f28419497f9722a3daafe3b4186f6b6457e060405160405180910390a35050565b600033905090565b8280546110689061182a565b90600052602060002090601f01602090048101928261108a57600085556110d1565b82601f106110a357805160ff19168380011785556110d1565b828001600101855582156110d1579182015b828111156110d05782518255916020019190600101906110b5565b5b5090506110de91906110e2565b5090565b5b808211156110fb5760008160009055506001016110e3565b5090565b600080fd5b600080fd5b600073ffffffffffffffffffffffffffffffffffffffff82169050919050565b600061113482611109565b9050919050565b61114481611129565b811461114f57600080fd5b50565b6000813590506111618161113b565b92915050565b60006020828403121561117d5761117c6110ff565b5b600061118b84828501611152565b91505092915050565b6000819050919050565b6111a781611194565b81146111b257600080fd5b50565b6000813590506111c48161119e565b92915050565b6000602082840312156111e0576111df6110ff565b5b60006111ee848285016111b5565b91505092915050565b61120081611129565b82525050565b600060208201905061121b60008301846111f7565b92915050565b60008115159050919050565b61123681611221565b82525050565b6000602082019050611251600083018461122d565b92915050565b600080fd5b600080fd5b600080fd5b60008083601f84011261127c5761127b611257565b5b8235905067ffffffffffffffff8111156112995761129861125c565b5b6020830191508360018202830111156112b5576112b4611261565b5b9250929050565b6000806000604084860312156112d5576112d46110ff565b5b60006112e386828701611152565b935050602084013567ffffffffffffffff81111561130457611303611104565b5b61131086828701611266565b92509250509250925092565b600081519050919050565b600082825260208201905092915050565b60005b8381101561135657808201518184015260208101905061133b565b83811115611365576000848401525b50505050565b6000601f19601f8301169050919050565b60006113878261131c565b6113918185611327565b93506113a1818560208601611338565b6113aa8161136b565b840191505092915050565b6113be81611194565b82525050565b60006080820190506113d960008301876111f7565b6113e660208301866111f7565b81810360408301526113f8818561137c565b905061140760608301846113b5565b95945050505050565b600081519050919050565b600082825260208201905092915050565b6000819050602082019050919050565b61144581611129565b82525050565b6000611457838361143c565b60208301905092915050565b6000602082019050919050565b600061147b82611410565b611485818561141b565b93506114908361142c565b8060005b838110156114c15781516114a8888261144b565b97506114b383611463565b925050600181019050611494565b5085935050505092915050565b600060208201905081810360008301526114e88184611470565b905092915050565b600060208201905061150560008301846113b5565b92915050565b7f546f6b656e20616464726573732073686f756c646e277420626520616464726560008201527f7373283029000000000000000000000000000000000000000000000000000000602082015250565b6000611567602583611327565b91506115728261150b565b604082019050919050565b600060208201905081810360008301526115968161155a565b9050919050565b7f53656e646572206973206e6f7420616e2061646d696e21000000000000000000600082015250565b60006115d3601783611327565b91506115de8261159d565b602082019050919050565b60006020820190508181036000830152611602816115c6565b9050919050565b7f416464726573732073686f756c646e2774206265203000000000000000000000600082015250565b600061163f601683611327565b915061164a82611609565b602082019050919050565b6000602082019050818103600083015261166e81611632565b9050919050565b600060408201905061168a60008301856111f7565b61169760208301846111f7565b9392505050565b7f4e616d65206c656e6774682073686f756c646e27742062652030000000000000600082015250565b60006116d4601a83611327565b91506116df8261169e565b602082019050919050565b60006020820190508181036000830152611703816116c7565b9050919050565b7f4d61726b657420616c7265616479206164646564000000000000000000000000600082015250565b6000611740601483611327565b915061174b8261170a565b602082019050919050565b6000602082019050818103600083015261176f81611733565b9050919050565b7f4e487b7100000000000000000000000000000000000000000000000000000000600052601160045260246000fd5b60006117b082611194565b91506117bb83611194565b9250827fffffffffffffffffffffffffffffffffffffffffffffffffffffffffffffffff038211156117f0576117ef611776565b5b828201905092915050565b7f4e487b7100000000000000000000000000000000000000000000000000000000600052602260045260246000fd5b6000600282049050600182168061184257607f821691505b602082108103611855576118546117fb565b5b50919050565b7f4f776e61626c653a206e6577206f776e657220697320746865207a65726f206160008201527f6464726573730000000000000000000000000000000000000000000000000000602082015250565b60006118b7602683611327565b91506118c28261185b565b604082019050919050565b600060208201905081810360008301526118e6816118aa565b9050919050565b7f4f776e61626c653a2063616c6c6572206973206e6f7420746865206f776e6572600082015250565b6000611923602083611327565b915061192e826118ed565b602082019050919050565b6000602082019050818103600083015261195281611916565b905091905056fea264697066735822122007f15a50f9210d028763541d139c26eda5d8402ce9050bc847427f3592db837364736f6c634300080d0033",
  "linkReferences": {},
  "deployedLinkReferences": {}
}