{
  "_format": "hh-sol-artifact-1",
  "contractName": "Marketplace",
  "sourceName": "contracts/Marketplace.sol",
  "abi": [
    {
      "anonymous": false,
      "inputs": [
        {
          "indexed": true,
          "internalType": "address",
          "name": "previousOwner",
          "type": "address"
        },
        {
          "indexed": true,
          "internalType": "address",
          "name": "newOwner",
          "type": "address"
        }
      ],
      "name": "OwnershipTransferred",
      "type": "event"
    },
    {
      "inputs": [
        {
          "internalType": "address",
          "name": "contractAddress",
          "type": "address"
        },
        {
          "internalType": "string",
          "name": "name",
          "type": "string"
        }
      ],
      "name": "addContract",
      "outputs": [],
      "stateMutability": "nonpayable",
      "type": "function"
    },
    {
      "inputs": [
        {
          "internalType": "address",
          "name": "courier",
          "type": "address"
        }
      ],
      "name": "addCourier",
      "outputs": [],
      "stateMutability": "nonpayable",
      "type": "function"
    },
    {
      "inputs": [
        {
          "internalType": "address",
          "name": "",
          "type": "address"
        }
      ],
      "name": "couriers",
      "outputs": [
        {
          "internalType": "bool",
          "name": "",
          "type": "bool"
        }
      ],
      "stateMutability": "view",
      "type": "function"
    },
    {
      "inputs": [],
      "name": "getMarketAddresses",
      "outputs": [
        {
          "internalType": "address[]",
          "name": "",
          "type": "address[]"
        }
      ],
      "stateMutability": "view",
      "type": "function"
    },
    {
      "inputs": [
        {
          "internalType": "uint256",
          "name": "",
          "type": "uint256"
        }
      ],
      "name": "marketAddresses",
      "outputs": [
        {
          "internalType": "address",
          "name": "",
          "type": "address"
        }
      ],
      "stateMutability": "view",
      "type": "function"
    },
    {
      "inputs": [],
      "name": "marketCount",
      "outputs": [
        {
          "internalType": "uint256",
          "name": "",
          "type": "uint256"
        }
      ],
      "stateMutability": "view",
      "type": "function"
    },
    {
      "inputs": [
        {
          "internalType": "address",
          "name": "",
          "type": "address"
        }
      ],
      "name": "markets",
      "outputs": [
        {
          "internalType": "address",
          "name": "contractAddress",
          "type": "address"
        },
        {
          "internalType": "address",
          "name": "addedBy",
          "type": "address"
        },
        {
          "internalType": "string",
          "name": "name",
          "type": "string"
        },
        {
          "internalType": "uint256",
          "name": "addDate",
          "type": "uint256"
        }
      ],
      "stateMutability": "view",
      "type": "function"
    },
    {
      "inputs": [],
      "name": "myToken",
      "outputs": [
        {
          "internalType": "address",
          "name": "",
          "type": "address"
        }
      ],
      "stateMutability": "view",
      "type": "function"
    },
    {
      "inputs": [],
      "name": "owner",
      "outputs": [
        {
          "internalType": "address",
          "name": "",
          "type": "address"
        }
      ],
      "stateMutability": "view",
      "type": "function"
    },
    {
      "inputs": [
        {
          "internalType": "address",
          "name": "courier",
          "type": "address"
        }
      ],
      "name": "removeCourier",
      "outputs": [],
      "stateMutability": "nonpayable",
      "type": "function"
    },
    {
      "inputs": [],
      "name": "renounceOwnership",
      "outputs": [],
      "stateMutability": "nonpayable",
      "type": "function"
    },
    {
      "inputs": [
        {
          "internalType": "address",
          "name": "_token",
          "type": "address"
        }
      ],
      "name": "setToken",
      "outputs": [],
      "stateMutability": "nonpayable",
      "type": "function"
    },
    {
      "inputs": [
        {
          "internalType": "address",
          "name": "newOwner",
          "type": "address"
        }
      ],
      "name": "transferOwnership",
      "outputs": [],
      "stateMutability": "nonpayable",
      "type": "function"
    },
    {
      "stateMutability": "payable",
      "type": "receive"
    }
  ],
  "bytecode": "0x608060405234801561001057600080fd5b5061002d61002261003260201b60201c565b61003a60201b60201c565b6100fe565b600033905090565b60008060009054906101000a900473ffffffffffffffffffffffffffffffffffffffff169050816000806101000a81548173ffffffffffffffffffffffffffffffffffffffff021916908373ffffffffffffffffffffffffffffffffffffffff1602179055508173ffffffffffffffffffffffffffffffffffffffff168173ffffffffffffffffffffffffffffffffffffffff167f8be0079c531659141344cd1fd0a4f28419497f9722a3daafe3b4186f6b6457e060405160405180910390a35050565b611c138061010d6000396000f3fe6080604052600436106100c65760003560e01c80638da5cb5b1161007f578063b8fcf93711610059578063b8fcf93714610260578063ccd5fcb91461028b578063ec979082146102c8578063f2fde38b146102f3576100cd565b80638da5cb5b146101ca5780638e8f294b146101f557806397ce0d3114610235576100cd565b8063144fa6d7146100d25780632445d6d7146100fb578063350293a1146101245780634300e8ef146101615780636fd5483a1461018a578063715018a6146101b3576100cd565b366100cd57005b600080fd5b3480156100de57600080fd5b506100f960048036038101906100f49190611480565b61031c565b005b34801561010757600080fd5b50610122600480360381019061011d9190611480565b61050b565b005b34801561013057600080fd5b5061014b600480360381019061014691906114e3565b610711565b604051610158919061151f565b60405180910390f35b34801561016d57600080fd5b506101886004803603810190610183919061159f565b610750565b005b34801561019657600080fd5b506101b160048036038101906101ac9190611480565b610e2c565b005b3480156101bf57600080fd5b506101c8610f12565b005b3480156101d657600080fd5b506101df610f26565b6040516101ec919061151f565b60405180910390f35b34801561020157600080fd5b5061021c60048036038101906102179190611480565b610f4f565b60405161022c94939291906116a7565b60405180910390f35b34801561024157600080fd5b5061024a611047565b60405161025791906117b1565b60405180910390f35b34801561026c57600080fd5b50610275611159565b604051610282919061151f565b60405180910390f35b34801561029757600080fd5b506102b260048036038101906102ad9190611480565b61117f565b6040516102bf91906117ee565b60405180910390f35b3480156102d457600080fd5b506102dd61119f565b6040516102ea9190611809565b60405180910390f35b3480156102ff57600080fd5b5061031a60048036038101906103159190611480565b6111a5565b005b610324611228565b6103507f8a2fae6a87bc36e7f0c91e4308f0441f7b24e7d57248d660ad36947396d5ab1960001b6112a6565b61037c7ff7bf89dac91d33fc82c8576f18958b9b075c70e607a59b2c86c1c2856e04a98360001b6112a6565b6103a87f03547234087e1e23649869066829619e97dda0fd51b85031a55b6c33d724a9dd60001b6112a6565b6103d47f578d2108201c0d026834352c35763878fff1f9d0b5adc236fbdf2932a37f07ca60001b6112a6565b600073ffffffffffffffffffffffffffffffffffffffff168173ffffffffffffffffffffffffffffffffffffffff1603610443576040517f08c379a000000000000000000000000000000000000000000000000000000000815260040161043a90611896565b60405180910390fd5b61046f7f9ffaab1fee5a2dc0479a5ebb6ca5b2f7a20cda3a8522a630dcc4a52165d647be60001b6112a6565b61049b7f73807c64d12d1f6de37dcd3271bd995d628a06b3135d7748c1ead6eed5c062d260001b6112a6565b6104c77f74a15448aac5789b3eb6e85d01481a78d54828802dc4cf5c58b413c149490dab60001b6112a6565b80600160006101000a81548173ffffffffffffffffffffffffffffffffffffffff021916908373ffffffffffffffffffffffffffffffffffffffff16021790555050565b610513611228565b61053f7fba315f4daaeb83f7bf836948bac1af6cf9933fc47e5ac1f947b6c1152bdb50f260001b6112a6565b61056b7f42f8ddb27cca044d296dd8fdc362c60e5c12a3fb0f2b946500525fbbb938b89960001b6112a6565b6105977fe375e6932cf952c7733ca4c930234602f6a7dbc5dbbf72ca72e10f9ac3a4544660001b6112a6565b6105c37ffbf38c19413f001d775b25393faadf52d0edf5988cfa510b805e075ff2d3bb4660001b6112a6565b600073ffffffffffffffffffffffffffffffffffffffff168173ffffffffffffffffffffffffffffffffffffffff1603610632576040517f08c379a000000000000000000000000000000000000000000000000000000000815260040161062990611902565b60405180910390fd5b61065e7f1f9e780a3a9a249cb29136932aecc8b3c886c91572286dde52bab11ff565b56160001b6112a6565b61068a7fc69b3ab8b04000898037ccfd13c948ce6577a1a4122ed74df825c088bdf5e3e060001b6112a6565b6106b67f86319745322404c7b862acd7a788eb3b9cbdaccb5244f3d9b7d02798c1ab217160001b6112a6565b6001600560008373ffffffffffffffffffffffffffffffffffffffff1673ffffffffffffffffffffffffffffffffffffffff16815260200190815260200160002060006101000a81548160ff02191690831515021790555050565b6002818154811061072157600080fd5b906000526020600020016000915054906101000a900473ffffffffffffffffffffffffffffffffffffffff1681565b610758611228565b6107847f9eb59db4b3133132bc25669075181ae74cdec693097b46948d2fee6397ca8bd960001b6112a6565b6107b07f20d161743128606d910d23ae1ccc3cd8f652ce3ed903f96ebd9c8f496e7f5e4d60001b6112a6565b6107dc7f9fa933485fc08b0c580b94e0b9205f7bb989874eb7bd9823c4bafe1c84360d1460001b6112a6565b6108087f4f7a7de00e109f7d93e27794f591e4b6b54fd9697bc142c99ac23775fe25859960001b6112a6565b600073ffffffffffffffffffffffffffffffffffffffff168373ffffffffffffffffffffffffffffffffffffffff1603610877576040517f08c379a000000000000000000000000000000000000000000000000000000000815260040161086e90611902565b60405180910390fd5b6108a37f47b5a9d5600c960a10679e5e77617a77d9787bed0ef4d64377bbe25c57680bc660001b6112a6565b6108cf7fd28ae943cbb7c16bc53b975c5aa1cfedd6af9639f969fea3d28e6970ce411f5f60001b6112a6565b6108fb7f1a3dfe7e806953968d6f49bf14aefa2e51dd48a49478277bc460e38109a6c74e60001b6112a6565b6109277fa2aa451205dc4cb7f128415944afb8a547d373eaa59371c4a38471b53679f1a660001b6112a6565b6000828290500361096d576040517f08c379a00000000000000000000000000000000000000000000000000000000081526004016109649061196e565b60405180910390fd5b6109997fe7208c14bc4c689dcfdadc01c0096d0cdaea6cf6d4cbaa1ddc3ad6681566c1b960001b6112a6565b6109c57f186a817de44cd9e8ca9061f894e8f0059deb9af12385d0a01660e95d095b111a60001b6112a6565b6109f17fda269239b9c8dc88c0d3197dcb0d27220a33bfbac83f43a3460d7dd9d48b5dd160001b6112a6565b610a1d7f582c43f5c0c61f12753d2533bfd65acddf5678638ee96119b3f02cc09bab826f60001b6112a6565b600073ffffffffffffffffffffffffffffffffffffffff16600460008573ffffffffffffffffffffffffffffffffffffffff1673ffffffffffffffffffffffffffffffffffffffff16815260200190815260200160002060000160009054906101000a900473ffffffffffffffffffffffffffffffffffffffff1673ffffffffffffffffffffffffffffffffffffffff1614610aee576040517f08c379a0000000000000000000000000000000000000000000000000000000008152600401610ae5906119da565b60405180910390fd5b610b1a7fb707a0d87f80edf9b342a3a2b78cccfb5951079df7c8b6638495d8927799e5f560001b6112a6565b610b467fef5b7d95abad791096b80455861677269cc6203199efee9acfb545687dc56acc60001b6112a6565b610b727fa88a9c919e74f8e6514c45fd87ad4f7f93b11e14503cc90f166e18ab5b4dfe0460001b6112a6565b60405180608001604052808473ffffffffffffffffffffffffffffffffffffffff1681526020013373ffffffffffffffffffffffffffffffffffffffff16815260200183838080601f016020809104026020016040519081016040528093929190818152602001838380828437600081840152601f19601f82011690508083019250505050505050815260200142815250600460008573ffffffffffffffffffffffffffffffffffffffff1673ffffffffffffffffffffffffffffffffffffffff16815260200190815260200160002060008201518160000160006101000a81548173ffffffffffffffffffffffffffffffffffffffff021916908373ffffffffffffffffffffffffffffffffffffffff16021790555060208201518160010160006101000a81548173ffffffffffffffffffffffffffffffffffffffff021916908373ffffffffffffffffffffffffffffffffffffffff1602179055506040820151816002019080519060200190610cec929190611375565b5060608201518160030155905050610d267f7d65e7bb008c006fab37a25dd55079e3e7e32010fc0045955b29c719398fcc1360001b6112a6565b610d527fdb2eb7331b18fe46cda3f0b163adbb96fca00e8337cd30954a9106a2cdac5cb260001b6112a6565b6002839080600181540180825580915050600190039060005260206000200160009091909190916101000a81548173ffffffffffffffffffffffffffffffffffffffff021916908373ffffffffffffffffffffffffffffffffffffffff160217905550610de17fdc3821ff2f9ea66f7c3dc736ba07dc4dbc5f1856bb33c8f54e904455c3089c6560001b6112a6565b610e0d7fa9fff8e9a36c64db8ad3e5dd957c851a963d6a283a0f44bb30c32120de22d94a60001b6112a6565b600160036000828254610e209190611a29565b92505081905550505050565b610e34611228565b610e5f7e65946da9ee8efb551243f204fef53b55dee42408b21c0358f73d2509b36dd160001b6112a6565b610e8b7f93a60c64f6545ab4d9f607b4dcad7631068d0b1a7e17b4a2fdf99878762566c560001b6112a6565b610eb77f17a642b63a89757c66771575d50f7a962e510aa95a047a2846b074dbcb0af83460001b6112a6565b6000600560008373ffffffffffffffffffffffffffffffffffffffff1673ffffffffffffffffffffffffffffffffffffffff16815260200190815260200160002060006101000a81548160ff02191690831515021790555050565b610f1a611228565b610f2460006112a9565b565b60008060009054906101000a900473ffffffffffffffffffffffffffffffffffffffff16905090565b60046020528060005260406000206000915090508060000160009054906101000a900473ffffffffffffffffffffffffffffffffffffffff16908060010160009054906101000a900473ffffffffffffffffffffffffffffffffffffffff1690806002018054610fbe90611aae565b80601f0160208091040260200160405190810160405280929190818152602001828054610fea90611aae565b80156110375780601f1061100c57610100808354040283529160200191611037565b820191906000526020600020905b81548152906001019060200180831161101a57829003601f168201915b5050505050908060030154905084565b60606110757f62e0bde16c036feb7999c61b7c7b7b992103b4e2b582b78a911ebd88a284897f60001b6112a6565b6110a17f93c4687281bceb7c9a05b93a5742dbd6a31f2b328a12e99c9df3c529c5ba7f0760001b6112a6565b6110cd7f80f1a84f28638682ff3fe3c23464ef1fbe8a2a334e78b7dd40b348b90f19eea360001b6112a6565b600280548060200260200160405190810160405280929190818152602001828054801561114f57602002820191906000526020600020905b8160009054906101000a900473ffffffffffffffffffffffffffffffffffffffff1673ffffffffffffffffffffffffffffffffffffffff1681526020019060010190808311611105575b5050505050905090565b600160009054906101000a900473ffffffffffffffffffffffffffffffffffffffff1681565b60056020528060005260406000206000915054906101000a900460ff1681565b60035481565b6111ad611228565b600073ffffffffffffffffffffffffffffffffffffffff168173ffffffffffffffffffffffffffffffffffffffff160361121c576040517f08c379a000000000000000000000000000000000000000000000000000000000815260040161121390611b51565b60405180910390fd5b611225816112a9565b50565b61123061136d565b73ffffffffffffffffffffffffffffffffffffffff1661124e610f26565b73ffffffffffffffffffffffffffffffffffffffff16146112a4576040517f08c379a000000000000000000000000000000000000000000000000000000000815260040161129b90611bbd565b60405180910390fd5b565b50565b60008060009054906101000a900473ffffffffffffffffffffffffffffffffffffffff169050816000806101000a81548173ffffffffffffffffffffffffffffffffffffffff021916908373ffffffffffffffffffffffffffffffffffffffff1602179055508173ffffffffffffffffffffffffffffffffffffffff168173ffffffffffffffffffffffffffffffffffffffff167f8be0079c531659141344cd1fd0a4f28419497f9722a3daafe3b4186f6b6457e060405160405180910390a35050565b600033905090565b82805461138190611aae565b90600052602060002090601f0160209004810192826113a357600085556113ea565b82601f106113bc57805160ff19168380011785556113ea565b828001600101855582156113ea579182015b828111156113e95782518255916020019190600101906113ce565b5b5090506113f791906113fb565b5090565b5b808211156114145760008160009055506001016113fc565b5090565b600080fd5b600080fd5b600073ffffffffffffffffffffffffffffffffffffffff82169050919050565b600061144d82611422565b9050919050565b61145d81611442565b811461146857600080fd5b50565b60008135905061147a81611454565b92915050565b60006020828403121561149657611495611418565b5b60006114a48482850161146b565b91505092915050565b6000819050919050565b6114c0816114ad565b81146114cb57600080fd5b50565b6000813590506114dd816114b7565b92915050565b6000602082840312156114f9576114f8611418565b5b6000611507848285016114ce565b91505092915050565b61151981611442565b82525050565b60006020820190506115346000830184611510565b92915050565b600080fd5b600080fd5b600080fd5b60008083601f84011261155f5761155e61153a565b5b8235905067ffffffffffffffff81111561157c5761157b61153f565b5b60208301915083600182028301111561159857611597611544565b5b9250929050565b6000806000604084860312156115b8576115b7611418565b5b60006115c68682870161146b565b935050602084013567ffffffffffffffff8111156115e7576115e661141d565b5b6115f386828701611549565b92509250509250925092565b600081519050919050565b600082825260208201905092915050565b60005b8381101561163957808201518184015260208101905061161e565b83811115611648576000848401525b50505050565b6000601f19601f8301169050919050565b600061166a826115ff565b611674818561160a565b935061168481856020860161161b565b61168d8161164e565b840191505092915050565b6116a1816114ad565b82525050565b60006080820190506116bc6000830187611510565b6116c96020830186611510565b81810360408301526116db818561165f565b90506116ea6060830184611698565b95945050505050565b600081519050919050565b600082825260208201905092915050565b6000819050602082019050919050565b61172881611442565b82525050565b600061173a838361171f565b60208301905092915050565b6000602082019050919050565b600061175e826116f3565b61176881856116fe565b93506117738361170f565b8060005b838110156117a457815161178b888261172e565b975061179683611746565b925050600181019050611777565b5085935050505092915050565b600060208201905081810360008301526117cb8184611753565b905092915050565b60008115159050919050565b6117e8816117d3565b82525050565b600060208201905061180360008301846117df565b92915050565b600060208201905061181e6000830184611698565b92915050565b7f546f6b656e20616464726573732073686f756c646e277420626520616464726560008201527f7373283029000000000000000000000000000000000000000000000000000000602082015250565b600061188060258361160a565b915061188b82611824565b604082019050919050565b600060208201905081810360008301526118af81611873565b9050919050565b7f416464726573732073686f756c646e2774206265203000000000000000000000600082015250565b60006118ec60168361160a565b91506118f7826118b6565b602082019050919050565b6000602082019050818103600083015261191b816118df565b9050919050565b7f4e616d65206c656e6774682073686f756c646e27742062652030000000000000600082015250565b6000611958601a8361160a565b915061196382611922565b602082019050919050565b600060208201905081810360008301526119878161194b565b9050919050565b7f4d61726b657420616c7265616479206164646564000000000000000000000000600082015250565b60006119c460148361160a565b91506119cf8261198e565b602082019050919050565b600060208201905081810360008301526119f3816119b7565b9050919050565b7f4e487b7100000000000000000000000000000000000000000000000000000000600052601160045260246000fd5b6000611a34826114ad565b9150611a3f836114ad565b9250827fffffffffffffffffffffffffffffffffffffffffffffffffffffffffffffffff03821115611a7457611a736119fa565b5b828201905092915050565b7f4e487b7100000000000000000000000000000000000000000000000000000000600052602260045260246000fd5b60006002820490506001821680611ac657607f821691505b602082108103611ad957611ad8611a7f565b5b50919050565b7f4f776e61626c653a206e6577206f776e657220697320746865207a65726f206160008201527f6464726573730000000000000000000000000000000000000000000000000000602082015250565b6000611b3b60268361160a565b9150611b4682611adf565b604082019050919050565b60006020820190508181036000830152611b6a81611b2e565b9050919050565b7f4f776e61626c653a2063616c6c6572206973206e6f7420746865206f776e6572600082015250565b6000611ba760208361160a565b9150611bb282611b71565b602082019050919050565b60006020820190508181036000830152611bd681611b9a565b905091905056fea264697066735822122083e24481ff3288ba38642411caa92ec13ef189b06209700af5569d218b0fa9c764736f6c634300080d0033",
  "linkReferences": {},
  "deployedLinkReferences": {}
}