{
  "_format": "hh-sol-artifact-1",
  "contractName": "Marketplace",
  "sourceName": "contracts/Marketplace.sol",
  "abi": [
    {
      "anonymous": false,
      "inputs": [
        {
          "indexed": true,
          "internalType": "address",
          "name": "previousOwner",
          "type": "address"
        },
        {
          "indexed": true,
          "internalType": "address",
          "name": "newOwner",
          "type": "address"
        }
      ],
      "name": "OwnershipTransferred",
      "type": "event"
    },
    {
      "anonymous": false,
      "inputs": [
        {
          "indexed": false,
          "internalType": "address",
          "name": "adder",
          "type": "address"
        },
        {
          "indexed": false,
          "internalType": "address",
          "name": "courier",
          "type": "address"
        }
      ],
      "name": "addedCourier",
      "type": "event"
    },
    {
      "anonymous": false,
      "inputs": [
        {
          "indexed": false,
          "internalType": "address",
          "name": "remover",
          "type": "address"
        },
        {
          "indexed": false,
          "internalType": "address",
          "name": "courier",
          "type": "address"
        }
      ],
      "name": "removedCourier",
      "type": "event"
    },
    {
      "inputs": [
        {
          "internalType": "address",
          "name": "admin",
          "type": "address"
        }
      ],
      "name": "addAdmin",
      "outputs": [],
      "stateMutability": "nonpayable",
      "type": "function"
    },
    {
      "inputs": [
        {
          "internalType": "address",
          "name": "contractAddress",
          "type": "address"
        },
        {
          "internalType": "string",
          "name": "name",
          "type": "string"
        }
      ],
      "name": "addContract",
      "outputs": [],
      "stateMutability": "nonpayable",
      "type": "function"
    },
    {
      "inputs": [
        {
          "internalType": "address",
          "name": "courier",
          "type": "address"
        }
      ],
      "name": "addCourier",
      "outputs": [],
      "stateMutability": "nonpayable",
      "type": "function"
    },
    {
      "inputs": [
        {
          "internalType": "address",
          "name": "",
          "type": "address"
        }
      ],
      "name": "admins",
      "outputs": [
        {
          "internalType": "bool",
          "name": "",
          "type": "bool"
        }
      ],
      "stateMutability": "view",
      "type": "function"
    },
    {
      "inputs": [
        {
          "internalType": "address",
          "name": "",
          "type": "address"
        }
      ],
      "name": "couriers",
      "outputs": [
        {
          "internalType": "bool",
          "name": "",
          "type": "bool"
        }
      ],
      "stateMutability": "view",
      "type": "function"
    },
    {
      "inputs": [],
      "name": "getMarketAddresses",
      "outputs": [
        {
          "internalType": "address[]",
          "name": "",
          "type": "address[]"
        }
      ],
      "stateMutability": "view",
      "type": "function"
    },
    {
      "inputs": [
        {
          "internalType": "uint256",
          "name": "",
          "type": "uint256"
        }
      ],
      "name": "marketAddresses",
      "outputs": [
        {
          "internalType": "address",
          "name": "",
          "type": "address"
        }
      ],
      "stateMutability": "view",
      "type": "function"
    },
    {
      "inputs": [],
      "name": "marketCount",
      "outputs": [
        {
          "internalType": "uint256",
          "name": "",
          "type": "uint256"
        }
      ],
      "stateMutability": "view",
      "type": "function"
    },
    {
      "inputs": [
        {
          "internalType": "address",
          "name": "",
          "type": "address"
        }
      ],
      "name": "markets",
      "outputs": [
        {
          "internalType": "address",
          "name": "contractAddress",
          "type": "address"
        },
        {
          "internalType": "address",
          "name": "addedBy",
          "type": "address"
        },
        {
          "internalType": "string",
          "name": "name",
          "type": "string"
        },
        {
          "internalType": "uint256",
          "name": "addDate",
          "type": "uint256"
        }
      ],
      "stateMutability": "view",
      "type": "function"
    },
    {
      "inputs": [],
      "name": "myToken",
      "outputs": [
        {
          "internalType": "address",
          "name": "",
          "type": "address"
        }
      ],
      "stateMutability": "view",
      "type": "function"
    },
    {
      "inputs": [],
      "name": "owner",
      "outputs": [
        {
          "internalType": "address",
          "name": "",
          "type": "address"
        }
      ],
      "stateMutability": "view",
      "type": "function"
    },
    {
      "inputs": [
        {
          "internalType": "address",
          "name": "admin",
          "type": "address"
        }
      ],
      "name": "removeAdmin",
      "outputs": [],
      "stateMutability": "nonpayable",
      "type": "function"
    },
    {
      "inputs": [
        {
          "internalType": "address",
          "name": "courier",
          "type": "address"
        }
      ],
      "name": "removeCourier",
      "outputs": [],
      "stateMutability": "nonpayable",
      "type": "function"
    },
    {
      "inputs": [],
      "name": "renounceOwnership",
      "outputs": [],
      "stateMutability": "nonpayable",
      "type": "function"
    },
    {
      "inputs": [
        {
          "internalType": "address",
          "name": "_token",
          "type": "address"
        }
      ],
      "name": "setToken",
      "outputs": [],
      "stateMutability": "nonpayable",
      "type": "function"
    },
    {
      "inputs": [
        {
          "internalType": "address",
          "name": "newOwner",
          "type": "address"
        }
      ],
      "name": "transferOwnership",
      "outputs": [],
      "stateMutability": "nonpayable",
      "type": "function"
    },
    {
      "stateMutability": "payable",
      "type": "receive"
    }
  ],
  "bytecode": "0x60806040523480156200001157600080fd5b5062000032620000266200003860201b60201c565b6200004060201b60201c565b62000104565b600033905090565b60008060009054906101000a900473ffffffffffffffffffffffffffffffffffffffff169050816000806101000a81548173ffffffffffffffffffffffffffffffffffffffff021916908373ffffffffffffffffffffffffffffffffffffffff1602179055508173ffffffffffffffffffffffffffffffffffffffff168173ffffffffffffffffffffffffffffffffffffffff167f8be0079c531659141344cd1fd0a4f28419497f9722a3daafe3b4186f6b6457e060405160405180910390a35050565b6124bd80620001146000396000f3fe6080604052600436106100f75760003560e01c8063715018a61161008a578063b8fcf93711610059578063b8fcf93714610320578063ccd5fcb91461034b578063ec97908214610388578063f2fde38b146103b3576100fe565b8063715018a6146102735780638da5cb5b1461028a5780638e8f294b146102b557806397ce0d31146102f5576100fe565b8063429b62e5116100c6578063429b62e5146101bb5780634300e8ef146101f85780636fd5483a14610221578063704802751461024a576100fe565b8063144fa6d7146101035780631785f53c1461012c5780632445d6d714610155578063350293a11461017e576100fe565b366100fe57005b600080fd5b34801561010f57600080fd5b5061012a60048036038101906101259190611c95565b6103dc565b005b34801561013857600080fd5b50610153600480360381019061014e9190611c95565b6105cb565b005b34801561016157600080fd5b5061017c60048036038101906101779190611c95565b6106b1565b005b34801561018a57600080fd5b506101a560048036038101906101a09190611cf8565b610adb565b6040516101b29190611d34565b60405180910390f35b3480156101c757600080fd5b506101e260048036038101906101dd9190611c95565b610b1a565b6040516101ef9190611d6a565b60405180910390f35b34801561020457600080fd5b5061021f600480360381019061021a9190611dea565b610b3a565b005b34801561022d57600080fd5b5061024860048036038101906102439190611c95565b611216565b005b34801561025657600080fd5b50610271600480360381019061026c9190611c95565b611521565b005b34801561027f57600080fd5b50610288611727565b005b34801561029657600080fd5b5061029f61173b565b6040516102ac9190611d34565b60405180910390f35b3480156102c157600080fd5b506102dc60048036038101906102d79190611c95565b611764565b6040516102ec9493929190611ef2565b60405180910390f35b34801561030157600080fd5b5061030a61185c565b6040516103179190611ffc565b60405180910390f35b34801561032c57600080fd5b5061033561196e565b6040516103429190611d34565b60405180910390f35b34801561035757600080fd5b50610372600480360381019061036d9190611c95565b611994565b60405161037f9190611d6a565b60405180910390f35b34801561039457600080fd5b5061039d6119b4565b6040516103aa919061201e565b60405180910390f35b3480156103bf57600080fd5b506103da60048036038101906103d59190611c95565b6119ba565b005b6103e4611a3d565b6104107fc2d3a91dcc136f72ef2b676b4a20576b763334842068b873885f80e9351c6f0660001b611abb565b61043c7fd86d143d27b0ae71fee2f233bd290e249516bf31fea8766ee93ff896275c169060001b611abb565b6104687fae06f24fa1f14fb194ee6738191ee2f27a2f23e72322965a7f7cf3e349ef95c560001b611abb565b6104947f33d57be890acd4993a7d20471b447eb40964c06da876ec14315a3a6bc23114b660001b611abb565b600073ffffffffffffffffffffffffffffffffffffffff168173ffffffffffffffffffffffffffffffffffffffff1603610503576040517f08c379a00000000000000000000000000000000000000000000000000000000081526004016104fa906120ab565b60405180910390fd5b61052f7f7be0d8ae16bbed01152b62d177044c974aed34e1b568a7abd4b5db4c539fc12e60001b611abb565b61055b7fe3023edc25aa3408b4cd01301d8a70591650f64a8d4ed81e2df26d3a8c35dd6460001b611abb565b6105877f3884522b4ae002830700da87af83dd3f6b810b55a1fd49520e3e80aa640d3cb060001b611abb565b80600160006101000a81548173ffffffffffffffffffffffffffffffffffffffff021916908373ffffffffffffffffffffffffffffffffffffffff16021790555050565b6105d3611a3d565b6105fe7e65946da9ee8efb551243f204fef53b55dee42408b21c0358f73d2509b36dd160001b611abb565b61062a7f93a60c64f6545ab4d9f607b4dcad7631068d0b1a7e17b4a2fdf99878762566c560001b611abb565b6106567f17a642b63a89757c66771575d50f7a962e510aa95a047a2846b074dbcb0af83460001b611abb565b6000600660008373ffffffffffffffffffffffffffffffffffffffff1673ffffffffffffffffffffffffffffffffffffffff16815260200190815260200160002060006101000a81548160ff02191690831515021790555050565b6106dd7fe8268eb4c165518ef5f2383dc203587c341d81930185ad16ee51040fc030920760001b611abb565b6107097fa13ab4ca3ac2e7c2e90c4842f66b06a62ea914b3b354ad37f29c86f1a249683f60001b611abb565b6107357f8596f68e1802e614d7b11f8161db167c097c124a6905f4b73339e20dc33091a760001b611abb565b6107617f24ef6f11831c19df8d29725834b810b8a441d823d9f6bc5debe920957c0fe2f760001b611abb565b60011515600660003373ffffffffffffffffffffffffffffffffffffffff1673ffffffffffffffffffffffffffffffffffffffff16815260200190815260200160002060009054906101000a900460ff161515146107f4576040517f08c379a00000000000000000000000000000000000000000000000000000000081526004016107eb90612117565b60405180910390fd5b6108207f7afd3f2f5388cf2c6b1adcfd9fd433974506c91bcd9e089b07e81d6732cc0f3160001b611abb565b61084c7f85a6502f54619090c141f66dcf47fe1bec62678f9214837a497a3b771c5681bf60001b611abb565b6108787fd28ae943cbb7c16bc53b975c5aa1cfedd6af9639f969fea3d28e6970ce411f5f60001b611abb565b6108a47f1a3dfe7e806953968d6f49bf14aefa2e51dd48a49478277bc460e38109a6c74e60001b611abb565b6108d07fa2aa451205dc4cb7f128415944afb8a547d373eaa59371c4a38471b53679f1a660001b611abb565b6108fc7fe7208c14bc4c689dcfdadc01c0096d0cdaea6cf6d4cbaa1ddc3ad6681566c1b960001b611abb565b600073ffffffffffffffffffffffffffffffffffffffff168173ffffffffffffffffffffffffffffffffffffffff160361096b576040517f08c379a000000000000000000000000000000000000000000000000000000000815260040161096290612183565b60405180910390fd5b6109977f186a817de44cd9e8ca9061f894e8f0059deb9af12385d0a01660e95d095b111a60001b611abb565b6109c37fda269239b9c8dc88c0d3197dcb0d27220a33bfbac83f43a3460d7dd9d48b5dd160001b611abb565b6109ef7f582c43f5c0c61f12753d2533bfd65acddf5678638ee96119b3f02cc09bab826f60001b611abb565b6001600560008373ffffffffffffffffffffffffffffffffffffffff1673ffffffffffffffffffffffffffffffffffffffff16815260200190815260200160002060006101000a81548160ff021916908315150217905550610a737fb707a0d87f80edf9b342a3a2b78cccfb5951079df7c8b6638495d8927799e5f560001b611abb565b610a9f7fef5b7d95abad791096b80455861677269cc6203199efee9acfb545687dc56acc60001b611abb565b7f202a64435606eca406f1f3e4e6ad1260a474db2ab3b7652e903868ba1d0ad1393382604051610ad09291906121a3565b60405180910390a150565b60028181548110610aeb57600080fd5b906000526020600020016000915054906101000a900473ffffffffffffffffffffffffffffffffffffffff1681565b60066020528060005260406000206000915054906101000a900460ff1681565b610b42611a3d565b610b6e7f6ac847b117eb58b7dcbae5cf3db952e4b06d523c4234806be1c55bc7411f58e560001b611abb565b610b9a7f4134048b9a5d4128caaf309925166f027c2873734be3bd91dd3d54efa30c8a0860001b611abb565b610bc67f23601cb6c443da60fb4515bdc7c98ad19ad2508b279d5799e96eb21c20330dea60001b611abb565b610bf27fd06f48e5705e54db972a3d6098a017e55c022cccf86a55e43e23a4aedad0ecb260001b611abb565b600073ffffffffffffffffffffffffffffffffffffffff168373ffffffffffffffffffffffffffffffffffffffff1603610c61576040517f08c379a0000000000000000000000000000000000000000000000000000000008152600401610c5890612183565b60405180910390fd5b610c8d7f8a2fae6a87bc36e7f0c91e4308f0441f7b24e7d57248d660ad36947396d5ab1960001b611abb565b610cb97ff7bf89dac91d33fc82c8576f18958b9b075c70e607a59b2c86c1c2856e04a98360001b611abb565b610ce57f03547234087e1e23649869066829619e97dda0fd51b85031a55b6c33d724a9dd60001b611abb565b610d117f578d2108201c0d026834352c35763878fff1f9d0b5adc236fbdf2932a37f07ca60001b611abb565b60008282905003610d57576040517f08c379a0000000000000000000000000000000000000000000000000000000008152600401610d4e90612218565b60405180910390fd5b610d837f9ffaab1fee5a2dc0479a5ebb6ca5b2f7a20cda3a8522a630dcc4a52165d647be60001b611abb565b610daf7f73807c64d12d1f6de37dcd3271bd995d628a06b3135d7748c1ead6eed5c062d260001b611abb565b610ddb7f74a15448aac5789b3eb6e85d01481a78d54828802dc4cf5c58b413c149490dab60001b611abb565b610e077f62e0bde16c036feb7999c61b7c7b7b992103b4e2b582b78a911ebd88a284897f60001b611abb565b600073ffffffffffffffffffffffffffffffffffffffff16600460008573ffffffffffffffffffffffffffffffffffffffff1673ffffffffffffffffffffffffffffffffffffffff16815260200190815260200160002060000160009054906101000a900473ffffffffffffffffffffffffffffffffffffffff1673ffffffffffffffffffffffffffffffffffffffff1614610ed8576040517f08c379a0000000000000000000000000000000000000000000000000000000008152600401610ecf90612284565b60405180910390fd5b610f047f93c4687281bceb7c9a05b93a5742dbd6a31f2b328a12e99c9df3c529c5ba7f0760001b611abb565b610f307f80f1a84f28638682ff3fe3c23464ef1fbe8a2a334e78b7dd40b348b90f19eea360001b611abb565b610f5c7f9eb59db4b3133132bc25669075181ae74cdec693097b46948d2fee6397ca8bd960001b611abb565b60405180608001604052808473ffffffffffffffffffffffffffffffffffffffff1681526020013373ffffffffffffffffffffffffffffffffffffffff16815260200183838080601f016020809104026020016040519081016040528093929190818152602001838380828437600081840152601f19601f82011690508083019250505050505050815260200142815250600460008573ffffffffffffffffffffffffffffffffffffffff1673ffffffffffffffffffffffffffffffffffffffff16815260200190815260200160002060008201518160000160006101000a81548173ffffffffffffffffffffffffffffffffffffffff021916908373ffffffffffffffffffffffffffffffffffffffff16021790555060208201518160010160006101000a81548173ffffffffffffffffffffffffffffffffffffffff021916908373ffffffffffffffffffffffffffffffffffffffff16021790555060408201518160020190805190602001906110d6929190611b8a565b50606082015181600301559050506111107f20d161743128606d910d23ae1ccc3cd8f652ce3ed903f96ebd9c8f496e7f5e4d60001b611abb565b61113c7f9fa933485fc08b0c580b94e0b9205f7bb989874eb7bd9823c4bafe1c84360d1460001b611abb565b6002839080600181540180825580915050600190039060005260206000200160009091909190916101000a81548173ffffffffffffffffffffffffffffffffffffffff021916908373ffffffffffffffffffffffffffffffffffffffff1602179055506111cb7f4f7a7de00e109f7d93e27794f591e4b6b54fd9697bc142c99ac23775fe25859960001b611abb565b6111f77f47b5a9d5600c960a10679e5e77617a77d9787bed0ef4d64377bbe25c57680bc660001b611abb565b60016003600082825461120a91906122d3565b92505081905550505050565b6112427fe8268eb4c165518ef5f2383dc203587c341d81930185ad16ee51040fc030920760001b611abb565b61126e7fa13ab4ca3ac2e7c2e90c4842f66b06a62ea914b3b354ad37f29c86f1a249683f60001b611abb565b61129a7f8596f68e1802e614d7b11f8161db167c097c124a6905f4b73339e20dc33091a760001b611abb565b6112c67f24ef6f11831c19df8d29725834b810b8a441d823d9f6bc5debe920957c0fe2f760001b611abb565b60011515600660003373ffffffffffffffffffffffffffffffffffffffff1673ffffffffffffffffffffffffffffffffffffffff16815260200190815260200160002060009054906101000a900460ff16151514611359576040517f08c379a000000000000000000000000000000000000000000000000000000000815260040161135090612117565b60405180910390fd5b6113857f7afd3f2f5388cf2c6b1adcfd9fd433974506c91bcd9e089b07e81d6732cc0f3160001b611abb565b6113b17f85a6502f54619090c141f66dcf47fe1bec62678f9214837a497a3b771c5681bf60001b611abb565b6113dd7fa88a9c919e74f8e6514c45fd87ad4f7f93b11e14503cc90f166e18ab5b4dfe0460001b611abb565b6114097f7d65e7bb008c006fab37a25dd55079e3e7e32010fc0045955b29c719398fcc1360001b611abb565b6114357fdb2eb7331b18fe46cda3f0b163adbb96fca00e8337cd30954a9106a2cdac5cb260001b611abb565b6000600560008373ffffffffffffffffffffffffffffffffffffffff1673ffffffffffffffffffffffffffffffffffffffff16815260200190815260200160002060006101000a81548160ff0219169083151502179055506114b97fdc3821ff2f9ea66f7c3dc736ba07dc4dbc5f1856bb33c8f54e904455c3089c6560001b611abb565b6114e57fa9fff8e9a36c64db8ad3e5dd957c851a963d6a283a0f44bb30c32120de22d94a60001b611abb565b7f54f505827a06b8103699d7c737e591eaff7f2f13b6fb05708854f9f665878d1e33826040516115169291906121a3565b60405180910390a150565b611529611a3d565b6115557fba315f4daaeb83f7bf836948bac1af6cf9933fc47e5ac1f947b6c1152bdb50f260001b611abb565b6115817f42f8ddb27cca044d296dd8fdc362c60e5c12a3fb0f2b946500525fbbb938b89960001b611abb565b6115ad7fe375e6932cf952c7733ca4c930234602f6a7dbc5dbbf72ca72e10f9ac3a4544660001b611abb565b6115d97ffbf38c19413f001d775b25393faadf52d0edf5988cfa510b805e075ff2d3bb4660001b611abb565b600073ffffffffffffffffffffffffffffffffffffffff168173ffffffffffffffffffffffffffffffffffffffff1603611648576040517f08c379a000000000000000000000000000000000000000000000000000000000815260040161163f90612183565b60405180910390fd5b6116747f1f9e780a3a9a249cb29136932aecc8b3c886c91572286dde52bab11ff565b56160001b611abb565b6116a07fc69b3ab8b04000898037ccfd13c948ce6577a1a4122ed74df825c088bdf5e3e060001b611abb565b6116cc7f86319745322404c7b862acd7a788eb3b9cbdaccb5244f3d9b7d02798c1ab217160001b611abb565b6001600660008373ffffffffffffffffffffffffffffffffffffffff1673ffffffffffffffffffffffffffffffffffffffff16815260200190815260200160002060006101000a81548160ff02191690831515021790555050565b61172f611a3d565b6117396000611abe565b565b60008060009054906101000a900473ffffffffffffffffffffffffffffffffffffffff16905090565b60046020528060005260406000206000915090508060000160009054906101000a900473ffffffffffffffffffffffffffffffffffffffff16908060010160009054906101000a900473ffffffffffffffffffffffffffffffffffffffff16908060020180546117d390612358565b80601f01602080910402602001604051908101604052809291908181526020018280546117ff90612358565b801561184c5780601f106118215761010080835404028352916020019161184c565b820191906000526020600020905b81548152906001019060200180831161182f57829003601f168201915b5050505050908060030154905084565b606061188a7f6a2f0d2d4b732e837d76ec610e28735bb0f08ba8e08d3dd65c78f347e870fa4c60001b611abb565b6118b67fca8781e6cca83cacf52a04fd1bcdde735a1d0c8d8e7ff203a106c3f2b7aed39c60001b611abb565b6118e27fa9e23408e9f6623d0405c3e1bef0fe5043eae87d5a86f90fbe627f3b76c3e92e60001b611abb565b600280548060200260200160405190810160405280929190818152602001828054801561196457602002820191906000526020600020905b8160009054906101000a900473ffffffffffffffffffffffffffffffffffffffff1673ffffffffffffffffffffffffffffffffffffffff168152602001906001019080831161191a575b5050505050905090565b600160009054906101000a900473ffffffffffffffffffffffffffffffffffffffff1681565b60056020528060005260406000206000915054906101000a900460ff1681565b60035481565b6119c2611a3d565b600073ffffffffffffffffffffffffffffffffffffffff168173ffffffffffffffffffffffffffffffffffffffff1603611a31576040517f08c379a0000000000000000000000000000000000000000000000000000000008152600401611a28906123fb565b60405180910390fd5b611a3a81611abe565b50565b611a45611b82565b73ffffffffffffffffffffffffffffffffffffffff16611a6361173b565b73ffffffffffffffffffffffffffffffffffffffff1614611ab9576040517f08c379a0000000000000000000000000000000000000000000000000000000008152600401611ab090612467565b60405180910390fd5b565b50565b60008060009054906101000a900473ffffffffffffffffffffffffffffffffffffffff169050816000806101000a81548173ffffffffffffffffffffffffffffffffffffffff021916908373ffffffffffffffffffffffffffffffffffffffff1602179055508173ffffffffffffffffffffffffffffffffffffffff168173ffffffffffffffffffffffffffffffffffffffff167f8be0079c531659141344cd1fd0a4f28419497f9722a3daafe3b4186f6b6457e060405160405180910390a35050565b600033905090565b828054611b9690612358565b90600052602060002090601f016020900481019282611bb85760008555611bff565b82601f10611bd157805160ff1916838001178555611bff565b82800160010185558215611bff579182015b82811115611bfe578251825591602001919060010190611be3565b5b509050611c0c9190611c10565b5090565b5b80821115611c29576000816000905550600101611c11565b5090565b600080fd5b600080fd5b600073ffffffffffffffffffffffffffffffffffffffff82169050919050565b6000611c6282611c37565b9050919050565b611c7281611c57565b8114611c7d57600080fd5b50565b600081359050611c8f81611c69565b92915050565b600060208284031215611cab57611caa611c2d565b5b6000611cb984828501611c80565b91505092915050565b6000819050919050565b611cd581611cc2565b8114611ce057600080fd5b50565b600081359050611cf281611ccc565b92915050565b600060208284031215611d0e57611d0d611c2d565b5b6000611d1c84828501611ce3565b91505092915050565b611d2e81611c57565b82525050565b6000602082019050611d496000830184611d25565b92915050565b60008115159050919050565b611d6481611d4f565b82525050565b6000602082019050611d7f6000830184611d5b565b92915050565b600080fd5b600080fd5b600080fd5b60008083601f840112611daa57611da9611d85565b5b8235905067ffffffffffffffff811115611dc757611dc6611d8a565b5b602083019150836001820283011115611de357611de2611d8f565b5b9250929050565b600080600060408486031215611e0357611e02611c2d565b5b6000611e1186828701611c80565b935050602084013567ffffffffffffffff811115611e3257611e31611c32565b5b611e3e86828701611d94565b92509250509250925092565b600081519050919050565b600082825260208201905092915050565b60005b83811015611e84578082015181840152602081019050611e69565b83811115611e93576000848401525b50505050565b6000601f19601f8301169050919050565b6000611eb582611e4a565b611ebf8185611e55565b9350611ecf818560208601611e66565b611ed881611e99565b840191505092915050565b611eec81611cc2565b82525050565b6000608082019050611f076000830187611d25565b611f146020830186611d25565b8181036040830152611f268185611eaa565b9050611f356060830184611ee3565b95945050505050565b600081519050919050565b600082825260208201905092915050565b6000819050602082019050919050565b611f7381611c57565b82525050565b6000611f858383611f6a565b60208301905092915050565b6000602082019050919050565b6000611fa982611f3e565b611fb38185611f49565b9350611fbe83611f5a565b8060005b83811015611fef578151611fd68882611f79565b9750611fe183611f91565b925050600181019050611fc2565b5085935050505092915050565b600060208201905081810360008301526120168184611f9e565b905092915050565b60006020820190506120336000830184611ee3565b92915050565b7f546f6b656e20616464726573732073686f756c646e277420626520616464726560008201527f7373283029000000000000000000000000000000000000000000000000000000602082015250565b6000612095602583611e55565b91506120a082612039565b604082019050919050565b600060208201905081810360008301526120c481612088565b9050919050565b7f53656e646572206973206e6f7420616e2061646d696e21000000000000000000600082015250565b6000612101601783611e55565b915061210c826120cb565b602082019050919050565b60006020820190508181036000830152612130816120f4565b9050919050565b7f416464726573732073686f756c646e2774206265203000000000000000000000600082015250565b600061216d601683611e55565b915061217882612137565b602082019050919050565b6000602082019050818103600083015261219c81612160565b9050919050565b60006040820190506121b86000830185611d25565b6121c56020830184611d25565b9392505050565b7f4e616d65206c656e6774682073686f756c646e27742062652030000000000000600082015250565b6000612202601a83611e55565b915061220d826121cc565b602082019050919050565b60006020820190508181036000830152612231816121f5565b9050919050565b7f4d61726b657420616c7265616479206164646564000000000000000000000000600082015250565b600061226e601483611e55565b915061227982612238565b602082019050919050565b6000602082019050818103600083015261229d81612261565b9050919050565b7f4e487b7100000000000000000000000000000000000000000000000000000000600052601160045260246000fd5b60006122de82611cc2565b91506122e983611cc2565b9250827fffffffffffffffffffffffffffffffffffffffffffffffffffffffffffffffff0382111561231e5761231d6122a4565b5b828201905092915050565b7f4e487b7100000000000000000000000000000000000000000000000000000000600052602260045260246000fd5b6000600282049050600182168061237057607f821691505b60208210810361238357612382612329565b5b50919050565b7f4f776e61626c653a206e6577206f776e657220697320746865207a65726f206160008201527f6464726573730000000000000000000000000000000000000000000000000000602082015250565b60006123e5602683611e55565b91506123f082612389565b604082019050919050565b60006020820190508181036000830152612414816123d8565b9050919050565b7f4f776e61626c653a2063616c6c6572206973206e6f7420746865206f776e6572600082015250565b6000612451602083611e55565b915061245c8261241b565b602082019050919050565b6000602082019050818103600083015261248081612444565b905091905056fea2646970667358221220c03f6b2dab8183a9123e0cdb7f316a78907d13367446e160196990427db026d864736f6c634300080d0033",
  "linkReferences": {},
  "deployedLinkReferences": {}
}