{
  "_format": "hh-sol-artifact-1",
  "contractName": "SimpleAuction",
  "sourceName": "contracts/SimpleAuction.sol",
  "abi": [
    {
      "anonymous": false,
      "inputs": [
        {
          "indexed": true,
          "internalType": "address",
          "name": "previousOwner",
          "type": "address"
        },
        {
          "indexed": true,
          "internalType": "address",
          "name": "newOwner",
          "type": "address"
        }
      ],
      "name": "OwnershipTransferred",
      "type": "event"
    },
    {
      "anonymous": false,
      "inputs": [
        {
          "indexed": false,
          "internalType": "string",
          "name": "name",
          "type": "string"
        },
        {
          "indexed": false,
          "internalType": "uint256",
          "name": "minimalPrice",
          "type": "uint256"
        },
        {
          "indexed": false,
          "internalType": "address",
          "name": "seller",
          "type": "address"
        },
        {
          "indexed": false,
          "internalType": "uint256",
          "name": "index",
          "type": "uint256"
        }
      ],
      "name": "auctionProductAdded",
      "type": "event"
    },
    {
      "anonymous": false,
      "inputs": [
        {
          "indexed": false,
          "internalType": "uint256",
          "name": "index",
          "type": "uint256"
        },
        {
          "indexed": false,
          "internalType": "address",
          "name": "bidder",
          "type": "address"
        },
        {
          "indexed": false,
          "internalType": "uint256",
          "name": "amount",
          "type": "uint256"
        }
      ],
      "name": "auctionProductBid",
      "type": "event"
    },
    {
      "anonymous": false,
      "inputs": [
        {
          "indexed": false,
          "internalType": "uint256",
          "name": "index",
          "type": "uint256"
        },
        {
          "indexed": false,
          "internalType": "address",
          "name": "buyer",
          "type": "address"
        },
        {
          "indexed": false,
          "internalType": "address",
          "name": "courier",
          "type": "address"
        }
      ],
      "name": "auctionProductDelivered",
      "type": "event"
    },
    {
      "inputs": [
        {
          "internalType": "string",
          "name": "name",
          "type": "string"
        },
        {
          "internalType": "uint256",
          "name": "minimalPrice",
          "type": "uint256"
        },
        {
          "internalType": "string",
          "name": "link",
          "type": "string"
        },
        {
          "internalType": "bytes32",
          "name": "marketHashOfData",
          "type": "bytes32"
        },
        {
          "internalType": "uint256",
          "name": "finishDate",
          "type": "uint256"
        }
      ],
      "name": "addProduct",
      "outputs": [],
      "stateMutability": "nonpayable",
      "type": "function"
    },
    {
      "inputs": [],
      "name": "belongsToContract",
      "outputs": [
        {
          "internalType": "uint256",
          "name": "",
          "type": "uint256"
        }
      ],
      "stateMutability": "view",
      "type": "function"
    },
    {
      "inputs": [
        {
          "internalType": "uint256",
          "name": "index",
          "type": "uint256"
        },
        {
          "internalType": "bytes",
          "name": "deliveryInstructions",
          "type": "bytes"
        },
        {
          "internalType": "uint256",
          "name": "expiration",
          "type": "uint256"
        },
        {
          "internalType": "bytes32",
          "name": "nonce",
          "type": "bytes32"
        },
        {
          "internalType": "uint256",
          "name": "amount",
          "type": "uint256"
        },
        {
          "internalType": "address",
          "name": "from",
          "type": "address"
        },
        {
          "internalType": "bytes",
          "name": "sig",
          "type": "bytes"
        }
      ],
      "name": "bidForProduct",
      "outputs": [],
      "stateMutability": "payable",
      "type": "function"
    },
    {
      "inputs": [
        {
          "internalType": "uint256",
          "name": "index",
          "type": "uint256"
        }
      ],
      "name": "deliverProduct",
      "outputs": [],
      "stateMutability": "nonpayable",
      "type": "function"
    },
    {
      "inputs": [
        {
          "internalType": "address",
          "name": "seller",
          "type": "address"
        }
      ],
      "name": "getIndexesFromSellerAddress",
      "outputs": [
        {
          "internalType": "uint256[]",
          "name": "indexes",
          "type": "uint256[]"
        }
      ],
      "stateMutability": "view",
      "type": "function"
    },
    {
      "inputs": [
        {
          "internalType": "contract Marketplace",
          "name": "marketplace",
          "type": "address"
        }
      ],
      "name": "joinMarketplace",
      "outputs": [],
      "stateMutability": "nonpayable",
      "type": "function"
    },
    {
      "inputs": [
        {
          "internalType": "address",
          "name": "",
          "type": "address"
        },
        {
          "internalType": "uint256",
          "name": "",
          "type": "uint256"
        }
      ],
      "name": "owedMoneyToBidders",
      "outputs": [
        {
          "internalType": "uint256",
          "name": "",
          "type": "uint256"
        }
      ],
      "stateMutability": "view",
      "type": "function"
    },
    {
      "inputs": [],
      "name": "owner",
      "outputs": [
        {
          "internalType": "address",
          "name": "",
          "type": "address"
        }
      ],
      "stateMutability": "view",
      "type": "function"
    },
    {
      "inputs": [],
      "name": "ownerMarketplace",
      "outputs": [
        {
          "internalType": "contract Marketplace",
          "name": "",
          "type": "address"
        }
      ],
      "stateMutability": "view",
      "type": "function"
    },
    {
      "inputs": [],
      "name": "productCount",
      "outputs": [
        {
          "internalType": "uint256",
          "name": "",
          "type": "uint256"
        }
      ],
      "stateMutability": "view",
      "type": "function"
    },
    {
      "inputs": [
        {
          "internalType": "uint256",
          "name": "",
          "type": "uint256"
        }
      ],
      "name": "products",
      "outputs": [
        {
          "internalType": "string",
          "name": "name",
          "type": "string"
        },
        {
          "internalType": "uint256",
          "name": "minimalPrice",
          "type": "uint256"
        },
        {
          "internalType": "address",
          "name": "seller",
          "type": "address"
        },
        {
          "internalType": "uint256",
          "name": "addDate",
          "type": "uint256"
        },
        {
          "internalType": "string",
          "name": "linkForMedia",
          "type": "string"
        },
        {
          "internalType": "bytes32",
          "name": "marketHashOfData",
          "type": "bytes32"
        },
        {
          "internalType": "bool",
          "name": "approved",
          "type": "bool"
        },
        {
          "internalType": "bool",
          "name": "delivered",
          "type": "bool"
        },
        {
          "internalType": "bytes",
          "name": "deliveryInstructions",
          "type": "bytes"
        },
        {
          "internalType": "address",
          "name": "currentBidder",
          "type": "address"
        },
        {
          "internalType": "uint256",
          "name": "bidAmount",
          "type": "uint256"
        },
        {
          "internalType": "uint256",
          "name": "finishDate",
          "type": "uint256"
        }
      ],
      "stateMutability": "view",
      "type": "function"
    },
    {
      "inputs": [],
      "name": "renounceOwnership",
      "outputs": [],
      "stateMutability": "nonpayable",
      "type": "function"
    },
    {
      "inputs": [
        {
          "internalType": "address",
          "name": "",
          "type": "address"
        },
        {
          "internalType": "uint256",
          "name": "",
          "type": "uint256"
        }
      ],
      "name": "sellerToProductIndexes",
      "outputs": [
        {
          "internalType": "uint256",
          "name": "",
          "type": "uint256"
        }
      ],
      "stateMutability": "view",
      "type": "function"
    },
    {
      "inputs": [],
      "name": "transferFunds",
      "outputs": [],
      "stateMutability": "nonpayable",
      "type": "function"
    },
    {
      "inputs": [
        {
          "internalType": "address",
          "name": "newOwner",
          "type": "address"
        }
      ],
      "name": "transferOwnership",
      "outputs": [],
      "stateMutability": "nonpayable",
      "type": "function"
    }
  ],
  "bytecode": "0x6080604052600060025560006006553480156200001b57600080fd5b506200003c620000306200004260201b60201c565b6200004a60201b60201c565b6200010e565b600033905090565b60008060009054906101000a900473ffffffffffffffffffffffffffffffffffffffff169050816000806101000a81548173ffffffffffffffffffffffffffffffffffffffff021916908373ffffffffffffffffffffffffffffffffffffffff1602179055508173ffffffffffffffffffffffffffffffffffffffff168173ffffffffffffffffffffffffffffffffffffffff167f8be0079c531659141344cd1fd0a4f28419497f9722a3daafe3b4186f6b6457e060405160405180910390a35050565b614e9d806200011e6000396000f3fe6080604052600436106100e85760003560e01c80637a653f101161008a578063ac0b044511610059578063ac0b0445146102cc578063cb502b91146102f5578063e0f6ef8714610332578063f2fde38b1461035d576100e8565b80637a653f10146102005780637acc0b201461023d5780637c7432f1146102855780638da5cb5b146102a1576100e8565b80634353c0ee116100c65780634353c0ee146101585780635e7bef8a14610195578063660eb4a3146101be578063715018a6146101e9576100e8565b80631c96fb1f146100ed5780633c1b52c4146101165780633c68eb8114610141575b600080fd5b3480156100f957600080fd5b50610114600480360381019061010f91906139f6565b610386565b005b34801561012257600080fd5b5061012b61108a565b6040516101389190613a32565b60405180910390f35b34801561014d57600080fd5b50610156611090565b005b34801561016457600080fd5b5061017f600480360381019061017a9190613aab565b6115ff565b60405161018c9190613a32565b60405180910390f35b3480156101a157600080fd5b506101bc60048036038101906101b79190613b86565b611630565b005b3480156101ca57600080fd5b506101d3611ce9565b6040516101e09190613ca1565b60405180910390f35b3480156101f557600080fd5b506101fe611d0f565b005b34801561020c57600080fd5b5061022760048036038101906102229190613cbc565b611d23565b6040516102349190613da7565b60405180910390f35b34801561024957600080fd5b50610264600480360381019061025f91906139f6565b611e3e565b60405161027c9c9b9a99989796959493929190613ef0565b60405180910390f35b61029f600480360381019061029a9190614145565b612090565b005b3480156102ad57600080fd5b506102b66131a0565b6040516102c39190614223565b60405180910390f35b3480156102d857600080fd5b506102f360048036038101906102ee919061428e565b6131c9565b005b34801561030157600080fd5b5061031c60048036038101906103179190613aab565b6133b8565b6040516103299190613a32565b60405180910390f35b34801561033e57600080fd5b506103476133dd565b6040516103549190613a32565b60405180910390f35b34801561036957600080fd5b50610384600480360381019061037f9190613cbc565b6133e3565b005b6103b27fd57cf932bbdbe9b75591f4ef216047ef8193b39a1e25d3cc245916beda9371cd60001b613466565b6103de7f2b9f902c86470bf30c156c8bf23a9cd499484c118bdb016e4e143f882bcee09e60001b613466565b61040a7fe3d4215b8455cec22889bfe5c9a0fb7ea9afb4e2c577cea7c05d70c3d7465b7760001b613466565b6000600360008381526020019081526020016000206040518061018001604052908160008201805461043b906142ea565b80601f0160208091040260200160405190810160405280929190818152602001828054610467906142ea565b80156104b45780601f10610489576101008083540402835291602001916104b4565b820191906000526020600020905b81548152906001019060200180831161049757829003601f168201915b50505050508152602001600182015481526020016002820160009054906101000a900473ffffffffffffffffffffffffffffffffffffffff1673ffffffffffffffffffffffffffffffffffffffff1673ffffffffffffffffffffffffffffffffffffffff16815260200160038201548152602001600482018054610537906142ea565b80601f0160208091040260200160405190810160405280929190818152602001828054610563906142ea565b80156105b05780601f10610585576101008083540402835291602001916105b0565b820191906000526020600020905b81548152906001019060200180831161059357829003601f168201915b50505050508152602001600582015481526020016006820160009054906101000a900460ff161515151581526020016006820160019054906101000a900460ff16151515158152602001600782018054610609906142ea565b80601f0160208091040260200160405190810160405280929190818152602001828054610635906142ea565b80156106825780601f1061065757610100808354040283529160200191610682565b820191906000526020600020905b81548152906001019060200180831161066557829003601f168201915b505050505081526020016008820160009054906101000a900473ffffffffffffffffffffffffffffffffffffffff1673ffffffffffffffffffffffffffffffffffffffff1673ffffffffffffffffffffffffffffffffffffffff16815260200160098201548152602001600a8201548152505090506107237fff0057e9dc8edce796824c057cfc867d35b0376fb173dd4e2e734a76304c3c7360001b613466565b61074f7f5b1f306841e73baf382b6b75a44cdc965aa7363e73295b3805a2df55e1f9059660001b613466565b61077b7fc3a3b59f57ace18de523906ce2ec3b45986be58f48e3eb3e73aad3b0b4ed77f160001b613466565b600073ffffffffffffffffffffffffffffffffffffffff16816040015173ffffffffffffffffffffffffffffffffffffffff16036107ee576040517f08c379a00000000000000000000000000000000000000000000000000000000081526004016107e590614367565b60405180910390fd5b61081a7f79fab545c573153bea9e4ee414c75a3075e90ee22beb500cf0851e103e8a131160001b613466565b6108467f22e9debf7fbe7998761338dcd7d74671b478e599962722f48b0e139a89c2439060001b613466565b6108727f1dced47071b590b182ddb0cb5ac35383888b7e99902cac8ff20fb5ffa637f39460001b613466565b61089e7f5044492aca56d834dc5fe0380d5cec54401d5ebe8cf1e879223cf5264abee04160001b613466565b42816101600151106108e5576040517f08c379a00000000000000000000000000000000000000000000000000000000081526004016108dc906143d3565b60405180910390fd5b6109117f817f6f8e589934ed47ba0f5a0ebf930aeb977245b895dbce5e1a670f2dbf227b60001b613466565b61093d7f04a44424b9cd9616d80f3830efb4ca9d5c07630173b6fd4732d9ba86b0711daa60001b613466565b6109697f78551ff0f6938ad68f34f56b384d97f8a6337afeacc16181b2808122409726d460001b613466565b6109957f4d807de7097aae39d715fddb85020da1daea2eadff25c7a4446f0ba72699a8c360001b613466565b600015158160e001511515146109e0576040517f08c379a00000000000000000000000000000000000000000000000000000000081526004016109d79061443f565b60405180910390fd5b610a0c7ffff0ea4fb9428434dd028f441e08a322143cb12209b37c2ec707fa297a7cd9f460001b613466565b610a387f34a560c175acdc842305c9f7d2e5a29ab8a94742b7025615c925a37e19b6785360001b613466565b610a647f5f4b6731b3c052842ae5384f52bd5fe55f8f8aae86ca963c510ec8c4088ba61b60001b613466565b610a907f914bc256bc949a735e6e4f046a140edad34c93b3894416f49ffdfeb09b5e11d260001b613466565b600073ffffffffffffffffffffffffffffffffffffffff16600160009054906101000a900473ffffffffffffffffffffffffffffffffffffffff1673ffffffffffffffffffffffffffffffffffffffff1603610aed576000610b91565b60011515600160009054906101000a900473ffffffffffffffffffffffffffffffffffffffff1673ffffffffffffffffffffffffffffffffffffffff1663ccd5fcb9336040518263ffffffff1660e01b8152600401610b4c9190614223565b602060405180830381865afa158015610b69573d6000803e3d6000fd5b505050506040513d601f19601f82011682018060405250810190610b8d919061448b565b1515145b610bd0576040517f08c379a0000000000000000000000000000000000000000000000000000000008152600401610bc790614504565b60405180910390fd5b610bfc7fb4d3d0f7ac6d5453c8f85b9116d8a83332718cfeef12738d65b7db9e096f178260001b613466565b610c287f76b106c47a72ac9b1733b25aff32926d5f125b7eb250cc4fd16c9c0cfc26406260001b613466565b610c547f1ecd24b238a5dbc42d1517fe58adb5685d51d089918939ce909a27fe1869bc0460001b613466565b6000606460636005600085610120015173ffffffffffffffffffffffffffffffffffffffff1673ffffffffffffffffffffffffffffffffffffffff168152602001908152602001600020600086815260200190815260200160002054610cba9190614553565b610cc491906145dc565b9050610cf27ff8f4718a83849dea80ac068c5584cbcfba872120567b90512453ed60aadc8b3d60001b613466565b610d1e7fe3193723c532f2e60844ccc02c2718e1e089ff913b60798897ef3ef6415e56db60001b613466565b6064826101400151610d3091906145dc565b60026000828254610d41919061460d565b92505081905550610d747f7621a2b0e5051ef30f061abe85493358ad20e7575d9677e8e1268072cd9b59ba60001b613466565b610da07f66027940c6f40daa7f464309584422e0c1e0756fb120a36e7ba9ecc8a7ee8f3060001b613466565b60006005600084610120015173ffffffffffffffffffffffffffffffffffffffff1673ffffffffffffffffffffffffffffffffffffffff168152602001908152602001600020600085815260200190815260200160002081905550610e277f8557dd39e984d42eda45d58c8487125b756e24275cdfb863007a570249a8d0b860001b613466565b610e537fdc020a0af555c6bf08ca9cd5c4f7ad341f65ed01a5f207e095f79730fdf6c14a60001b613466565b60016003600085815260200190815260200160002060060160016101000a81548160ff021916908315150217905550610eae7fd7240b177d96092716cb2ee9a8c8a9e152faa14e52635b921c469708c077273160001b613466565b610eda7f282beb2f566876696f546e1440abd03ae58ccfc3368f2d2bf0d6f3dc9a9184a260001b613466565b600160009054906101000a900473ffffffffffffffffffffffffffffffffffffffff1673ffffffffffffffffffffffffffffffffffffffff1663b8fcf9376040518163ffffffff1660e01b8152600401602060405180830381865afa158015610f47573d6000803e3d6000fd5b505050506040513d601f19601f82011682018060405250810190610f6b9190614678565b73ffffffffffffffffffffffffffffffffffffffff1663a9059cbb8360400151836040518363ffffffff1660e01b8152600401610fa99291906146a5565b6020604051808303816000875af1158015610fc8573d6000803e3d6000fd5b505050506040513d601f19601f82011682018060405250810190610fec919061448b565b506110197f468b7beea5309dbed7e65696a8a2b3b0ab545ad70e821ae66497b321ac4db9fa60001b613466565b6110457ff9d549d4e2829025fe815b25c8c597f91156ac0aee947e2217f982bc2af5d72d60001b613466565b7f9d95947801b2af7d1ed03cfed8027ebe75cd4a16100de3a0ffdb30f58c6a0192838361012001513360405161107d939291906146ce565b60405180910390a1505050565b60025481565b611098613469565b6110c47fb7ac14198cf4fe7beafa8ca059e61b2afcd5a341533f93026fa8ffa3a26c3b4560001b613466565b6110f07f0d30b731760d6753b8fe18222db81c74d574939fb771086ad67e4161118bc33660001b613466565b61111c7f7551de821cdbbc2eab66438818d2051ae2e48cda6ea11f730a4d188cfc739b9160001b613466565b6111487fb43455518102685f1405d4de54a686e5b639e5fa567810b933895fa9872bf64760001b613466565b600073ffffffffffffffffffffffffffffffffffffffff16600160009054906101000a900473ffffffffffffffffffffffffffffffffffffffff1673ffffffffffffffffffffffffffffffffffffffff16036111d9576040517f08c379a00000000000000000000000000000000000000000000000000000000081526004016111d090614751565b60405180910390fd5b6112057fd79c9eb53e4bc8847bffd065fefebc2ae3f310ce16e81a893c770fdd9cbe721760001b613466565b6112317fa990b283183f331e281ca9b8a590a94700000bc15fc5599aba3be9dc7f20393460001b613466565b61125d7fc0c6e5eccb052c2a638f944ecc74f6d8115bd720e062a5a8c7433700f2b474d260001b613466565b6000600160009054906101000a900473ffffffffffffffffffffffffffffffffffffffff1673ffffffffffffffffffffffffffffffffffffffff1663b8fcf9376040518163ffffffff1660e01b8152600401602060405180830381865afa1580156112cc573d6000803e3d6000fd5b505050506040513d601f19601f820116820180604052508101906112f09190614678565b905061131e7f95a56390187bb0dc586d16c74813d3e319b698aab56efa78b344ecd94e44bff960001b613466565b61134a7f706ef2ff48e53b640463e2e0ddfa77a3960bcd453e0eb31723eb81d74470c8a460001b613466565b6113767fc2b15afe470784ad157b58109fc0fe2e27d74f93278a192da51df6928b4fb25760001b613466565b600073ffffffffffffffffffffffffffffffffffffffff16600160009054906101000a900473ffffffffffffffffffffffffffffffffffffffff1673ffffffffffffffffffffffffffffffffffffffff1663b8fcf9376040518163ffffffff1660e01b8152600401602060405180830381865afa1580156113fb573d6000803e3d6000fd5b505050506040513d601f19601f8201168201806040525081019061141f9190614678565b73ffffffffffffffffffffffffffffffffffffffff1603611475576040517f08c379a000000000000000000000000000000000000000000000000000000000815260040161146c906147bd565b60405180910390fd5b6114a17f3baf743d5cf92471b767ab677b34451addae3a3fcd5cb2d6b077f2eb4b82607d60001b613466565b6114cd7f624b4adb6aeadaec74ca2edf87a6ab00dbb0895503da2233c549f24a5eeed63d60001b613466565b6114f97f57738fa98e0bf1637d62df34478f4592cc69d1e5069c879f313601cfd2986b5560001b613466565b8073ffffffffffffffffffffffffffffffffffffffff1663a9059cbb600160009054906101000a900473ffffffffffffffffffffffffffffffffffffffff166002546040518363ffffffff1660e01b81526004016115589291906146a5565b6020604051808303816000875af1158015611577573d6000803e3d6000fd5b505050506040513d601f19601f8201168201806040525081019061159b919061448b565b506115c87ffaf22854628f3462a406560d4344659affc622935c581c3b57f50eddc743140260001b613466565b6115f47f7984cbdda734b46e69439a2d9bd8732725b6abaac458e928a9b7158fee14874960001b613466565b600060028190555050565b6004602052816000526040600020818154811061161b57600080fd5b90600052602060002001600091509150505481565b61165c7f6b0b1c27f0db8095acac80ceaa5a24c857f38755897985530d612983c2acec6160001b613466565b6116887f3aa2a72e3d49f122778a0d2bfc45f05b5bb17e7352d3c8a467561a52464210a560001b613466565b6116b47fa8f4379c6d890bfe7c6b7ddaea745fe02c559c325928aadbf83d750524974ab460001b613466565b6116e07f9ac7343631a7728dca5e728f7e8e3e59a56c64f01e1fc79e335c0b5c20af867b60001b613466565b60008787905003611726576040517f08c379a000000000000000000000000000000000000000000000000000000000815260040161171d90614829565b60405180910390fd5b6117527f5dfe208fba1640a18226c0d23b78406f8d9014d46da5f5e179ef43eb3aa070c660001b613466565b61177e7f9a6ffcdfa4b955ce2399ba952a765cff650d770ce2e397cb74d24386f4d0c9e360001b613466565b6117aa7f8209ed3915d33e8e7c88bef295f2941ef964ea94f5048eee3a96f943d44d4e4a60001b613466565b6117d67f8018705ef1868922fb5c794613385a9bd74a9c7a660bca728e55d3ca9398df3260001b613466565b621e848085101561181c576040517f08c379a000000000000000000000000000000000000000000000000000000000815260040161181390614895565b60405180910390fd5b6118487f822dead08a935efc2b7e9fdfe2ffa8839c5b26e5728307fa22fb4711b796ab6460001b613466565b6118747ffd376af81240994155fa095d6921e86ee24082ec203888d552e96dce2830b5b060001b613466565b6118a07f71f42fb709dd56213a349aa789188f24e3b98d93c6fe8f51984c5bcef31969a260001b613466565b6118cc7f840d9bd6ece7a535e39fc4833b64a6e87c28cef4e95e72ccbfdeff4f5ccc46a660001b613466565b4281101561190f576040517f08c379a000000000000000000000000000000000000000000000000000000000815260040161190690614901565b60405180910390fd5b61193b7f1fa407581b211fc6d909ad9a643d4b7a1e1ec0efe5a732ca7a5b4ab74f11e3a960001b613466565b6119677fe6ca4de4f006be4a593f88665c8c426bb836bf88346770eef3a366c96e6448db60001b613466565b6119937fa0f82b3c7bb117b56691a157a0aa48a85203e56d39aa5aaabf0ae57124204b8660001b613466565b6119a2878787878787876134e7565b60036000600654815260200190815260200160002060008201518160000190805190602001906119d3929190613769565b506020820151816001015560408201518160020160006101000a81548173ffffffffffffffffffffffffffffffffffffffff021916908373ffffffffffffffffffffffffffffffffffffffff160217905550606082015181600301556080820151816004019080519060200190611a4b929190613769565b5060a0820151816005015560c08201518160060160006101000a81548160ff02191690831515021790555060e08201518160060160016101000a81548160ff021916908315150217905550610100820151816007019080519060200190611ab39291906137ef565b506101208201518160080160006101000a81548173ffffffffffffffffffffffffffffffffffffffff021916908373ffffffffffffffffffffffffffffffffffffffff160217905550610140820151816009015561016082015181600a0155905050611b417f8b9ab1c294c6a899f11585b934b74f47ee13d07d66f0c3912090ed390d45fc9d60001b613466565b611b6d7f8f404096fa80d7eb8dbbfc716c1b3c003c7962af099c38257267e494a1266f9f60001b613466565b600460003373ffffffffffffffffffffffffffffffffffffffff1673ffffffffffffffffffffffffffffffffffffffff1681526020019081526020016000206006549080600181540180825580915050600190039060005260206000200160009091909190915055611c017fbf1328dcf459003b0447a0aef89583e27bcb61497089251f3dd1b8894ab368b460001b613466565b611c2d7f6230d763beb3e5aba42172b0699857d0110ff3388ba50dc311aa5682b26e10bf60001b613466565b7f0bdd03d34418de4e37692923185ccdd7efa31d93f02a21636cfaf39cd2ee204187878733600654604051611c6695949392919061494e565b60405180910390a1611c9a7f33de731693ab883fa787cc0f17deb97b7dc64ebce6b92660fef72e9c057db43a60001b613466565b611cc67f601c6c695bc3efb99cabcc5faaf9bde08ed61a5008526212e9cf9e2b3f911bc660001b613466565b600160066000828254611cd9919061460d565b9250508190555050505050505050565b600160009054906101000a900473ffffffffffffffffffffffffffffffffffffffff1681565b611d17613469565b611d21600061369d565b565b6060611d517fc3d4c684d7decba36e39edcf00050143cce22351b8624d6d81cd697de94466b060001b613466565b611d7d7f2f424ee5dbfee485bc8e069912f2ffb7d771440fcb5ea1b3f14dc9744647350f60001b613466565b611da97f8c589333d8ba648c09342ebb360832335acaa5f7cd35594a87311028565db29160001b613466565b600460008373ffffffffffffffffffffffffffffffffffffffff1673ffffffffffffffffffffffffffffffffffffffff168152602001908152602001600020805480602002602001604051908101604052809291908181526020018280548015611e3257602002820191906000526020600020905b815481526020019060010190808311611e1e575b50505050509050919050565b6003602052806000526040600020600091509050806000018054611e61906142ea565b80601f0160208091040260200160405190810160405280929190818152602001828054611e8d906142ea565b8015611eda5780601f10611eaf57610100808354040283529160200191611eda565b820191906000526020600020905b815481529060010190602001808311611ebd57829003601f168201915b5050505050908060010154908060020160009054906101000a900473ffffffffffffffffffffffffffffffffffffffff1690806003015490806004018054611f21906142ea565b80601f0160208091040260200160405190810160405280929190818152602001828054611f4d906142ea565b8015611f9a5780601f10611f6f57610100808354040283529160200191611f9a565b820191906000526020600020905b815481529060010190602001808311611f7d57829003601f168201915b5050505050908060050154908060060160009054906101000a900460ff16908060060160019054906101000a900460ff1690806007018054611fdb906142ea565b80601f0160208091040260200160405190810160405280929190818152602001828054612007906142ea565b80156120545780601f1061202957610100808354040283529160200191612054565b820191906000526020600020905b81548152906001019060200180831161203757829003601f168201915b5050505050908060080160009054906101000a900473ffffffffffffffffffffffffffffffffffffffff169080600901549080600a015490508c565b6120bc7ff8d4b94866c585b56f013fdce65b2400b2545c24cbdc74d5e63b58adea608f3260001b613466565b6120e87fc790592b9af166a0fe8a8ef8c01373899b67c90b845a5c4e9815bf9db377a42760001b613466565b6121147f832e7eee03d5d32e9eb44b908f43c879f335a6c95a376c92286d46098730674e60001b613466565b6000600360008a815260200190815260200160002090506121577f0e7fb01c83ece9a5ffac56ad6ef673b0fac0f8086d30334c3e814d2ac966d58260001b613466565b6121837ff10983156db303c2698c84173e42b9dc14289ca611633960e41f45f0983a912960001b613466565b6121af7fb9c66016d394503effd06f5e72b264e6d17e9df7836c552d7a543c394ff69ced60001b613466565b600073ffffffffffffffffffffffffffffffffffffffff168160020160009054906101000a900473ffffffffffffffffffffffffffffffffffffffff1673ffffffffffffffffffffffffffffffffffffffff1603612242576040517f08c379a000000000000000000000000000000000000000000000000000000000815260040161223990614367565b60405180910390fd5b61226e7f9598ec53532a708d349a6aedb76d03ec38070654c5199877c704519eb8c215c360001b613466565b61229a7fe387343e9e4c9033fdc8818e1751c97224c3cfbc06c7ef262bc9c60ee7b6693060001b613466565b6122c67f890076f86d79e8890a9a0a1d599ed1826bf5646ec58b2fb672eec222424a5c9060001b613466565b6122f27f346c52f123a0f95ffedd65caf5fbcc56fdfc81b141f8fc68fbe5219c480c3c4260001b613466565b4281600a015411612338576040517f08c379a000000000000000000000000000000000000000000000000000000000815260040161232f906149e8565b60405180910390fd5b6123647f71d7b68e8fc2894ce41d0e90980b71a7818b5db8515c69ceb87d35f738502d5560001b613466565b6123907f133c928fc285ea67befc0c68ec9ea83203482444a3f1e6dd8c24e988a3e6f88c60001b613466565b6123bc7fefad19077035cbf8a5c8a3620f49a6bb58505811de77d5b5e76e13f975b7ee8660001b613466565b6123e87ff360d0e8cd2804988e158117cb91326419838cb7a147adc27f226d45bfce53ab60001b613466565b806001015484101561242f576040517f08c379a000000000000000000000000000000000000000000000000000000000815260040161242690614a54565b60405180910390fd5b61245b7f920bd07a3f99016302004ef57bbcab9c363cca990c7612c284e4640fc328dfe160001b613466565b6124877f270fb19badc75752b755cca059f996e1bc36842640e615d01147728053d16b6d60001b613466565b6124b37ff3f4480e8640d14641a43b05d2f602233421d0d503d31049ef7de5a0eff7e89660001b613466565b6124df7f8001bb091f8632d16b1ea1e15b5ce56e45a3e95165d0b2d807b178966b3e551660001b613466565b80600901548411612525576040517f08c379a000000000000000000000000000000000000000000000000000000000815260040161251c90614a54565b60405180910390fd5b6125517faf36b98f5154bae551d0cf12d00e07f1f136e192f06a3df45eceb44eab8f912f60001b613466565b61257d7f461bcb40652de0cf0d3e6816482edfbd971c517e4ce26d5e554e2e3b1b41fcae60001b613466565b6125a97fa5faf2a4bce3805b446e8d1431fea8a51f152b2d0c237fb519c8ce0a5c2433a960001b613466565b6125d57f48cd6fa5f413dbb5c1ac82a847c4abde28d935cf5d134d2c99812d0134416f5360001b613466565b6000888890500361261b576040517f08c379a000000000000000000000000000000000000000000000000000000000815260040161261290614ac0565b60405180910390fd5b6126477fdc4f2f7900af4d9d374725db142c955190cff9ab6fbe91159d485cf40b601a2560001b613466565b6126737fee74d41939b52a595fee1ff30db72d29d83af86f976ae024dbebe7ddc13d6de160001b613466565b61269f7f03b1a93f63bbcadb1939d4f2956a7c188abc0df7b73fec86c2404ee50d1d356b60001b613466565b6126cb7fe031b57a063f3826b1a75f9d4bf1f86488b417a8ca8c71567b9fd7912bc8fc8d60001b613466565b3089856040516020016126e093929190614b49565b604051602081830303815290604052805190602001208514612737576040517f08c379a000000000000000000000000000000000000000000000000000000000815260040161272e90614bd2565b60405180910390fd5b6127637f9eee9a192996b869bdbe58e707f4c32e1ca8b443ff9f093c64994d2dbdd3e8f560001b613466565b61278f7fab673bfb770113e2b0bcd6984e6a6cb7b22347897e8f09682161ad24fbdf59a960001b613466565b6127bb7f92229c42b8592b218fa9273409166a27db22382740c167ab9866f41e77e4cb0b60001b613466565b6127e77f874e9a7220d7fffd549825e9bde426df7af62a4fe592d1fda8ad30cc6e9f53da60001b613466565b600073ffffffffffffffffffffffffffffffffffffffff16600160009054906101000a900473ffffffffffffffffffffffffffffffffffffffff1673ffffffffffffffffffffffffffffffffffffffff1603612878576040517f08c379a000000000000000000000000000000000000000000000000000000000815260040161286f90614c3e565b60405180910390fd5b6128a47f127936c5bc0f4f486b1d1bdf3df4c394524bf84c2e45047fba3d28045ab4e82860001b613466565b6128d07f6135b2f2b56399a74dfae2d6dab29a154815788e5a60005ee0f77b96a654438460001b613466565b6128fc7f1d2d6485394bdec54e026d938133031a88d719b3db52a6cd7fe43b25d79ba41a60001b613466565b6129287f395277a52a0c439e81d26460aae70dcae1ee4a8ed9f83b92350e7147574da30c60001b613466565b600073ffffffffffffffffffffffffffffffffffffffff16600160009054906101000a900473ffffffffffffffffffffffffffffffffffffffff1673ffffffffffffffffffffffffffffffffffffffff1663b8fcf9376040518163ffffffff1660e01b8152600401602060405180830381865afa1580156129ad573d6000803e3d6000fd5b505050506040513d601f19601f820116820180604052508101906129d19190614678565b73ffffffffffffffffffffffffffffffffffffffff1603612a27576040517f08c379a0000000000000000000000000000000000000000000000000000000008152600401612a1e906147bd565b60405180910390fd5b612a537fb215306649503a2e22b41adfa3d6120d9997fb5a2801d5f4c227791b1310653a60001b613466565b612a7f7fd986f0baa1c6c19f4048a2a92bfc63c25bb761d6a6e9d640ec2bd9456d179a5360001b613466565b612aab7f72777fd84bf657bf1ed0d59a05a1f6b1400f05e1cbfd5191e61bd94f0f4c0fc560001b613466565b8787826007019190612abe929190613875565b50612aeb7f24f97717027f1ccf2ad2b99f8bcf9c616962e2f787b8fd3d5a893ad7043cbc4b60001b613466565b612b177f49076aeee8c71bd779753bf079de675a2c3d669828ef3e7288b7624ea18d283b60001b613466565b6000600160009054906101000a900473ffffffffffffffffffffffffffffffffffffffff1673ffffffffffffffffffffffffffffffffffffffff1663b8fcf9376040518163ffffffff1660e01b8152600401602060405180830381865afa158015612b86573d6000803e3d6000fd5b505050506040513d601f19601f82011682018060405250810190612baa9190614678565b9050612bd87ffac75ed3c6be0af0b89b9ee67bcc4a25d296f53a1765e8d586ccdd8751378d6260001b613466565b612c047f668d698cfc18005342676cdc7526ea9e9b1b317fe80e26c66a79b566a3c960d360001b613466565b8073ffffffffffffffffffffffffffffffffffffffff16639f4fae128888888830896040518763ffffffff1660e01b8152600401612c4796959493929190614c5e565b600060405180830381600087803b158015612c6157600080fd5b505af1158015612c75573d6000803e3d6000fd5b50505050612ca57f13f84d7a4f269511b8f418e6e480cf683cd1089856d822e116f9ce18ce67b61860001b613466565b612cd17f60029ed68d4351ef132fdd2f66a7bc6cb81970bfb6b2a95fb452b4d9fa696c2b60001b613466565b600073ffffffffffffffffffffffffffffffffffffffff168260080160009054906101000a900473ffffffffffffffffffffffffffffffffffffffff1673ffffffffffffffffffffffffffffffffffffffff1614612f2b57612d557f6a37ec98b6b3b8170d2260bebb09169e28257be00c44cf7e233e3eb2e8a1b62a60001b613466565b612d817f1ed6932305fe483c01f7a3a4d4ae96b2bb0558a725198aa29472aff46c5c51ef60001b613466565b612dad7ff063e7591b7d3bb90ea104915d58a18cfc3995d9c521079eac9477a471a989f160001b613466565b6000600560008460080160009054906101000a900473ffffffffffffffffffffffffffffffffffffffff1673ffffffffffffffffffffffffffffffffffffffff1673ffffffffffffffffffffffffffffffffffffffff16815260200190815260200160002060008c815260200190815260200160002081905550612e537f8577e1b6d358e413c40f2fdd275139a0df43411f319105aa460b47a2d8b4dac460001b613466565b612e7f7f56778ecd54b244d29df9e5126936533bded13076dc675d9f0039082cda6323db60001b613466565b8073ffffffffffffffffffffffffffffffffffffffff1663a9059cbb8360080160009054906101000a900473ffffffffffffffffffffffffffffffffffffffff1684600901546040518363ffffffff1660e01b8152600401612ee29291906146a5565b6020604051808303816000875af1158015612f01573d6000803e3d6000fd5b505050506040513d601f19601f82011682018060405250810190612f25919061448b565b50612f58565b612f577feb0da3f1ad97770762eb6e4a7ead4dd393e650675104983a70cd6c1058ed0f3760001b613466565b5b612f847f80f5d26b2636af0f5d4d279754de8ee4d8820e2751f036e39d60eef1d84b141a60001b613466565b612fb07f48fa0a1d63b6e991b00b50e590816baa6855669f1e8f621dcd287897cfe9ba3660001b613466565b84600560008673ffffffffffffffffffffffffffffffffffffffff1673ffffffffffffffffffffffffffffffffffffffff16815260200190815260200160002060008c8152602001908152602001600020819055506130317f22f863ce2428ff37d5b8f1644ed490229fd83d5d5b12ae16379e1964d1cae7f960001b613466565b61305d7f6903f422fba9a5d92dd4442cf7b2e3d2ef5317d1c8a8397ca18eca49abf906d960001b613466565b8482600901819055506130927fef0f374f1a8fed0e7f4b0506776c407b45fd4d193effb4962028c0d80c1be3b060001b613466565b6130be7f344f1a7af20f99f67efbd22001cf9fd68b369d7b29ae717cd679420578f002ca60001b613466565b838260080160006101000a81548173ffffffffffffffffffffffffffffffffffffffff021916908373ffffffffffffffffffffffffffffffffffffffff16021790555061312d7fa82cf66462756d99ad6d4f7d25e64f8a1e5d85218b5d5319f160981aa1b315e560001b613466565b6131597f550b3c7cac9147d7883aac29aade3c59ff6bf69406c85c8c09077c3fcf7a0a8960001b613466565b7f6e92a982037abe8146d71f1d6163b2760c6fb6b79d71a369fe6f0b79a545b79a8a858760405161318c93929190614cc6565b60405180910390a150505050505050505050565b60008060009054906101000a900473ffffffffffffffffffffffffffffffffffffffff16905090565b6131d1613469565b6131fd7f0880ce0c9c04ba9e753f2f7059f7ce27f01e3e998649cc071db559a74f28730f60001b613466565b6132297f7a8227761e7a16bfe677e311f29d91527a9f149260a5e4000a69e34ae4418b5f60001b613466565b6132557fee3e5c3ab5daba7bad9ecb371e926ffc492de4b4955bfb8a2dffc96030db48f960001b613466565b6132817f1b3c577e025070be7e61fd6a6f73922326859fb5cb843bf215b8c5a920ff288960001b613466565b600073ffffffffffffffffffffffffffffffffffffffff168173ffffffffffffffffffffffffffffffffffffffff16036132f0576040517f08c379a00000000000000000000000000000000000000000000000000000000081526004016132e790614d49565b60405180910390fd5b61331c7f8da41d3d44b4da7e3c70bece730227b40eea41d5d35daff93ae5406a2372925360001b613466565b6133487f83991b94a6b125cacd9fdd14bf45c54643b16b9bad0322deeed5db204b222ecb60001b613466565b6133747f3becce973ae7450719a323568b3f42e8b55c52e4eacc66b8bab9d06d242cd3e660001b613466565b80600160006101000a81548173ffffffffffffffffffffffffffffffffffffffff021916908373ffffffffffffffffffffffffffffffffffffffff16021790555050565b6005602052816000526040600020602052806000526040600020600091509150505481565b60065481565b6133eb613469565b600073ffffffffffffffffffffffffffffffffffffffff168173ffffffffffffffffffffffffffffffffffffffff160361345a576040517f08c379a000000000000000000000000000000000000000000000000000000000815260040161345190614ddb565b60405180910390fd5b6134638161369d565b50565b50565b613471613761565b73ffffffffffffffffffffffffffffffffffffffff1661348f6131a0565b73ffffffffffffffffffffffffffffffffffffffff16146134e5576040517f08c379a00000000000000000000000000000000000000000000000000000000081526004016134dc90614e47565b60405180910390fd5b565b6134ef6138fb565b61351b7f51e7eaf51e6b729553db40f024464e298b57f21bc59573dedcfe6cc2126d7f7460001b613466565b6135477ffc19fc76429e3e144eb773f1c3451f9580827cd1124b8eca42874a0977cc2aed60001b613466565b6135737fac686d83b8001ad2c76f750cd6fd3815f711ab54a0cbbb607ab4f3faa6b2ad5160001b613466565b60405180610180016040528089898080601f016020809104026020016040519081016040528093929190818152602001838380828437600081840152601f19601f8201169050808301925050505050505081526020018781526020013373ffffffffffffffffffffffffffffffffffffffff16815260200142815260200186868080601f016020809104026020016040519081016040528093929190818152602001838380828437600081840152601f19601f820116905080830192505050505050508152602001848152602001600015158152602001600015158152602001604051806020016040528060008152508152602001600073ffffffffffffffffffffffffffffffffffffffff16815260200160008152602001838152509050979650505050505050565b60008060009054906101000a900473ffffffffffffffffffffffffffffffffffffffff169050816000806101000a81548173ffffffffffffffffffffffffffffffffffffffff021916908373ffffffffffffffffffffffffffffffffffffffff1602179055508173ffffffffffffffffffffffffffffffffffffffff168173ffffffffffffffffffffffffffffffffffffffff167f8be0079c531659141344cd1fd0a4f28419497f9722a3daafe3b4186f6b6457e060405160405180910390a35050565b600033905090565b828054613775906142ea565b90600052602060002090601f01602090048101928261379757600085556137de565b82601f106137b057805160ff19168380011785556137de565b828001600101855582156137de579182015b828111156137dd5782518255916020019190600101906137c2565b5b5090506137eb919061398f565b5090565b8280546137fb906142ea565b90600052602060002090601f01602090048101928261381d5760008555613864565b82601f1061383657805160ff1916838001178555613864565b82800160010185558215613864579182015b82811115613863578251825591602001919060010190613848565b5b509050613871919061398f565b5090565b828054613881906142ea565b90600052602060002090601f0160209004810192826138a357600085556138ea565b82601f106138bc57803560ff19168380011785556138ea565b828001600101855582156138ea579182015b828111156138e95782358255916020019190600101906138ce565b5b5090506138f7919061398f565b5090565b6040518061018001604052806060815260200160008152602001600073ffffffffffffffffffffffffffffffffffffffff16815260200160008152602001606081526020016000801916815260200160001515815260200160001515815260200160608152602001600073ffffffffffffffffffffffffffffffffffffffff16815260200160008152602001600081525090565b5b808211156139a8576000816000905550600101613990565b5090565b6000604051905090565b600080fd5b600080fd5b6000819050919050565b6139d3816139c0565b81146139de57600080fd5b50565b6000813590506139f0816139ca565b92915050565b600060208284031215613a0c57613a0b6139b6565b5b6000613a1a848285016139e1565b91505092915050565b613a2c816139c0565b82525050565b6000602082019050613a476000830184613a23565b92915050565b600073ffffffffffffffffffffffffffffffffffffffff82169050919050565b6000613a7882613a4d565b9050919050565b613a8881613a6d565b8114613a9357600080fd5b50565b600081359050613aa581613a7f565b92915050565b60008060408385031215613ac257613ac16139b6565b5b6000613ad085828601613a96565b9250506020613ae1858286016139e1565b9150509250929050565b600080fd5b600080fd5b600080fd5b60008083601f840112613b1057613b0f613aeb565b5b8235905067ffffffffffffffff811115613b2d57613b2c613af0565b5b602083019150836001820283011115613b4957613b48613af5565b5b9250929050565b6000819050919050565b613b6381613b50565b8114613b6e57600080fd5b50565b600081359050613b8081613b5a565b92915050565b600080600080600080600060a0888a031215613ba557613ba46139b6565b5b600088013567ffffffffffffffff811115613bc357613bc26139bb565b5b613bcf8a828b01613afa565b97509750506020613be28a828b016139e1565b955050604088013567ffffffffffffffff811115613c0357613c026139bb565b5b613c0f8a828b01613afa565b94509450506060613c228a828b01613b71565b9250506080613c338a828b016139e1565b91505092959891949750929550565b6000819050919050565b6000613c67613c62613c5d84613a4d565b613c42565b613a4d565b9050919050565b6000613c7982613c4c565b9050919050565b6000613c8b82613c6e565b9050919050565b613c9b81613c80565b82525050565b6000602082019050613cb66000830184613c92565b92915050565b600060208284031215613cd257613cd16139b6565b5b6000613ce084828501613a96565b91505092915050565b600081519050919050565b600082825260208201905092915050565b6000819050602082019050919050565b613d1e816139c0565b82525050565b6000613d308383613d15565b60208301905092915050565b6000602082019050919050565b6000613d5482613ce9565b613d5e8185613cf4565b9350613d6983613d05565b8060005b83811015613d9a578151613d818882613d24565b9750613d8c83613d3c565b925050600181019050613d6d565b5085935050505092915050565b60006020820190508181036000830152613dc18184613d49565b905092915050565b600081519050919050565b600082825260208201905092915050565b60005b83811015613e03578082015181840152602081019050613de8565b83811115613e12576000848401525b50505050565b6000601f19601f8301169050919050565b6000613e3482613dc9565b613e3e8185613dd4565b9350613e4e818560208601613de5565b613e5781613e18565b840191505092915050565b613e6b81613a6d565b82525050565b613e7a81613b50565b82525050565b60008115159050919050565b613e9581613e80565b82525050565b600081519050919050565b600082825260208201905092915050565b6000613ec282613e9b565b613ecc8185613ea6565b9350613edc818560208601613de5565b613ee581613e18565b840191505092915050565b6000610180820190508181036000830152613f0b818f613e29565b9050613f1a602083018e613a23565b613f27604083018d613e62565b613f34606083018c613a23565b8181036080830152613f46818b613e29565b9050613f5560a083018a613e71565b613f6260c0830189613e8c565b613f6f60e0830188613e8c565b818103610100830152613f828187613eb7565b9050613f92610120830186613e62565b613fa0610140830185613a23565b613fae610160830184613a23565b9d9c50505050505050505050505050565b60008083601f840112613fd557613fd4613aeb565b5b8235905067ffffffffffffffff811115613ff257613ff1613af0565b5b60208301915083600182028301111561400e5761400d613af5565b5b9250929050565b600080fd5b7f4e487b7100000000000000000000000000000000000000000000000000000000600052604160045260246000fd5b61405282613e18565b810181811067ffffffffffffffff821117156140715761407061401a565b5b80604052505050565b60006140846139ac565b90506140908282614049565b919050565b600067ffffffffffffffff8211156140b0576140af61401a565b5b6140b982613e18565b9050602081019050919050565b82818337600083830152505050565b60006140e86140e384614095565b61407a565b90508281526020810184848401111561410457614103614015565b5b61410f8482856140c6565b509392505050565b600082601f83011261412c5761412b613aeb565b5b813561413c8482602086016140d5565b91505092915050565b60008060008060008060008060e0898b031215614165576141646139b6565b5b60006141738b828c016139e1565b985050602089013567ffffffffffffffff811115614194576141936139bb565b5b6141a08b828c01613fbf565b975097505060406141b38b828c016139e1565b95505060606141c48b828c01613b71565b94505060806141d58b828c016139e1565b93505060a06141e68b828c01613a96565b92505060c089013567ffffffffffffffff811115614207576142066139bb565b5b6142138b828c01614117565b9150509295985092959890939650565b60006020820190506142386000830184613e62565b92915050565b600061424982613a4d565b9050919050565b600061425b8261423e565b9050919050565b61426b81614250565b811461427657600080fd5b50565b60008135905061428881614262565b92915050565b6000602082840312156142a4576142a36139b6565b5b60006142b284828501614279565b91505092915050565b7f4e487b7100000000000000000000000000000000000000000000000000000000600052602260045260246000fd5b6000600282049050600182168061430257607f821691505b602082108103614315576143146142bb565b5b50919050565b7f4e6f20737563682070726f647563740000000000000000000000000000000000600082015250565b6000614351600f83613dd4565b915061435c8261431b565b602082019050919050565b6000602082019050818103600083015261438081614344565b9050919050565b7f41756374696f6e206e6f742066696e6973686564000000000000000000000000600082015250565b60006143bd601483613dd4565b91506143c882614387565b602082019050919050565b600060208201905081810360008301526143ec816143b0565b9050919050565b7f50726f6475637420616c72656164792064656c69766572656400000000000000600082015250565b6000614429601983613dd4565b9150614434826143f3565b602082019050919050565b600060208201905081810360008301526144588161441c565b9050919050565b61446881613e80565b811461447357600080fd5b50565b6000815190506144858161445f565b92915050565b6000602082840312156144a1576144a06139b6565b5b60006144af84828501614476565b91505092915050565b7f4e6f7420616e20617574686f72697a656420636f757269657200000000000000600082015250565b60006144ee601983613dd4565b91506144f9826144b8565b602082019050919050565b6000602082019050818103600083015261451d816144e1565b9050919050565b7f4e487b7100000000000000000000000000000000000000000000000000000000600052601160045260246000fd5b600061455e826139c0565b9150614569836139c0565b9250817fffffffffffffffffffffffffffffffffffffffffffffffffffffffffffffffff04831182151516156145a2576145a1614524565b5b828202905092915050565b7f4e487b7100000000000000000000000000000000000000000000000000000000600052601260045260246000fd5b60006145e7826139c0565b91506145f2836139c0565b925082614602576146016145ad565b5b828204905092915050565b6000614618826139c0565b9150614623836139c0565b9250827fffffffffffffffffffffffffffffffffffffffffffffffffffffffffffffffff0382111561465857614657614524565b5b828201905092915050565b60008151905061467281613a7f565b92915050565b60006020828403121561468e5761468d6139b6565b5b600061469c84828501614663565b91505092915050565b60006040820190506146ba6000830185613e62565b6146c76020830184613a23565b9392505050565b60006060820190506146e36000830186613a23565b6146f06020830185613e62565b6146fd6040830184613e62565b949350505050565b7f446f65736e27742068617665206f776e6572206d61726b6574706c6163650000600082015250565b600061473b601e83613dd4565b915061474682614705565b602082019050919050565b6000602082019050818103600083015261476a8161472e565b9050919050565b7f4e6f20746f6b656e207370656369666965640000000000000000000000000000600082015250565b60006147a7601283613dd4565b91506147b282614771565b602082019050919050565b600060208201905081810360008301526147d68161479a565b9050919050565b7f4e616d652073686f756c646e277420626520656d707479000000000000000000600082015250565b6000614813601783613dd4565b915061481e826147dd565b602082019050919050565b6000602082019050818103600083015261484281614806565b9050919050565b7f50726963652073686f756c64206265203e3d3230303030303000000000000000600082015250565b600061487f601983613dd4565b915061488a82614849565b602082019050919050565b600060208201905081810360008301526148ae81614872565b9050919050565b7f456e642073686f756c6420626520696e20746865206675747572650000000000600082015250565b60006148eb601b83613dd4565b91506148f6826148b5565b602082019050919050565b6000602082019050818103600083015261491a816148de565b9050919050565b600061492d8385613dd4565b935061493a8385846140c6565b61494383613e18565b840190509392505050565b60006080820190508181036000830152614969818789614921565b90506149786020830186613a23565b6149856040830185613e62565b6149926060830184613a23565b9695505050505050565b7f41756374696f6e20616c72656164792066696e69736865640000000000000000600082015250565b60006149d2601883613dd4565b91506149dd8261499c565b602082019050919050565b60006020820190508181036000830152614a01816149c5565b9050919050565b7f426964206d757374206265206c61726765720000000000000000000000000000600082015250565b6000614a3e601283613dd4565b9150614a4982614a08565b602082019050919050565b60006020820190508181036000830152614a6d81614a31565b9050919050565b7f4e6f2064656c697665727920696e737472756374696f6e730000000000000000600082015250565b6000614aaa601883613dd4565b9150614ab582614a74565b602082019050919050565b60006020820190508181036000830152614ad981614a9d565b9050919050565b60008160601b9050919050565b6000614af882614ae0565b9050919050565b6000614b0a82614aed565b9050919050565b614b22614b1d82613a6d565b614aff565b82525050565b6000819050919050565b614b43614b3e826139c0565b614b28565b82525050565b6000614b558286614b11565b601482019150614b658285614b32565b602082019150614b758284614b32565b602082019150819050949350505050565b7f57726f6e67206e6f6e6365000000000000000000000000000000000000000000600082015250565b6000614bbc600b83613dd4565b9150614bc782614b86565b602082019050919050565b60006020820190508181036000830152614beb81614baf565b9050919050565b7f4e6f206d61726b6574706c616365000000000000000000000000000000000000600082015250565b6000614c28600e83613dd4565b9150614c3382614bf2565b602082019050919050565b60006020820190508181036000830152614c5781614c1b565b9050919050565b600060c082019050614c736000830189613a23565b614c806020830188613e71565b614c8d6040830187613a23565b614c9a6060830186613e62565b614ca76080830185613e62565b81810360a0830152614cb98184613eb7565b9050979650505050505050565b6000606082019050614cdb6000830186613a23565b614ce86020830185613e62565b614cf56040830184613a23565b949350505050565b7f416464726573732073686f756c646e2774206265203000000000000000000000600082015250565b6000614d33601683613dd4565b9150614d3e82614cfd565b602082019050919050565b60006020820190508181036000830152614d6281614d26565b9050919050565b7f4f776e61626c653a206e6577206f776e657220697320746865207a65726f206160008201527f6464726573730000000000000000000000000000000000000000000000000000602082015250565b6000614dc5602683613dd4565b9150614dd082614d69565b604082019050919050565b60006020820190508181036000830152614df481614db8565b9050919050565b7f4f776e61626c653a2063616c6c6572206973206e6f7420746865206f776e6572600082015250565b6000614e31602083613dd4565b9150614e3c82614dfb565b602082019050919050565b60006020820190508181036000830152614e6081614e24565b905091905056fea264697066735822122071b115be7b10e294ea3e896d22a0cd4674d6f29fb556a5d681b2f601a1805bb364736f6c634300080d0033",
  "linkReferences": {},
  "deployedLinkReferences": {}
}