{
  "_format": "hh-sol-artifact-1",
  "contractName": "SimpleSeller",
  "sourceName": "contracts/SimpleSeller.sol",
  "abi": [
    {
      "anonymous": false,
      "inputs": [
        {
          "indexed": true,
          "internalType": "address",
          "name": "previousOwner",
          "type": "address"
        },
        {
          "indexed": true,
          "internalType": "address",
          "name": "newOwner",
          "type": "address"
        }
      ],
      "name": "OwnershipTransferred",
      "type": "event"
    },
    {
      "anonymous": false,
      "inputs": [
        {
          "indexed": false,
          "internalType": "string",
          "name": "name",
          "type": "string"
        },
        {
          "indexed": false,
          "internalType": "uint256",
          "name": "price",
          "type": "uint256"
        },
        {
          "indexed": false,
          "internalType": "address",
          "name": "seller",
          "type": "address"
        },
        {
          "indexed": false,
          "internalType": "uint256",
          "name": "index",
          "type": "uint256"
        }
      ],
      "name": "sellerProductAdded",
      "type": "event"
    },
    {
      "anonymous": false,
      "inputs": [
        {
          "indexed": false,
          "internalType": "uint256",
          "name": "index",
          "type": "uint256"
        },
        {
          "indexed": false,
          "internalType": "address",
          "name": "seller",
          "type": "address"
        },
        {
          "indexed": false,
          "internalType": "address",
          "name": "courier",
          "type": "address"
        }
      ],
      "name": "sellerProductDelivered",
      "type": "event"
    },
    {
      "anonymous": false,
      "inputs": [
        {
          "indexed": false,
          "internalType": "uint256",
          "name": "index",
          "type": "uint256"
        },
        {
          "indexed": false,
          "internalType": "address",
          "name": "buyer",
          "type": "address"
        }
      ],
      "name": "sellerProductSold",
      "type": "event"
    },
    {
      "inputs": [
        {
          "internalType": "string",
          "name": "name",
          "type": "string"
        },
        {
          "internalType": "uint256",
          "name": "price",
          "type": "uint256"
        },
        {
          "internalType": "string",
          "name": "link",
          "type": "string"
        },
        {
          "internalType": "bytes32",
          "name": "marketHashOfData",
          "type": "bytes32"
        }
      ],
      "name": "addProduct",
      "outputs": [],
      "stateMutability": "nonpayable",
      "type": "function"
    },
    {
      "inputs": [],
      "name": "belongsToContract",
      "outputs": [
        {
          "internalType": "uint256",
          "name": "",
          "type": "uint256"
        }
      ],
      "stateMutability": "view",
      "type": "function"
    },
    {
      "inputs": [
        {
          "internalType": "uint256",
          "name": "index",
          "type": "uint256"
        }
      ],
      "name": "deliverProduct",
      "outputs": [],
      "stateMutability": "nonpayable",
      "type": "function"
    },
    {
      "inputs": [
        {
          "internalType": "address",
          "name": "seller",
          "type": "address"
        }
      ],
      "name": "getIndexesFromSellerAddress",
      "outputs": [
        {
          "internalType": "uint256[]",
          "name": "indexes",
          "type": "uint256[]"
        }
      ],
      "stateMutability": "view",
      "type": "function"
    },
    {
      "inputs": [
        {
          "internalType": "contract Marketplace",
          "name": "marketplace",
          "type": "address"
        }
      ],
      "name": "joinMarketplace",
      "outputs": [],
      "stateMutability": "nonpayable",
      "type": "function"
    },
    {
      "inputs": [
        {
          "internalType": "address",
          "name": "",
          "type": "address"
        },
        {
          "internalType": "uint256",
          "name": "",
          "type": "uint256"
        }
      ],
      "name": "owedMoneyToBuyers",
      "outputs": [
        {
          "internalType": "uint256",
          "name": "",
          "type": "uint256"
        }
      ],
      "stateMutability": "view",
      "type": "function"
    },
    {
      "inputs": [
        {
          "internalType": "address",
          "name": "",
          "type": "address"
        },
        {
          "internalType": "uint256",
          "name": "",
          "type": "uint256"
        }
      ],
      "name": "owedMoneyToSellers",
      "outputs": [
        {
          "internalType": "uint256",
          "name": "",
          "type": "uint256"
        }
      ],
      "stateMutability": "view",
      "type": "function"
    },
    {
      "inputs": [],
      "name": "owner",
      "outputs": [
        {
          "internalType": "address",
          "name": "",
          "type": "address"
        }
      ],
      "stateMutability": "view",
      "type": "function"
    },
    {
      "inputs": [],
      "name": "ownerMarketplace",
      "outputs": [
        {
          "internalType": "contract Marketplace",
          "name": "",
          "type": "address"
        }
      ],
      "stateMutability": "view",
      "type": "function"
    },
    {
      "inputs": [
        {
          "internalType": "uint256",
          "name": "index",
          "type": "uint256"
        },
        {
          "internalType": "bytes",
          "name": "deliveryInstructions",
          "type": "bytes"
        },
        {
          "internalType": "uint256",
          "name": "expiration",
          "type": "uint256"
        },
        {
          "internalType": "bytes32",
          "name": "nonce",
          "type": "bytes32"
        },
        {
          "internalType": "uint256",
          "name": "amount",
          "type": "uint256"
        },
        {
          "internalType": "address",
          "name": "from",
          "type": "address"
        },
        {
          "internalType": "bytes",
          "name": "sig",
          "type": "bytes"
        }
      ],
      "name": "payProduct",
      "outputs": [],
      "stateMutability": "payable",
      "type": "function"
    },
    {
      "inputs": [],
      "name": "productCount",
      "outputs": [
        {
          "internalType": "uint256",
          "name": "",
          "type": "uint256"
        }
      ],
      "stateMutability": "view",
      "type": "function"
    },
    {
      "inputs": [
        {
          "internalType": "uint256",
          "name": "",
          "type": "uint256"
        }
      ],
      "name": "products",
      "outputs": [
        {
          "internalType": "string",
          "name": "name",
          "type": "string"
        },
        {
          "internalType": "uint256",
          "name": "price",
          "type": "uint256"
        },
        {
          "internalType": "address",
          "name": "seller",
          "type": "address"
        },
        {
          "internalType": "address",
          "name": "buyer",
          "type": "address"
        },
        {
          "internalType": "uint256",
          "name": "addDate",
          "type": "uint256"
        },
        {
          "internalType": "string",
          "name": "linkForMedia",
          "type": "string"
        },
        {
          "internalType": "bytes32",
          "name": "marketHashOfData",
          "type": "bytes32"
        },
        {
          "internalType": "bool",
          "name": "approved",
          "type": "bool"
        },
        {
          "internalType": "bool",
          "name": "paid",
          "type": "bool"
        },
        {
          "internalType": "bool",
          "name": "delivered",
          "type": "bool"
        },
        {
          "internalType": "bytes",
          "name": "deliveryInstructions",
          "type": "bytes"
        }
      ],
      "stateMutability": "view",
      "type": "function"
    },
    {
      "inputs": [],
      "name": "renounceOwnership",
      "outputs": [],
      "stateMutability": "nonpayable",
      "type": "function"
    },
    {
      "inputs": [
        {
          "internalType": "address",
          "name": "",
          "type": "address"
        },
        {
          "internalType": "uint256",
          "name": "",
          "type": "uint256"
        }
      ],
      "name": "sellerToProductIndexes",
      "outputs": [
        {
          "internalType": "uint256",
          "name": "",
          "type": "uint256"
        }
      ],
      "stateMutability": "view",
      "type": "function"
    },
    {
      "inputs": [],
      "name": "transferFunds",
      "outputs": [],
      "stateMutability": "nonpayable",
      "type": "function"
    },
    {
      "inputs": [
        {
          "internalType": "address",
          "name": "newOwner",
          "type": "address"
        }
      ],
      "name": "transferOwnership",
      "outputs": [],
      "stateMutability": "nonpayable",
      "type": "function"
    }
  ],
  "bytecode": "0x6080604052600060015560006007553480156200001b57600080fd5b506200003c620000306200004260201b60201c565b6200004a60201b60201c565b6200010e565b600033905090565b60008060009054906101000a900473ffffffffffffffffffffffffffffffffffffffff169050816000806101000a81548173ffffffffffffffffffffffffffffffffffffffff021916908373ffffffffffffffffffffffffffffffffffffffff1602179055508173ffffffffffffffffffffffffffffffffffffffff168173ffffffffffffffffffffffffffffffffffffffff167f8be0079c531659141344cd1fd0a4f28419497f9722a3daafe3b4186f6b6457e060405160405180910390a35050565b614d3b806200011e6000396000f3fe6080604052600436106100f35760003560e01c80637acc0b201161008a578063ac0b044511610059578063ac0b044514610334578063e0f6ef871461035d578063ea43f06d14610388578063f2fde38b146103a4576100f3565b80637acc0b201461025c5780637c044577146102a35780638da5cb5b146102e05780639d42a8bd1461030b576100f3565b80634353c0ee116100c65780634353c0ee146101a0578063660eb4a3146101dd578063715018a6146102085780637a653f101461021f576100f3565b80630f563197146100f85780631c96fb1f146101355780633c1b52c41461015e5780633c68eb8114610189575b600080fd5b34801561010457600080fd5b5061011f600480360381019061011a919061396d565b6103cd565b60405161012c91906139bc565b60405180910390f35b34801561014157600080fd5b5061015c600480360381019061015791906139d7565b6103f2565b005b34801561016a57600080fd5b50610173611198565b60405161018091906139bc565b60405180910390f35b34801561019557600080fd5b5061019e61119e565b005b3480156101ac57600080fd5b506101c760048036038101906101c2919061396d565b61170d565b6040516101d491906139bc565b60405180910390f35b3480156101e957600080fd5b506101f261173e565b6040516101ff9190613a63565b60405180910390f35b34801561021457600080fd5b5061021d611764565b005b34801561022b57600080fd5b5061024660048036038101906102419190613a7e565b611778565b6040516102539190613b69565b60405180910390f35b34801561026857600080fd5b50610283600480360381019061027e91906139d7565b611893565b60405161029a9b9a99989796959493929190613cbc565b60405180910390f35b3480156102af57600080fd5b506102ca60048036038101906102c5919061396d565b611aec565b6040516102d791906139bc565b60405180910390f35b3480156102ec57600080fd5b506102f5611b11565b6040516103029190613d7c565b60405180910390f35b34801561031757600080fd5b50610332600480360381019061032d9190613e28565b611b3a565b005b34801561034057600080fd5b5061035b60048036038101906103569190613f1f565b612109565b005b34801561036957600080fd5b506103726122f8565b60405161037f91906139bc565b60405180910390f35b6103a2600480360381019061039d91906140d2565b6122fe565b005b3480156103b057600080fd5b506103cb60048036038101906103c69190613a7e565b613306565b005b6006602052816000526040600020602052806000526040600020600091509150505481565b61041e7fc3300df2b5799de9ba0de82cd9956b615eb37291bbdb156d74aee1b31a45734160001b613389565b61044a7f728d99199c2bae55cfe96336e3328a2f53b1e2bdaeab0c071aea009e299f0b1760001b613389565b6104767fe68f618781a9e464f01991b83fefaec39c47b31180f36e0366f0d0ef7c6720f360001b613389565b600060036000838152602001908152602001600020604051806101600160405290816000820180546104a7906141df565b80601f01602080910402602001604051908101604052809291908181526020018280546104d3906141df565b80156105205780601f106104f557610100808354040283529160200191610520565b820191906000526020600020905b81548152906001019060200180831161050357829003601f168201915b50505050508152602001600182015481526020016002820160009054906101000a900473ffffffffffffffffffffffffffffffffffffffff1673ffffffffffffffffffffffffffffffffffffffff1673ffffffffffffffffffffffffffffffffffffffff1681526020016003820160009054906101000a900473ffffffffffffffffffffffffffffffffffffffff1673ffffffffffffffffffffffffffffffffffffffff1673ffffffffffffffffffffffffffffffffffffffff168152602001600482015481526020016005820180546105f9906141df565b80601f0160208091040260200160405190810160405280929190818152602001828054610625906141df565b80156106725780601f1061064757610100808354040283529160200191610672565b820191906000526020600020905b81548152906001019060200180831161065557829003601f168201915b50505050508152602001600682015481526020016007820160009054906101000a900460ff161515151581526020016007820160019054906101000a900460ff161515151581526020016007820160029054906101000a900460ff161515151581526020016008820180546106e6906141df565b80601f0160208091040260200160405190810160405280929190818152602001828054610712906141df565b801561075f5780601f106107345761010080835404028352916020019161075f565b820191906000526020600020905b81548152906001019060200180831161074257829003601f168201915b50505050508152505090506107967f7922071dabe238a5113bd861dc37c2683dfdab4e11137e5d822fa1f308bec34760001b613389565b6107c27f35ee367784ac60a15d68f293bd0ab1ca14b0a5d6e74216ba9440572fb5f2848d60001b613389565b6107ee7f58b086df4fc0db43573c11bf1ca44d320c3e7911b9845604463e0f633140aed860001b613389565b600073ffffffffffffffffffffffffffffffffffffffff16816040015173ffffffffffffffffffffffffffffffffffffffff1603610861576040517f08c379a00000000000000000000000000000000000000000000000000000000081526004016108589061425c565b60405180910390fd5b61088d7f045d43d861da40c768f0703762b8521f2264fe8c1936f2ecbe4dbd225ac96be060001b613389565b6108b97fbd59995d390704017871c9062ee8db073176b0ef6a94bc921efec30479a4997460001b613389565b6108e57f1962e1f1fe2282c14bf28b0a7d4f05267773294b77245e5114b6333088d1914b60001b613389565b6109117f1b348cc348f1666954034fb57f07388198070204f86c010f7249ddf36c46bc1160001b613389565b6001151581610100015115151461095d576040517f08c379a0000000000000000000000000000000000000000000000000000000008152600401610954906142c8565b60405180910390fd5b6109897fb5cfb5465dde9d4fc0004559561e462423eba7124e0152b994b40d100fcd806360001b613389565b6109b57f15bd497ee4cc8e616f392c5f27dfb793d491cc71c8b7a83184f8d426e72be97960001b613389565b6109e17f9f3fd49958fe5bec1e2375d51e20c29ff9a94bd48746cb3e6bc019727f58e98160001b613389565b610a0d7fd7b064dce2445ed8220d39d472a416bf8987e0faaf8b62d2a88512b559b330e960001b613389565b60001515816101200151151514610a59576040517f08c379a0000000000000000000000000000000000000000000000000000000008152600401610a5090614334565b60405180910390fd5b610a857fbe254436cf4b89220cb0bef0a9dbf255883b45f83307097535a051b64e4c4ae760001b613389565b610ab17f77d03300f7f160ee69c3aecdc0fbf771825ade83fbac245b4805e527209005c660001b613389565b610add7f1b6c7475c872aa9c440065e91455fe320c33bd2450325ec3acb4d37d6a11ee8360001b613389565b610b097fb0989f779d1a7f0f936d43fef5899c05d72d84940c2ee3e1c2aaf458c928fc4060001b613389565b600073ffffffffffffffffffffffffffffffffffffffff16600260009054906101000a900473ffffffffffffffffffffffffffffffffffffffff1673ffffffffffffffffffffffffffffffffffffffff1603610b66576000610c0a565b60011515600260009054906101000a900473ffffffffffffffffffffffffffffffffffffffff1673ffffffffffffffffffffffffffffffffffffffff1663ccd5fcb9336040518263ffffffff1660e01b8152600401610bc59190613d7c565b602060405180830381865afa158015610be2573d6000803e3d6000fd5b505050506040513d601f19601f82011682018060405250810190610c069190614380565b1515145b610c49576040517f08c379a0000000000000000000000000000000000000000000000000000000008152600401610c40906143f9565b60405180910390fd5b610c757fa6e0c3101184cd697b1f27daf471c284ef2b71fffcd4dcea155800469b64920460001b613389565b610ca17fd56227079773170225432f35a3e182ef8a0b397937fee97fde02993ab0ff032660001b613389565b610ccd7f1a5a07d7d5f9ec5b8639d546a5d88d6193202131fafa3cc7bc17692dee0e499860001b613389565b600060056000836040015173ffffffffffffffffffffffffffffffffffffffff1673ffffffffffffffffffffffffffffffffffffffff1681526020019081526020016000206000848152602001908152602001600020549050610d527f4414ce8ddd7b62906b99802faa2ede846f2d4b044008f2256e38dd980e07a1cf60001b613389565b610d7e7fafb373884c93e380f7ec87555fd3ddce9e3e1a3898226c6496d770dedc8a102760001b613389565b808260200151610d8e9190614448565b60016000828254610d9f919061447c565b92505081905550610dd27f7c63f5bfd822359b6f3b04b4a8b9a77dbf086ae4383bf9da9129b37d8dd7fff260001b613389565b610dfe7f9d9bb751d1a4f150abcde37b8cfce84c7bd988060760a2dcdb1fe158ba69d00960001b613389565b600060056000846040015173ffffffffffffffffffffffffffffffffffffffff1673ffffffffffffffffffffffffffffffffffffffff168152602001908152602001600020600085815260200190815260200160002081905550610e847fbc9445da6bd82fd1219ed4d545cc3e07430dc62b4362d1d09523a4b3dfb28a9b60001b613389565b610eb07f057f90cdb7d95a43ee9f3719ed91d7f639ab45c1efe16832172db6020cb71e5d60001b613389565b600060066000846060015173ffffffffffffffffffffffffffffffffffffffff1673ffffffffffffffffffffffffffffffffffffffff168152602001908152602001600020600085815260200190815260200160002081905550610f367f0665c7f7834df57fc3c8088a205b5b482451f9907fb08789539ca37d785687d360001b613389565b610f627fd9219300b79b189545005c9545e14d39dab8ae87f451a8e9c2384bd6ada60dbb60001b613389565b60016003600085815260200190815260200160002060070160026101000a81548160ff021916908315150217905550610fbd7f264c002f4160f14cc520e9582d2a763b16a16e4900049b0e3d44a025292332c860001b613389565b610fe97f3d8da79078c589a4bdc13e183c4e2288f11bd484989a7dabff2716267b5653ea60001b613389565b600260009054906101000a900473ffffffffffffffffffffffffffffffffffffffff1673ffffffffffffffffffffffffffffffffffffffff1663b8fcf9376040518163ffffffff1660e01b8152600401602060405180830381865afa158015611056573d6000803e3d6000fd5b505050506040513d601f19601f8201168201806040525081019061107a91906144e7565b73ffffffffffffffffffffffffffffffffffffffff1663a9059cbb8360400151836040518363ffffffff1660e01b81526004016110b8929190614514565b6020604051808303816000875af11580156110d7573d6000803e3d6000fd5b505050506040513d601f19601f820116820180604052508101906110fb9190614380565b506111287f8523f39f83b2b2cdc26a2b31e769df08b2f8827a1edd867cc7ec425890a87b8460001b613389565b6111547f66469767fe847e4f007ab4c2ee3ab59e209786a3a1e3d640f6d4b96006adbf1760001b613389565b7f79ea1e63534a5791aeb2fa76310349fa28bd6cef2156f4240adfa686cb8a451a8383604001513360405161118b9392919061453d565b60405180910390a1505050565b60015481565b6111a661338c565b6111d27fc7f250e93978b5b899850fb5367981c948587335a2a921ff08c9238d31ffd95360001b613389565b6111fe7f69624421b6fbd156d7a60fe128b43ad3da456d3dda4bf8945eb1c24cd9d8aabc60001b613389565b61122a7f677c72f86e7a965ecc85002f5a5cd7a9c6a72a4e4bb1e3d845ff9c2b2ee8f95760001b613389565b6112567f919a3bc34296b3037e6e1ead1de9c4b0f153aa0717f14c70572ebcb0328b5ae560001b613389565b600073ffffffffffffffffffffffffffffffffffffffff16600260009054906101000a900473ffffffffffffffffffffffffffffffffffffffff1673ffffffffffffffffffffffffffffffffffffffff16036112e7576040517f08c379a00000000000000000000000000000000000000000000000000000000081526004016112de906145c0565b60405180910390fd5b6113137f34e9e471aa90207354d043fd41997870507e55fffe7a4d60cdac22dd3339539460001b613389565b61133f7f5b61b22932ab5087f25bd324d826d0b2f9118de23446e888717cb45c7c90654260001b613389565b61136b7fd497da35f58ec2c68fc7734afb559bef9db64038da021c8682ce264d7e93a20a60001b613389565b6000600260009054906101000a900473ffffffffffffffffffffffffffffffffffffffff1673ffffffffffffffffffffffffffffffffffffffff1663b8fcf9376040518163ffffffff1660e01b8152600401602060405180830381865afa1580156113da573d6000803e3d6000fd5b505050506040513d601f19601f820116820180604052508101906113fe91906144e7565b905061142c7ff1bf1d2a9a98ccd08852d9b8cda88ffa2cb995ea0f23c391f70d2e4ec060cede60001b613389565b6114587faef288cbffc137964f8b6c1042fc08ade3e3bf329862f6d4d90f928bad169a1860001b613389565b6114847fabe5d62f3707e61a26781829766f38805c9d5ba6e7cd1586f89f15e2b954595260001b613389565b600073ffffffffffffffffffffffffffffffffffffffff16600260009054906101000a900473ffffffffffffffffffffffffffffffffffffffff1673ffffffffffffffffffffffffffffffffffffffff1663b8fcf9376040518163ffffffff1660e01b8152600401602060405180830381865afa158015611509573d6000803e3d6000fd5b505050506040513d601f19601f8201168201806040525081019061152d91906144e7565b73ffffffffffffffffffffffffffffffffffffffff1603611583576040517f08c379a000000000000000000000000000000000000000000000000000000000815260040161157a9061462c565b60405180910390fd5b6115af7f589a6abf600804789a8e5a9e2598006750950a0fb1762b63f0c06c44e405057f60001b613389565b6115db7fabe0809e0528c85ff4099ffd9998081ab0a473609824c280b1e1f7cb1dd3aeec60001b613389565b6116077f98766915d63e348665cd553945acf7a4ba1a3fd3ce59d27bc79bf1832aafeaca60001b613389565b8073ffffffffffffffffffffffffffffffffffffffff1663a9059cbb600260009054906101000a900473ffffffffffffffffffffffffffffffffffffffff166001546040518363ffffffff1660e01b8152600401611666929190614514565b6020604051808303816000875af1158015611685573d6000803e3d6000fd5b505050506040513d601f19601f820116820180604052508101906116a99190614380565b506116d67fc4564d4d96f309e11e6884d8329706896b3701100518642574eabc8419382b8460001b613389565b6117027f463a664c14b8cc30f6e55a48953dae3fb0510f47a9b6067230b56d4a19d7152260001b613389565b600060018190555050565b6004602052816000526040600020818154811061172957600080fd5b90600052602060002001600091509150505481565b600260009054906101000a900473ffffffffffffffffffffffffffffffffffffffff1681565b61176c61338c565b611776600061340a565b565b60606117a67fb0c7a0794eb33176bacecdb8d281335d4a1d3121bc486fb628258ac87061d95c60001b613389565b6117d27fd4958a03b8d5ce8adbc027e0adcb7682161365e335c47b2531f3d41d9c6b38cf60001b613389565b6117fe7f8a94d6424dc746d03f248949fdd33013817a2cf502f427f09622eb79e11ee7e560001b613389565b600460008373ffffffffffffffffffffffffffffffffffffffff1673ffffffffffffffffffffffffffffffffffffffff16815260200190815260200160002080548060200260200160405190810160405280929190818152602001828054801561188757602002820191906000526020600020905b815481526020019060010190808311611873575b50505050509050919050565b60036020528060005260406000206000915090508060000180546118b6906141df565b80601f01602080910402602001604051908101604052809291908181526020018280546118e2906141df565b801561192f5780601f106119045761010080835404028352916020019161192f565b820191906000526020600020905b81548152906001019060200180831161191257829003601f168201915b5050505050908060010154908060020160009054906101000a900473ffffffffffffffffffffffffffffffffffffffff16908060030160009054906101000a900473ffffffffffffffffffffffffffffffffffffffff169080600401549080600501805461199c906141df565b80601f01602080910402602001604051908101604052809291908181526020018280546119c8906141df565b8015611a155780601f106119ea57610100808354040283529160200191611a15565b820191906000526020600020905b8154815290600101906020018083116119f857829003601f168201915b5050505050908060060154908060070160009054906101000a900460ff16908060070160019054906101000a900460ff16908060070160029054906101000a900460ff1690806008018054611a69906141df565b80601f0160208091040260200160405190810160405280929190818152602001828054611a95906141df565b8015611ae25780601f10611ab757610100808354040283529160200191611ae2565b820191906000526020600020905b815481529060010190602001808311611ac557829003601f168201915b505050505090508b565b6005602052816000526040600020602052806000526040600020600091509150505481565b60008060009054906101000a900473ffffffffffffffffffffffffffffffffffffffff16905090565b611b667fe27713646c8a1616af02538055d4f88860fbd353b0daa02304d259b6c291d4f960001b613389565b611b927f3f179d270dc85970dfd67a40d658ff3c0fecbbb80f976b8727ee0102f8d1589460001b613389565b611bbe7f9842ae1ff0e1df197dfecfa5496acf0259ad52108c5722bf312e7539778c136d60001b613389565b611bea7fad2a9856e35c9e63d8fa78fc51001dac7125938c7aef171de1d752619d6d704160001b613389565b60008686905003611c30576040517f08c379a0000000000000000000000000000000000000000000000000000000008152600401611c2790614698565b60405180910390fd5b611c5c7f292c7389fab25c1cd2e3ee6d6a434ac4aa0646106904f69437fc4a8cf96cd38560001b613389565b611c887f2d36fa8c73a7d811f847059296c4c84f52d4a671ec4bb50e8f510b55ddcb29ce60001b613389565b611cb47f80a061f812fc78d9bf46f6e95a2651de69e74d4addebe633ed5464f209985b0f60001b613389565b611ce07f4ecc4cec957a9170b04337981ca555e77d725a510e963eb5b35af7276fcf0a7760001b613389565b621e8480841015611d26576040517f08c379a0000000000000000000000000000000000000000000000000000000008152600401611d1d90614704565b60405180910390fd5b611d527fcac3489784ca96a90b66d0e22fef0479bb6255b757ed4e96d9bd86fa1a17ce7f60001b613389565b611d7e7f4f9e0e249772c3cf33168e921e672ba0e7d2bca8889dccaccea31decdac310e260001b613389565b611daa7fad4bf83570baa7102cadeb6e4be9663945bef680d6a58a88b8a2cf1cc23fd19760001b613389565b611db88686868686866134ce565b6003600060075481526020019081526020016000206000820151816000019080519060200190611de9929190613687565b506020820151816001015560408201518160020160006101000a81548173ffffffffffffffffffffffffffffffffffffffff021916908373ffffffffffffffffffffffffffffffffffffffff16021790555060608201518160030160006101000a81548173ffffffffffffffffffffffffffffffffffffffff021916908373ffffffffffffffffffffffffffffffffffffffff1602179055506080820151816004015560a0820151816005019080519060200190611ea8929190613687565b5060c0820151816006015560e08201518160070160006101000a81548160ff0219169083151502179055506101008201518160070160016101000a81548160ff0219169083151502179055506101208201518160070160026101000a81548160ff021916908315150217905550610140820151816008019080519060200190611f3292919061370d565b50905050611f627f48d9f9fadef2928e8fb396de7355e8b844f7efc50ee7ba305428bee4fd7bbd3560001b613389565b611f8e7f8ba0df806b525b527f53a597f394c0d0eb63e75f2bbe12c7e73aa4d4cd751ec860001b613389565b600460003373ffffffffffffffffffffffffffffffffffffffff1673ffffffffffffffffffffffffffffffffffffffff16815260200190815260200160002060075490806001815401808255809150506001900390600052602060002001600090919091909150556120227f7cb2c4198026c5cf0a5844e1aff3ee98b094fa949745c8836e93770b707c586060001b613389565b61204e7f1bb65dbf8b6bc0f0970be2f4e7b316787ad58147d63619fbadaec77c9062183460001b613389565b7f4652437f761c98c9da0cbf58e43dd666358d175a79342439f8d7048fd5a5468186868633600754604051612087959493929190614751565b60405180910390a16120bb7f3c5196bcf8e33a5c21924697d3ddc546733cb8fe2fb75c5573a2f127d3778f8c60001b613389565b6120e77f1c2444f8137069237f87c8a2eb3f24570af087e442ed6edafc6f45c983b39b2260001b613389565b6001600760008282546120fa919061447c565b92505081905550505050505050565b61211161338c565b61213d7fe78af49197b63eff6aa6249e39d9778d5c82619d4297c8288b261300d3591ec260001b613389565b6121697f028126844db0ffe17ec83c3ce5cae07bff00e3cac86c7a6ceff8b9ea2d6dc3ab60001b613389565b6121957f4a6df6c7bdca7141961c4e78bb4315e6f00988a54e5ad261f0bb41022ba265be60001b613389565b6121c17f34b327e11f924449dd81ed36da5ca17cff6262bcbafd93191bb9362a1142576360001b613389565b600073ffffffffffffffffffffffffffffffffffffffff168173ffffffffffffffffffffffffffffffffffffffff1603612230576040517f08c379a0000000000000000000000000000000000000000000000000000000008152600401612227906147eb565b60405180910390fd5b61225c7f3f2b20feaa43bbed654b796449f2ec82a1766e8857316f4308d30997113e45d960001b613389565b6122887fd4f6deeb8c53c7d6f5266620c5515be1d703d1eaa1ce1464d9b7ee5a6bcb4a6960001b613389565b6122b47f341e81d1c5aa2c23b76502c208b95efc112fa83f46a6ff8388d9e0543c7cfed860001b613389565b80600260006101000a81548173ffffffffffffffffffffffffffffffffffffffff021916908373ffffffffffffffffffffffffffffffffffffffff16021790555050565b60075481565b61232a7f3f9c78c1c229678171534b1f9246037db70dd2c92bd9e2e96c1403367265805360001b613389565b6123567f6ed34b0f9b6a4f4c74f5df19209061f2a261c91463d94f21ce6cb31ea16ecc4560001b613389565b6123827fb21e9c6dc672f53300b28175599f906f5f32f88b790e4ec17918b572f84a382e60001b613389565b6000600360008a815260200190815260200160002090506123c57fbdc178ed067c7acb40c3dab5bab1a7983e9f00aceba547ca8b38e9c12a07889e60001b613389565b6123f17fb2659ef8985d53eb07124496f170fb1caad18548119fb8222c7fd3c7cf2201cd60001b613389565b61241d7f0cc4f3aa826a46c740ab9a889bccab44a6d1e444909dfdc5b1f16c4c4da5200760001b613389565b600073ffffffffffffffffffffffffffffffffffffffff168160020160009054906101000a900473ffffffffffffffffffffffffffffffffffffffff1673ffffffffffffffffffffffffffffffffffffffff16036124b0576040517f08c379a00000000000000000000000000000000000000000000000000000000081526004016124a79061425c565b60405180910390fd5b6124dc7f0ce102e235b84f23a90698e7a4169e6a44730c4a2268be16e55ef23c64e5bd6a60001b613389565b6125087f89c68c2de6ab670888456d1f87df047982c48ab4976a34c2a98c4d34810b17f960001b613389565b6125347f09b4f16a8b58e545ff1252da997c5d3e6db4d5afad2d7dc301455f0c5e2a79cd60001b613389565b6125607f0684f491d3ef1b64a124ab986f4aed15d45b291289a008481b4846339cd2a2ab60001b613389565b600015158160070160019054906101000a900460ff161515146125b8576040517f08c379a00000000000000000000000000000000000000000000000000000000081526004016125af90614857565b60405180910390fd5b6125e47f5e1150aee1cd0706fda0427e8803f63c634c75e620a9f5e8b1e95a5ce5fe396060001b613389565b6126107f212a5ae5e30a94c6a0bd17b0f8330af365fc63ae0fa1d18346dc8b2904aae6e560001b613389565b61263c7fcc45c5cc402a90723ca29c0af97faab78c64bae1ac9e8db28ce1a1ed6e31882760001b613389565b6126687f354f2946b5005adb130ec19850927d63b5f9a3fd2e84e4a07fbf0fcee33ff95360001b613389565b80600101548410156126af576040517f08c379a00000000000000000000000000000000000000000000000000000000081526004016126a6906148c3565b60405180910390fd5b6126db7fcac44bc9fa2829d0ae931db5972bf9cd123488750d6081411afee1ae106f256760001b613389565b6127077f246af85dd92ebe0b220b7e0dd717fae9a45ecf7594c1f9c92942fc47dea2fd2060001b613389565b6127337fe868b38471ad353d377d4fc7fdafa32d46334d8dc4736bdd82175ce64dd77fec60001b613389565b61275f7fe7dd9a13d5d9dd80f06a9857a590d55e3a6e1956c0b65857e5e0c3e0ecd30f8360001b613389565b600088889050036127a5576040517f08c379a000000000000000000000000000000000000000000000000000000000815260040161279c9061492f565b60405180910390fd5b6127d17f78f1007876c054ea46f5f5188ad751bb3a88441e9aaf6a809114ec698289da0160001b613389565b6127fd7f40036d82f19038e2e62e32dc36f8c5916cfd5430d527cbcbf9f67e7b012298f360001b613389565b6128297f6ff19b359b049614617cb296e221328d658b822072d92bafb4f5c0ef34c00c1c60001b613389565b6128557f3f9a5d828c488c679095b11bbcd0d33a991d3fb4eaf493dc9f53a5ee7557e0c360001b613389565b30896040516020016128689291906149b8565b6040516020818303038152906040528051906020012085146128bf576040517f08c379a00000000000000000000000000000000000000000000000000000000081526004016128b690614a30565b60405180910390fd5b6128eb7f1ad35c48763c1aca04082df5bff4aabcde61618ac4867729e70dbf57dcab233d60001b613389565b6129177f0c96caf45f5d8429de120a98b1f4337b66556cbed03ebe52d78c60e6640296bb60001b613389565b6129437f5a8f961ffd242b11ca8c687fe70e61e162f7a66aa07a0db1047dd987bce621d760001b613389565b61296f7fe2e4f17ae90d0405a56fd2fb718cb3cf34f44bdb168f8041fd9e1f33c1d2cbc260001b613389565b600073ffffffffffffffffffffffffffffffffffffffff16600260009054906101000a900473ffffffffffffffffffffffffffffffffffffffff1673ffffffffffffffffffffffffffffffffffffffff1603612a00576040517f08c379a00000000000000000000000000000000000000000000000000000000081526004016129f790614a9c565b60405180910390fd5b612a2c7f897b11c8d04f9601bf2a2dc06cdb03e59998dc61405e20ecb930bd932d154d6c60001b613389565b612a587fea6e6b62ae0c71e1041558ae077348fc742c57904f6ce1785a68d6276dd4338560001b613389565b612a847f9fe0d6f9bbdfff30c8d8b2582c9718b6b419e34121299d984ffd19112ca5adf860001b613389565b612ab07f6c442ab9d0c489f6c3baa8779b3d6e171149dbe4ec5b85d87dd66121f94807c560001b613389565b600073ffffffffffffffffffffffffffffffffffffffff16600260009054906101000a900473ffffffffffffffffffffffffffffffffffffffff1673ffffffffffffffffffffffffffffffffffffffff1663b8fcf9376040518163ffffffff1660e01b8152600401602060405180830381865afa158015612b35573d6000803e3d6000fd5b505050506040513d601f19601f82011682018060405250810190612b5991906144e7565b73ffffffffffffffffffffffffffffffffffffffff1603612baf576040517f08c379a0000000000000000000000000000000000000000000000000000000008152600401612ba69061462c565b60405180910390fd5b612bdb7fa8574c534c993cd30da4dd3e53c98df2d8efcec2af9c5a07999e9c9eb2f6671460001b613389565b612c077f45289e553068bb9e3bbb381fe48e81635124e1b73685fb1ea5f1c2ebb883722e60001b613389565b612c337f71709c01a13a64f113d0ea0e8696e8eef79dec5e5d4972357d675c43ff108e8260001b613389565b8787826008019190612c46929190613793565b50612c737f0cb8f042b47160bdf91627f6cb84ee86b86866b6f18ec264c1690cad65c746df60001b613389565b612c9f7fa86600fa5d733cf556fff49d3bc406c55bc5f546cee3e24d63917f80750ff36560001b613389565b60018160070160016101000a81548160ff021916908315150217905550612ce87fcfebf0e739e38302d2824daab7f39395a81f75460157542ae2fa5d3e4d38fdfe60001b613389565b612d147f64b568f947b0d0efa086a97d61832b25428aac927cd56424b343a16b9b74243260001b613389565b606460638260010154612d279190614abc565b612d319190614b45565b600560008360020160009054906101000a900473ffffffffffffffffffffffffffffffffffffffff1673ffffffffffffffffffffffffffffffffffffffff1673ffffffffffffffffffffffffffffffffffffffff16815260200190815260200160002060008b815260200190815260200160002081905550612dd57ff5fd20345c3eccacb34c2527ab5be9cfcc0b02278b5318c22619f2151d4806b060001b613389565b612e017fd113941ce61b5adc62cbe0858215f3dfd0cc3799e4bc46a3f8f654b14e883a5160001b613389565b8060010154600660008573ffffffffffffffffffffffffffffffffffffffff1673ffffffffffffffffffffffffffffffffffffffff16815260200190815260200160002060008b815260200190815260200160002081905550612e867f3d7c47a6d8dce009b89a45fb23c8715e8f7846551b02a0fd34705cead454ae9860001b613389565b612eb27ff0ecd30135d7c0ccac8a465121312585631a9b0f369aa9e60b0d138127e3538160001b613389565b82600360008b815260200190815260200160002060030160006101000a81548173ffffffffffffffffffffffffffffffffffffffff021916908373ffffffffffffffffffffffffffffffffffffffff160217905550612f337fdc81f4627c8036bd49cf7d37878aeeefce9d0934b0ddb02265c027d215e81c1c60001b613389565b612f5f7fce49e4cc931ad5525177b389d0ae193704dd57f407e9d56fceabc9812204d55360001b613389565b6000600260009054906101000a900473ffffffffffffffffffffffffffffffffffffffff1673ffffffffffffffffffffffffffffffffffffffff1663b8fcf9376040518163ffffffff1660e01b8152600401602060405180830381865afa158015612fce573d6000803e3d6000fd5b505050506040513d601f19601f82011682018060405250810190612ff291906144e7565b90506130207f15e663c329e0ddd826f89fe1cd6b64dff374ebec8cc685031b0c4ae57721532760001b613389565b61304c7fff163d59c36f1b6c45170d22c76e6f6b76d766e37e55462d6ca2f3baf353fd2260001b613389565b8073ffffffffffffffffffffffffffffffffffffffff16639f4fae128888888830896040518763ffffffff1660e01b815260040161308f96959493929190614b76565b600060405180830381600087803b1580156130a957600080fd5b505af11580156130bd573d6000803e3d6000fd5b505050506130ed7f1115c579dd93a9bcbb95836c7261d052be6aed9e7b1c2975850fbc06d418402060001b613389565b6131197f8fda7e6728720ab7fae37b0fef8cf69f02524950011beaa9bb48aff6d1f3d6cd60001b613389565b816001015485111561323c576131517f34e0e8288f62097db7790c48ebbfa3d936fe4f64062f274b86212f64f36a466660001b613389565b61317d7f7cac4c4d264bd75cd0a4452e2b0c282fed8fbe66f08ac0c8a4ba13e89f0573ca60001b613389565b6131a97f9c01439333a420ba417a2a8ac13b1c4068d85a6e498fc99266bdcb998a53d38a60001b613389565b8073ffffffffffffffffffffffffffffffffffffffff1663a9059cbb858460010154886131d69190614448565b6040518363ffffffff1660e01b81526004016131f3929190614514565b6020604051808303816000875af1158015613212573d6000803e3d6000fd5b505050506040513d601f19601f820116820180604052508101906132369190614380565b50613269565b6132687f19951f175ec5363ddb7abe98fbe32deb9459e8d348637d6f7c969e6ef376745660001b613389565b5b6132957f48d8479812912e652af1fbd3e1e9a11666ed0517f42637f4bf5e0fd7cda29a6f60001b613389565b6132c17fe84d42b16eb73eb4877e8a4d3ca998f6be928696f0a5a7607a3fad0b7165a47460001b613389565b7f7ec1ccbaefa3247177339d05656f4035327987c9d315294231c54e78cc87927a8a856040516132f2929190614bde565b60405180910390a150505050505050505050565b61330e61338c565b600073ffffffffffffffffffffffffffffffffffffffff168173ffffffffffffffffffffffffffffffffffffffff160361337d576040517f08c379a000000000000000000000000000000000000000000000000000000000815260040161337490614c79565b60405180910390fd5b6133868161340a565b50565b50565b61339461367f565b73ffffffffffffffffffffffffffffffffffffffff166133b2611b11565b73ffffffffffffffffffffffffffffffffffffffff1614613408576040517f08c379a00000000000000000000000000000000000000000000000000000000081526004016133ff90614ce5565b60405180910390fd5b565b60008060009054906101000a900473ffffffffffffffffffffffffffffffffffffffff169050816000806101000a81548173ffffffffffffffffffffffffffffffffffffffff021916908373ffffffffffffffffffffffffffffffffffffffff1602179055508173ffffffffffffffffffffffffffffffffffffffff168173ffffffffffffffffffffffffffffffffffffffff167f8be0079c531659141344cd1fd0a4f28419497f9722a3daafe3b4186f6b6457e060405160405180910390a35050565b6134d6613819565b6135027f249468074917d74e4ea64ba52e7e4df35f40e53dd5dc3821f2b476f2e557305860001b613389565b61352e7fb50353257d9564121768e31803fbc661c1535966fcbfac92f4618eac622a267460001b613389565b61355a7f219f3f3f6dff673deb9233c92ef90ad9aad56473104a1da13e4fa2b4a7d1a70060001b613389565b60405180610160016040528088888080601f016020809104026020016040519081016040528093929190818152602001838380828437600081840152601f19601f8201169050808301925050505050505081526020018681526020013373ffffffffffffffffffffffffffffffffffffffff168152602001600073ffffffffffffffffffffffffffffffffffffffff16815260200142815260200185858080601f016020809104026020016040519081016040528093929190818152602001838380828437600081840152601f19601f8201169050808301925050505050505081526020018381526020016000151581526020016000151581526020016000151581526020016040518060200160405280600081525081525090509695505050505050565b600033905090565b828054613693906141df565b90600052602060002090601f0160209004810192826136b557600085556136fc565b82601f106136ce57805160ff19168380011785556136fc565b828001600101855582156136fc579182015b828111156136fb5782518255916020019190600101906136e0565b5b50905061370991906138a8565b5090565b828054613719906141df565b90600052602060002090601f01602090048101928261373b5760008555613782565b82601f1061375457805160ff1916838001178555613782565b82800160010185558215613782579182015b82811115613781578251825591602001919060010190613766565b5b50905061378f91906138a8565b5090565b82805461379f906141df565b90600052602060002090601f0160209004810192826137c15760008555613808565b82601f106137da57803560ff1916838001178555613808565b82800160010185558215613808579182015b828111156138075782358255916020019190600101906137ec565b5b50905061381591906138a8565b5090565b6040518061016001604052806060815260200160008152602001600073ffffffffffffffffffffffffffffffffffffffff168152602001600073ffffffffffffffffffffffffffffffffffffffff168152602001600081526020016060815260200160008019168152602001600015158152602001600015158152602001600015158152602001606081525090565b5b808211156138c15760008160009055506001016138a9565b5090565b6000604051905090565b600080fd5b600080fd5b600073ffffffffffffffffffffffffffffffffffffffff82169050919050565b6000613904826138d9565b9050919050565b613914816138f9565b811461391f57600080fd5b50565b6000813590506139318161390b565b92915050565b6000819050919050565b61394a81613937565b811461395557600080fd5b50565b60008135905061396781613941565b92915050565b60008060408385031215613984576139836138cf565b5b600061399285828601613922565b92505060206139a385828601613958565b9150509250929050565b6139b681613937565b82525050565b60006020820190506139d160008301846139ad565b92915050565b6000602082840312156139ed576139ec6138cf565b5b60006139fb84828501613958565b91505092915050565b6000819050919050565b6000613a29613a24613a1f846138d9565b613a04565b6138d9565b9050919050565b6000613a3b82613a0e565b9050919050565b6000613a4d82613a30565b9050919050565b613a5d81613a42565b82525050565b6000602082019050613a786000830184613a54565b92915050565b600060208284031215613a9457613a936138cf565b5b6000613aa284828501613922565b91505092915050565b600081519050919050565b600082825260208201905092915050565b6000819050602082019050919050565b613ae081613937565b82525050565b6000613af28383613ad7565b60208301905092915050565b6000602082019050919050565b6000613b1682613aab565b613b208185613ab6565b9350613b2b83613ac7565b8060005b83811015613b5c578151613b438882613ae6565b9750613b4e83613afe565b925050600181019050613b2f565b5085935050505092915050565b60006020820190508181036000830152613b838184613b0b565b905092915050565b600081519050919050565b600082825260208201905092915050565b60005b83811015613bc5578082015181840152602081019050613baa565b83811115613bd4576000848401525b50505050565b6000601f19601f8301169050919050565b6000613bf682613b8b565b613c008185613b96565b9350613c10818560208601613ba7565b613c1981613bda565b840191505092915050565b613c2d816138f9565b82525050565b6000819050919050565b613c4681613c33565b82525050565b60008115159050919050565b613c6181613c4c565b82525050565b600081519050919050565b600082825260208201905092915050565b6000613c8e82613c67565b613c988185613c72565b9350613ca8818560208601613ba7565b613cb181613bda565b840191505092915050565b6000610160820190508181036000830152613cd7818e613beb565b9050613ce6602083018d6139ad565b613cf3604083018c613c24565b613d00606083018b613c24565b613d0d608083018a6139ad565b81810360a0830152613d1f8189613beb565b9050613d2e60c0830188613c3d565b613d3b60e0830187613c58565b613d49610100830186613c58565b613d57610120830185613c58565b818103610140830152613d6a8184613c83565b90509c9b505050505050505050505050565b6000602082019050613d916000830184613c24565b92915050565b600080fd5b600080fd5b600080fd5b60008083601f840112613dbc57613dbb613d97565b5b8235905067ffffffffffffffff811115613dd957613dd8613d9c565b5b602083019150836001820283011115613df557613df4613da1565b5b9250929050565b613e0581613c33565b8114613e1057600080fd5b50565b600081359050613e2281613dfc565b92915050565b60008060008060008060808789031215613e4557613e446138cf565b5b600087013567ffffffffffffffff811115613e6357613e626138d4565b5b613e6f89828a01613da6565b96509650506020613e8289828a01613958565b945050604087013567ffffffffffffffff811115613ea357613ea26138d4565b5b613eaf89828a01613da6565b93509350506060613ec289828a01613e13565b9150509295509295509295565b6000613eda826138d9565b9050919050565b6000613eec82613ecf565b9050919050565b613efc81613ee1565b8114613f0757600080fd5b50565b600081359050613f1981613ef3565b92915050565b600060208284031215613f3557613f346138cf565b5b6000613f4384828501613f0a565b91505092915050565b60008083601f840112613f6257613f61613d97565b5b8235905067ffffffffffffffff811115613f7f57613f7e613d9c565b5b602083019150836001820283011115613f9b57613f9a613da1565b5b9250929050565b600080fd5b7f4e487b7100000000000000000000000000000000000000000000000000000000600052604160045260246000fd5b613fdf82613bda565b810181811067ffffffffffffffff82111715613ffe57613ffd613fa7565b5b80604052505050565b60006140116138c5565b905061401d8282613fd6565b919050565b600067ffffffffffffffff82111561403d5761403c613fa7565b5b61404682613bda565b9050602081019050919050565b82818337600083830152505050565b600061407561407084614022565b614007565b90508281526020810184848401111561409157614090613fa2565b5b61409c848285614053565b509392505050565b600082601f8301126140b9576140b8613d97565b5b81356140c9848260208601614062565b91505092915050565b60008060008060008060008060e0898b0312156140f2576140f16138cf565b5b60006141008b828c01613958565b985050602089013567ffffffffffffffff811115614121576141206138d4565b5b61412d8b828c01613f4c565b975097505060406141408b828c01613958565b95505060606141518b828c01613e13565b94505060806141628b828c01613958565b93505060a06141738b828c01613922565b92505060c089013567ffffffffffffffff811115614194576141936138d4565b5b6141a08b828c016140a4565b9150509295985092959890939650565b7f4e487b7100000000000000000000000000000000000000000000000000000000600052602260045260246000fd5b600060028204905060018216806141f757607f821691505b60208210810361420a576142096141b0565b5b50919050565b7f4e6f20737563682070726f647563740000000000000000000000000000000000600082015250565b6000614246600f83613b96565b915061425182614210565b602082019050919050565b6000602082019050818103600083015261427581614239565b9050919050565b7f50726f64756374206e6f74207061696400000000000000000000000000000000600082015250565b60006142b2601083613b96565b91506142bd8261427c565b602082019050919050565b600060208201905081810360008301526142e1816142a5565b9050919050565b7f50726f6475637420616c72656164792064656c69766572656400000000000000600082015250565b600061431e601983613b96565b9150614329826142e8565b602082019050919050565b6000602082019050818103600083015261434d81614311565b9050919050565b61435d81613c4c565b811461436857600080fd5b50565b60008151905061437a81614354565b92915050565b600060208284031215614396576143956138cf565b5b60006143a48482850161436b565b91505092915050565b7f4e6f7420616e20617574686f72697a656420636f757269657200000000000000600082015250565b60006143e3601983613b96565b91506143ee826143ad565b602082019050919050565b60006020820190508181036000830152614412816143d6565b9050919050565b7f4e487b7100000000000000000000000000000000000000000000000000000000600052601160045260246000fd5b600061445382613937565b915061445e83613937565b92508282101561447157614470614419565b5b828203905092915050565b600061448782613937565b915061449283613937565b9250827fffffffffffffffffffffffffffffffffffffffffffffffffffffffffffffffff038211156144c7576144c6614419565b5b828201905092915050565b6000815190506144e18161390b565b92915050565b6000602082840312156144fd576144fc6138cf565b5b600061450b848285016144d2565b91505092915050565b60006040820190506145296000830185613c24565b61453660208301846139ad565b9392505050565b600060608201905061455260008301866139ad565b61455f6020830185613c24565b61456c6040830184613c24565b949350505050565b7f446f65736e27742068617665206f776e6572206d61726b6574706c6163650000600082015250565b60006145aa601e83613b96565b91506145b582614574565b602082019050919050565b600060208201905081810360008301526145d98161459d565b9050919050565b7f4e6f20746f6b656e207370656369666965640000000000000000000000000000600082015250565b6000614616601283613b96565b9150614621826145e0565b602082019050919050565b6000602082019050818103600083015261464581614609565b9050919050565b7f4e616d652073686f756c646e277420626520656d707479000000000000000000600082015250565b6000614682601783613b96565b915061468d8261464c565b602082019050919050565b600060208201905081810360008301526146b181614675565b9050919050565b7f50726963652073686f756c64206265203e3d3230303030303000000000000000600082015250565b60006146ee601983613b96565b91506146f9826146b8565b602082019050919050565b6000602082019050818103600083015261471d816146e1565b9050919050565b60006147308385613b96565b935061473d838584614053565b61474683613bda565b840190509392505050565b6000608082019050818103600083015261476c818789614724565b905061477b60208301866139ad565b6147886040830185613c24565b61479560608301846139ad565b9695505050505050565b7f416464726573732073686f756c646e2774206265203000000000000000000000600082015250565b60006147d5601683613b96565b91506147e08261479f565b602082019050919050565b60006020820190508181036000830152614804816147c8565b9050919050565b7f50726f6475637420616c726561647920626f7567687400000000000000000000600082015250565b6000614841601683613b96565b915061484c8261480b565b602082019050919050565b6000602082019050818103600083015261487081614834565b9050919050565b7f4e6f7420656e6f75676820657468000000000000000000000000000000000000600082015250565b60006148ad600e83613b96565b91506148b882614877565b602082019050919050565b600060208201905081810360008301526148dc816148a0565b9050919050565b7f4e6f2064656c697665727920696e737472756374696f6e730000000000000000600082015250565b6000614919601883613b96565b9150614924826148e3565b602082019050919050565b600060208201905081810360008301526149488161490c565b9050919050565b60008160601b9050919050565b60006149678261494f565b9050919050565b60006149798261495c565b9050919050565b61499161498c826138f9565b61496e565b82525050565b6000819050919050565b6149b26149ad82613937565b614997565b82525050565b60006149c48285614980565b6014820191506149d482846149a1565b6020820191508190509392505050565b7f57726f6e67206e6f6e6365000000000000000000000000000000000000000000600082015250565b6000614a1a600b83613b96565b9150614a25826149e4565b602082019050919050565b60006020820190508181036000830152614a4981614a0d565b9050919050565b7f4e6f206d61726b6574706c616365000000000000000000000000000000000000600082015250565b6000614a86600e83613b96565b9150614a9182614a50565b602082019050919050565b60006020820190508181036000830152614ab581614a79565b9050919050565b6000614ac782613937565b9150614ad283613937565b9250817fffffffffffffffffffffffffffffffffffffffffffffffffffffffffffffffff0483118215151615614b0b57614b0a614419565b5b828202905092915050565b7f4e487b7100000000000000000000000000000000000000000000000000000000600052601260045260246000fd5b6000614b5082613937565b9150614b5b83613937565b925082614b6b57614b6a614b16565b5b828204905092915050565b600060c082019050614b8b60008301896139ad565b614b986020830188613c3d565b614ba560408301876139ad565b614bb26060830186613c24565b614bbf6080830185613c24565b81810360a0830152614bd18184613c83565b9050979650505050505050565b6000604082019050614bf360008301856139ad565b614c006020830184613c24565b9392505050565b7f4f776e61626c653a206e6577206f776e657220697320746865207a65726f206160008201527f6464726573730000000000000000000000000000000000000000000000000000602082015250565b6000614c63602683613b96565b9150614c6e82614c07565b604082019050919050565b60006020820190508181036000830152614c9281614c56565b9050919050565b7f4f776e61626c653a2063616c6c6572206973206e6f7420746865206f776e6572600082015250565b6000614ccf602083613b96565b9150614cda82614c99565b602082019050919050565b60006020820190508181036000830152614cfe81614cc2565b905091905056fea2646970667358221220416dd8a145de8095e6fe4a3d8a1ad9d8345a5d28eab9a6e343620e0053c0f00c64736f6c634300080d0033",
  "linkReferences": {},
  "deployedLinkReferences": {}
}