{
  "_format": "hh-sol-artifact-1",
  "contractName": "SimpleSeller",
  "sourceName": "contracts/SimpleSeller.sol",
  "abi": [
    {
      "anonymous": false,
      "inputs": [
        {
          "indexed": true,
          "internalType": "address",
          "name": "previousOwner",
          "type": "address"
        },
        {
          "indexed": true,
          "internalType": "address",
          "name": "newOwner",
          "type": "address"
        }
      ],
      "name": "OwnershipTransferred",
      "type": "event"
    },
    {
      "anonymous": false,
      "inputs": [
        {
          "indexed": false,
          "internalType": "string",
          "name": "name",
          "type": "string"
        },
        {
          "indexed": false,
          "internalType": "uint256",
          "name": "price",
          "type": "uint256"
        },
        {
          "indexed": false,
          "internalType": "address",
          "name": "seller",
          "type": "address"
        },
        {
          "indexed": false,
          "internalType": "uint256",
          "name": "index",
          "type": "uint256"
        }
      ],
      "name": "sellerProductAdded",
      "type": "event"
    },
    {
      "anonymous": false,
      "inputs": [
        {
          "indexed": false,
          "internalType": "uint256",
          "name": "index",
          "type": "uint256"
        },
        {
          "indexed": false,
          "internalType": "address",
          "name": "seller",
          "type": "address"
        },
        {
          "indexed": false,
          "internalType": "address",
          "name": "courier",
          "type": "address"
        }
      ],
      "name": "sellerProductDelivered",
      "type": "event"
    },
    {
      "anonymous": false,
      "inputs": [
        {
          "indexed": false,
          "internalType": "uint256",
          "name": "index",
          "type": "uint256"
        },
        {
          "indexed": false,
          "internalType": "address",
          "name": "buyer",
          "type": "address"
        }
      ],
      "name": "sellerProductSold",
      "type": "event"
    },
    {
      "inputs": [
        {
          "internalType": "string",
          "name": "name",
          "type": "string"
        },
        {
          "internalType": "uint256",
          "name": "price",
          "type": "uint256"
        },
        {
          "internalType": "string",
          "name": "link",
          "type": "string"
        },
        {
          "internalType": "bytes32",
          "name": "marketHashOfData",
          "type": "bytes32"
        }
      ],
      "name": "addProduct",
      "outputs": [],
      "stateMutability": "nonpayable",
      "type": "function"
    },
    {
      "inputs": [],
      "name": "belongsToContract",
      "outputs": [
        {
          "internalType": "uint256",
          "name": "",
          "type": "uint256"
        }
      ],
      "stateMutability": "view",
      "type": "function"
    },
    {
      "inputs": [
        {
          "internalType": "uint256",
          "name": "index",
          "type": "uint256"
        }
      ],
      "name": "deliverProduct",
      "outputs": [],
      "stateMutability": "nonpayable",
      "type": "function"
    },
    {
      "inputs": [
        {
          "internalType": "address",
          "name": "seller",
          "type": "address"
        }
      ],
      "name": "getIndexesFromSellerAddress",
      "outputs": [
        {
          "internalType": "uint256[]",
          "name": "indexes",
          "type": "uint256[]"
        }
      ],
      "stateMutability": "view",
      "type": "function"
    },
    {
      "inputs": [
        {
          "internalType": "contract Marketplace",
          "name": "marketplace",
          "type": "address"
        }
      ],
      "name": "joinMarketplace",
      "outputs": [],
      "stateMutability": "nonpayable",
      "type": "function"
    },
    {
      "inputs": [
        {
          "internalType": "address",
          "name": "",
          "type": "address"
        },
        {
          "internalType": "uint256",
          "name": "",
          "type": "uint256"
        }
      ],
      "name": "owedMoneyToBuyers",
      "outputs": [
        {
          "internalType": "uint256",
          "name": "",
          "type": "uint256"
        }
      ],
      "stateMutability": "view",
      "type": "function"
    },
    {
      "inputs": [
        {
          "internalType": "address",
          "name": "",
          "type": "address"
        },
        {
          "internalType": "uint256",
          "name": "",
          "type": "uint256"
        }
      ],
      "name": "owedMoneyToSellers",
      "outputs": [
        {
          "internalType": "uint256",
          "name": "",
          "type": "uint256"
        }
      ],
      "stateMutability": "view",
      "type": "function"
    },
    {
      "inputs": [],
      "name": "owner",
      "outputs": [
        {
          "internalType": "address",
          "name": "",
          "type": "address"
        }
      ],
      "stateMutability": "view",
      "type": "function"
    },
    {
      "inputs": [],
      "name": "ownerMarketplace",
      "outputs": [
        {
          "internalType": "contract Marketplace",
          "name": "",
          "type": "address"
        }
      ],
      "stateMutability": "view",
      "type": "function"
    },
    {
      "inputs": [
        {
          "internalType": "uint256",
          "name": "index",
          "type": "uint256"
        },
        {
          "internalType": "bytes",
          "name": "deliveryInstructions",
          "type": "bytes"
        },
        {
          "internalType": "uint256",
          "name": "expiration",
          "type": "uint256"
        },
        {
          "internalType": "address",
          "name": "from",
          "type": "address"
        },
        {
          "internalType": "bytes",
          "name": "sig",
          "type": "bytes"
        }
      ],
      "name": "payProduct",
      "outputs": [],
      "stateMutability": "nonpayable",
      "type": "function"
    },
    {
      "inputs": [],
      "name": "productCount",
      "outputs": [
        {
          "internalType": "uint256",
          "name": "",
          "type": "uint256"
        }
      ],
      "stateMutability": "view",
      "type": "function"
    },
    {
      "inputs": [
        {
          "internalType": "uint256",
          "name": "",
          "type": "uint256"
        }
      ],
      "name": "products",
      "outputs": [
        {
          "internalType": "string",
          "name": "name",
          "type": "string"
        },
        {
          "internalType": "uint256",
          "name": "price",
          "type": "uint256"
        },
        {
          "internalType": "address",
          "name": "seller",
          "type": "address"
        },
        {
          "internalType": "address",
          "name": "buyer",
          "type": "address"
        },
        {
          "internalType": "uint256",
          "name": "addDate",
          "type": "uint256"
        },
        {
          "internalType": "string",
          "name": "linkForMedia",
          "type": "string"
        },
        {
          "internalType": "bytes32",
          "name": "marketHashOfData",
          "type": "bytes32"
        },
        {
          "internalType": "bool",
          "name": "approved",
          "type": "bool"
        },
        {
          "internalType": "bool",
          "name": "paid",
          "type": "bool"
        },
        {
          "internalType": "bool",
          "name": "delivered",
          "type": "bool"
        },
        {
          "internalType": "bytes",
          "name": "deliveryInstructions",
          "type": "bytes"
        }
      ],
      "stateMutability": "view",
      "type": "function"
    },
    {
      "inputs": [],
      "name": "renounceOwnership",
      "outputs": [],
      "stateMutability": "nonpayable",
      "type": "function"
    },
    {
      "inputs": [
        {
          "internalType": "address",
          "name": "",
          "type": "address"
        },
        {
          "internalType": "uint256",
          "name": "",
          "type": "uint256"
        }
      ],
      "name": "sellerToProductIndexes",
      "outputs": [
        {
          "internalType": "uint256",
          "name": "",
          "type": "uint256"
        }
      ],
      "stateMutability": "view",
      "type": "function"
    },
    {
      "inputs": [],
      "name": "transferFunds",
      "outputs": [],
      "stateMutability": "nonpayable",
      "type": "function"
    },
    {
      "inputs": [
        {
          "internalType": "address",
          "name": "newOwner",
          "type": "address"
        }
      ],
      "name": "transferOwnership",
      "outputs": [],
      "stateMutability": "nonpayable",
      "type": "function"
    }
  ],
  "bytecode": "0x6080604052600060015560006007553480156200001b57600080fd5b506200003c620000306200004260201b60201c565b6200004a60201b60201c565b6200010e565b600033905090565b60008060009054906101000a900473ffffffffffffffffffffffffffffffffffffffff169050816000806101000a81548173ffffffffffffffffffffffffffffffffffffffff021916908373ffffffffffffffffffffffffffffffffffffffff1602179055508173ffffffffffffffffffffffffffffffffffffffff168173ffffffffffffffffffffffffffffffffffffffff167f8be0079c531659141344cd1fd0a4f28419497f9722a3daafe3b4186f6b6457e060405160405180910390a35050565b614854806200011e6000396000f3fe608060405234801561001057600080fd5b50600436106101005760003560e01c80637a653f10116100975780639d42a8bd116100665780639d42a8bd146102a5578063ac0b0445146102c1578063e0f6ef87146102dd578063f2fde38b146102fb57610100565b80637a653f10146101ed5780637acc0b201461021d5780637c044577146102575780638da5cb5b1461028757610100565b80634353c0ee116100d35780634353c0ee14610179578063660eb4a3146101a9578063715018a6146101c757806372b9e2fc146101d157610100565b80630f563197146101055780631c96fb1f146101355780633c1b52c4146101515780633c68eb811461016f575b600080fd5b61011f600480360381019061011a9190613586565b610317565b60405161012c91906135d5565b60405180910390f35b61014f600480360381019061014a91906135f0565b61033c565b005b6101596110e2565b60405161016691906135d5565b60405180910390f35b6101776110e8565b005b610193600480360381019061018e9190613586565b611657565b6040516101a091906135d5565b60405180910390f35b6101b1611688565b6040516101be919061367c565b60405180910390f35b6101cf6116ae565b005b6101eb60048036038101906101e6919061383d565b6116c2565b005b610207600480360381019061020291906138f3565b612399565b60405161021491906139de565b60405180910390f35b610237600480360381019061023291906135f0565b6124b4565b60405161024e9b9a99989796959493929190613b20565b60405180910390f35b610271600480360381019061026c9190613586565b61270d565b60405161027e91906135d5565b60405180910390f35b61028f612732565b60405161029c9190613be0565b60405180910390f35b6102bf60048036038101906102ba9190613c7d565b61275b565b005b6102db60048036038101906102d69190613d74565b612d2a565b005b6102e5612f19565b6040516102f291906135d5565b60405180910390f35b610315600480360381019061031091906138f3565b612f1f565b005b6006602052816000526040600020602052806000526040600020600091509150505481565b6103687f6c442ab9d0c489f6c3baa8779b3d6e171149dbe4ec5b85d87dd66121f94807c560001b612fa2565b6103947fa8574c534c993cd30da4dd3e53c98df2d8efcec2af9c5a07999e9c9eb2f6671460001b612fa2565b6103c07f45289e553068bb9e3bbb381fe48e81635124e1b73685fb1ea5f1c2ebb883722e60001b612fa2565b600060036000838152602001908152602001600020604051806101600160405290816000820180546103f190613dd0565b80601f016020809104026020016040519081016040528092919081815260200182805461041d90613dd0565b801561046a5780601f1061043f5761010080835404028352916020019161046a565b820191906000526020600020905b81548152906001019060200180831161044d57829003601f168201915b50505050508152602001600182015481526020016002820160009054906101000a900473ffffffffffffffffffffffffffffffffffffffff1673ffffffffffffffffffffffffffffffffffffffff1673ffffffffffffffffffffffffffffffffffffffff1681526020016003820160009054906101000a900473ffffffffffffffffffffffffffffffffffffffff1673ffffffffffffffffffffffffffffffffffffffff1673ffffffffffffffffffffffffffffffffffffffff1681526020016004820154815260200160058201805461054390613dd0565b80601f016020809104026020016040519081016040528092919081815260200182805461056f90613dd0565b80156105bc5780601f10610591576101008083540402835291602001916105bc565b820191906000526020600020905b81548152906001019060200180831161059f57829003601f168201915b50505050508152602001600682015481526020016007820160009054906101000a900460ff161515151581526020016007820160019054906101000a900460ff161515151581526020016007820160029054906101000a900460ff1615151515815260200160088201805461063090613dd0565b80601f016020809104026020016040519081016040528092919081815260200182805461065c90613dd0565b80156106a95780601f1061067e576101008083540402835291602001916106a9565b820191906000526020600020905b81548152906001019060200180831161068c57829003601f168201915b50505050508152505090506106e07f71709c01a13a64f113d0ea0e8696e8eef79dec5e5d4972357d675c43ff108e8260001b612fa2565b61070c7f0cb8f042b47160bdf91627f6cb84ee86b86866b6f18ec264c1690cad65c746df60001b612fa2565b6107387fa86600fa5d733cf556fff49d3bc406c55bc5f546cee3e24d63917f80750ff36560001b612fa2565b600073ffffffffffffffffffffffffffffffffffffffff16816040015173ffffffffffffffffffffffffffffffffffffffff16036107ab576040517f08c379a00000000000000000000000000000000000000000000000000000000081526004016107a290613e4d565b60405180910390fd5b6107d77fcfebf0e739e38302d2824daab7f39395a81f75460157542ae2fa5d3e4d38fdfe60001b612fa2565b6108037f64b568f947b0d0efa086a97d61832b25428aac927cd56424b343a16b9b74243260001b612fa2565b61082f7ff5fd20345c3eccacb34c2527ab5be9cfcc0b02278b5318c22619f2151d4806b060001b612fa2565b61085b7fd113941ce61b5adc62cbe0858215f3dfd0cc3799e4bc46a3f8f654b14e883a5160001b612fa2565b600115158161010001511515146108a7576040517f08c379a000000000000000000000000000000000000000000000000000000000815260040161089e90613eb9565b60405180910390fd5b6108d37f3d7c47a6d8dce009b89a45fb23c8715e8f7846551b02a0fd34705cead454ae9860001b612fa2565b6108ff7ff0ecd30135d7c0ccac8a465121312585631a9b0f369aa9e60b0d138127e3538160001b612fa2565b61092b7fdc81f4627c8036bd49cf7d37878aeeefce9d0934b0ddb02265c027d215e81c1c60001b612fa2565b6109577fce49e4cc931ad5525177b389d0ae193704dd57f407e9d56fceabc9812204d55360001b612fa2565b600015158161012001511515146109a3576040517f08c379a000000000000000000000000000000000000000000000000000000000815260040161099a90613f25565b60405180910390fd5b6109cf7f15e663c329e0ddd826f89fe1cd6b64dff374ebec8cc685031b0c4ae57721532760001b612fa2565b6109fb7fff163d59c36f1b6c45170d22c76e6f6b76d766e37e55462d6ca2f3baf353fd2260001b612fa2565b610a277f1115c579dd93a9bcbb95836c7261d052be6aed9e7b1c2975850fbc06d418402060001b612fa2565b610a537f8fda7e6728720ab7fae37b0fef8cf69f02524950011beaa9bb48aff6d1f3d6cd60001b612fa2565b600073ffffffffffffffffffffffffffffffffffffffff16600260009054906101000a900473ffffffffffffffffffffffffffffffffffffffff1673ffffffffffffffffffffffffffffffffffffffff1603610ab0576000610b54565b60011515600260009054906101000a900473ffffffffffffffffffffffffffffffffffffffff1673ffffffffffffffffffffffffffffffffffffffff1663ccd5fcb9336040518263ffffffff1660e01b8152600401610b0f9190613be0565b602060405180830381865afa158015610b2c573d6000803e3d6000fd5b505050506040513d601f19601f82011682018060405250810190610b509190613f71565b1515145b610b93576040517f08c379a0000000000000000000000000000000000000000000000000000000008152600401610b8a90613fea565b60405180910390fd5b610bbf7f34e0e8288f62097db7790c48ebbfa3d936fe4f64062f274b86212f64f36a466660001b612fa2565b610beb7f7cac4c4d264bd75cd0a4452e2b0c282fed8fbe66f08ac0c8a4ba13e89f0573ca60001b612fa2565b610c177f9c01439333a420ba417a2a8ac13b1c4068d85a6e498fc99266bdcb998a53d38a60001b612fa2565b600060056000836040015173ffffffffffffffffffffffffffffffffffffffff1673ffffffffffffffffffffffffffffffffffffffff1681526020019081526020016000206000848152602001908152602001600020549050610c9c7f19951f175ec5363ddb7abe98fbe32deb9459e8d348637d6f7c969e6ef376745660001b612fa2565b610cc87f48d8479812912e652af1fbd3e1e9a11666ed0517f42637f4bf5e0fd7cda29a6f60001b612fa2565b808260200151610cd89190614039565b60016000828254610ce9919061406d565b92505081905550610d1c7fe84d42b16eb73eb4877e8a4d3ca998f6be928696f0a5a7607a3fad0b7165a47460001b612fa2565b610d487fc3300df2b5799de9ba0de82cd9956b615eb37291bbdb156d74aee1b31a45734160001b612fa2565b600060056000846040015173ffffffffffffffffffffffffffffffffffffffff1673ffffffffffffffffffffffffffffffffffffffff168152602001908152602001600020600085815260200190815260200160002081905550610dce7f728d99199c2bae55cfe96336e3328a2f53b1e2bdaeab0c071aea009e299f0b1760001b612fa2565b610dfa7fe68f618781a9e464f01991b83fefaec39c47b31180f36e0366f0d0ef7c6720f360001b612fa2565b600060066000846060015173ffffffffffffffffffffffffffffffffffffffff1673ffffffffffffffffffffffffffffffffffffffff168152602001908152602001600020600085815260200190815260200160002081905550610e807f7922071dabe238a5113bd861dc37c2683dfdab4e11137e5d822fa1f308bec34760001b612fa2565b610eac7f35ee367784ac60a15d68f293bd0ab1ca14b0a5d6e74216ba9440572fb5f2848d60001b612fa2565b60016003600085815260200190815260200160002060070160026101000a81548160ff021916908315150217905550610f077f58b086df4fc0db43573c11bf1ca44d320c3e7911b9845604463e0f633140aed860001b612fa2565b610f337f045d43d861da40c768f0703762b8521f2264fe8c1936f2ecbe4dbd225ac96be060001b612fa2565b600260009054906101000a900473ffffffffffffffffffffffffffffffffffffffff1673ffffffffffffffffffffffffffffffffffffffff1663b8fcf9376040518163ffffffff1660e01b8152600401602060405180830381865afa158015610fa0573d6000803e3d6000fd5b505050506040513d601f19601f82011682018060405250810190610fc491906140d8565b73ffffffffffffffffffffffffffffffffffffffff1663a9059cbb8360400151836040518363ffffffff1660e01b8152600401611002929190614105565b6020604051808303816000875af1158015611021573d6000803e3d6000fd5b505050506040513d601f19601f820116820180604052508101906110459190613f71565b506110727fbd59995d390704017871c9062ee8db073176b0ef6a94bc921efec30479a4997460001b612fa2565b61109e7f1962e1f1fe2282c14bf28b0a7d4f05267773294b77245e5114b6333088d1914b60001b612fa2565b7f79ea1e63534a5791aeb2fa76310349fa28bd6cef2156f4240adfa686cb8a451a838360400151336040516110d59392919061412e565b60405180910390a1505050565b60015481565b6110f0612fa5565b61111c7f3c5196bcf8e33a5c21924697d3ddc546733cb8fe2fb75c5573a2f127d3778f8c60001b612fa2565b6111487f1c2444f8137069237f87c8a2eb3f24570af087e442ed6edafc6f45c983b39b2260001b612fa2565b6111747fb0c7a0794eb33176bacecdb8d281335d4a1d3121bc486fb628258ac87061d95c60001b612fa2565b6111a07fd4958a03b8d5ce8adbc027e0adcb7682161365e335c47b2531f3d41d9c6b38cf60001b612fa2565b600073ffffffffffffffffffffffffffffffffffffffff16600260009054906101000a900473ffffffffffffffffffffffffffffffffffffffff1673ffffffffffffffffffffffffffffffffffffffff1603611231576040517f08c379a0000000000000000000000000000000000000000000000000000000008152600401611228906141b1565b60405180910390fd5b61125d7f8a94d6424dc746d03f248949fdd33013817a2cf502f427f09622eb79e11ee7e560001b612fa2565b6112897fe78af49197b63eff6aa6249e39d9778d5c82619d4297c8288b261300d3591ec260001b612fa2565b6112b57f028126844db0ffe17ec83c3ce5cae07bff00e3cac86c7a6ceff8b9ea2d6dc3ab60001b612fa2565b6000600260009054906101000a900473ffffffffffffffffffffffffffffffffffffffff1673ffffffffffffffffffffffffffffffffffffffff1663b8fcf9376040518163ffffffff1660e01b8152600401602060405180830381865afa158015611324573d6000803e3d6000fd5b505050506040513d601f19601f8201168201806040525081019061134891906140d8565b90506113767f4a6df6c7bdca7141961c4e78bb4315e6f00988a54e5ad261f0bb41022ba265be60001b612fa2565b6113a27f34b327e11f924449dd81ed36da5ca17cff6262bcbafd93191bb9362a1142576360001b612fa2565b6113ce7f3f2b20feaa43bbed654b796449f2ec82a1766e8857316f4308d30997113e45d960001b612fa2565b600073ffffffffffffffffffffffffffffffffffffffff16600260009054906101000a900473ffffffffffffffffffffffffffffffffffffffff1673ffffffffffffffffffffffffffffffffffffffff1663b8fcf9376040518163ffffffff1660e01b8152600401602060405180830381865afa158015611453573d6000803e3d6000fd5b505050506040513d601f19601f8201168201806040525081019061147791906140d8565b73ffffffffffffffffffffffffffffffffffffffff16036114cd576040517f08c379a00000000000000000000000000000000000000000000000000000000081526004016114c49061421d565b60405180910390fd5b6114f97fd4f6deeb8c53c7d6f5266620c5515be1d703d1eaa1ce1464d9b7ee5a6bcb4a6960001b612fa2565b6115257f341e81d1c5aa2c23b76502c208b95efc112fa83f46a6ff8388d9e0543c7cfed860001b612fa2565b6115517fc7f250e93978b5b899850fb5367981c948587335a2a921ff08c9238d31ffd95360001b612fa2565b8073ffffffffffffffffffffffffffffffffffffffff1663a9059cbb600260009054906101000a900473ffffffffffffffffffffffffffffffffffffffff166001546040518363ffffffff1660e01b81526004016115b0929190614105565b6020604051808303816000875af11580156115cf573d6000803e3d6000fd5b505050506040513d601f19601f820116820180604052508101906115f39190613f71565b506116207f69624421b6fbd156d7a60fe128b43ad3da456d3dda4bf8945eb1c24cd9d8aabc60001b612fa2565b61164c7f677c72f86e7a965ecc85002f5a5cd7a9c6a72a4e4bb1e3d845ff9c2b2ee8f95760001b612fa2565b600060018190555050565b6004602052816000526040600020818154811061167357600080fd5b90600052602060002001600091509150505481565b600260009054906101000a900473ffffffffffffffffffffffffffffffffffffffff1681565b6116b6612fa5565b6116c06000613023565b565b6116ee7f919a3bc34296b3037e6e1ead1de9c4b0f153aa0717f14c70572ebcb0328b5ae560001b612fa2565b61171a7f34e9e471aa90207354d043fd41997870507e55fffe7a4d60cdac22dd3339539460001b612fa2565b6117467f5b61b22932ab5087f25bd324d826d0b2f9118de23446e888717cb45c7c90654260001b612fa2565b60006003600088815260200190815260200160002090506117897fd497da35f58ec2c68fc7734afb559bef9db64038da021c8682ce264d7e93a20a60001b612fa2565b6117b57ff1bf1d2a9a98ccd08852d9b8cda88ffa2cb995ea0f23c391f70d2e4ec060cede60001b612fa2565b6117e17faef288cbffc137964f8b6c1042fc08ade3e3bf329862f6d4d90f928bad169a1860001b612fa2565b600073ffffffffffffffffffffffffffffffffffffffff168160020160009054906101000a900473ffffffffffffffffffffffffffffffffffffffff1673ffffffffffffffffffffffffffffffffffffffff1603611874576040517f08c379a000000000000000000000000000000000000000000000000000000000815260040161186b90613e4d565b60405180910390fd5b6118a07fabe5d62f3707e61a26781829766f38805c9d5ba6e7cd1586f89f15e2b954595260001b612fa2565b6118cc7f589a6abf600804789a8e5a9e2598006750950a0fb1762b63f0c06c44e405057f60001b612fa2565b6118f87fabe0809e0528c85ff4099ffd9998081ab0a473609824c280b1e1f7cb1dd3aeec60001b612fa2565b6119247f98766915d63e348665cd553945acf7a4ba1a3fd3ce59d27bc79bf1832aafeaca60001b612fa2565b600015158160070160019054906101000a900460ff1615151461197c576040517f08c379a000000000000000000000000000000000000000000000000000000000815260040161197390614289565b60405180910390fd5b6119a87fc4564d4d96f309e11e6884d8329706896b3701100518642574eabc8419382b8460001b612fa2565b6119d47f463a664c14b8cc30f6e55a48953dae3fb0510f47a9b6067230b56d4a19d7152260001b612fa2565b611a007f3f9c78c1c229678171534b1f9246037db70dd2c92bd9e2e96c1403367265805360001b612fa2565b611a2c7f6ed34b0f9b6a4f4c74f5df19209061f2a261c91463d94f21ce6cb31ea16ecc4560001b612fa2565b60008686905003611a72576040517f08c379a0000000000000000000000000000000000000000000000000000000008152600401611a69906142f5565b60405180910390fd5b611a9e7fb21e9c6dc672f53300b28175599f906f5f32f88b790e4ec17918b572f84a382e60001b612fa2565b611aca7fbdc178ed067c7acb40c3dab5bab1a7983e9f00aceba547ca8b38e9c12a07889e60001b612fa2565b611af67fb2659ef8985d53eb07124496f170fb1caad18548119fb8222c7fd3c7cf2201cd60001b612fa2565b60003088604051602001611b0b92919061437e565b604051602081830303815290604052805190602001209050611b4f7f0cc4f3aa826a46c740ab9a889bccab44a6d1e444909dfdc5b1f16c4c4da5200760001b612fa2565b611b7b7f0ce102e235b84f23a90698e7a4169e6a44730c4a2268be16e55ef23c64e5bd6a60001b612fa2565b611ba77f89c68c2de6ab670888456d1f87df047982c48ab4976a34c2a98c4d34810b17f960001b612fa2565b600073ffffffffffffffffffffffffffffffffffffffff16600260009054906101000a900473ffffffffffffffffffffffffffffffffffffffff1673ffffffffffffffffffffffffffffffffffffffff1603611c38576040517f08c379a0000000000000000000000000000000000000000000000000000000008152600401611c2f906143f6565b60405180910390fd5b611c647f09b4f16a8b58e545ff1252da997c5d3e6db4d5afad2d7dc301455f0c5e2a79cd60001b612fa2565b611c907f0684f491d3ef1b64a124ab986f4aed15d45b291289a008481b4846339cd2a2ab60001b612fa2565b611cbc7f5e1150aee1cd0706fda0427e8803f63c634c75e620a9f5e8b1e95a5ce5fe396060001b612fa2565b611ce87f212a5ae5e30a94c6a0bd17b0f8330af365fc63ae0fa1d18346dc8b2904aae6e560001b612fa2565b600073ffffffffffffffffffffffffffffffffffffffff16600260009054906101000a900473ffffffffffffffffffffffffffffffffffffffff1673ffffffffffffffffffffffffffffffffffffffff1663b8fcf9376040518163ffffffff1660e01b8152600401602060405180830381865afa158015611d6d573d6000803e3d6000fd5b505050506040513d601f19601f82011682018060405250810190611d9191906140d8565b73ffffffffffffffffffffffffffffffffffffffff1603611de7576040517f08c379a0000000000000000000000000000000000000000000000000000000008152600401611dde9061421d565b60405180910390fd5b611e137fcc45c5cc402a90723ca29c0af97faab78c64bae1ac9e8db28ce1a1ed6e31882760001b612fa2565b611e3f7f354f2946b5005adb130ec19850927d63b5f9a3fd2e84e4a07fbf0fcee33ff95360001b612fa2565b611e6b7fcac44bc9fa2829d0ae931db5972bf9cd123488750d6081411afee1ae106f256760001b612fa2565b8686836008019190611e7e9291906132a0565b50611eab7f246af85dd92ebe0b220b7e0dd717fae9a45ecf7594c1f9c92942fc47dea2fd2060001b612fa2565b611ed77fe868b38471ad353d377d4fc7fdafa32d46334d8dc4736bdd82175ce64dd77fec60001b612fa2565b60018260070160016101000a81548160ff021916908315150217905550611f207fe7dd9a13d5d9dd80f06a9857a590d55e3a6e1956c0b65857e5e0c3e0ecd30f8360001b612fa2565b611f4c7f78f1007876c054ea46f5f5188ad751bb3a88441e9aaf6a809114ec698289da0160001b612fa2565b606460638360010154611f5f9190614416565b611f69919061449f565b600560008460020160009054906101000a900473ffffffffffffffffffffffffffffffffffffffff1673ffffffffffffffffffffffffffffffffffffffff1673ffffffffffffffffffffffffffffffffffffffff16815260200190815260200160002060008a81526020019081526020016000208190555061200d7f40036d82f19038e2e62e32dc36f8c5916cfd5430d527cbcbf9f67e7b012298f360001b612fa2565b6120397f6ff19b359b049614617cb296e221328d658b822072d92bafb4f5c0ef34c00c1c60001b612fa2565b8160010154600660008673ffffffffffffffffffffffffffffffffffffffff1673ffffffffffffffffffffffffffffffffffffffff16815260200190815260200160002060008a8152602001908152602001600020819055506120be7f3f9a5d828c488c679095b11bbcd0d33a991d3fb4eaf493dc9f53a5ee7557e0c360001b612fa2565b6120ea7f1ad35c48763c1aca04082df5bff4aabcde61618ac4867729e70dbf57dcab233d60001b612fa2565b83600360008a815260200190815260200160002060030160006101000a81548173ffffffffffffffffffffffffffffffffffffffff021916908373ffffffffffffffffffffffffffffffffffffffff16021790555061216b7f0c96caf45f5d8429de120a98b1f4337b66556cbed03ebe52d78c60e6640296bb60001b612fa2565b6121977f5a8f961ffd242b11ca8c687fe70e61e162f7a66aa07a0db1047dd987bce621d760001b612fa2565b6000600260009054906101000a900473ffffffffffffffffffffffffffffffffffffffff1673ffffffffffffffffffffffffffffffffffffffff1663b8fcf9376040518163ffffffff1660e01b8152600401602060405180830381865afa158015612206573d6000803e3d6000fd5b505050506040513d601f19601f8201168201806040525081019061222a91906140d8565b90506122587fe2e4f17ae90d0405a56fd2fb718cb3cf34f44bdb168f8041fd9e1f33c1d2cbc260001b612fa2565b6122847f897b11c8d04f9601bf2a2dc06cdb03e59998dc61405e20ecb930bd932d154d6c60001b612fa2565b8073ffffffffffffffffffffffffffffffffffffffff16639f4fae128784866001015489308a6040518763ffffffff1660e01b81526004016122cb969594939291906144d0565b600060405180830381600087803b1580156122e557600080fd5b505af11580156122f9573d6000803e3d6000fd5b505050506123297fea6e6b62ae0c71e1041558ae077348fc742c57904f6ce1785a68d6276dd4338560001b612fa2565b6123557f9fe0d6f9bbdfff30c8d8b2582c9718b6b419e34121299d984ffd19112ca5adf860001b612fa2565b7f7ec1ccbaefa3247177339d05656f4035327987c9d315294231c54e78cc87927a8986604051612386929190614538565b60405180910390a1505050505050505050565b60606123c77f2d36fa8c73a7d811f847059296c4c84f52d4a671ec4bb50e8f510b55ddcb29ce60001b612fa2565b6123f37f80a061f812fc78d9bf46f6e95a2651de69e74d4addebe633ed5464f209985b0f60001b612fa2565b61241f7f4ecc4cec957a9170b04337981ca555e77d725a510e963eb5b35af7276fcf0a7760001b612fa2565b600460008373ffffffffffffffffffffffffffffffffffffffff1673ffffffffffffffffffffffffffffffffffffffff1681526020019081526020016000208054806020026020016040519081016040528092919081815260200182805480156124a857602002820191906000526020600020905b815481526020019060010190808311612494575b50505050509050919050565b60036020528060005260406000206000915090508060000180546124d790613dd0565b80601f016020809104026020016040519081016040528092919081815260200182805461250390613dd0565b80156125505780601f1061252557610100808354040283529160200191612550565b820191906000526020600020905b81548152906001019060200180831161253357829003601f168201915b5050505050908060010154908060020160009054906101000a900473ffffffffffffffffffffffffffffffffffffffff16908060030160009054906101000a900473ffffffffffffffffffffffffffffffffffffffff16908060040154908060050180546125bd90613dd0565b80601f01602080910402602001604051908101604052809291908181526020018280546125e990613dd0565b80156126365780601f1061260b57610100808354040283529160200191612636565b820191906000526020600020905b81548152906001019060200180831161261957829003601f168201915b5050505050908060060154908060070160009054906101000a900460ff16908060070160019054906101000a900460ff16908060070160029054906101000a900460ff169080600801805461268a90613dd0565b80601f01602080910402602001604051908101604052809291908181526020018280546126b690613dd0565b80156127035780601f106126d857610100808354040283529160200191612703565b820191906000526020600020905b8154815290600101906020018083116126e657829003601f168201915b505050505090508b565b6005602052816000526040600020602052806000526040600020600091509150505481565b60008060009054906101000a900473ffffffffffffffffffffffffffffffffffffffff16905090565b6127877f5cf46c1a8a3a33bf37827838e6eb167d52dcb4baa6999bc8e1a12e3ab63eeada60001b612fa2565b6127b37f6ddfa75b3f26eebb31608062a5492632440de6df770020e72167e5228f9cb71660001b612fa2565b6127df7faca88e931b6a55b042894c9d05180be1ef01437f35f633732d097892c8fc207360001b612fa2565b61280b7f98bf54c2cdda077868d0a17b5818e442390b01bf6aed9859448de1c9ee5dfd5a60001b612fa2565b60008686905003612851576040517f08c379a0000000000000000000000000000000000000000000000000000000008152600401612848906145ad565b60405180910390fd5b61287d7faef715da29da0bd2a4f9aba73dcdfd4d4e3b04683812af23a75317d775bc328b60001b612fa2565b6128a97fa1d729bdeca840ce302c11d7685caf30362f3ee45f91b559ac62c922767f6d3160001b612fa2565b6128d57f95831683b0f2d62d23ba3835741b6486978ba316b5671082095920495af41bf460001b612fa2565b6129017f9dd6dccf6afeca8126d4d2a07cb31d9f355ba87e75aee55905a1af37bf8a599560001b612fa2565b621e8480841015612947576040517f08c379a000000000000000000000000000000000000000000000000000000000815260040161293e90614619565b60405180910390fd5b6129737f79127dafd2cddb056730ca0d0240554b32589d6033ea69db6bbebbffdcdc70c360001b612fa2565b61299f7f249468074917d74e4ea64ba52e7e4df35f40e53dd5dc3821f2b476f2e557305860001b612fa2565b6129cb7fb50353257d9564121768e31803fbc661c1535966fcbfac92f4618eac622a267460001b612fa2565b6129d98686868686866130e7565b6003600060075481526020019081526020016000206000820151816000019080519060200190612a0a929190613326565b506020820151816001015560408201518160020160006101000a81548173ffffffffffffffffffffffffffffffffffffffff021916908373ffffffffffffffffffffffffffffffffffffffff16021790555060608201518160030160006101000a81548173ffffffffffffffffffffffffffffffffffffffff021916908373ffffffffffffffffffffffffffffffffffffffff1602179055506080820151816004015560a0820151816005019080519060200190612ac9929190613326565b5060c0820151816006015560e08201518160070160006101000a81548160ff0219169083151502179055506101008201518160070160016101000a81548160ff0219169083151502179055506101208201518160070160026101000a81548160ff021916908315150217905550610140820151816008019080519060200190612b539291906133ac565b50905050612b837f219f3f3f6dff673deb9233c92ef90ad9aad56473104a1da13e4fa2b4a7d1a70060001b612fa2565b612baf7fe27713646c8a1616af02538055d4f88860fbd353b0daa02304d259b6c291d4f960001b612fa2565b600460003373ffffffffffffffffffffffffffffffffffffffff1673ffffffffffffffffffffffffffffffffffffffff1681526020019081526020016000206007549080600181540180825580915050600190039060005260206000200160009091909190915055612c437f3f179d270dc85970dfd67a40d658ff3c0fecbbb80f976b8727ee0102f8d1589460001b612fa2565b612c6f7f9842ae1ff0e1df197dfecfa5496acf0259ad52108c5722bf312e7539778c136d60001b612fa2565b7f4652437f761c98c9da0cbf58e43dd666358d175a79342439f8d7048fd5a5468186868633600754604051612ca8959493929190614666565b60405180910390a1612cdc7fad2a9856e35c9e63d8fa78fc51001dac7125938c7aef171de1d752619d6d704160001b612fa2565b612d087f292c7389fab25c1cd2e3ee6d6a434ac4aa0646106904f69437fc4a8cf96cd38560001b612fa2565b600160076000828254612d1b919061406d565b92505081905550505050505050565b612d32612fa5565b612d5e7fcac3489784ca96a90b66d0e22fef0479bb6255b757ed4e96d9bd86fa1a17ce7f60001b612fa2565b612d8a7f4f9e0e249772c3cf33168e921e672ba0e7d2bca8889dccaccea31decdac310e260001b612fa2565b612db67fad4bf83570baa7102cadeb6e4be9663945bef680d6a58a88b8a2cf1cc23fd19760001b612fa2565b612de27f48d9f9fadef2928e8fb396de7355e8b844f7efc50ee7ba305428bee4fd7bbd3560001b612fa2565b600073ffffffffffffffffffffffffffffffffffffffff168173ffffffffffffffffffffffffffffffffffffffff1603612e51576040517f08c379a0000000000000000000000000000000000000000000000000000000008152600401612e4890614700565b60405180910390fd5b612e7d7f8ba0df806b525b527f53a597f394c0d0eb63e75f2bbe12c7e73aa4d4cd751ec860001b612fa2565b612ea97f7cb2c4198026c5cf0a5844e1aff3ee98b094fa949745c8836e93770b707c586060001b612fa2565b612ed57f1bb65dbf8b6bc0f0970be2f4e7b316787ad58147d63619fbadaec77c9062183460001b612fa2565b80600260006101000a81548173ffffffffffffffffffffffffffffffffffffffff021916908373ffffffffffffffffffffffffffffffffffffffff16021790555050565b60075481565b612f27612fa5565b600073ffffffffffffffffffffffffffffffffffffffff168173ffffffffffffffffffffffffffffffffffffffff1603612f96576040517f08c379a0000000000000000000000000000000000000000000000000000000008152600401612f8d90614792565b60405180910390fd5b612f9f81613023565b50565b50565b612fad613298565b73ffffffffffffffffffffffffffffffffffffffff16612fcb612732565b73ffffffffffffffffffffffffffffffffffffffff1614613021576040517f08c379a0000000000000000000000000000000000000000000000000000000008152600401613018906147fe565b60405180910390fd5b565b60008060009054906101000a900473ffffffffffffffffffffffffffffffffffffffff169050816000806101000a81548173ffffffffffffffffffffffffffffffffffffffff021916908373ffffffffffffffffffffffffffffffffffffffff1602179055508173ffffffffffffffffffffffffffffffffffffffff168173ffffffffffffffffffffffffffffffffffffffff167f8be0079c531659141344cd1fd0a4f28419497f9722a3daafe3b4186f6b6457e060405160405180910390a35050565b6130ef613432565b61311b7f7e299077ec4c497f57914843bac0d9721dd8b2d782318b6882e4d7a76734e49960001b612fa2565b6131477f71a59dc0dfd5c7b8e091285be21d8683a9994326cf4636014a7263ec79a6e95b60001b612fa2565b6131737f774428b0dd72e150a7b8bf51a12c768d04d08c3ff0ce9258dc8290f2aead17b360001b612fa2565b60405180610160016040528088888080601f016020809104026020016040519081016040528093929190818152602001838380828437600081840152601f19601f8201169050808301925050505050505081526020018681526020013373ffffffffffffffffffffffffffffffffffffffff168152602001600073ffffffffffffffffffffffffffffffffffffffff16815260200142815260200185858080601f016020809104026020016040519081016040528093929190818152602001838380828437600081840152601f19601f8201169050808301925050505050505081526020018381526020016000151581526020016000151581526020016000151581526020016040518060200160405280600081525081525090509695505050505050565b600033905090565b8280546132ac90613dd0565b90600052602060002090601f0160209004810192826132ce5760008555613315565b82601f106132e757803560ff1916838001178555613315565b82800160010185558215613315579182015b828111156133145782358255916020019190600101906132f9565b5b50905061332291906134c1565b5090565b82805461333290613dd0565b90600052602060002090601f016020900481019282613354576000855561339b565b82601f1061336d57805160ff191683800117855561339b565b8280016001018555821561339b579182015b8281111561339a57825182559160200191906001019061337f565b5b5090506133a891906134c1565b5090565b8280546133b890613dd0565b90600052602060002090601f0160209004810192826133da5760008555613421565b82601f106133f357805160ff1916838001178555613421565b82800160010185558215613421579182015b82811115613420578251825591602001919060010190613405565b5b50905061342e91906134c1565b5090565b6040518061016001604052806060815260200160008152602001600073ffffffffffffffffffffffffffffffffffffffff168152602001600073ffffffffffffffffffffffffffffffffffffffff168152602001600081526020016060815260200160008019168152602001600015158152602001600015158152602001600015158152602001606081525090565b5b808211156134da5760008160009055506001016134c2565b5090565b6000604051905090565b600080fd5b600080fd5b600073ffffffffffffffffffffffffffffffffffffffff82169050919050565b600061351d826134f2565b9050919050565b61352d81613512565b811461353857600080fd5b50565b60008135905061354a81613524565b92915050565b6000819050919050565b61356381613550565b811461356e57600080fd5b50565b6000813590506135808161355a565b92915050565b6000806040838503121561359d5761359c6134e8565b5b60006135ab8582860161353b565b92505060206135bc85828601613571565b9150509250929050565b6135cf81613550565b82525050565b60006020820190506135ea60008301846135c6565b92915050565b600060208284031215613606576136056134e8565b5b600061361484828501613571565b91505092915050565b6000819050919050565b600061364261363d613638846134f2565b61361d565b6134f2565b9050919050565b600061365482613627565b9050919050565b600061366682613649565b9050919050565b6136768161365b565b82525050565b6000602082019050613691600083018461366d565b92915050565b600080fd5b600080fd5b600080fd5b60008083601f8401126136bc576136bb613697565b5b8235905067ffffffffffffffff8111156136d9576136d861369c565b5b6020830191508360018202830111156136f5576136f46136a1565b5b9250929050565b600080fd5b6000601f19601f8301169050919050565b7f4e487b7100000000000000000000000000000000000000000000000000000000600052604160045260246000fd5b61374a82613701565b810181811067ffffffffffffffff8211171561376957613768613712565b5b80604052505050565b600061377c6134de565b90506137888282613741565b919050565b600067ffffffffffffffff8211156137a8576137a7613712565b5b6137b182613701565b9050602081019050919050565b82818337600083830152505050565b60006137e06137db8461378d565b613772565b9050828152602081018484840111156137fc576137fb6136fc565b5b6138078482856137be565b509392505050565b600082601f83011261382457613823613697565b5b81356138348482602086016137cd565b91505092915050565b60008060008060008060a0878903121561385a576138596134e8565b5b600061386889828a01613571565b965050602087013567ffffffffffffffff811115613889576138886134ed565b5b61389589828a016136a6565b955095505060406138a889828a01613571565b93505060606138b989828a0161353b565b925050608087013567ffffffffffffffff8111156138da576138d96134ed565b5b6138e689828a0161380f565b9150509295509295509295565b600060208284031215613909576139086134e8565b5b60006139178482850161353b565b91505092915050565b600081519050919050565b600082825260208201905092915050565b6000819050602082019050919050565b61395581613550565b82525050565b6000613967838361394c565b60208301905092915050565b6000602082019050919050565b600061398b82613920565b613995818561392b565b93506139a08361393c565b8060005b838110156139d15781516139b8888261395b565b97506139c383613973565b9250506001810190506139a4565b5085935050505092915050565b600060208201905081810360008301526139f88184613980565b905092915050565b600081519050919050565b600082825260208201905092915050565b60005b83811015613a3a578082015181840152602081019050613a1f565b83811115613a49576000848401525b50505050565b6000613a5a82613a00565b613a648185613a0b565b9350613a74818560208601613a1c565b613a7d81613701565b840191505092915050565b613a9181613512565b82525050565b6000819050919050565b613aaa81613a97565b82525050565b60008115159050919050565b613ac581613ab0565b82525050565b600081519050919050565b600082825260208201905092915050565b6000613af282613acb565b613afc8185613ad6565b9350613b0c818560208601613a1c565b613b1581613701565b840191505092915050565b6000610160820190508181036000830152613b3b818e613a4f565b9050613b4a602083018d6135c6565b613b57604083018c613a88565b613b64606083018b613a88565b613b71608083018a6135c6565b81810360a0830152613b838189613a4f565b9050613b9260c0830188613aa1565b613b9f60e0830187613abc565b613bad610100830186613abc565b613bbb610120830185613abc565b818103610140830152613bce8184613ae7565b90509c9b505050505050505050505050565b6000602082019050613bf56000830184613a88565b92915050565b60008083601f840112613c1157613c10613697565b5b8235905067ffffffffffffffff811115613c2e57613c2d61369c565b5b602083019150836001820283011115613c4a57613c496136a1565b5b9250929050565b613c5a81613a97565b8114613c6557600080fd5b50565b600081359050613c7781613c51565b92915050565b60008060008060008060808789031215613c9a57613c996134e8565b5b600087013567ffffffffffffffff811115613cb857613cb76134ed565b5b613cc489828a01613bfb565b96509650506020613cd789828a01613571565b945050604087013567ffffffffffffffff811115613cf857613cf76134ed565b5b613d0489828a01613bfb565b93509350506060613d1789828a01613c68565b9150509295509295509295565b6000613d2f826134f2565b9050919050565b6000613d4182613d24565b9050919050565b613d5181613d36565b8114613d5c57600080fd5b50565b600081359050613d6e81613d48565b92915050565b600060208284031215613d8a57613d896134e8565b5b6000613d9884828501613d5f565b91505092915050565b7f4e487b7100000000000000000000000000000000000000000000000000000000600052602260045260246000fd5b60006002820490506001821680613de857607f821691505b602082108103613dfb57613dfa613da1565b5b50919050565b7f4e6f20737563682070726f647563740000000000000000000000000000000000600082015250565b6000613e37600f83613a0b565b9150613e4282613e01565b602082019050919050565b60006020820190508181036000830152613e6681613e2a565b9050919050565b7f50726f64756374206e6f74207061696400000000000000000000000000000000600082015250565b6000613ea3601083613a0b565b9150613eae82613e6d565b602082019050919050565b60006020820190508181036000830152613ed281613e96565b9050919050565b7f50726f6475637420616c72656164792064656c69766572656400000000000000600082015250565b6000613f0f601983613a0b565b9150613f1a82613ed9565b602082019050919050565b60006020820190508181036000830152613f3e81613f02565b9050919050565b613f4e81613ab0565b8114613f5957600080fd5b50565b600081519050613f6b81613f45565b92915050565b600060208284031215613f8757613f866134e8565b5b6000613f9584828501613f5c565b91505092915050565b7f4e6f7420616e20617574686f72697a656420636f757269657200000000000000600082015250565b6000613fd4601983613a0b565b9150613fdf82613f9e565b602082019050919050565b6000602082019050818103600083015261400381613fc7565b9050919050565b7f4e487b7100000000000000000000000000000000000000000000000000000000600052601160045260246000fd5b600061404482613550565b915061404f83613550565b9250828210156140625761406161400a565b5b828203905092915050565b600061407882613550565b915061408383613550565b9250827fffffffffffffffffffffffffffffffffffffffffffffffffffffffffffffffff038211156140b8576140b761400a565b5b828201905092915050565b6000815190506140d281613524565b92915050565b6000602082840312156140ee576140ed6134e8565b5b60006140fc848285016140c3565b91505092915050565b600060408201905061411a6000830185613a88565b61412760208301846135c6565b9392505050565b600060608201905061414360008301866135c6565b6141506020830185613a88565b61415d6040830184613a88565b949350505050565b7f446f65736e27742068617665206f776e6572206d61726b6574706c6163650000600082015250565b600061419b601e83613a0b565b91506141a682614165565b602082019050919050565b600060208201905081810360008301526141ca8161418e565b9050919050565b7f4e6f20746f6b656e207370656369666965640000000000000000000000000000600082015250565b6000614207601283613a0b565b9150614212826141d1565b602082019050919050565b60006020820190508181036000830152614236816141fa565b9050919050565b7f50726f6475637420616c726561647920626f7567687400000000000000000000600082015250565b6000614273601683613a0b565b915061427e8261423d565b602082019050919050565b600060208201905081810360008301526142a281614266565b9050919050565b7f4e6f2064656c697665727920696e737472756374696f6e730000000000000000600082015250565b60006142df601883613a0b565b91506142ea826142a9565b602082019050919050565b6000602082019050818103600083015261430e816142d2565b9050919050565b60008160601b9050919050565b600061432d82614315565b9050919050565b600061433f82614322565b9050919050565b61435761435282613512565b614334565b82525050565b6000819050919050565b61437861437382613550565b61435d565b82525050565b600061438a8285614346565b60148201915061439a8284614367565b6020820191508190509392505050565b7f4e6f206d61726b6574706c616365000000000000000000000000000000000000600082015250565b60006143e0600e83613a0b565b91506143eb826143aa565b602082019050919050565b6000602082019050818103600083015261440f816143d3565b9050919050565b600061442182613550565b915061442c83613550565b9250817fffffffffffffffffffffffffffffffffffffffffffffffffffffffffffffffff04831182151516156144655761446461400a565b5b828202905092915050565b7f4e487b7100000000000000000000000000000000000000000000000000000000600052601260045260246000fd5b60006144aa82613550565b91506144b583613550565b9250826144c5576144c4614470565b5b828204905092915050565b600060c0820190506144e560008301896135c6565b6144f26020830188613aa1565b6144ff60408301876135c6565b61450c6060830186613a88565b6145196080830185613a88565b81810360a083015261452b8184613ae7565b9050979650505050505050565b600060408201905061454d60008301856135c6565b61455a6020830184613a88565b9392505050565b7f4e616d652073686f756c646e277420626520656d707479000000000000000000600082015250565b6000614597601783613a0b565b91506145a282614561565b602082019050919050565b600060208201905081810360008301526145c68161458a565b9050919050565b7f50726963652073686f756c64206265203e3d3230303030303000000000000000600082015250565b6000614603601983613a0b565b915061460e826145cd565b602082019050919050565b60006020820190508181036000830152614632816145f6565b9050919050565b60006146458385613a0b565b93506146528385846137be565b61465b83613701565b840190509392505050565b60006080820190508181036000830152614681818789614639565b905061469060208301866135c6565b61469d6040830185613a88565b6146aa60608301846135c6565b9695505050505050565b7f416464726573732073686f756c646e2774206265203000000000000000000000600082015250565b60006146ea601683613a0b565b91506146f5826146b4565b602082019050919050565b60006020820190508181036000830152614719816146dd565b9050919050565b7f4f776e61626c653a206e6577206f776e657220697320746865207a65726f206160008201527f6464726573730000000000000000000000000000000000000000000000000000602082015250565b600061477c602683613a0b565b915061478782614720565b604082019050919050565b600060208201905081810360008301526147ab8161476f565b9050919050565b7f4f776e61626c653a2063616c6c6572206973206e6f7420746865206f776e6572600082015250565b60006147e8602083613a0b565b91506147f3826147b2565b602082019050919050565b60006020820190508181036000830152614817816147db565b905091905056fea26469706673582212201f9a1f92bb010ac12d603c50b48ff926fe2688e514917577721b3c876279de9964736f6c634300080d0033",
  "linkReferences": {},
  "deployedLinkReferences": {}
}