{
  "_format": "hh-sol-artifact-1",
  "contractName": "SimpleSeller",
  "sourceName": "contracts/SimpleSeller.sol",
  "abi": [
    {
      "anonymous": false,
      "inputs": [
        {
          "indexed": true,
          "internalType": "address",
          "name": "previousOwner",
          "type": "address"
        },
        {
          "indexed": true,
          "internalType": "address",
          "name": "newOwner",
          "type": "address"
        }
      ],
      "name": "OwnershipTransferred",
      "type": "event"
    },
    {
      "anonymous": false,
      "inputs": [
        {
          "indexed": false,
          "internalType": "string",
          "name": "name",
          "type": "string"
        },
        {
          "indexed": false,
          "internalType": "uint256",
          "name": "price",
          "type": "uint256"
        },
        {
          "indexed": false,
          "internalType": "address",
          "name": "seller",
          "type": "address"
        },
        {
          "indexed": false,
          "internalType": "uint256",
          "name": "index",
          "type": "uint256"
        }
      ],
      "name": "sellerProductAdded",
      "type": "event"
    },
    {
      "anonymous": false,
      "inputs": [
        {
          "indexed": false,
          "internalType": "uint256",
          "name": "index",
          "type": "uint256"
        }
      ],
      "name": "sellerProductApproved",
      "type": "event"
    },
    {
      "anonymous": false,
      "inputs": [
        {
          "indexed": false,
          "internalType": "uint256",
          "name": "index",
          "type": "uint256"
        },
        {
          "indexed": false,
          "internalType": "address",
          "name": "seller",
          "type": "address"
        },
        {
          "indexed": false,
          "internalType": "address",
          "name": "courier",
          "type": "address"
        }
      ],
      "name": "sellerProductDelivered",
      "type": "event"
    },
    {
      "anonymous": false,
      "inputs": [
        {
          "indexed": false,
          "internalType": "uint256",
          "name": "index",
          "type": "uint256"
        },
        {
          "indexed": false,
          "internalType": "address",
          "name": "buyer",
          "type": "address"
        }
      ],
      "name": "sellerProductSold",
      "type": "event"
    },
    {
      "inputs": [
        {
          "internalType": "string",
          "name": "name",
          "type": "string"
        },
        {
          "internalType": "uint256",
          "name": "price",
          "type": "uint256"
        },
        {
          "internalType": "string",
          "name": "link",
          "type": "string"
        },
        {
          "internalType": "bytes",
          "name": "marketHashOfData",
          "type": "bytes"
        }
      ],
      "name": "addProduct",
      "outputs": [],
      "stateMutability": "nonpayable",
      "type": "function"
    },
    {
      "inputs": [
        {
          "internalType": "uint256",
          "name": "index",
          "type": "uint256"
        }
      ],
      "name": "approveProduct",
      "outputs": [],
      "stateMutability": "nonpayable",
      "type": "function"
    },
    {
      "inputs": [],
      "name": "belongsToContract",
      "outputs": [
        {
          "internalType": "uint256",
          "name": "",
          "type": "uint256"
        }
      ],
      "stateMutability": "view",
      "type": "function"
    },
    {
      "inputs": [
        {
          "internalType": "uint256",
          "name": "index",
          "type": "uint256"
        }
      ],
      "name": "deliverProduct",
      "outputs": [],
      "stateMutability": "nonpayable",
      "type": "function"
    },
    {
      "inputs": [
        {
          "internalType": "address",
          "name": "seller",
          "type": "address"
        }
      ],
      "name": "getIndexesFromSellerAddress",
      "outputs": [
        {
          "internalType": "uint256[]",
          "name": "indexes",
          "type": "uint256[]"
        }
      ],
      "stateMutability": "view",
      "type": "function"
    },
    {
      "inputs": [
        {
          "internalType": "contract Marketplace",
          "name": "marketplace",
          "type": "address"
        }
      ],
      "name": "joinMarketplace",
      "outputs": [],
      "stateMutability": "nonpayable",
      "type": "function"
    },
    {
      "inputs": [
        {
          "internalType": "address",
          "name": "",
          "type": "address"
        },
        {
          "internalType": "uint256",
          "name": "",
          "type": "uint256"
        }
      ],
      "name": "owedMoneyToBuyers",
      "outputs": [
        {
          "internalType": "uint256",
          "name": "",
          "type": "uint256"
        }
      ],
      "stateMutability": "view",
      "type": "function"
    },
    {
      "inputs": [
        {
          "internalType": "address",
          "name": "",
          "type": "address"
        },
        {
          "internalType": "uint256",
          "name": "",
          "type": "uint256"
        }
      ],
      "name": "owedMoneyToSellers",
      "outputs": [
        {
          "internalType": "uint256",
          "name": "",
          "type": "uint256"
        }
      ],
      "stateMutability": "view",
      "type": "function"
    },
    {
      "inputs": [],
      "name": "owner",
      "outputs": [
        {
          "internalType": "address",
          "name": "",
          "type": "address"
        }
      ],
      "stateMutability": "view",
      "type": "function"
    },
    {
      "inputs": [],
      "name": "ownerMarketplace",
      "outputs": [
        {
          "internalType": "contract Marketplace",
          "name": "",
          "type": "address"
        }
      ],
      "stateMutability": "view",
      "type": "function"
    },
    {
      "inputs": [
        {
          "internalType": "uint256",
          "name": "index",
          "type": "uint256"
        },
        {
          "internalType": "bytes",
          "name": "deliveryInstructions",
          "type": "bytes"
        },
        {
          "internalType": "uint256",
          "name": "expiration",
          "type": "uint256"
        },
        {
          "internalType": "address",
          "name": "from",
          "type": "address"
        },
        {
          "internalType": "bytes",
          "name": "sig",
          "type": "bytes"
        }
      ],
      "name": "payProduct",
      "outputs": [],
      "stateMutability": "nonpayable",
      "type": "function"
    },
    {
      "inputs": [],
      "name": "productCount",
      "outputs": [
        {
          "internalType": "uint256",
          "name": "",
          "type": "uint256"
        }
      ],
      "stateMutability": "view",
      "type": "function"
    },
    {
      "inputs": [
        {
          "internalType": "uint256",
          "name": "",
          "type": "uint256"
        }
      ],
      "name": "products",
      "outputs": [
        {
          "internalType": "string",
          "name": "name",
          "type": "string"
        },
        {
          "internalType": "uint256",
          "name": "price",
          "type": "uint256"
        },
        {
          "internalType": "address",
          "name": "seller",
          "type": "address"
        },
        {
          "internalType": "address",
          "name": "buyer",
          "type": "address"
        },
        {
          "internalType": "uint256",
          "name": "addDate",
          "type": "uint256"
        },
        {
          "internalType": "string",
          "name": "linkForMedia",
          "type": "string"
        },
        {
          "internalType": "bytes",
          "name": "marketHashOfData",
          "type": "bytes"
        },
        {
          "internalType": "bool",
          "name": "approved",
          "type": "bool"
        },
        {
          "internalType": "bool",
          "name": "paid",
          "type": "bool"
        },
        {
          "internalType": "bool",
          "name": "delivered",
          "type": "bool"
        },
        {
          "internalType": "bytes",
          "name": "deliveryInstructions",
          "type": "bytes"
        }
      ],
      "stateMutability": "view",
      "type": "function"
    },
    {
      "inputs": [],
      "name": "renounceOwnership",
      "outputs": [],
      "stateMutability": "nonpayable",
      "type": "function"
    },
    {
      "inputs": [
        {
          "internalType": "address",
          "name": "",
          "type": "address"
        },
        {
          "internalType": "uint256",
          "name": "",
          "type": "uint256"
        }
      ],
      "name": "sellerToProductIndexes",
      "outputs": [
        {
          "internalType": "uint256",
          "name": "",
          "type": "uint256"
        }
      ],
      "stateMutability": "view",
      "type": "function"
    },
    {
      "inputs": [],
      "name": "transferFunds",
      "outputs": [],
      "stateMutability": "nonpayable",
      "type": "function"
    },
    {
      "inputs": [
        {
          "internalType": "address",
          "name": "newOwner",
          "type": "address"
        }
      ],
      "name": "transferOwnership",
      "outputs": [],
      "stateMutability": "nonpayable",
      "type": "function"
    }
  ],
  "bytecode": "0x6080604052600060015560006007553480156200001b57600080fd5b506200003c620000306200004260201b60201c565b6200004a60201b60201c565b6200010e565b600033905090565b60008060009054906101000a900473ffffffffffffffffffffffffffffffffffffffff169050816000806101000a81548173ffffffffffffffffffffffffffffffffffffffff021916908373ffffffffffffffffffffffffffffffffffffffff1602179055508173ffffffffffffffffffffffffffffffffffffffff168173ffffffffffffffffffffffffffffffffffffffff167f8be0079c531659141344cd1fd0a4f28419497f9722a3daafe3b4186f6b6457e060405160405180910390a35050565b61378e806200011e6000396000f3fe608060405234801561001057600080fd5b506004361061010b5760003560e01c8063715018a6116100a25780637c044577116100715780637c0445771461029a5780638da5cb5b146102ca578063ac0b0445146102e8578063e0f6ef8714610304578063f2fde38b146103225761010b565b8063715018a61461020a57806372b9e2fc146102145780637a653f10146102305780637acc0b20146102605761010b565b80633c68eb81116100de5780633c68eb81146101965780633dd9fa65146101a05780634353c0ee146101bc578063660eb4a3146101ec5761010b565b80630f563197146101105780631c96fb1f1461014057806327d554951461015c5780633c1b52c414610178575b600080fd5b61012a6004803603810190610125919061252f565b61033e565b604051610137919061257e565b60405180910390f35b61015a60048036038101906101559190612599565b610363565b005b61017660048036038101906101719190612599565b610d4b565b005b610180610e63565b60405161018d919061257e565b60405180910390f35b61019e610e69565b005b6101ba60048036038101906101b59190612681565b611144565b005b6101d660048036038101906101d1919061252f565b61143c565b6040516101e3919061257e565b60405180910390f35b6101f461146d565b60405161020191906127a9565b60405180910390f35b610212611493565b005b61022e60048036038101906102299190612905565b6114a7565b005b61024a600480360381019061024591906129bb565b611a86565b6040516102579190612aa6565b60405180910390f35b61027a60048036038101906102759190612599565b611b1d565b6040516102919b9a99989796959493929190612bcf565b60405180910390f35b6102b460048036038101906102af919061252f565b611dfe565b6040516102c1919061257e565b60405180910390f35b6102d2611e23565b6040516102df9190612c96565b60405180910390f35b61030260048036038101906102fd9190612d01565b611e4c565b005b61030c611f07565b604051610319919061257e565b60405180910390f35b61033c600480360381019061033791906129bb565b611f0d565b005b6006602052816000526040600020602052806000526040600020600091509150505481565b80600073ffffffffffffffffffffffffffffffffffffffff166003600083815260200190815260200160002060020160009054906101000a900473ffffffffffffffffffffffffffffffffffffffff1673ffffffffffffffffffffffffffffffffffffffff1603610409576040517f08c379a000000000000000000000000000000000000000000000000000000000815260040161040090612d7a565b60405180910390fd5b600073ffffffffffffffffffffffffffffffffffffffff16600260009054906101000a900473ffffffffffffffffffffffffffffffffffffffff1673ffffffffffffffffffffffffffffffffffffffff160361049a576040517f08c379a000000000000000000000000000000000000000000000000000000000815260040161049190612de6565b60405180910390fd5b600073ffffffffffffffffffffffffffffffffffffffff16600260009054906101000a900473ffffffffffffffffffffffffffffffffffffffff1673ffffffffffffffffffffffffffffffffffffffff1663b8fcf9376040518163ffffffff1660e01b8152600401602060405180830381865afa15801561051f573d6000803e3d6000fd5b505050506040513d601f19601f820116820180604052508101906105439190612e1b565b73ffffffffffffffffffffffffffffffffffffffff1603610599576040517f08c379a000000000000000000000000000000000000000000000000000000000815260040161059090612e94565b60405180910390fd5b600060036000848152602001908152602001600020604051806101600160405290816000820180546105ca90612ee3565b80601f01602080910402602001604051908101604052809291908181526020018280546105f690612ee3565b80156106435780601f1061061857610100808354040283529160200191610643565b820191906000526020600020905b81548152906001019060200180831161062657829003601f168201915b50505050508152602001600182015481526020016002820160009054906101000a900473ffffffffffffffffffffffffffffffffffffffff1673ffffffffffffffffffffffffffffffffffffffff1673ffffffffffffffffffffffffffffffffffffffff1681526020016003820160009054906101000a900473ffffffffffffffffffffffffffffffffffffffff1673ffffffffffffffffffffffffffffffffffffffff1673ffffffffffffffffffffffffffffffffffffffff1681526020016004820154815260200160058201805461071c90612ee3565b80601f016020809104026020016040519081016040528092919081815260200182805461074890612ee3565b80156107955780601f1061076a57610100808354040283529160200191610795565b820191906000526020600020905b81548152906001019060200180831161077857829003601f168201915b505050505081526020016006820180546107ae90612ee3565b80601f01602080910402602001604051908101604052809291908181526020018280546107da90612ee3565b80156108275780601f106107fc57610100808354040283529160200191610827565b820191906000526020600020905b81548152906001019060200180831161080a57829003601f168201915b505050505081526020016007820160009054906101000a900460ff161515151581526020016007820160019054906101000a900460ff161515151581526020016007820160029054906101000a900460ff1615151515815260200160088201805461089190612ee3565b80601f01602080910402602001604051908101604052809291908181526020018280546108bd90612ee3565b801561090a5780601f106108df5761010080835404028352916020019161090a565b820191906000526020600020905b8154815290600101906020018083116108ed57829003601f168201915b505050505081525050905060011515816101000151151514610961576040517f08c379a000000000000000000000000000000000000000000000000000000000815260040161095890612f60565b60405180910390fd5b600015158161012001511515146109ad576040517f08c379a00000000000000000000000000000000000000000000000000000000081526004016109a490612fcc565b60405180910390fd5b60011515600260009054906101000a900473ffffffffffffffffffffffffffffffffffffffff1673ffffffffffffffffffffffffffffffffffffffff1663ccd5fcb9336040518263ffffffff1660e01b8152600401610a0c9190612c96565b602060405180830381865afa158015610a29573d6000803e3d6000fd5b505050506040513d601f19601f82011682018060405250810190610a4d9190613018565b151514610a8f576040517f08c379a0000000000000000000000000000000000000000000000000000000008152600401610a8690613091565b60405180910390fd5b600060056000836040015173ffffffffffffffffffffffffffffffffffffffff1673ffffffffffffffffffffffffffffffffffffffff1681526020019081526020016000206000858152602001908152602001600020549050808260200151610af891906130e0565b60016000828254610b099190613114565b92505081905550600060056000846040015173ffffffffffffffffffffffffffffffffffffffff1673ffffffffffffffffffffffffffffffffffffffff168152602001908152602001600020600086815260200190815260200160002081905550600060066000846060015173ffffffffffffffffffffffffffffffffffffffff1673ffffffffffffffffffffffffffffffffffffffff16815260200190815260200160002060008681526020019081526020016000208190555060016003600086815260200190815260200160002060070160026101000a81548160ff021916908315150217905550600260009054906101000a900473ffffffffffffffffffffffffffffffffffffffff1673ffffffffffffffffffffffffffffffffffffffff1663b8fcf9376040518163ffffffff1660e01b8152600401602060405180830381865afa158015610c60573d6000803e3d6000fd5b505050506040513d601f19601f82011682018060405250810190610c849190612e1b565b73ffffffffffffffffffffffffffffffffffffffff1663a9059cbb8360400151836040518363ffffffff1660e01b8152600401610cc292919061316a565b6020604051808303816000875af1158015610ce1573d6000803e3d6000fd5b505050506040513d601f19601f82011682018060405250810190610d059190613018565b507f79ea1e63534a5791aeb2fa76310349fa28bd6cef2156f4240adfa686cb8a451a84836040015133604051610d3d93929190613193565b60405180910390a150505050565b80600073ffffffffffffffffffffffffffffffffffffffff166003600083815260200190815260200160002060020160009054906101000a900473ffffffffffffffffffffffffffffffffffffffff1673ffffffffffffffffffffffffffffffffffffffff1603610df1576040517f08c379a0000000000000000000000000000000000000000000000000000000008152600401610de890612d7a565b60405180910390fd5b610df9611f90565b60016003600084815260200190815260200160002060070160006101000a81548160ff0219169083151502179055507f2c4e498b43c21fe3cc7ff52b560e91e57cfb919ff3be813351a0e005b784dbe282604051610e57919061257e565b60405180910390a15050565b60015481565b610e71611f90565b600073ffffffffffffffffffffffffffffffffffffffff16600260009054906101000a900473ffffffffffffffffffffffffffffffffffffffff1673ffffffffffffffffffffffffffffffffffffffff1603610f02576040517f08c379a0000000000000000000000000000000000000000000000000000000008152600401610ef990612de6565b60405180910390fd5b600073ffffffffffffffffffffffffffffffffffffffff16600260009054906101000a900473ffffffffffffffffffffffffffffffffffffffff1673ffffffffffffffffffffffffffffffffffffffff1663b8fcf9376040518163ffffffff1660e01b8152600401602060405180830381865afa158015610f87573d6000803e3d6000fd5b505050506040513d601f19601f82011682018060405250810190610fab9190612e1b565b73ffffffffffffffffffffffffffffffffffffffff1603611001576040517f08c379a0000000000000000000000000000000000000000000000000000000008152600401610ff890612e94565b60405180910390fd5b6000600260009054906101000a900473ffffffffffffffffffffffffffffffffffffffff1673ffffffffffffffffffffffffffffffffffffffff1663b8fcf9376040518163ffffffff1660e01b8152600401602060405180830381865afa158015611070573d6000803e3d6000fd5b505050506040513d601f19601f820116820180604052508101906110949190612e1b565b90508073ffffffffffffffffffffffffffffffffffffffff1663a9059cbb600260009054906101000a900473ffffffffffffffffffffffffffffffffffffffff166001546040518363ffffffff1660e01b81526004016110f592919061316a565b6020604051808303816000875af1158015611114573d6000803e3d6000fd5b505050506040513d601f19601f820116820180604052508101906111389190613018565b50600060018190555050565b6000878790500361118a576040517f08c379a000000000000000000000000000000000000000000000000000000000815260040161118190613216565b60405180910390fd5b621e84808510156111d0576040517f08c379a00000000000000000000000000000000000000000000000000000000081526004016111c790613282565b60405180910390fd5b6111df8787878787878761200e565b600360006007548152602001908152602001600020600082015181600001908051906020019061121092919061224c565b506020820151816001015560408201518160020160006101000a81548173ffffffffffffffffffffffffffffffffffffffff021916908373ffffffffffffffffffffffffffffffffffffffff16021790555060608201518160030160006101000a81548173ffffffffffffffffffffffffffffffffffffffff021916908373ffffffffffffffffffffffffffffffffffffffff1602179055506080820151816004015560a08201518160050190805190602001906112cf92919061224c565b5060c08201518160060190805190602001906112ec9291906122d2565b5060e08201518160070160006101000a81548160ff0219169083151502179055506101008201518160070160016101000a81548160ff0219169083151502179055506101208201518160070160026101000a81548160ff02191690831515021790555061014082015181600801908051906020019061136c9291906122d2565b50905050600460003373ffffffffffffffffffffffffffffffffffffffff1673ffffffffffffffffffffffffffffffffffffffff16815260200190815260200160002060075490806001815401808255809150506001900390600052602060002001600090919091909150557f4652437f761c98c9da0cbf58e43dd666358d175a79342439f8d7048fd5a54681878787336007546040516114119594939291906132cf565b60405180910390a160016007600082825461142c9190613114565b9250508190555050505050505050565b6004602052816000526040600020818154811061145857600080fd5b90600052602060002001600091509150505481565b600260009054906101000a900473ffffffffffffffffffffffffffffffffffffffff1681565b61149b611f90565b6114a56000612180565b565b85600073ffffffffffffffffffffffffffffffffffffffff166003600083815260200190815260200160002060020160009054906101000a900473ffffffffffffffffffffffffffffffffffffffff1673ffffffffffffffffffffffffffffffffffffffff160361154d576040517f08c379a000000000000000000000000000000000000000000000000000000000815260040161154490612d7a565b60405180910390fd5b600073ffffffffffffffffffffffffffffffffffffffff16600260009054906101000a900473ffffffffffffffffffffffffffffffffffffffff1673ffffffffffffffffffffffffffffffffffffffff16036115de576040517f08c379a00000000000000000000000000000000000000000000000000000000081526004016115d590612de6565b60405180910390fd5b600073ffffffffffffffffffffffffffffffffffffffff16600260009054906101000a900473ffffffffffffffffffffffffffffffffffffffff1673ffffffffffffffffffffffffffffffffffffffff1663b8fcf9376040518163ffffffff1660e01b8152600401602060405180830381865afa158015611663573d6000803e3d6000fd5b505050506040513d601f19601f820116820180604052508101906116879190612e1b565b73ffffffffffffffffffffffffffffffffffffffff16036116dd576040517f08c379a00000000000000000000000000000000000000000000000000000000081526004016116d490612e94565b60405180910390fd5b6000600360008981526020019081526020016000209050600015158160070160019054906101000a900460ff1615151461174c576040517f08c379a000000000000000000000000000000000000000000000000000000000815260040161174390613369565b60405180910390fd5b60008787905003611792576040517f08c379a0000000000000000000000000000000000000000000000000000000008152600401611789906133d5565b60405180910390fd5b600030896040516020016117a792919061345e565b60405160208183030381529060405280519060200120905087878360080191906117d2929190612358565b5060018260070160016101000a81548160ff021916908315150217905550606460638360010154611803919061348a565b61180d9190613513565b600560008460020160009054906101000a900473ffffffffffffffffffffffffffffffffffffffff1673ffffffffffffffffffffffffffffffffffffffff1673ffffffffffffffffffffffffffffffffffffffff16815260200190815260200160002060008b8152602001908152602001600020819055508160010154600660008773ffffffffffffffffffffffffffffffffffffffff1673ffffffffffffffffffffffffffffffffffffffff16815260200190815260200160002060008b81526020019081526020016000208190555084600360008b815260200190815260200160002060030160006101000a81548173ffffffffffffffffffffffffffffffffffffffff021916908373ffffffffffffffffffffffffffffffffffffffff1602179055506000600260009054906101000a900473ffffffffffffffffffffffffffffffffffffffff1673ffffffffffffffffffffffffffffffffffffffff1663b8fcf9376040518163ffffffff1660e01b8152600401602060405180830381865afa1580156119a2573d6000803e3d6000fd5b505050506040513d601f19601f820116820180604052508101906119c69190612e1b565b90508073ffffffffffffffffffffffffffffffffffffffff16639f4fae12888486600101548a308b6040518763ffffffff1660e01b8152600401611a0f9695949392919061355d565b600060405180830381600087803b158015611a2957600080fd5b505af1158015611a3d573d6000803e3d6000fd5b505050507f7ec1ccbaefa3247177339d05656f4035327987c9d315294231c54e78cc87927a8a87604051611a729291906135c5565b60405180910390a150505050505050505050565b6060600460008373ffffffffffffffffffffffffffffffffffffffff1673ffffffffffffffffffffffffffffffffffffffff168152602001908152602001600020805480602002602001604051908101604052809291908181526020018280548015611b1157602002820191906000526020600020905b815481526020019060010190808311611afd575b50505050509050919050565b6003602052806000526040600020600091509050806000018054611b4090612ee3565b80601f0160208091040260200160405190810160405280929190818152602001828054611b6c90612ee3565b8015611bb95780601f10611b8e57610100808354040283529160200191611bb9565b820191906000526020600020905b815481529060010190602001808311611b9c57829003601f168201915b5050505050908060010154908060020160009054906101000a900473ffffffffffffffffffffffffffffffffffffffff16908060030160009054906101000a900473ffffffffffffffffffffffffffffffffffffffff1690806004015490806005018054611c2690612ee3565b80601f0160208091040260200160405190810160405280929190818152602001828054611c5290612ee3565b8015611c9f5780601f10611c7457610100808354040283529160200191611c9f565b820191906000526020600020905b815481529060010190602001808311611c8257829003601f168201915b505050505090806006018054611cb490612ee3565b80601f0160208091040260200160405190810160405280929190818152602001828054611ce090612ee3565b8015611d2d5780601f10611d0257610100808354040283529160200191611d2d565b820191906000526020600020905b815481529060010190602001808311611d1057829003601f168201915b5050505050908060070160009054906101000a900460ff16908060070160019054906101000a900460ff16908060070160029054906101000a900460ff1690806008018054611d7b90612ee3565b80601f0160208091040260200160405190810160405280929190818152602001828054611da790612ee3565b8015611df45780601f10611dc957610100808354040283529160200191611df4565b820191906000526020600020905b815481529060010190602001808311611dd757829003601f168201915b505050505090508b565b6005602052816000526040600020602052806000526040600020600091509150505481565b60008060009054906101000a900473ffffffffffffffffffffffffffffffffffffffff16905090565b611e54611f90565b600073ffffffffffffffffffffffffffffffffffffffff168173ffffffffffffffffffffffffffffffffffffffff1603611ec3576040517f08c379a0000000000000000000000000000000000000000000000000000000008152600401611eba9061363a565b60405180910390fd5b80600260006101000a81548173ffffffffffffffffffffffffffffffffffffffff021916908373ffffffffffffffffffffffffffffffffffffffff16021790555050565b60075481565b611f15611f90565b600073ffffffffffffffffffffffffffffffffffffffff168173ffffffffffffffffffffffffffffffffffffffff1603611f84576040517f08c379a0000000000000000000000000000000000000000000000000000000008152600401611f7b906136cc565b60405180910390fd5b611f8d81612180565b50565b611f98612244565b73ffffffffffffffffffffffffffffffffffffffff16611fb6611e23565b73ffffffffffffffffffffffffffffffffffffffff161461200c576040517f08c379a000000000000000000000000000000000000000000000000000000000815260040161200390613738565b60405180910390fd5b565b6120166123de565b60405180610160016040528089898080601f016020809104026020016040519081016040528093929190818152602001838380828437600081840152601f19601f8201169050808301925050505050505081526020018781526020013373ffffffffffffffffffffffffffffffffffffffff168152602001600073ffffffffffffffffffffffffffffffffffffffff16815260200142815260200186868080601f016020809104026020016040519081016040528093929190818152602001838380828437600081840152601f19601f82011690508083019250505050505050815260200184848080601f016020809104026020016040519081016040528093929190818152602001838380828437600081840152601f19601f820116905080830192505050505050508152602001600015158152602001600015158152602001600015158152602001604051806020016040528060008152508152509050979650505050505050565b60008060009054906101000a900473ffffffffffffffffffffffffffffffffffffffff169050816000806101000a81548173ffffffffffffffffffffffffffffffffffffffff021916908373ffffffffffffffffffffffffffffffffffffffff1602179055508173ffffffffffffffffffffffffffffffffffffffff168173ffffffffffffffffffffffffffffffffffffffff167f8be0079c531659141344cd1fd0a4f28419497f9722a3daafe3b4186f6b6457e060405160405180910390a35050565b600033905090565b82805461225890612ee3565b90600052602060002090601f01602090048101928261227a57600085556122c1565b82601f1061229357805160ff19168380011785556122c1565b828001600101855582156122c1579182015b828111156122c05782518255916020019190600101906122a5565b5b5090506122ce919061246a565b5090565b8280546122de90612ee3565b90600052602060002090601f0160209004810192826123005760008555612347565b82601f1061231957805160ff1916838001178555612347565b82800160010185558215612347579182015b8281111561234657825182559160200191906001019061232b565b5b509050612354919061246a565b5090565b82805461236490612ee3565b90600052602060002090601f01602090048101928261238657600085556123cd565b82601f1061239f57803560ff19168380011785556123cd565b828001600101855582156123cd579182015b828111156123cc5782358255916020019190600101906123b1565b5b5090506123da919061246a565b5090565b6040518061016001604052806060815260200160008152602001600073ffffffffffffffffffffffffffffffffffffffff168152602001600073ffffffffffffffffffffffffffffffffffffffff168152602001600081526020016060815260200160608152602001600015158152602001600015158152602001600015158152602001606081525090565b5b8082111561248357600081600090555060010161246b565b5090565b6000604051905090565b600080fd5b600080fd5b600073ffffffffffffffffffffffffffffffffffffffff82169050919050565b60006124c68261249b565b9050919050565b6124d6816124bb565b81146124e157600080fd5b50565b6000813590506124f3816124cd565b92915050565b6000819050919050565b61250c816124f9565b811461251757600080fd5b50565b60008135905061252981612503565b92915050565b6000806040838503121561254657612545612491565b5b6000612554858286016124e4565b92505060206125658582860161251a565b9150509250929050565b612578816124f9565b82525050565b6000602082019050612593600083018461256f565b92915050565b6000602082840312156125af576125ae612491565b5b60006125bd8482850161251a565b91505092915050565b600080fd5b600080fd5b600080fd5b60008083601f8401126125eb576125ea6125c6565b5b8235905067ffffffffffffffff811115612608576126076125cb565b5b602083019150836001820283011115612624576126236125d0565b5b9250929050565b60008083601f840112612641576126406125c6565b5b8235905067ffffffffffffffff81111561265e5761265d6125cb565b5b60208301915083600182028301111561267a576126796125d0565b5b9250929050565b60008060008060008060006080888a0312156126a05761269f612491565b5b600088013567ffffffffffffffff8111156126be576126bd612496565b5b6126ca8a828b016125d5565b975097505060206126dd8a828b0161251a565b955050604088013567ffffffffffffffff8111156126fe576126fd612496565b5b61270a8a828b016125d5565b9450945050606088013567ffffffffffffffff81111561272d5761272c612496565b5b6127398a828b0161262b565b925092505092959891949750929550565b6000819050919050565b600061276f61276a6127658461249b565b61274a565b61249b565b9050919050565b600061278182612754565b9050919050565b600061279382612776565b9050919050565b6127a381612788565b82525050565b60006020820190506127be600083018461279a565b92915050565b600080fd5b6000601f19601f8301169050919050565b7f4e487b7100000000000000000000000000000000000000000000000000000000600052604160045260246000fd5b612812826127c9565b810181811067ffffffffffffffff82111715612831576128306127da565b5b80604052505050565b6000612844612487565b90506128508282612809565b919050565b600067ffffffffffffffff8211156128705761286f6127da565b5b612879826127c9565b9050602081019050919050565b82818337600083830152505050565b60006128a86128a384612855565b61283a565b9050828152602081018484840111156128c4576128c36127c4565b5b6128cf848285612886565b509392505050565b600082601f8301126128ec576128eb6125c6565b5b81356128fc848260208601612895565b91505092915050565b60008060008060008060a0878903121561292257612921612491565b5b600061293089828a0161251a565b965050602087013567ffffffffffffffff81111561295157612950612496565b5b61295d89828a0161262b565b9550955050604061297089828a0161251a565b935050606061298189828a016124e4565b925050608087013567ffffffffffffffff8111156129a2576129a1612496565b5b6129ae89828a016128d7565b9150509295509295509295565b6000602082840312156129d1576129d0612491565b5b60006129df848285016124e4565b91505092915050565b600081519050919050565b600082825260208201905092915050565b6000819050602082019050919050565b612a1d816124f9565b82525050565b6000612a2f8383612a14565b60208301905092915050565b6000602082019050919050565b6000612a53826129e8565b612a5d81856129f3565b9350612a6883612a04565b8060005b83811015612a99578151612a808882612a23565b9750612a8b83612a3b565b925050600181019050612a6c565b5085935050505092915050565b60006020820190508181036000830152612ac08184612a48565b905092915050565b600081519050919050565b600082825260208201905092915050565b60005b83811015612b02578082015181840152602081019050612ae7565b83811115612b11576000848401525b50505050565b6000612b2282612ac8565b612b2c8185612ad3565b9350612b3c818560208601612ae4565b612b45816127c9565b840191505092915050565b612b59816124bb565b82525050565b600081519050919050565b600082825260208201905092915050565b6000612b8682612b5f565b612b908185612b6a565b9350612ba0818560208601612ae4565b612ba9816127c9565b840191505092915050565b60008115159050919050565b612bc981612bb4565b82525050565b6000610160820190508181036000830152612bea818e612b17565b9050612bf9602083018d61256f565b612c06604083018c612b50565b612c13606083018b612b50565b612c20608083018a61256f565b81810360a0830152612c328189612b17565b905081810360c0830152612c468188612b7b565b9050612c5560e0830187612bc0565b612c63610100830186612bc0565b612c71610120830185612bc0565b818103610140830152612c848184612b7b565b90509c9b505050505050505050505050565b6000602082019050612cab6000830184612b50565b92915050565b6000612cbc8261249b565b9050919050565b6000612cce82612cb1565b9050919050565b612cde81612cc3565b8114612ce957600080fd5b50565b600081359050612cfb81612cd5565b92915050565b600060208284031215612d1757612d16612491565b5b6000612d2584828501612cec565b91505092915050565b7f4e6f20737563682070726f647563740000000000000000000000000000000000600082015250565b6000612d64600f83612ad3565b9150612d6f82612d2e565b602082019050919050565b60006020820190508181036000830152612d9381612d57565b9050919050565b7f446f65736e27742068617665206f776e6572206d61726b6574706c6163650000600082015250565b6000612dd0601e83612ad3565b9150612ddb82612d9a565b602082019050919050565b60006020820190508181036000830152612dff81612dc3565b9050919050565b600081519050612e15816124cd565b92915050565b600060208284031215612e3157612e30612491565b5b6000612e3f84828501612e06565b91505092915050565b7f4e6f20746f6b656e207370656369666965640000000000000000000000000000600082015250565b6000612e7e601283612ad3565b9150612e8982612e48565b602082019050919050565b60006020820190508181036000830152612ead81612e71565b9050919050565b7f4e487b7100000000000000000000000000000000000000000000000000000000600052602260045260246000fd5b60006002820490506001821680612efb57607f821691505b602082108103612f0e57612f0d612eb4565b5b50919050565b7f50726f64756374206e6f74207061696400000000000000000000000000000000600082015250565b6000612f4a601083612ad3565b9150612f5582612f14565b602082019050919050565b60006020820190508181036000830152612f7981612f3d565b9050919050565b7f50726f6475637420616c72656164792064656c69766572656400000000000000600082015250565b6000612fb6601983612ad3565b9150612fc182612f80565b602082019050919050565b60006020820190508181036000830152612fe581612fa9565b9050919050565b612ff581612bb4565b811461300057600080fd5b50565b60008151905061301281612fec565b92915050565b60006020828403121561302e5761302d612491565b5b600061303c84828501613003565b91505092915050565b7f4e6f7420616e20617574686f72697a656420636f757269657200000000000000600082015250565b600061307b601983612ad3565b915061308682613045565b602082019050919050565b600060208201905081810360008301526130aa8161306e565b9050919050565b7f4e487b7100000000000000000000000000000000000000000000000000000000600052601160045260246000fd5b60006130eb826124f9565b91506130f6836124f9565b925082821015613109576131086130b1565b5b828203905092915050565b600061311f826124f9565b915061312a836124f9565b9250827fffffffffffffffffffffffffffffffffffffffffffffffffffffffffffffffff0382111561315f5761315e6130b1565b5b828201905092915050565b600060408201905061317f6000830185612b50565b61318c602083018461256f565b9392505050565b60006060820190506131a8600083018661256f565b6131b56020830185612b50565b6131c26040830184612b50565b949350505050565b7f4e616d652073686f756c646e277420626520656d707479000000000000000000600082015250565b6000613200601783612ad3565b915061320b826131ca565b602082019050919050565b6000602082019050818103600083015261322f816131f3565b9050919050565b7f50726963652073686f756c64206265203e3d3230303030303000000000000000600082015250565b600061326c601983612ad3565b915061327782613236565b602082019050919050565b6000602082019050818103600083015261329b8161325f565b9050919050565b60006132ae8385612ad3565b93506132bb838584612886565b6132c4836127c9565b840190509392505050565b600060808201905081810360008301526132ea8187896132a2565b90506132f9602083018661256f565b6133066040830185612b50565b613313606083018461256f565b9695505050505050565b7f50726f6475637420616c726561647920626f7567687400000000000000000000600082015250565b6000613353601683612ad3565b915061335e8261331d565b602082019050919050565b6000602082019050818103600083015261338281613346565b9050919050565b7f4e6f2064656c697665727920696e737472756374696f6e730000000000000000600082015250565b60006133bf601883612ad3565b91506133ca82613389565b602082019050919050565b600060208201905081810360008301526133ee816133b2565b9050919050565b60008160601b9050919050565b600061340d826133f5565b9050919050565b600061341f82613402565b9050919050565b613437613432826124bb565b613414565b82525050565b6000819050919050565b613458613453826124f9565b61343d565b82525050565b600061346a8285613426565b60148201915061347a8284613447565b6020820191508190509392505050565b6000613495826124f9565b91506134a0836124f9565b9250817fffffffffffffffffffffffffffffffffffffffffffffffffffffffffffffffff04831182151516156134d9576134d86130b1565b5b828202905092915050565b7f4e487b7100000000000000000000000000000000000000000000000000000000600052601260045260246000fd5b600061351e826124f9565b9150613529836124f9565b925082613539576135386134e4565b5b828204905092915050565b6000819050919050565b61355781613544565b82525050565b600060c082019050613572600083018961256f565b61357f602083018861354e565b61358c604083018761256f565b6135996060830186612b50565b6135a66080830185612b50565b81810360a08301526135b88184612b7b565b9050979650505050505050565b60006040820190506135da600083018561256f565b6135e76020830184612b50565b9392505050565b7f416464726573732073686f756c646e2774206265203000000000000000000000600082015250565b6000613624601683612ad3565b915061362f826135ee565b602082019050919050565b6000602082019050818103600083015261365381613617565b9050919050565b7f4f776e61626c653a206e6577206f776e657220697320746865207a65726f206160008201527f6464726573730000000000000000000000000000000000000000000000000000602082015250565b60006136b6602683612ad3565b91506136c18261365a565b604082019050919050565b600060208201905081810360008301526136e5816136a9565b9050919050565b7f4f776e61626c653a2063616c6c6572206973206e6f7420746865206f776e6572600082015250565b6000613722602083612ad3565b915061372d826136ec565b602082019050919050565b6000602082019050818103600083015261375181613715565b905091905056fea264697066735822122031b180c61223340df2994d7b85af07a7d5fedfe74bd2c7879b8a0f941d6d6f1264736f6c634300080d0033",
  "linkReferences": {},
  "deployedLinkReferences": {}
}