{
  "_format": "hh-sol-artifact-1",
  "contractName": "SimpleSeller",
  "sourceName": "contracts/SimpleSeller.sol",
  "abi": [
    {
      "anonymous": false,
      "inputs": [
        {
          "indexed": true,
          "internalType": "address",
          "name": "previousOwner",
          "type": "address"
        },
        {
          "indexed": true,
          "internalType": "address",
          "name": "newOwner",
          "type": "address"
        }
      ],
      "name": "OwnershipTransferred",
      "type": "event"
    },
    {
      "anonymous": false,
      "inputs": [
        {
          "indexed": true,
          "internalType": "string",
          "name": "name",
          "type": "string"
        },
        {
          "indexed": false,
          "internalType": "uint256",
          "name": "price",
          "type": "uint256"
        },
        {
          "indexed": true,
          "internalType": "address",
          "name": "seller",
          "type": "address"
        },
        {
          "indexed": true,
          "internalType": "uint256",
          "name": "index",
          "type": "uint256"
        }
      ],
      "name": "sellerProductAdded",
      "type": "event"
    },
    {
      "anonymous": false,
      "inputs": [
        {
          "indexed": true,
          "internalType": "uint256",
          "name": "index",
          "type": "uint256"
        }
      ],
      "name": "sellerProductApproved",
      "type": "event"
    },
    {
      "anonymous": false,
      "inputs": [
        {
          "indexed": true,
          "internalType": "uint256",
          "name": "index",
          "type": "uint256"
        },
        {
          "indexed": true,
          "internalType": "address",
          "name": "seller",
          "type": "address"
        },
        {
          "indexed": true,
          "internalType": "address",
          "name": "courier",
          "type": "address"
        }
      ],
      "name": "sellerProductDelivered",
      "type": "event"
    },
    {
      "anonymous": false,
      "inputs": [
        {
          "indexed": true,
          "internalType": "uint256",
          "name": "index",
          "type": "uint256"
        },
        {
          "indexed": true,
          "internalType": "address",
          "name": "buyer",
          "type": "address"
        }
      ],
      "name": "sellerProductSold",
      "type": "event"
    },
    {
      "inputs": [
        {
          "internalType": "string",
          "name": "name",
          "type": "string"
        },
        {
          "internalType": "uint256",
          "name": "price",
          "type": "uint256"
        },
        {
          "internalType": "string",
          "name": "link",
          "type": "string"
        },
        {
          "internalType": "bytes",
          "name": "marketHashOfData",
          "type": "bytes"
        }
      ],
      "name": "addProduct",
      "outputs": [],
      "stateMutability": "nonpayable",
      "type": "function"
    },
    {
      "inputs": [
        {
          "internalType": "uint256",
          "name": "index",
          "type": "uint256"
        }
      ],
      "name": "approveProduct",
      "outputs": [],
      "stateMutability": "nonpayable",
      "type": "function"
    },
    {
      "inputs": [],
      "name": "belongsToContract",
      "outputs": [
        {
          "internalType": "uint256",
          "name": "",
          "type": "uint256"
        }
      ],
      "stateMutability": "view",
      "type": "function"
    },
    {
      "inputs": [
        {
          "internalType": "uint256",
          "name": "index",
          "type": "uint256"
        }
      ],
      "name": "deliverProduct",
      "outputs": [],
      "stateMutability": "nonpayable",
      "type": "function"
    },
    {
      "inputs": [
        {
          "internalType": "address",
          "name": "seller",
          "type": "address"
        }
      ],
      "name": "getIndexesFromSellerAddress",
      "outputs": [
        {
          "internalType": "uint256[]",
          "name": "indexes",
          "type": "uint256[]"
        }
      ],
      "stateMutability": "view",
      "type": "function"
    },
    {
      "inputs": [
        {
          "internalType": "contract Marketplace",
          "name": "marketplace",
          "type": "address"
        }
      ],
      "name": "joinMarketplace",
      "outputs": [],
      "stateMutability": "nonpayable",
      "type": "function"
    },
    {
      "inputs": [
        {
          "internalType": "address",
          "name": "",
          "type": "address"
        },
        {
          "internalType": "uint256",
          "name": "",
          "type": "uint256"
        }
      ],
      "name": "owedMoneyToBuyers",
      "outputs": [
        {
          "internalType": "uint256",
          "name": "",
          "type": "uint256"
        }
      ],
      "stateMutability": "view",
      "type": "function"
    },
    {
      "inputs": [
        {
          "internalType": "address",
          "name": "",
          "type": "address"
        },
        {
          "internalType": "uint256",
          "name": "",
          "type": "uint256"
        }
      ],
      "name": "owedMoneyToSellers",
      "outputs": [
        {
          "internalType": "uint256",
          "name": "",
          "type": "uint256"
        }
      ],
      "stateMutability": "view",
      "type": "function"
    },
    {
      "inputs": [],
      "name": "owner",
      "outputs": [
        {
          "internalType": "address",
          "name": "",
          "type": "address"
        }
      ],
      "stateMutability": "view",
      "type": "function"
    },
    {
      "inputs": [],
      "name": "ownerMarketplace",
      "outputs": [
        {
          "internalType": "contract Marketplace",
          "name": "",
          "type": "address"
        }
      ],
      "stateMutability": "view",
      "type": "function"
    },
    {
      "inputs": [
        {
          "internalType": "uint256",
          "name": "index",
          "type": "uint256"
        },
        {
          "internalType": "bytes",
          "name": "deliveryInstructions",
          "type": "bytes"
        },
        {
          "internalType": "uint256",
          "name": "expiration",
          "type": "uint256"
        },
        {
          "internalType": "address",
          "name": "from",
          "type": "address"
        },
        {
          "internalType": "bytes",
          "name": "sig",
          "type": "bytes"
        }
      ],
      "name": "payProduct",
      "outputs": [],
      "stateMutability": "nonpayable",
      "type": "function"
    },
    {
      "inputs": [],
      "name": "productCount",
      "outputs": [
        {
          "internalType": "uint256",
          "name": "",
          "type": "uint256"
        }
      ],
      "stateMutability": "view",
      "type": "function"
    },
    {
      "inputs": [
        {
          "internalType": "uint256",
          "name": "",
          "type": "uint256"
        }
      ],
      "name": "products",
      "outputs": [
        {
          "internalType": "string",
          "name": "name",
          "type": "string"
        },
        {
          "internalType": "uint256",
          "name": "price",
          "type": "uint256"
        },
        {
          "internalType": "address",
          "name": "seller",
          "type": "address"
        },
        {
          "internalType": "address",
          "name": "buyer",
          "type": "address"
        },
        {
          "internalType": "uint256",
          "name": "addDate",
          "type": "uint256"
        },
        {
          "internalType": "string",
          "name": "linkForMedia",
          "type": "string"
        },
        {
          "internalType": "bytes",
          "name": "marketHashOfData",
          "type": "bytes"
        },
        {
          "internalType": "bool",
          "name": "approved",
          "type": "bool"
        },
        {
          "internalType": "bool",
          "name": "paid",
          "type": "bool"
        },
        {
          "internalType": "bool",
          "name": "delivered",
          "type": "bool"
        },
        {
          "internalType": "bytes",
          "name": "deliveryInstructions",
          "type": "bytes"
        }
      ],
      "stateMutability": "view",
      "type": "function"
    },
    {
      "inputs": [],
      "name": "renounceOwnership",
      "outputs": [],
      "stateMutability": "nonpayable",
      "type": "function"
    },
    {
      "inputs": [
        {
          "internalType": "address",
          "name": "",
          "type": "address"
        },
        {
          "internalType": "uint256",
          "name": "",
          "type": "uint256"
        }
      ],
      "name": "sellerToProductIndexes",
      "outputs": [
        {
          "internalType": "uint256",
          "name": "",
          "type": "uint256"
        }
      ],
      "stateMutability": "view",
      "type": "function"
    },
    {
      "inputs": [],
      "name": "transferFunds",
      "outputs": [],
      "stateMutability": "nonpayable",
      "type": "function"
    },
    {
      "inputs": [
        {
          "internalType": "address",
          "name": "newOwner",
          "type": "address"
        }
      ],
      "name": "transferOwnership",
      "outputs": [],
      "stateMutability": "nonpayable",
      "type": "function"
    }
  ],
  "bytecode": "0x6080604052600060015560006007553480156200001b57600080fd5b506200003c620000306200004260201b60201c565b6200004a60201b60201c565b6200010e565b600033905090565b60008060009054906101000a900473ffffffffffffffffffffffffffffffffffffffff169050816000806101000a81548173ffffffffffffffffffffffffffffffffffffffff021916908373ffffffffffffffffffffffffffffffffffffffff1602179055508173ffffffffffffffffffffffffffffffffffffffff168173ffffffffffffffffffffffffffffffffffffffff167f8be0079c531659141344cd1fd0a4f28419497f9722a3daafe3b4186f6b6457e060405160405180910390a35050565b613745806200011e6000396000f3fe608060405234801561001057600080fd5b506004361061010b5760003560e01c8063715018a6116100a25780637c044577116100715780637c0445771461029a5780638da5cb5b146102ca578063ac0b0445146102e8578063e0f6ef8714610304578063f2fde38b146103225761010b565b8063715018a61461020a57806372b9e2fc146102145780637a653f10146102305780637acc0b20146102605761010b565b80633c68eb81116100de5780633c68eb81146101965780633dd9fa65146101a05780634353c0ee146101bc578063660eb4a3146101ec5761010b565b80630f563197146101105780631c96fb1f1461014057806327d554951461015c5780633c1b52c414610178575b600080fd5b61012a60048036038101906101259190612578565b61033e565b60405161013791906125c7565b60405180910390f35b61015a600480360381019061015591906125e2565b610363565b005b610176600480360381019061017191906125e2565b610d6b565b005b610180610e79565b60405161018d91906125c7565b60405180910390f35b61019e610e7f565b005b6101ba60048036038101906101b591906126ca565b61115a565b005b6101d660048036038101906101d19190612578565b61147a565b6040516101e391906125c7565b60405180910390f35b6101f46114ab565b60405161020191906127f2565b60405180910390f35b6102126114d1565b005b61022e6004803603810190610229919061294e565b6114e5565b005b61024a60048036038101906102459190612a04565b611acf565b6040516102579190612aef565b60405180910390f35b61027a600480360381019061027591906125e2565b611b66565b6040516102919b9a99989796959493929190612c18565b60405180910390f35b6102b460048036038101906102af9190612578565b611e47565b6040516102c191906125c7565b60405180910390f35b6102d2611e6c565b6040516102df9190612cdf565b60405180910390f35b61030260048036038101906102fd9190612d4a565b611e95565b005b61030c611f50565b60405161031991906125c7565b60405180910390f35b61033c60048036038101906103379190612a04565b611f56565b005b6006602052816000526040600020602052806000526040600020600091509150505481565b80600073ffffffffffffffffffffffffffffffffffffffff166003600083815260200190815260200160002060020160009054906101000a900473ffffffffffffffffffffffffffffffffffffffff1673ffffffffffffffffffffffffffffffffffffffff1603610409576040517f08c379a000000000000000000000000000000000000000000000000000000000815260040161040090612dc3565b60405180910390fd5b600073ffffffffffffffffffffffffffffffffffffffff16600260009054906101000a900473ffffffffffffffffffffffffffffffffffffffff1673ffffffffffffffffffffffffffffffffffffffff160361049a576040517f08c379a000000000000000000000000000000000000000000000000000000000815260040161049190612e2f565b60405180910390fd5b600073ffffffffffffffffffffffffffffffffffffffff16600260009054906101000a900473ffffffffffffffffffffffffffffffffffffffff1673ffffffffffffffffffffffffffffffffffffffff1663b8fcf9376040518163ffffffff1660e01b8152600401602060405180830381865afa15801561051f573d6000803e3d6000fd5b505050506040513d601f19601f820116820180604052508101906105439190612e64565b73ffffffffffffffffffffffffffffffffffffffff1603610599576040517f08c379a000000000000000000000000000000000000000000000000000000000815260040161059090612edd565b60405180910390fd5b600060036000848152602001908152602001600020604051806101600160405290816000820180546105ca90612f2c565b80601f01602080910402602001604051908101604052809291908181526020018280546105f690612f2c565b80156106435780601f1061061857610100808354040283529160200191610643565b820191906000526020600020905b81548152906001019060200180831161062657829003601f168201915b50505050508152602001600182015481526020016002820160009054906101000a900473ffffffffffffffffffffffffffffffffffffffff1673ffffffffffffffffffffffffffffffffffffffff1673ffffffffffffffffffffffffffffffffffffffff1681526020016003820160009054906101000a900473ffffffffffffffffffffffffffffffffffffffff1673ffffffffffffffffffffffffffffffffffffffff1673ffffffffffffffffffffffffffffffffffffffff1681526020016004820154815260200160058201805461071c90612f2c565b80601f016020809104026020016040519081016040528092919081815260200182805461074890612f2c565b80156107955780601f1061076a57610100808354040283529160200191610795565b820191906000526020600020905b81548152906001019060200180831161077857829003601f168201915b505050505081526020016006820180546107ae90612f2c565b80601f01602080910402602001604051908101604052809291908181526020018280546107da90612f2c565b80156108275780601f106107fc57610100808354040283529160200191610827565b820191906000526020600020905b81548152906001019060200180831161080a57829003601f168201915b505050505081526020016007820160009054906101000a900460ff161515151581526020016007820160019054906101000a900460ff161515151581526020016007820160029054906101000a900460ff1615151515815260200160088201805461089190612f2c565b80601f01602080910402602001604051908101604052809291908181526020018280546108bd90612f2c565b801561090a5780601f106108df5761010080835404028352916020019161090a565b820191906000526020600020905b8154815290600101906020018083116108ed57829003601f168201915b505050505081525050905060011515816101000151151514610961576040517f08c379a000000000000000000000000000000000000000000000000000000000815260040161095890612fa9565b60405180910390fd5b600015158161012001511515146109ad576040517f08c379a00000000000000000000000000000000000000000000000000000000081526004016109a490613015565b60405180910390fd5b60011515600260009054906101000a900473ffffffffffffffffffffffffffffffffffffffff1673ffffffffffffffffffffffffffffffffffffffff1663ccd5fcb9336040518263ffffffff1660e01b8152600401610a0c9190612cdf565b602060405180830381865afa158015610a29573d6000803e3d6000fd5b505050506040513d601f19601f82011682018060405250810190610a4d9190613061565b151514610a8f576040517f08c379a0000000000000000000000000000000000000000000000000000000008152600401610a86906130da565b60405180910390fd5b600060056000836040015173ffffffffffffffffffffffffffffffffffffffff1673ffffffffffffffffffffffffffffffffffffffff1681526020019081526020016000206000858152602001908152602001600020549050808260200151610af89190613129565b60016000828254610b09919061315d565b92505081905550600060056000846040015173ffffffffffffffffffffffffffffffffffffffff1673ffffffffffffffffffffffffffffffffffffffff168152602001908152602001600020600086815260200190815260200160002081905550600060066000846060015173ffffffffffffffffffffffffffffffffffffffff1673ffffffffffffffffffffffffffffffffffffffff16815260200190815260200160002060008681526020019081526020016000208190555060016003600086815260200190815260200160002060070160026101000a81548160ff021916908315150217905550600260009054906101000a900473ffffffffffffffffffffffffffffffffffffffff1673ffffffffffffffffffffffffffffffffffffffff1663b8fcf9376040518163ffffffff1660e01b8152600401602060405180830381865afa158015610c60573d6000803e3d6000fd5b505050506040513d601f19601f82011682018060405250810190610c849190612e64565b73ffffffffffffffffffffffffffffffffffffffff1663a9059cbb8360400151836040518363ffffffff1660e01b8152600401610cc29291906131b3565b6020604051808303816000875af1158015610ce1573d6000803e3d6000fd5b505050506040513d601f19601f82011682018060405250810190610d059190613061565b503373ffffffffffffffffffffffffffffffffffffffff16826040015173ffffffffffffffffffffffffffffffffffffffff16857f79ea1e63534a5791aeb2fa76310349fa28bd6cef2156f4240adfa686cb8a451a60405160405180910390a450505050565b80600073ffffffffffffffffffffffffffffffffffffffff166003600083815260200190815260200160002060020160009054906101000a900473ffffffffffffffffffffffffffffffffffffffff1673ffffffffffffffffffffffffffffffffffffffff1603610e11576040517f08c379a0000000000000000000000000000000000000000000000000000000008152600401610e0890612dc3565b60405180910390fd5b610e19611fd9565b60016003600084815260200190815260200160002060070160006101000a81548160ff021916908315150217905550817f2c4e498b43c21fe3cc7ff52b560e91e57cfb919ff3be813351a0e005b784dbe260405160405180910390a25050565b60015481565b610e87611fd9565b600073ffffffffffffffffffffffffffffffffffffffff16600260009054906101000a900473ffffffffffffffffffffffffffffffffffffffff1673ffffffffffffffffffffffffffffffffffffffff1603610f18576040517f08c379a0000000000000000000000000000000000000000000000000000000008152600401610f0f90612e2f565b60405180910390fd5b600073ffffffffffffffffffffffffffffffffffffffff16600260009054906101000a900473ffffffffffffffffffffffffffffffffffffffff1673ffffffffffffffffffffffffffffffffffffffff1663b8fcf9376040518163ffffffff1660e01b8152600401602060405180830381865afa158015610f9d573d6000803e3d6000fd5b505050506040513d601f19601f82011682018060405250810190610fc19190612e64565b73ffffffffffffffffffffffffffffffffffffffff1603611017576040517f08c379a000000000000000000000000000000000000000000000000000000000815260040161100e90612edd565b60405180910390fd5b6000600260009054906101000a900473ffffffffffffffffffffffffffffffffffffffff1673ffffffffffffffffffffffffffffffffffffffff1663b8fcf9376040518163ffffffff1660e01b8152600401602060405180830381865afa158015611086573d6000803e3d6000fd5b505050506040513d601f19601f820116820180604052508101906110aa9190612e64565b90508073ffffffffffffffffffffffffffffffffffffffff1663a9059cbb600260009054906101000a900473ffffffffffffffffffffffffffffffffffffffff166001546040518363ffffffff1660e01b815260040161110b9291906131b3565b6020604051808303816000875af115801561112a573d6000803e3d6000fd5b505050506040513d601f19601f8201168201806040525081019061114e9190613061565b50600060018190555050565b600087879050036111a0576040517f08c379a000000000000000000000000000000000000000000000000000000000815260040161119790613228565b60405180910390fd5b621e84808510156111e6576040517f08c379a00000000000000000000000000000000000000000000000000000000081526004016111dd90613294565b60405180910390fd5b6111f587878787878787612057565b6003600060075481526020019081526020016000206000820151816000019080519060200190611226929190612295565b506020820151816001015560408201518160020160006101000a81548173ffffffffffffffffffffffffffffffffffffffff021916908373ffffffffffffffffffffffffffffffffffffffff16021790555060608201518160030160006101000a81548173ffffffffffffffffffffffffffffffffffffffff021916908373ffffffffffffffffffffffffffffffffffffffff1602179055506080820151816004015560a08201518160050190805190602001906112e5929190612295565b5060c082015181600601908051906020019061130292919061231b565b5060e08201518160070160006101000a81548160ff0219169083151502179055506101008201518160070160016101000a81548160ff0219169083151502179055506101208201518160070160026101000a81548160ff02191690831515021790555061014082015181600801908051906020019061138292919061231b565b50905050600460003373ffffffffffffffffffffffffffffffffffffffff1673ffffffffffffffffffffffffffffffffffffffff16815260200190815260200160002060075490806001815401808255809150506001900390600052602060002001600090919091909150556007543373ffffffffffffffffffffffffffffffffffffffff1688886040516114189291906132e4565b60405180910390207f4652437f761c98c9da0cbf58e43dd666358d175a79342439f8d7048fd5a546818860405161144f91906125c7565b60405180910390a460016007600082825461146a919061315d565b9250508190555050505050505050565b6004602052816000526040600020818154811061149657600080fd5b90600052602060002001600091509150505481565b600260009054906101000a900473ffffffffffffffffffffffffffffffffffffffff1681565b6114d9611fd9565b6114e360006121c9565b565b85600073ffffffffffffffffffffffffffffffffffffffff166003600083815260200190815260200160002060020160009054906101000a900473ffffffffffffffffffffffffffffffffffffffff1673ffffffffffffffffffffffffffffffffffffffff160361158b576040517f08c379a000000000000000000000000000000000000000000000000000000000815260040161158290612dc3565b60405180910390fd5b600073ffffffffffffffffffffffffffffffffffffffff16600260009054906101000a900473ffffffffffffffffffffffffffffffffffffffff1673ffffffffffffffffffffffffffffffffffffffff160361161c576040517f08c379a000000000000000000000000000000000000000000000000000000000815260040161161390612e2f565b60405180910390fd5b600073ffffffffffffffffffffffffffffffffffffffff16600260009054906101000a900473ffffffffffffffffffffffffffffffffffffffff1673ffffffffffffffffffffffffffffffffffffffff1663b8fcf9376040518163ffffffff1660e01b8152600401602060405180830381865afa1580156116a1573d6000803e3d6000fd5b505050506040513d601f19601f820116820180604052508101906116c59190612e64565b73ffffffffffffffffffffffffffffffffffffffff160361171b576040517f08c379a000000000000000000000000000000000000000000000000000000000815260040161171290612edd565b60405180910390fd5b6000600360008981526020019081526020016000209050600015158160070160019054906101000a900460ff1615151461178a576040517f08c379a000000000000000000000000000000000000000000000000000000000815260040161178190613349565b60405180910390fd5b600087879050036117d0576040517f08c379a00000000000000000000000000000000000000000000000000000000081526004016117c7906133b5565b60405180910390fd5b600030896040516020016117e592919061343e565b60405160208183030381529060405280519060200120905087878360080191906118109291906123a1565b5060018260070160016101000a81548160ff021916908315150217905550606460638360010154611841919061346a565b61184b91906134f3565b600560008460020160009054906101000a900473ffffffffffffffffffffffffffffffffffffffff1673ffffffffffffffffffffffffffffffffffffffff1673ffffffffffffffffffffffffffffffffffffffff16815260200190815260200160002060008b8152602001908152602001600020819055508160010154600660008773ffffffffffffffffffffffffffffffffffffffff1673ffffffffffffffffffffffffffffffffffffffff16815260200190815260200160002060008b81526020019081526020016000208190555084600360008b815260200190815260200160002060030160006101000a81548173ffffffffffffffffffffffffffffffffffffffff021916908373ffffffffffffffffffffffffffffffffffffffff1602179055506000600260009054906101000a900473ffffffffffffffffffffffffffffffffffffffff1673ffffffffffffffffffffffffffffffffffffffff1663b8fcf9376040518163ffffffff1660e01b8152600401602060405180830381865afa1580156119e0573d6000803e3d6000fd5b505050506040513d601f19601f82011682018060405250810190611a049190612e64565b90508073ffffffffffffffffffffffffffffffffffffffff16639f4fae12888486600101548a308b6040518763ffffffff1660e01b8152600401611a4d9695949392919061353d565b600060405180830381600087803b158015611a6757600080fd5b505af1158015611a7b573d6000803e3d6000fd5b505050508573ffffffffffffffffffffffffffffffffffffffff168a7f7ec1ccbaefa3247177339d05656f4035327987c9d315294231c54e78cc87927a60405160405180910390a350505050505050505050565b6060600460008373ffffffffffffffffffffffffffffffffffffffff1673ffffffffffffffffffffffffffffffffffffffff168152602001908152602001600020805480602002602001604051908101604052809291908181526020018280548015611b5a57602002820191906000526020600020905b815481526020019060010190808311611b46575b50505050509050919050565b6003602052806000526040600020600091509050806000018054611b8990612f2c565b80601f0160208091040260200160405190810160405280929190818152602001828054611bb590612f2c565b8015611c025780601f10611bd757610100808354040283529160200191611c02565b820191906000526020600020905b815481529060010190602001808311611be557829003601f168201915b5050505050908060010154908060020160009054906101000a900473ffffffffffffffffffffffffffffffffffffffff16908060030160009054906101000a900473ffffffffffffffffffffffffffffffffffffffff1690806004015490806005018054611c6f90612f2c565b80601f0160208091040260200160405190810160405280929190818152602001828054611c9b90612f2c565b8015611ce85780601f10611cbd57610100808354040283529160200191611ce8565b820191906000526020600020905b815481529060010190602001808311611ccb57829003601f168201915b505050505090806006018054611cfd90612f2c565b80601f0160208091040260200160405190810160405280929190818152602001828054611d2990612f2c565b8015611d765780601f10611d4b57610100808354040283529160200191611d76565b820191906000526020600020905b815481529060010190602001808311611d5957829003601f168201915b5050505050908060070160009054906101000a900460ff16908060070160019054906101000a900460ff16908060070160029054906101000a900460ff1690806008018054611dc490612f2c565b80601f0160208091040260200160405190810160405280929190818152602001828054611df090612f2c565b8015611e3d5780601f10611e1257610100808354040283529160200191611e3d565b820191906000526020600020905b815481529060010190602001808311611e2057829003601f168201915b505050505090508b565b6005602052816000526040600020602052806000526040600020600091509150505481565b60008060009054906101000a900473ffffffffffffffffffffffffffffffffffffffff16905090565b611e9d611fd9565b600073ffffffffffffffffffffffffffffffffffffffff168173ffffffffffffffffffffffffffffffffffffffff1603611f0c576040517f08c379a0000000000000000000000000000000000000000000000000000000008152600401611f03906135f1565b60405180910390fd5b80600260006101000a81548173ffffffffffffffffffffffffffffffffffffffff021916908373ffffffffffffffffffffffffffffffffffffffff16021790555050565b60075481565b611f5e611fd9565b600073ffffffffffffffffffffffffffffffffffffffff168173ffffffffffffffffffffffffffffffffffffffff1603611fcd576040517f08c379a0000000000000000000000000000000000000000000000000000000008152600401611fc490613683565b60405180910390fd5b611fd6816121c9565b50565b611fe161228d565b73ffffffffffffffffffffffffffffffffffffffff16611fff611e6c565b73ffffffffffffffffffffffffffffffffffffffff1614612055576040517f08c379a000000000000000000000000000000000000000000000000000000000815260040161204c906136ef565b60405180910390fd5b565b61205f612427565b60405180610160016040528089898080601f016020809104026020016040519081016040528093929190818152602001838380828437600081840152601f19601f8201169050808301925050505050505081526020018781526020013373ffffffffffffffffffffffffffffffffffffffff168152602001600073ffffffffffffffffffffffffffffffffffffffff16815260200142815260200186868080601f016020809104026020016040519081016040528093929190818152602001838380828437600081840152601f19601f82011690508083019250505050505050815260200184848080601f016020809104026020016040519081016040528093929190818152602001838380828437600081840152601f19601f820116905080830192505050505050508152602001600015158152602001600015158152602001600015158152602001604051806020016040528060008152508152509050979650505050505050565b60008060009054906101000a900473ffffffffffffffffffffffffffffffffffffffff169050816000806101000a81548173ffffffffffffffffffffffffffffffffffffffff021916908373ffffffffffffffffffffffffffffffffffffffff1602179055508173ffffffffffffffffffffffffffffffffffffffff168173ffffffffffffffffffffffffffffffffffffffff167f8be0079c531659141344cd1fd0a4f28419497f9722a3daafe3b4186f6b6457e060405160405180910390a35050565b600033905090565b8280546122a190612f2c565b90600052602060002090601f0160209004810192826122c3576000855561230a565b82601f106122dc57805160ff191683800117855561230a565b8280016001018555821561230a579182015b828111156123095782518255916020019190600101906122ee565b5b50905061231791906124b3565b5090565b82805461232790612f2c565b90600052602060002090601f0160209004810192826123495760008555612390565b82601f1061236257805160ff1916838001178555612390565b82800160010185558215612390579182015b8281111561238f578251825591602001919060010190612374565b5b50905061239d91906124b3565b5090565b8280546123ad90612f2c565b90600052602060002090601f0160209004810192826123cf5760008555612416565b82601f106123e857803560ff1916838001178555612416565b82800160010185558215612416579182015b828111156124155782358255916020019190600101906123fa565b5b50905061242391906124b3565b5090565b6040518061016001604052806060815260200160008152602001600073ffffffffffffffffffffffffffffffffffffffff168152602001600073ffffffffffffffffffffffffffffffffffffffff168152602001600081526020016060815260200160608152602001600015158152602001600015158152602001600015158152602001606081525090565b5b808211156124cc5760008160009055506001016124b4565b5090565b6000604051905090565b600080fd5b600080fd5b600073ffffffffffffffffffffffffffffffffffffffff82169050919050565b600061250f826124e4565b9050919050565b61251f81612504565b811461252a57600080fd5b50565b60008135905061253c81612516565b92915050565b6000819050919050565b61255581612542565b811461256057600080fd5b50565b6000813590506125728161254c565b92915050565b6000806040838503121561258f5761258e6124da565b5b600061259d8582860161252d565b92505060206125ae85828601612563565b9150509250929050565b6125c181612542565b82525050565b60006020820190506125dc60008301846125b8565b92915050565b6000602082840312156125f8576125f76124da565b5b600061260684828501612563565b91505092915050565b600080fd5b600080fd5b600080fd5b60008083601f8401126126345761263361260f565b5b8235905067ffffffffffffffff81111561265157612650612614565b5b60208301915083600182028301111561266d5761266c612619565b5b9250929050565b60008083601f84011261268a5761268961260f565b5b8235905067ffffffffffffffff8111156126a7576126a6612614565b5b6020830191508360018202830111156126c3576126c2612619565b5b9250929050565b60008060008060008060006080888a0312156126e9576126e86124da565b5b600088013567ffffffffffffffff811115612707576127066124df565b5b6127138a828b0161261e565b975097505060206127268a828b01612563565b955050604088013567ffffffffffffffff811115612747576127466124df565b5b6127538a828b0161261e565b9450945050606088013567ffffffffffffffff811115612776576127756124df565b5b6127828a828b01612674565b925092505092959891949750929550565b6000819050919050565b60006127b86127b36127ae846124e4565b612793565b6124e4565b9050919050565b60006127ca8261279d565b9050919050565b60006127dc826127bf565b9050919050565b6127ec816127d1565b82525050565b600060208201905061280760008301846127e3565b92915050565b600080fd5b6000601f19601f8301169050919050565b7f4e487b7100000000000000000000000000000000000000000000000000000000600052604160045260246000fd5b61285b82612812565b810181811067ffffffffffffffff8211171561287a57612879612823565b5b80604052505050565b600061288d6124d0565b90506128998282612852565b919050565b600067ffffffffffffffff8211156128b9576128b8612823565b5b6128c282612812565b9050602081019050919050565b82818337600083830152505050565b60006128f16128ec8461289e565b612883565b90508281526020810184848401111561290d5761290c61280d565b5b6129188482856128cf565b509392505050565b600082601f8301126129355761293461260f565b5b81356129458482602086016128de565b91505092915050565b60008060008060008060a0878903121561296b5761296a6124da565b5b600061297989828a01612563565b965050602087013567ffffffffffffffff81111561299a576129996124df565b5b6129a689828a01612674565b955095505060406129b989828a01612563565b93505060606129ca89828a0161252d565b925050608087013567ffffffffffffffff8111156129eb576129ea6124df565b5b6129f789828a01612920565b9150509295509295509295565b600060208284031215612a1a57612a196124da565b5b6000612a288482850161252d565b91505092915050565b600081519050919050565b600082825260208201905092915050565b6000819050602082019050919050565b612a6681612542565b82525050565b6000612a788383612a5d565b60208301905092915050565b6000602082019050919050565b6000612a9c82612a31565b612aa68185612a3c565b9350612ab183612a4d565b8060005b83811015612ae2578151612ac98882612a6c565b9750612ad483612a84565b925050600181019050612ab5565b5085935050505092915050565b60006020820190508181036000830152612b098184612a91565b905092915050565b600081519050919050565b600082825260208201905092915050565b60005b83811015612b4b578082015181840152602081019050612b30565b83811115612b5a576000848401525b50505050565b6000612b6b82612b11565b612b758185612b1c565b9350612b85818560208601612b2d565b612b8e81612812565b840191505092915050565b612ba281612504565b82525050565b600081519050919050565b600082825260208201905092915050565b6000612bcf82612ba8565b612bd98185612bb3565b9350612be9818560208601612b2d565b612bf281612812565b840191505092915050565b60008115159050919050565b612c1281612bfd565b82525050565b6000610160820190508181036000830152612c33818e612b60565b9050612c42602083018d6125b8565b612c4f604083018c612b99565b612c5c606083018b612b99565b612c69608083018a6125b8565b81810360a0830152612c7b8189612b60565b905081810360c0830152612c8f8188612bc4565b9050612c9e60e0830187612c09565b612cac610100830186612c09565b612cba610120830185612c09565b818103610140830152612ccd8184612bc4565b90509c9b505050505050505050505050565b6000602082019050612cf46000830184612b99565b92915050565b6000612d05826124e4565b9050919050565b6000612d1782612cfa565b9050919050565b612d2781612d0c565b8114612d3257600080fd5b50565b600081359050612d4481612d1e565b92915050565b600060208284031215612d6057612d5f6124da565b5b6000612d6e84828501612d35565b91505092915050565b7f4e6f20737563682070726f647563740000000000000000000000000000000000600082015250565b6000612dad600f83612b1c565b9150612db882612d77565b602082019050919050565b60006020820190508181036000830152612ddc81612da0565b9050919050565b7f446f65736e27742068617665206f776e6572206d61726b6574706c6163650000600082015250565b6000612e19601e83612b1c565b9150612e2482612de3565b602082019050919050565b60006020820190508181036000830152612e4881612e0c565b9050919050565b600081519050612e5e81612516565b92915050565b600060208284031215612e7a57612e796124da565b5b6000612e8884828501612e4f565b91505092915050565b7f4e6f20746f6b656e207370656369666965640000000000000000000000000000600082015250565b6000612ec7601283612b1c565b9150612ed282612e91565b602082019050919050565b60006020820190508181036000830152612ef681612eba565b9050919050565b7f4e487b7100000000000000000000000000000000000000000000000000000000600052602260045260246000fd5b60006002820490506001821680612f4457607f821691505b602082108103612f5757612f56612efd565b5b50919050565b7f50726f64756374206e6f74207061696400000000000000000000000000000000600082015250565b6000612f93601083612b1c565b9150612f9e82612f5d565b602082019050919050565b60006020820190508181036000830152612fc281612f86565b9050919050565b7f50726f6475637420616c72656164792064656c69766572656400000000000000600082015250565b6000612fff601983612b1c565b915061300a82612fc9565b602082019050919050565b6000602082019050818103600083015261302e81612ff2565b9050919050565b61303e81612bfd565b811461304957600080fd5b50565b60008151905061305b81613035565b92915050565b600060208284031215613077576130766124da565b5b60006130858482850161304c565b91505092915050565b7f4e6f7420616e20617574686f72697a656420636f757269657200000000000000600082015250565b60006130c4601983612b1c565b91506130cf8261308e565b602082019050919050565b600060208201905081810360008301526130f3816130b7565b9050919050565b7f4e487b7100000000000000000000000000000000000000000000000000000000600052601160045260246000fd5b600061313482612542565b915061313f83612542565b925082821015613152576131516130fa565b5b828203905092915050565b600061316882612542565b915061317383612542565b9250827fffffffffffffffffffffffffffffffffffffffffffffffffffffffffffffffff038211156131a8576131a76130fa565b5b828201905092915050565b60006040820190506131c86000830185612b99565b6131d560208301846125b8565b9392505050565b7f4e616d652073686f756c646e277420626520656d707479000000000000000000600082015250565b6000613212601783612b1c565b915061321d826131dc565b602082019050919050565b6000602082019050818103600083015261324181613205565b9050919050565b7f50726963652073686f756c64206265203e3d3230303030303000000000000000600082015250565b600061327e601983612b1c565b915061328982613248565b602082019050919050565b600060208201905081810360008301526132ad81613271565b9050919050565b600081905092915050565b60006132cb83856132b4565b93506132d88385846128cf565b82840190509392505050565b60006132f18284866132bf565b91508190509392505050565b7f50726f6475637420616c726561647920626f7567687400000000000000000000600082015250565b6000613333601683612b1c565b915061333e826132fd565b602082019050919050565b6000602082019050818103600083015261336281613326565b9050919050565b7f4e6f2064656c697665727920696e737472756374696f6e730000000000000000600082015250565b600061339f601883612b1c565b91506133aa82613369565b602082019050919050565b600060208201905081810360008301526133ce81613392565b9050919050565b60008160601b9050919050565b60006133ed826133d5565b9050919050565b60006133ff826133e2565b9050919050565b61341761341282612504565b6133f4565b82525050565b6000819050919050565b61343861343382612542565b61341d565b82525050565b600061344a8285613406565b60148201915061345a8284613427565b6020820191508190509392505050565b600061347582612542565b915061348083612542565b9250817fffffffffffffffffffffffffffffffffffffffffffffffffffffffffffffffff04831182151516156134b9576134b86130fa565b5b828202905092915050565b7f4e487b7100000000000000000000000000000000000000000000000000000000600052601260045260246000fd5b60006134fe82612542565b915061350983612542565b925082613519576135186134c4565b5b828204905092915050565b6000819050919050565b61353781613524565b82525050565b600060c08201905061355260008301896125b8565b61355f602083018861352e565b61356c60408301876125b8565b6135796060830186612b99565b6135866080830185612b99565b81810360a08301526135988184612bc4565b9050979650505050505050565b7f416464726573732073686f756c646e2774206265203000000000000000000000600082015250565b60006135db601683612b1c565b91506135e6826135a5565b602082019050919050565b6000602082019050818103600083015261360a816135ce565b9050919050565b7f4f776e61626c653a206e6577206f776e657220697320746865207a65726f206160008201527f6464726573730000000000000000000000000000000000000000000000000000602082015250565b600061366d602683612b1c565b915061367882613611565b604082019050919050565b6000602082019050818103600083015261369c81613660565b9050919050565b7f4f776e61626c653a2063616c6c6572206973206e6f7420746865206f776e6572600082015250565b60006136d9602083612b1c565b91506136e4826136a3565b602082019050919050565b60006020820190508181036000830152613708816136cc565b905091905056fea2646970667358221220854d7591c8105c1ebc848aeb1946be8900bf078dc46e8add59c627b9d1604cfd64736f6c634300080d0033",
  "linkReferences": {},
  "deployedLinkReferences": {}
}