{
  "_format": "hh-sol-artifact-1",
  "contractName": "SimpleAuction",
  "sourceName": "contracts/SimpleAuction.sol",
  "abi": [
    {
      "anonymous": false,
      "inputs": [
        {
          "indexed": true,
          "internalType": "address",
          "name": "previousOwner",
          "type": "address"
        },
        {
          "indexed": true,
          "internalType": "address",
          "name": "newOwner",
          "type": "address"
        }
      ],
      "name": "OwnershipTransferred",
      "type": "event"
    },
    {
      "anonymous": false,
      "inputs": [
        {
          "indexed": false,
          "internalType": "string",
          "name": "name",
          "type": "string"
        },
        {
          "indexed": false,
          "internalType": "uint256",
          "name": "minimalPrice",
          "type": "uint256"
        },
        {
          "indexed": false,
          "internalType": "address",
          "name": "seller",
          "type": "address"
        },
        {
          "indexed": false,
          "internalType": "uint256",
          "name": "index",
          "type": "uint256"
        }
      ],
      "name": "auctionProductAdded",
      "type": "event"
    },
    {
      "anonymous": false,
      "inputs": [
        {
          "indexed": false,
          "internalType": "uint256",
          "name": "index",
          "type": "uint256"
        }
      ],
      "name": "auctionProductApproved",
      "type": "event"
    },
    {
      "anonymous": false,
      "inputs": [
        {
          "indexed": false,
          "internalType": "uint256",
          "name": "index",
          "type": "uint256"
        },
        {
          "indexed": false,
          "internalType": "address",
          "name": "bidder",
          "type": "address"
        },
        {
          "indexed": false,
          "internalType": "uint256",
          "name": "amount",
          "type": "uint256"
        }
      ],
      "name": "auctionProductBid",
      "type": "event"
    },
    {
      "anonymous": false,
      "inputs": [
        {
          "indexed": false,
          "internalType": "uint256",
          "name": "index",
          "type": "uint256"
        },
        {
          "indexed": false,
          "internalType": "address",
          "name": "buyer",
          "type": "address"
        },
        {
          "indexed": false,
          "internalType": "address",
          "name": "courier",
          "type": "address"
        }
      ],
      "name": "auctionProductDelivered",
      "type": "event"
    },
    {
      "inputs": [
        {
          "internalType": "string",
          "name": "name",
          "type": "string"
        },
        {
          "internalType": "uint256",
          "name": "minimalPrice",
          "type": "uint256"
        },
        {
          "internalType": "string",
          "name": "link",
          "type": "string"
        },
        {
          "internalType": "bytes",
          "name": "marketHashOfData",
          "type": "bytes"
        },
        {
          "internalType": "uint256",
          "name": "finishDate",
          "type": "uint256"
        }
      ],
      "name": "addProduct",
      "outputs": [],
      "stateMutability": "nonpayable",
      "type": "function"
    },
    {
      "inputs": [
        {
          "internalType": "uint256",
          "name": "index",
          "type": "uint256"
        }
      ],
      "name": "approveProduct",
      "outputs": [],
      "stateMutability": "nonpayable",
      "type": "function"
    },
    {
      "inputs": [],
      "name": "belongsToContract",
      "outputs": [
        {
          "internalType": "uint256",
          "name": "",
          "type": "uint256"
        }
      ],
      "stateMutability": "view",
      "type": "function"
    },
    {
      "inputs": [
        {
          "internalType": "uint256",
          "name": "index",
          "type": "uint256"
        },
        {
          "internalType": "bytes",
          "name": "deliveryInstructions",
          "type": "bytes"
        },
        {
          "internalType": "uint256",
          "name": "amount",
          "type": "uint256"
        },
        {
          "internalType": "address",
          "name": "from",
          "type": "address"
        },
        {
          "internalType": "bytes",
          "name": "sig",
          "type": "bytes"
        }
      ],
      "name": "bidForProduct",
      "outputs": [],
      "stateMutability": "nonpayable",
      "type": "function"
    },
    {
      "inputs": [
        {
          "internalType": "uint256",
          "name": "index",
          "type": "uint256"
        }
      ],
      "name": "deliverProduct",
      "outputs": [],
      "stateMutability": "nonpayable",
      "type": "function"
    },
    {
      "inputs": [
        {
          "internalType": "address",
          "name": "seller",
          "type": "address"
        }
      ],
      "name": "getIndexesFromSellerAddress",
      "outputs": [
        {
          "internalType": "uint256[]",
          "name": "indexes",
          "type": "uint256[]"
        }
      ],
      "stateMutability": "view",
      "type": "function"
    },
    {
      "inputs": [
        {
          "internalType": "contract Marketplace",
          "name": "marketplace",
          "type": "address"
        }
      ],
      "name": "joinMarketplace",
      "outputs": [],
      "stateMutability": "nonpayable",
      "type": "function"
    },
    {
      "inputs": [
        {
          "internalType": "address",
          "name": "",
          "type": "address"
        },
        {
          "internalType": "uint256",
          "name": "",
          "type": "uint256"
        }
      ],
      "name": "owedMoneyToBidders",
      "outputs": [
        {
          "internalType": "uint256",
          "name": "",
          "type": "uint256"
        }
      ],
      "stateMutability": "view",
      "type": "function"
    },
    {
      "inputs": [],
      "name": "owner",
      "outputs": [
        {
          "internalType": "address",
          "name": "",
          "type": "address"
        }
      ],
      "stateMutability": "view",
      "type": "function"
    },
    {
      "inputs": [],
      "name": "ownerMarketplace",
      "outputs": [
        {
          "internalType": "contract Marketplace",
          "name": "",
          "type": "address"
        }
      ],
      "stateMutability": "view",
      "type": "function"
    },
    {
      "inputs": [],
      "name": "productCount",
      "outputs": [
        {
          "internalType": "uint256",
          "name": "",
          "type": "uint256"
        }
      ],
      "stateMutability": "view",
      "type": "function"
    },
    {
      "inputs": [
        {
          "internalType": "uint256",
          "name": "",
          "type": "uint256"
        }
      ],
      "name": "products",
      "outputs": [
        {
          "internalType": "string",
          "name": "name",
          "type": "string"
        },
        {
          "internalType": "uint256",
          "name": "minimalPrice",
          "type": "uint256"
        },
        {
          "internalType": "address",
          "name": "seller",
          "type": "address"
        },
        {
          "internalType": "uint256",
          "name": "addDate",
          "type": "uint256"
        },
        {
          "internalType": "string",
          "name": "linkForMedia",
          "type": "string"
        },
        {
          "internalType": "bytes",
          "name": "marketHashOfData",
          "type": "bytes"
        },
        {
          "internalType": "bool",
          "name": "approved",
          "type": "bool"
        },
        {
          "internalType": "bool",
          "name": "delivered",
          "type": "bool"
        },
        {
          "internalType": "bytes",
          "name": "deliveryInstructions",
          "type": "bytes"
        },
        {
          "internalType": "address",
          "name": "currentBidder",
          "type": "address"
        },
        {
          "internalType": "uint256",
          "name": "bidAmount",
          "type": "uint256"
        },
        {
          "internalType": "uint256",
          "name": "finishDate",
          "type": "uint256"
        }
      ],
      "stateMutability": "view",
      "type": "function"
    },
    {
      "inputs": [],
      "name": "renounceOwnership",
      "outputs": [],
      "stateMutability": "nonpayable",
      "type": "function"
    },
    {
      "inputs": [
        {
          "internalType": "address",
          "name": "",
          "type": "address"
        },
        {
          "internalType": "uint256",
          "name": "",
          "type": "uint256"
        }
      ],
      "name": "sellerToProductIndexes",
      "outputs": [
        {
          "internalType": "uint256",
          "name": "",
          "type": "uint256"
        }
      ],
      "stateMutability": "view",
      "type": "function"
    },
    {
      "inputs": [],
      "name": "transferFunds",
      "outputs": [],
      "stateMutability": "nonpayable",
      "type": "function"
    },
    {
      "inputs": [
        {
          "internalType": "address",
          "name": "newOwner",
          "type": "address"
        }
      ],
      "name": "transferOwnership",
      "outputs": [],
      "stateMutability": "nonpayable",
      "type": "function"
    }
  ],
  "bytecode": "0x6080604052600060025560006006553480156200001b57600080fd5b506200003c620000306200004260201b60201c565b6200004a60201b60201c565b6200010e565b600033905090565b60008060009054906101000a900473ffffffffffffffffffffffffffffffffffffffff169050816000806101000a81548173ffffffffffffffffffffffffffffffffffffffff021916908373ffffffffffffffffffffffffffffffffffffffff1602179055508173ffffffffffffffffffffffffffffffffffffffff168173ffffffffffffffffffffffffffffffffffffffff167f8be0079c531659141344cd1fd0a4f28419497f9722a3daafe3b4186f6b6457e060405160405180910390a35050565b613a1a806200011e6000396000f3fe608060405234801561001057600080fd5b50600436106101005760003560e01c80637acc0b2011610097578063ac0b044511610066578063ac0b04451461027e578063cb502b911461029a578063e0f6ef87146102ca578063f2fde38b146102e857610100565b80637acc0b20146101ed5780638d41b7eb146102285780638da5cb5b146102445780638e76078b1461026257610100565b80634353c0ee116100d35780634353c0ee14610165578063660eb4a314610195578063715018a6146101b35780637a653f10146101bd57610100565b80631c96fb1f1461010557806327d55495146101215780633c1b52c41461013d5780633c68eb811461015b575b600080fd5b61011f600480360381019061011a919061260c565b610304565b005b61013b6004803603810190610136919061260c565b610d0f565b005b610145610e27565b6040516101529190612648565b60405180910390f35b610163610e2d565b005b61017f600480360381019061017a91906126c1565b611108565b60405161018c9190612648565b60405180910390f35b61019d611139565b6040516101aa9190612760565b60405180910390f35b6101bb61115f565b005b6101d760048036038101906101d2919061277b565b611173565b6040516101e49190612866565b60405180910390f35b6102076004803603810190610202919061260c565b61120a565b60405161021f9c9b9a999897969594939291906129a0565b60405180910390f35b610242600480360381019061023d9190612b31565b6114e4565b005b61024c611816565b6040516102599190612c0d565b60405180910390f35b61027c60048036038101906102779190612d58565b61183f565b005b61029860048036038101906102939190612e5e565b611f58565b005b6102b460048036038101906102af91906126c1565b612013565b6040516102c19190612648565b60405180910390f35b6102d2612038565b6040516102df9190612648565b60405180910390f35b61030260048036038101906102fd919061277b565b61203e565b005b80600073ffffffffffffffffffffffffffffffffffffffff166003600083815260200190815260200160002060020160009054906101000a900473ffffffffffffffffffffffffffffffffffffffff1673ffffffffffffffffffffffffffffffffffffffff16036103aa576040517f08c379a00000000000000000000000000000000000000000000000000000000081526004016103a190612ed7565b60405180910390fd5b600073ffffffffffffffffffffffffffffffffffffffff16600160009054906101000a900473ffffffffffffffffffffffffffffffffffffffff1673ffffffffffffffffffffffffffffffffffffffff160361043b576040517f08c379a000000000000000000000000000000000000000000000000000000000815260040161043290612f43565b60405180910390fd5b600073ffffffffffffffffffffffffffffffffffffffff16600160009054906101000a900473ffffffffffffffffffffffffffffffffffffffff1673ffffffffffffffffffffffffffffffffffffffff1663b8fcf9376040518163ffffffff1660e01b8152600401602060405180830381865afa1580156104c0573d6000803e3d6000fd5b505050506040513d601f19601f820116820180604052508101906104e49190612f78565b73ffffffffffffffffffffffffffffffffffffffff160361053a576040517f08c379a000000000000000000000000000000000000000000000000000000000815260040161053190612ff1565b60405180910390fd5b600160009054906101000a900473ffffffffffffffffffffffffffffffffffffffff1673ffffffffffffffffffffffffffffffffffffffff1663ccd5fcb9336040518263ffffffff1660e01b81526004016105959190612c0d565b602060405180830381865afa1580156105b2573d6000803e3d6000fd5b505050506040513d601f19601f820116820180604052508101906105d6919061303d565b610615576040517f08c379a000000000000000000000000000000000000000000000000000000000815260040161060c906130b6565b60405180910390fd5b6000600360008481526020019081526020016000206040518061018001604052908160008201805461064690613105565b80601f016020809104026020016040519081016040528092919081815260200182805461067290613105565b80156106bf5780601f10610694576101008083540402835291602001916106bf565b820191906000526020600020905b8154815290600101906020018083116106a257829003601f168201915b50505050508152602001600182015481526020016002820160009054906101000a900473ffffffffffffffffffffffffffffffffffffffff1673ffffffffffffffffffffffffffffffffffffffff1673ffffffffffffffffffffffffffffffffffffffff1681526020016003820154815260200160048201805461074290613105565b80601f016020809104026020016040519081016040528092919081815260200182805461076e90613105565b80156107bb5780601f10610790576101008083540402835291602001916107bb565b820191906000526020600020905b81548152906001019060200180831161079e57829003601f168201915b505050505081526020016005820180546107d490613105565b80601f016020809104026020016040519081016040528092919081815260200182805461080090613105565b801561084d5780601f106108225761010080835404028352916020019161084d565b820191906000526020600020905b81548152906001019060200180831161083057829003601f168201915b505050505081526020016006820160009054906101000a900460ff161515151581526020016006820160019054906101000a900460ff1615151515815260200160078201805461089c90613105565b80601f01602080910402602001604051908101604052809291908181526020018280546108c890613105565b80156109155780601f106108ea57610100808354040283529160200191610915565b820191906000526020600020905b8154815290600101906020018083116108f857829003601f168201915b505050505081526020016008820160009054906101000a900473ffffffffffffffffffffffffffffffffffffffff1673ffffffffffffffffffffffffffffffffffffffff1673ffffffffffffffffffffffffffffffffffffffff16815260200160098201548152602001600a82015481525050905042816101600151106109d1576040517f08c379a00000000000000000000000000000000000000000000000000000000081526004016109c890613182565b60405180910390fd5b600073ffffffffffffffffffffffffffffffffffffffff1681610120015173ffffffffffffffffffffffffffffffffffffffff1603610a45576040517f08c379a0000000000000000000000000000000000000000000000000000000008152600401610a3c906131ee565b60405180910390fd5b600015158160e00151151514610a90576040517f08c379a0000000000000000000000000000000000000000000000000000000008152600401610a879061325a565b60405180910390fd5b6000606460636005600085610120015173ffffffffffffffffffffffffffffffffffffffff1673ffffffffffffffffffffffffffffffffffffffff168152602001908152602001600020600087815260200190815260200160002054610af691906132a9565b610b009190613332565b90506064826101400151610b149190613332565b60026000828254610b259190613363565b9250508190555060006005600084610120015173ffffffffffffffffffffffffffffffffffffffff1673ffffffffffffffffffffffffffffffffffffffff16815260200190815260200160002060008681526020019081526020016000208190555060016003600086815260200190815260200160002060060160016101000a81548160ff021916908315150217905550600160009054906101000a900473ffffffffffffffffffffffffffffffffffffffff1673ffffffffffffffffffffffffffffffffffffffff1663b8fcf9376040518163ffffffff1660e01b8152600401602060405180830381865afa158015610c23573d6000803e3d6000fd5b505050506040513d601f19601f82011682018060405250810190610c479190612f78565b73ffffffffffffffffffffffffffffffffffffffff1663a9059cbb8360400151836040518363ffffffff1660e01b8152600401610c859291906133b9565b6020604051808303816000875af1158015610ca4573d6000803e3d6000fd5b505050506040513d601f19601f82011682018060405250810190610cc8919061303d565b507f9d95947801b2af7d1ed03cfed8027ebe75cd4a16100de3a0ffdb30f58c6a01928483610120015133604051610d01939291906133e2565b60405180910390a150505050565b610d176120c1565b80600073ffffffffffffffffffffffffffffffffffffffff166003600083815260200190815260200160002060020160009054906101000a900473ffffffffffffffffffffffffffffffffffffffff1673ffffffffffffffffffffffffffffffffffffffff1603610dbd576040517f08c379a0000000000000000000000000000000000000000000000000000000008152600401610db490612ed7565b60405180910390fd5b60016003600084815260200190815260200160002060060160006101000a81548160ff0219169083151502179055507f42e5b69124a3e898304a770197bf85339956a61b1811b58ca78f4efe565c909582604051610e1b9190612648565b60405180910390a15050565b60025481565b610e356120c1565b600073ffffffffffffffffffffffffffffffffffffffff16600160009054906101000a900473ffffffffffffffffffffffffffffffffffffffff1673ffffffffffffffffffffffffffffffffffffffff1603610ec6576040517f08c379a0000000000000000000000000000000000000000000000000000000008152600401610ebd90612f43565b60405180910390fd5b600073ffffffffffffffffffffffffffffffffffffffff16600160009054906101000a900473ffffffffffffffffffffffffffffffffffffffff1673ffffffffffffffffffffffffffffffffffffffff1663b8fcf9376040518163ffffffff1660e01b8152600401602060405180830381865afa158015610f4b573d6000803e3d6000fd5b505050506040513d601f19601f82011682018060405250810190610f6f9190612f78565b73ffffffffffffffffffffffffffffffffffffffff1603610fc5576040517f08c379a0000000000000000000000000000000000000000000000000000000008152600401610fbc90612ff1565b60405180910390fd5b6000600160009054906101000a900473ffffffffffffffffffffffffffffffffffffffff1673ffffffffffffffffffffffffffffffffffffffff1663b8fcf9376040518163ffffffff1660e01b8152600401602060405180830381865afa158015611034573d6000803e3d6000fd5b505050506040513d601f19601f820116820180604052508101906110589190612f78565b90508073ffffffffffffffffffffffffffffffffffffffff1663a9059cbb600160009054906101000a900473ffffffffffffffffffffffffffffffffffffffff166002546040518363ffffffff1660e01b81526004016110b99291906133b9565b6020604051808303816000875af11580156110d8573d6000803e3d6000fd5b505050506040513d601f19601f820116820180604052508101906110fc919061303d565b50600060028190555050565b6004602052816000526040600020818154811061112457600080fd5b90600052602060002001600091509150505481565b600160009054906101000a900473ffffffffffffffffffffffffffffffffffffffff1681565b6111676120c1565b611171600061213f565b565b6060600460008373ffffffffffffffffffffffffffffffffffffffff1673ffffffffffffffffffffffffffffffffffffffff1681526020019081526020016000208054806020026020016040519081016040528092919081815260200182805480156111fe57602002820191906000526020600020905b8154815260200190600101908083116111ea575b50505050509050919050565b600360205280600052604060002060009150905080600001805461122d90613105565b80601f016020809104026020016040519081016040528092919081815260200182805461125990613105565b80156112a65780601f1061127b576101008083540402835291602001916112a6565b820191906000526020600020905b81548152906001019060200180831161128957829003601f168201915b5050505050908060010154908060020160009054906101000a900473ffffffffffffffffffffffffffffffffffffffff16908060030154908060040180546112ed90613105565b80601f016020809104026020016040519081016040528092919081815260200182805461131990613105565b80156113665780601f1061133b57610100808354040283529160200191611366565b820191906000526020600020905b81548152906001019060200180831161134957829003601f168201915b50505050509080600501805461137b90613105565b80601f01602080910402602001604051908101604052809291908181526020018280546113a790613105565b80156113f45780601f106113c9576101008083540402835291602001916113f4565b820191906000526020600020905b8154815290600101906020018083116113d757829003601f168201915b5050505050908060060160009054906101000a900460ff16908060060160019054906101000a900460ff169080600701805461142f90613105565b80601f016020809104026020016040519081016040528092919081815260200182805461145b90613105565b80156114a85780601f1061147d576101008083540402835291602001916114a8565b820191906000526020600020905b81548152906001019060200180831161148b57829003601f168201915b5050505050908060080160009054906101000a900473ffffffffffffffffffffffffffffffffffffffff169080600901549080600a015490508c565b6000888890500361152a576040517f08c379a000000000000000000000000000000000000000000000000000000000815260040161152190613465565b60405180910390fd5b621e8480861015611570576040517f08c379a0000000000000000000000000000000000000000000000000000000008152600401611567906134d1565b60405180910390fd5b428110156115b3576040517f08c379a00000000000000000000000000000000000000000000000000000000081526004016115aa9061353d565b60405180910390fd5b6115c38888888888888888612203565b60036000600654815260200190815260200160002060008201518160000190805190602001906115f4929190612382565b506020820151816001015560408201518160020160006101000a81548173ffffffffffffffffffffffffffffffffffffffff021916908373ffffffffffffffffffffffffffffffffffffffff16021790555060608201518160030155608082015181600401908051906020019061166c929190612382565b5060a0820151816005019080519060200190611689929190612408565b5060c08201518160060160006101000a81548160ff02191690831515021790555060e08201518160060160016101000a81548160ff0219169083151502179055506101008201518160070190805190602001906116e7929190612408565b506101208201518160080160006101000a81548173ffffffffffffffffffffffffffffffffffffffff021916908373ffffffffffffffffffffffffffffffffffffffff160217905550610140820151816009015561016082015181600a0155905050600460003373ffffffffffffffffffffffffffffffffffffffff1673ffffffffffffffffffffffffffffffffffffffff16815260200190815260200160002060065490806001815401808255809150506001900390600052602060002001600090919091909150557f0bdd03d34418de4e37692923185ccdd7efa31d93f02a21636cfaf39cd2ee2041888888336006546040516117ea95949392919061358a565b60405180910390a16001600660008282546118059190613363565b925050819055505050505050505050565b60008060009054906101000a900473ffffffffffffffffffffffffffffffffffffffff16905090565b85600073ffffffffffffffffffffffffffffffffffffffff166003600083815260200190815260200160002060020160009054906101000a900473ffffffffffffffffffffffffffffffffffffffff1673ffffffffffffffffffffffffffffffffffffffff16036118e5576040517f08c379a00000000000000000000000000000000000000000000000000000000081526004016118dc90612ed7565b60405180910390fd5b600073ffffffffffffffffffffffffffffffffffffffff16600160009054906101000a900473ffffffffffffffffffffffffffffffffffffffff1673ffffffffffffffffffffffffffffffffffffffff1603611976576040517f08c379a000000000000000000000000000000000000000000000000000000000815260040161196d90612f43565b60405180910390fd5b600073ffffffffffffffffffffffffffffffffffffffff16600160009054906101000a900473ffffffffffffffffffffffffffffffffffffffff1673ffffffffffffffffffffffffffffffffffffffff1663b8fcf9376040518163ffffffff1660e01b8152600401602060405180830381865afa1580156119fb573d6000803e3d6000fd5b505050506040513d601f19601f82011682018060405250810190611a1f9190612f78565b73ffffffffffffffffffffffffffffffffffffffff1603611a75576040517f08c379a0000000000000000000000000000000000000000000000000000000008152600401611a6c90612ff1565b60405180910390fd5b60006003600089815260200190815260200160002090504281600a015411611ad2576040517f08c379a0000000000000000000000000000000000000000000000000000000008152600401611ac990613624565b60405180910390fd5b8060010154851015611b19576040517f08c379a0000000000000000000000000000000000000000000000000000000008152600401611b1090613690565b60405180910390fd5b80600901548511611b5f576040517f08c379a0000000000000000000000000000000000000000000000000000000008152600401611b5690613690565b60405180910390fd5b60008787905003611ba5576040517f08c379a0000000000000000000000000000000000000000000000000000000008152600401611b9c906136fc565b60405180910390fd5b6000308987604051602001611bbc93929190613785565b6040516020818303038152906040528051906020012090508787836007019190611be792919061248e565b506000600160009054906101000a900473ffffffffffffffffffffffffffffffffffffffff1673ffffffffffffffffffffffffffffffffffffffff1663b8fcf9376040518163ffffffff1660e01b8152600401602060405180830381865afa158015611c57573d6000803e3d6000fd5b505050506040513d601f19601f82011682018060405250810190611c7b9190612f78565b90508073ffffffffffffffffffffffffffffffffffffffff16639f4fae1284600a0154848a8a308b6040518763ffffffff1660e01b8152600401611cc4969594939291906137db565b600060405180830381600087803b158015611cde57600080fd5b505af1158015611cf2573d6000803e3d6000fd5b50505050600073ffffffffffffffffffffffffffffffffffffffff168360080160009054906101000a900473ffffffffffffffffffffffffffffffffffffffff1673ffffffffffffffffffffffffffffffffffffffff1614611e70576000600560008560080160009054906101000a900473ffffffffffffffffffffffffffffffffffffffff1673ffffffffffffffffffffffffffffffffffffffff1673ffffffffffffffffffffffffffffffffffffffff16815260200190815260200160002060008c8152602001908152602001600020819055508073ffffffffffffffffffffffffffffffffffffffff1663a9059cbb8460080160009054906101000a900473ffffffffffffffffffffffffffffffffffffffff1685600901546040518363ffffffff1660e01b8152600401611e2b9291906133b9565b6020604051808303816000875af1158015611e4a573d6000803e3d6000fd5b505050506040513d601f19601f82011682018060405250810190611e6e919061303d565b505b86600560008873ffffffffffffffffffffffffffffffffffffffff1673ffffffffffffffffffffffffffffffffffffffff16815260200190815260200160002060008c815260200190815260200160002081905550868360090181905550858360080160006101000a81548173ffffffffffffffffffffffffffffffffffffffff021916908373ffffffffffffffffffffffffffffffffffffffff1602179055507f6e92a982037abe8146d71f1d6163b2760c6fb6b79d71a369fe6f0b79a545b79a8a8789604051611f4493929190613843565b60405180910390a150505050505050505050565b611f606120c1565b600073ffffffffffffffffffffffffffffffffffffffff168173ffffffffffffffffffffffffffffffffffffffff1603611fcf576040517f08c379a0000000000000000000000000000000000000000000000000000000008152600401611fc6906138c6565b60405180910390fd5b80600160006101000a81548173ffffffffffffffffffffffffffffffffffffffff021916908373ffffffffffffffffffffffffffffffffffffffff16021790555050565b6005602052816000526040600020602052806000526040600020600091509150505481565b60065481565b6120466120c1565b600073ffffffffffffffffffffffffffffffffffffffff168173ffffffffffffffffffffffffffffffffffffffff16036120b5576040517f08c379a00000000000000000000000000000000000000000000000000000000081526004016120ac90613958565b60405180910390fd5b6120be8161213f565b50565b6120c961237a565b73ffffffffffffffffffffffffffffffffffffffff166120e7611816565b73ffffffffffffffffffffffffffffffffffffffff161461213d576040517f08c379a0000000000000000000000000000000000000000000000000000000008152600401612134906139c4565b60405180910390fd5b565b60008060009054906101000a900473ffffffffffffffffffffffffffffffffffffffff169050816000806101000a81548173ffffffffffffffffffffffffffffffffffffffff021916908373ffffffffffffffffffffffffffffffffffffffff1602179055508173ffffffffffffffffffffffffffffffffffffffff168173ffffffffffffffffffffffffffffffffffffffff167f8be0079c531659141344cd1fd0a4f28419497f9722a3daafe3b4186f6b6457e060405160405180910390a35050565b61220b612514565b6040518061018001604052808a8a8080601f016020809104026020016040519081016040528093929190818152602001838380828437600081840152601f19601f8201169050808301925050505050505081526020018881526020013373ffffffffffffffffffffffffffffffffffffffff16815260200142815260200187878080601f016020809104026020016040519081016040528093929190818152602001838380828437600081840152601f19601f82011690508083019250505050505050815260200185858080601f016020809104026020016040519081016040528093929190818152602001838380828437600081840152601f19601f820116905080830192505050505050508152602001600015158152602001600015158152602001604051806020016040528060008152508152602001600073ffffffffffffffffffffffffffffffffffffffff1681526020016000815260200183815250905098975050505050505050565b600033905090565b82805461238e90613105565b90600052602060002090601f0160209004810192826123b057600085556123f7565b82601f106123c957805160ff19168380011785556123f7565b828001600101855582156123f7579182015b828111156123f65782518255916020019190600101906123db565b5b50905061240491906125a5565b5090565b82805461241490613105565b90600052602060002090601f016020900481019282612436576000855561247d565b82601f1061244f57805160ff191683800117855561247d565b8280016001018555821561247d579182015b8281111561247c578251825591602001919060010190612461565b5b50905061248a91906125a5565b5090565b82805461249a90613105565b90600052602060002090601f0160209004810192826124bc5760008555612503565b82601f106124d557803560ff1916838001178555612503565b82800160010185558215612503579182015b828111156125025782358255916020019190600101906124e7565b5b50905061251091906125a5565b5090565b6040518061018001604052806060815260200160008152602001600073ffffffffffffffffffffffffffffffffffffffff16815260200160008152602001606081526020016060815260200160001515815260200160001515815260200160608152602001600073ffffffffffffffffffffffffffffffffffffffff16815260200160008152602001600081525090565b5b808211156125be5760008160009055506001016125a6565b5090565b6000604051905090565b600080fd5b600080fd5b6000819050919050565b6125e9816125d6565b81146125f457600080fd5b50565b600081359050612606816125e0565b92915050565b600060208284031215612622576126216125cc565b5b6000612630848285016125f7565b91505092915050565b612642816125d6565b82525050565b600060208201905061265d6000830184612639565b92915050565b600073ffffffffffffffffffffffffffffffffffffffff82169050919050565b600061268e82612663565b9050919050565b61269e81612683565b81146126a957600080fd5b50565b6000813590506126bb81612695565b92915050565b600080604083850312156126d8576126d76125cc565b5b60006126e6858286016126ac565b92505060206126f7858286016125f7565b9150509250929050565b6000819050919050565b600061272661272161271c84612663565b612701565b612663565b9050919050565b60006127388261270b565b9050919050565b600061274a8261272d565b9050919050565b61275a8161273f565b82525050565b60006020820190506127756000830184612751565b92915050565b600060208284031215612791576127906125cc565b5b600061279f848285016126ac565b91505092915050565b600081519050919050565b600082825260208201905092915050565b6000819050602082019050919050565b6127dd816125d6565b82525050565b60006127ef83836127d4565b60208301905092915050565b6000602082019050919050565b6000612813826127a8565b61281d81856127b3565b9350612828836127c4565b8060005b8381101561285957815161284088826127e3565b975061284b836127fb565b92505060018101905061282c565b5085935050505092915050565b600060208201905081810360008301526128808184612808565b905092915050565b600081519050919050565b600082825260208201905092915050565b60005b838110156128c25780820151818401526020810190506128a7565b838111156128d1576000848401525b50505050565b6000601f19601f8301169050919050565b60006128f382612888565b6128fd8185612893565b935061290d8185602086016128a4565b612916816128d7565b840191505092915050565b61292a81612683565b82525050565b600081519050919050565b600082825260208201905092915050565b600061295782612930565b612961818561293b565b93506129718185602086016128a4565b61297a816128d7565b840191505092915050565b60008115159050919050565b61299a81612985565b82525050565b60006101808201905081810360008301526129bb818f6128e8565b90506129ca602083018e612639565b6129d7604083018d612921565b6129e4606083018c612639565b81810360808301526129f6818b6128e8565b905081810360a0830152612a0a818a61294c565b9050612a1960c0830189612991565b612a2660e0830188612991565b818103610100830152612a39818761294c565b9050612a49610120830186612921565b612a57610140830185612639565b612a65610160830184612639565b9d9c50505050505050505050505050565b600080fd5b600080fd5b600080fd5b60008083601f840112612a9b57612a9a612a76565b5b8235905067ffffffffffffffff811115612ab857612ab7612a7b565b5b602083019150836001820283011115612ad457612ad3612a80565b5b9250929050565b60008083601f840112612af157612af0612a76565b5b8235905067ffffffffffffffff811115612b0e57612b0d612a7b565b5b602083019150836001820283011115612b2a57612b29612a80565b5b9250929050565b60008060008060008060008060a0898b031215612b5157612b506125cc565b5b600089013567ffffffffffffffff811115612b6f57612b6e6125d1565b5b612b7b8b828c01612a85565b98509850506020612b8e8b828c016125f7565b965050604089013567ffffffffffffffff811115612baf57612bae6125d1565b5b612bbb8b828c01612a85565b9550955050606089013567ffffffffffffffff811115612bde57612bdd6125d1565b5b612bea8b828c01612adb565b93509350506080612bfd8b828c016125f7565b9150509295985092959890939650565b6000602082019050612c226000830184612921565b92915050565b600080fd5b7f4e487b7100000000000000000000000000000000000000000000000000000000600052604160045260246000fd5b612c65826128d7565b810181811067ffffffffffffffff82111715612c8457612c83612c2d565b5b80604052505050565b6000612c976125c2565b9050612ca38282612c5c565b919050565b600067ffffffffffffffff821115612cc357612cc2612c2d565b5b612ccc826128d7565b9050602081019050919050565b82818337600083830152505050565b6000612cfb612cf684612ca8565b612c8d565b905082815260208101848484011115612d1757612d16612c28565b5b612d22848285612cd9565b509392505050565b600082601f830112612d3f57612d3e612a76565b5b8135612d4f848260208601612ce8565b91505092915050565b60008060008060008060a08789031215612d7557612d746125cc565b5b6000612d8389828a016125f7565b965050602087013567ffffffffffffffff811115612da457612da36125d1565b5b612db089828a01612adb565b95509550506040612dc389828a016125f7565b9350506060612dd489828a016126ac565b925050608087013567ffffffffffffffff811115612df557612df46125d1565b5b612e0189828a01612d2a565b9150509295509295509295565b6000612e1982612663565b9050919050565b6000612e2b82612e0e565b9050919050565b612e3b81612e20565b8114612e4657600080fd5b50565b600081359050612e5881612e32565b92915050565b600060208284031215612e7457612e736125cc565b5b6000612e8284828501612e49565b91505092915050565b7f4e6f20737563682070726f647563740000000000000000000000000000000000600082015250565b6000612ec1600f83612893565b9150612ecc82612e8b565b602082019050919050565b60006020820190508181036000830152612ef081612eb4565b9050919050565b7f446f65736e27742068617665206f776e6572206d61726b6574706c6163650000600082015250565b6000612f2d601e83612893565b9150612f3882612ef7565b602082019050919050565b60006020820190508181036000830152612f5c81612f20565b9050919050565b600081519050612f7281612695565b92915050565b600060208284031215612f8e57612f8d6125cc565b5b6000612f9c84828501612f63565b91505092915050565b7f4e6f20746f6b656e207370656369666965640000000000000000000000000000600082015250565b6000612fdb601283612893565b9150612fe682612fa5565b602082019050919050565b6000602082019050818103600083015261300a81612fce565b9050919050565b61301a81612985565b811461302557600080fd5b50565b60008151905061303781613011565b92915050565b600060208284031215613053576130526125cc565b5b600061306184828501613028565b91505092915050565b7f4e6f7420616e20617574686f72697a656420636f757269657200000000000000600082015250565b60006130a0601983612893565b91506130ab8261306a565b602082019050919050565b600060208201905081810360008301526130cf81613093565b9050919050565b7f4e487b7100000000000000000000000000000000000000000000000000000000600052602260045260246000fd5b6000600282049050600182168061311d57607f821691505b6020821081036131305761312f6130d6565b5b50919050565b7f41756374696f6e206e6f742066696e6973686564000000000000000000000000600082015250565b600061316c601483612893565b915061317782613136565b602082019050919050565b6000602082019050818103600083015261319b8161315f565b9050919050565b7f4e6f20626964732c207468657265666f72652063616e27742064656c69766572600082015250565b60006131d8602083612893565b91506131e3826131a2565b602082019050919050565b60006020820190508181036000830152613207816131cb565b9050919050565b7f50726f6475637420616c72656164792064656c69766572656400000000000000600082015250565b6000613244601983612893565b915061324f8261320e565b602082019050919050565b6000602082019050818103600083015261327381613237565b9050919050565b7f4e487b7100000000000000000000000000000000000000000000000000000000600052601160045260246000fd5b60006132b4826125d6565b91506132bf836125d6565b9250817fffffffffffffffffffffffffffffffffffffffffffffffffffffffffffffffff04831182151516156132f8576132f761327a565b5b828202905092915050565b7f4e487b7100000000000000000000000000000000000000000000000000000000600052601260045260246000fd5b600061333d826125d6565b9150613348836125d6565b92508261335857613357613303565b5b828204905092915050565b600061336e826125d6565b9150613379836125d6565b9250827fffffffffffffffffffffffffffffffffffffffffffffffffffffffffffffffff038211156133ae576133ad61327a565b5b828201905092915050565b60006040820190506133ce6000830185612921565b6133db6020830184612639565b9392505050565b60006060820190506133f76000830186612639565b6134046020830185612921565b6134116040830184612921565b949350505050565b7f4e616d652073686f756c646e277420626520656d707479000000000000000000600082015250565b600061344f601783612893565b915061345a82613419565b602082019050919050565b6000602082019050818103600083015261347e81613442565b9050919050565b7f50726963652073686f756c64206265203e3d3230303030303000000000000000600082015250565b60006134bb601983612893565b91506134c682613485565b602082019050919050565b600060208201905081810360008301526134ea816134ae565b9050919050565b7f456e642073686f756c6420626520696e20746865206675747572650000000000600082015250565b6000613527601b83612893565b9150613532826134f1565b602082019050919050565b600060208201905081810360008301526135568161351a565b9050919050565b60006135698385612893565b9350613576838584612cd9565b61357f836128d7565b840190509392505050565b600060808201905081810360008301526135a581878961355d565b90506135b46020830186612639565b6135c16040830185612921565b6135ce6060830184612639565b9695505050505050565b7f41756374696f6e20616c72656164792066696e69736865640000000000000000600082015250565b600061360e601883612893565b9150613619826135d8565b602082019050919050565b6000602082019050818103600083015261363d81613601565b9050919050565b7f426964206d757374206265206c61726765720000000000000000000000000000600082015250565b600061367a601283612893565b915061368582613644565b602082019050919050565b600060208201905081810360008301526136a98161366d565b9050919050565b7f4e6f2064656c697665727920696e737472756374696f6e730000000000000000600082015250565b60006136e6601883612893565b91506136f1826136b0565b602082019050919050565b60006020820190508181036000830152613715816136d9565b9050919050565b60008160601b9050919050565b60006137348261371c565b9050919050565b600061374682613729565b9050919050565b61375e61375982612683565b61373b565b82525050565b6000819050919050565b61377f61377a826125d6565b613764565b82525050565b6000613791828661374d565b6014820191506137a1828561376e565b6020820191506137b1828461376e565b602082019150819050949350505050565b6000819050919050565b6137d5816137c2565b82525050565b600060c0820190506137f06000830189612639565b6137fd60208301886137cc565b61380a6040830187612639565b6138176060830186612921565b6138246080830185612921565b81810360a0830152613836818461294c565b9050979650505050505050565b60006060820190506138586000830186612639565b6138656020830185612921565b6138726040830184612639565b949350505050565b7f416464726573732073686f756c646e2774206265203000000000000000000000600082015250565b60006138b0601683612893565b91506138bb8261387a565b602082019050919050565b600060208201905081810360008301526138df816138a3565b9050919050565b7f4f776e61626c653a206e6577206f776e657220697320746865207a65726f206160008201527f6464726573730000000000000000000000000000000000000000000000000000602082015250565b6000613942602683612893565b915061394d826138e6565b604082019050919050565b6000602082019050818103600083015261397181613935565b9050919050565b7f4f776e61626c653a2063616c6c6572206973206e6f7420746865206f776e6572600082015250565b60006139ae602083612893565b91506139b982613978565b602082019050919050565b600060208201905081810360008301526139dd816139a1565b905091905056fea264697066735822122093d6284e8172424c73328ad996117fb7ef83828544d20c8cb170aefc829606c864736f6c634300080d0033",
  "linkReferences": {},
  "deployedLinkReferences": {}
}