{
  "_format": "hh-sol-artifact-1",
  "contractName": "SimpleAuction",
  "sourceName": "contracts/SimpleAuction.sol",
  "abi": [
    {
      "anonymous": false,
      "inputs": [
        {
          "indexed": true,
          "internalType": "address",
          "name": "previousOwner",
          "type": "address"
        },
        {
          "indexed": true,
          "internalType": "address",
          "name": "newOwner",
          "type": "address"
        }
      ],
      "name": "OwnershipTransferred",
      "type": "event"
    },
    {
      "anonymous": false,
      "inputs": [
        {
          "indexed": false,
          "internalType": "string",
          "name": "name",
          "type": "string"
        },
        {
          "indexed": false,
          "internalType": "uint256",
          "name": "minimalPrice",
          "type": "uint256"
        },
        {
          "indexed": false,
          "internalType": "address",
          "name": "seller",
          "type": "address"
        },
        {
          "indexed": false,
          "internalType": "uint256",
          "name": "index",
          "type": "uint256"
        }
      ],
      "name": "auctionProductAdded",
      "type": "event"
    },
    {
      "anonymous": false,
      "inputs": [
        {
          "indexed": false,
          "internalType": "uint256",
          "name": "index",
          "type": "uint256"
        },
        {
          "indexed": false,
          "internalType": "address",
          "name": "bidder",
          "type": "address"
        },
        {
          "indexed": false,
          "internalType": "uint256",
          "name": "amount",
          "type": "uint256"
        }
      ],
      "name": "auctionProductBid",
      "type": "event"
    },
    {
      "anonymous": false,
      "inputs": [
        {
          "indexed": false,
          "internalType": "uint256",
          "name": "index",
          "type": "uint256"
        },
        {
          "indexed": false,
          "internalType": "address",
          "name": "buyer",
          "type": "address"
        },
        {
          "indexed": false,
          "internalType": "address",
          "name": "courier",
          "type": "address"
        }
      ],
      "name": "auctionProductDelivered",
      "type": "event"
    },
    {
      "inputs": [
        {
          "internalType": "string",
          "name": "name",
          "type": "string"
        },
        {
          "internalType": "uint256",
          "name": "minimalPrice",
          "type": "uint256"
        },
        {
          "internalType": "string",
          "name": "link",
          "type": "string"
        },
        {
          "internalType": "bytes",
          "name": "marketHashOfData",
          "type": "bytes"
        },
        {
          "internalType": "uint256",
          "name": "finishDate",
          "type": "uint256"
        }
      ],
      "name": "addProduct",
      "outputs": [],
      "stateMutability": "nonpayable",
      "type": "function"
    },
    {
      "inputs": [
        {
          "internalType": "uint256",
          "name": "index",
          "type": "uint256"
        }
      ],
      "name": "approveProduct",
      "outputs": [],
      "stateMutability": "nonpayable",
      "type": "function"
    },
    {
      "inputs": [],
      "name": "belongsToContract",
      "outputs": [
        {
          "internalType": "uint256",
          "name": "",
          "type": "uint256"
        }
      ],
      "stateMutability": "view",
      "type": "function"
    },
    {
      "inputs": [
        {
          "internalType": "uint256",
          "name": "index",
          "type": "uint256"
        },
        {
          "internalType": "bytes",
          "name": "deliveryInstructions",
          "type": "bytes"
        },
        {
          "internalType": "uint256",
          "name": "amount",
          "type": "uint256"
        },
        {
          "internalType": "address",
          "name": "from",
          "type": "address"
        },
        {
          "internalType": "bytes",
          "name": "sig",
          "type": "bytes"
        }
      ],
      "name": "bidForProduct",
      "outputs": [],
      "stateMutability": "nonpayable",
      "type": "function"
    },
    {
      "inputs": [
        {
          "internalType": "uint256",
          "name": "index",
          "type": "uint256"
        }
      ],
      "name": "deliverProduct",
      "outputs": [],
      "stateMutability": "nonpayable",
      "type": "function"
    },
    {
      "inputs": [
        {
          "internalType": "address",
          "name": "seller",
          "type": "address"
        }
      ],
      "name": "getIndexesFromSellerAddress",
      "outputs": [
        {
          "internalType": "uint256[]",
          "name": "indexes",
          "type": "uint256[]"
        }
      ],
      "stateMutability": "view",
      "type": "function"
    },
    {
      "inputs": [
        {
          "internalType": "contract Marketplace",
          "name": "marketplace",
          "type": "address"
        }
      ],
      "name": "joinMarketplace",
      "outputs": [],
      "stateMutability": "nonpayable",
      "type": "function"
    },
    {
      "inputs": [
        {
          "internalType": "address",
          "name": "",
          "type": "address"
        },
        {
          "internalType": "uint256",
          "name": "",
          "type": "uint256"
        }
      ],
      "name": "owedMoneyToBidders",
      "outputs": [
        {
          "internalType": "uint256",
          "name": "",
          "type": "uint256"
        }
      ],
      "stateMutability": "view",
      "type": "function"
    },
    {
      "inputs": [],
      "name": "owner",
      "outputs": [
        {
          "internalType": "address",
          "name": "",
          "type": "address"
        }
      ],
      "stateMutability": "view",
      "type": "function"
    },
    {
      "inputs": [],
      "name": "ownerMarketplace",
      "outputs": [
        {
          "internalType": "contract Marketplace",
          "name": "",
          "type": "address"
        }
      ],
      "stateMutability": "view",
      "type": "function"
    },
    {
      "inputs": [],
      "name": "productCount",
      "outputs": [
        {
          "internalType": "uint256",
          "name": "",
          "type": "uint256"
        }
      ],
      "stateMutability": "view",
      "type": "function"
    },
    {
      "inputs": [
        {
          "internalType": "uint256",
          "name": "",
          "type": "uint256"
        }
      ],
      "name": "products",
      "outputs": [
        {
          "internalType": "string",
          "name": "name",
          "type": "string"
        },
        {
          "internalType": "uint256",
          "name": "minimalPrice",
          "type": "uint256"
        },
        {
          "internalType": "address",
          "name": "seller",
          "type": "address"
        },
        {
          "internalType": "uint256",
          "name": "addDate",
          "type": "uint256"
        },
        {
          "internalType": "string",
          "name": "linkForMedia",
          "type": "string"
        },
        {
          "internalType": "bytes",
          "name": "marketHashOfData",
          "type": "bytes"
        },
        {
          "internalType": "bool",
          "name": "approved",
          "type": "bool"
        },
        {
          "internalType": "bool",
          "name": "delivered",
          "type": "bool"
        },
        {
          "internalType": "bytes",
          "name": "deliveryInstructions",
          "type": "bytes"
        },
        {
          "internalType": "address",
          "name": "currentBidder",
          "type": "address"
        },
        {
          "internalType": "uint256",
          "name": "bidAmount",
          "type": "uint256"
        },
        {
          "internalType": "uint256",
          "name": "finishDate",
          "type": "uint256"
        }
      ],
      "stateMutability": "view",
      "type": "function"
    },
    {
      "inputs": [],
      "name": "renounceOwnership",
      "outputs": [],
      "stateMutability": "nonpayable",
      "type": "function"
    },
    {
      "inputs": [
        {
          "internalType": "address",
          "name": "",
          "type": "address"
        },
        {
          "internalType": "uint256",
          "name": "",
          "type": "uint256"
        }
      ],
      "name": "sellerToProductIndexes",
      "outputs": [
        {
          "internalType": "uint256",
          "name": "",
          "type": "uint256"
        }
      ],
      "stateMutability": "view",
      "type": "function"
    },
    {
      "inputs": [],
      "name": "transferFunds",
      "outputs": [],
      "stateMutability": "nonpayable",
      "type": "function"
    },
    {
      "inputs": [
        {
          "internalType": "address",
          "name": "newOwner",
          "type": "address"
        }
      ],
      "name": "transferOwnership",
      "outputs": [],
      "stateMutability": "nonpayable",
      "type": "function"
    }
  ],
  "bytecode": "0x6080604052600060025560006006553480156200001b57600080fd5b506200003c620000306200004260201b60201c565b6200004a60201b60201c565b6200010e565b600033905090565b60008060009054906101000a900473ffffffffffffffffffffffffffffffffffffffff169050816000806101000a81548173ffffffffffffffffffffffffffffffffffffffff021916908373ffffffffffffffffffffffffffffffffffffffff1602179055508173ffffffffffffffffffffffffffffffffffffffff168173ffffffffffffffffffffffffffffffffffffffff167f8be0079c531659141344cd1fd0a4f28419497f9722a3daafe3b4186f6b6457e060405160405180910390a35050565b6139e3806200011e6000396000f3fe608060405234801561001057600080fd5b50600436106101005760003560e01c80637acc0b2011610097578063ac0b044511610066578063ac0b04451461027e578063cb502b911461029a578063e0f6ef87146102ca578063f2fde38b146102e857610100565b80637acc0b20146101ed5780638d41b7eb146102285780638da5cb5b146102445780638e76078b1461026257610100565b80634353c0ee116100d35780634353c0ee14610165578063660eb4a314610195578063715018a6146101b35780637a653f10146101bd57610100565b80631c96fb1f1461010557806327d55495146101215780633c1b52c41461013d5780633c68eb811461015b575b600080fd5b61011f600480360381019061011a91906125d5565b610304565b005b61013b600480360381019061013691906125d5565b610d0f565b005b610145610df0565b6040516101529190612611565b60405180910390f35b610163610df6565b005b61017f600480360381019061017a919061268a565b6110d1565b60405161018c9190612611565b60405180910390f35b61019d611102565b6040516101aa9190612729565b60405180910390f35b6101bb611128565b005b6101d760048036038101906101d29190612744565b61113c565b6040516101e4919061282f565b60405180910390f35b610207600480360381019061020291906125d5565b6111d3565b60405161021f9c9b9a99989796959493929190612969565b60405180910390f35b610242600480360381019061023d9190612afa565b6114ad565b005b61024c6117df565b6040516102599190612bd6565b60405180910390f35b61027c60048036038101906102779190612d21565b611808565b005b61029860048036038101906102939190612e27565b611f21565b005b6102b460048036038101906102af919061268a565b611fdc565b6040516102c19190612611565b60405180910390f35b6102d2612001565b6040516102df9190612611565b60405180910390f35b61030260048036038101906102fd9190612744565b612007565b005b80600073ffffffffffffffffffffffffffffffffffffffff166003600083815260200190815260200160002060020160009054906101000a900473ffffffffffffffffffffffffffffffffffffffff1673ffffffffffffffffffffffffffffffffffffffff16036103aa576040517f08c379a00000000000000000000000000000000000000000000000000000000081526004016103a190612ea0565b60405180910390fd5b600073ffffffffffffffffffffffffffffffffffffffff16600160009054906101000a900473ffffffffffffffffffffffffffffffffffffffff1673ffffffffffffffffffffffffffffffffffffffff160361043b576040517f08c379a000000000000000000000000000000000000000000000000000000000815260040161043290612f0c565b60405180910390fd5b600073ffffffffffffffffffffffffffffffffffffffff16600160009054906101000a900473ffffffffffffffffffffffffffffffffffffffff1673ffffffffffffffffffffffffffffffffffffffff1663b8fcf9376040518163ffffffff1660e01b8152600401602060405180830381865afa1580156104c0573d6000803e3d6000fd5b505050506040513d601f19601f820116820180604052508101906104e49190612f41565b73ffffffffffffffffffffffffffffffffffffffff160361053a576040517f08c379a000000000000000000000000000000000000000000000000000000000815260040161053190612fba565b60405180910390fd5b600160009054906101000a900473ffffffffffffffffffffffffffffffffffffffff1673ffffffffffffffffffffffffffffffffffffffff1663ccd5fcb9336040518263ffffffff1660e01b81526004016105959190612bd6565b602060405180830381865afa1580156105b2573d6000803e3d6000fd5b505050506040513d601f19601f820116820180604052508101906105d69190613006565b610615576040517f08c379a000000000000000000000000000000000000000000000000000000000815260040161060c9061307f565b60405180910390fd5b60006003600084815260200190815260200160002060405180610180016040529081600082018054610646906130ce565b80601f0160208091040260200160405190810160405280929190818152602001828054610672906130ce565b80156106bf5780601f10610694576101008083540402835291602001916106bf565b820191906000526020600020905b8154815290600101906020018083116106a257829003601f168201915b50505050508152602001600182015481526020016002820160009054906101000a900473ffffffffffffffffffffffffffffffffffffffff1673ffffffffffffffffffffffffffffffffffffffff1673ffffffffffffffffffffffffffffffffffffffff16815260200160038201548152602001600482018054610742906130ce565b80601f016020809104026020016040519081016040528092919081815260200182805461076e906130ce565b80156107bb5780601f10610790576101008083540402835291602001916107bb565b820191906000526020600020905b81548152906001019060200180831161079e57829003601f168201915b505050505081526020016005820180546107d4906130ce565b80601f0160208091040260200160405190810160405280929190818152602001828054610800906130ce565b801561084d5780601f106108225761010080835404028352916020019161084d565b820191906000526020600020905b81548152906001019060200180831161083057829003601f168201915b505050505081526020016006820160009054906101000a900460ff161515151581526020016006820160019054906101000a900460ff1615151515815260200160078201805461089c906130ce565b80601f01602080910402602001604051908101604052809291908181526020018280546108c8906130ce565b80156109155780601f106108ea57610100808354040283529160200191610915565b820191906000526020600020905b8154815290600101906020018083116108f857829003601f168201915b505050505081526020016008820160009054906101000a900473ffffffffffffffffffffffffffffffffffffffff1673ffffffffffffffffffffffffffffffffffffffff1673ffffffffffffffffffffffffffffffffffffffff16815260200160098201548152602001600a82015481525050905042816101600151106109d1576040517f08c379a00000000000000000000000000000000000000000000000000000000081526004016109c89061314b565b60405180910390fd5b600073ffffffffffffffffffffffffffffffffffffffff1681610120015173ffffffffffffffffffffffffffffffffffffffff1603610a45576040517f08c379a0000000000000000000000000000000000000000000000000000000008152600401610a3c906131b7565b60405180910390fd5b600015158160e00151151514610a90576040517f08c379a0000000000000000000000000000000000000000000000000000000008152600401610a8790613223565b60405180910390fd5b6000606460636005600085610120015173ffffffffffffffffffffffffffffffffffffffff1673ffffffffffffffffffffffffffffffffffffffff168152602001908152602001600020600087815260200190815260200160002054610af69190613272565b610b0091906132fb565b90506064826101400151610b1491906132fb565b60026000828254610b25919061332c565b9250508190555060006005600084610120015173ffffffffffffffffffffffffffffffffffffffff1673ffffffffffffffffffffffffffffffffffffffff16815260200190815260200160002060008681526020019081526020016000208190555060016003600086815260200190815260200160002060060160016101000a81548160ff021916908315150217905550600160009054906101000a900473ffffffffffffffffffffffffffffffffffffffff1673ffffffffffffffffffffffffffffffffffffffff1663b8fcf9376040518163ffffffff1660e01b8152600401602060405180830381865afa158015610c23573d6000803e3d6000fd5b505050506040513d601f19601f82011682018060405250810190610c479190612f41565b73ffffffffffffffffffffffffffffffffffffffff1663a9059cbb8360400151836040518363ffffffff1660e01b8152600401610c85929190613382565b6020604051808303816000875af1158015610ca4573d6000803e3d6000fd5b505050506040513d601f19601f82011682018060405250810190610cc89190613006565b507f9d95947801b2af7d1ed03cfed8027ebe75cd4a16100de3a0ffdb30f58c6a01928483610120015133604051610d01939291906133ab565b60405180910390a150505050565b610d1761208a565b80600073ffffffffffffffffffffffffffffffffffffffff166003600083815260200190815260200160002060020160009054906101000a900473ffffffffffffffffffffffffffffffffffffffff1673ffffffffffffffffffffffffffffffffffffffff1603610dbd576040517f08c379a0000000000000000000000000000000000000000000000000000000008152600401610db490612ea0565b60405180910390fd5b60016003600084815260200190815260200160002060060160006101000a81548160ff0219169083151502179055505050565b60025481565b610dfe61208a565b600073ffffffffffffffffffffffffffffffffffffffff16600160009054906101000a900473ffffffffffffffffffffffffffffffffffffffff1673ffffffffffffffffffffffffffffffffffffffff1603610e8f576040517f08c379a0000000000000000000000000000000000000000000000000000000008152600401610e8690612f0c565b60405180910390fd5b600073ffffffffffffffffffffffffffffffffffffffff16600160009054906101000a900473ffffffffffffffffffffffffffffffffffffffff1673ffffffffffffffffffffffffffffffffffffffff1663b8fcf9376040518163ffffffff1660e01b8152600401602060405180830381865afa158015610f14573d6000803e3d6000fd5b505050506040513d601f19601f82011682018060405250810190610f389190612f41565b73ffffffffffffffffffffffffffffffffffffffff1603610f8e576040517f08c379a0000000000000000000000000000000000000000000000000000000008152600401610f8590612fba565b60405180910390fd5b6000600160009054906101000a900473ffffffffffffffffffffffffffffffffffffffff1673ffffffffffffffffffffffffffffffffffffffff1663b8fcf9376040518163ffffffff1660e01b8152600401602060405180830381865afa158015610ffd573d6000803e3d6000fd5b505050506040513d601f19601f820116820180604052508101906110219190612f41565b90508073ffffffffffffffffffffffffffffffffffffffff1663a9059cbb600160009054906101000a900473ffffffffffffffffffffffffffffffffffffffff166002546040518363ffffffff1660e01b8152600401611082929190613382565b6020604051808303816000875af11580156110a1573d6000803e3d6000fd5b505050506040513d601f19601f820116820180604052508101906110c59190613006565b50600060028190555050565b600460205281600052604060002081815481106110ed57600080fd5b90600052602060002001600091509150505481565b600160009054906101000a900473ffffffffffffffffffffffffffffffffffffffff1681565b61113061208a565b61113a6000612108565b565b6060600460008373ffffffffffffffffffffffffffffffffffffffff1673ffffffffffffffffffffffffffffffffffffffff1681526020019081526020016000208054806020026020016040519081016040528092919081815260200182805480156111c757602002820191906000526020600020905b8154815260200190600101908083116111b3575b50505050509050919050565b60036020528060005260406000206000915090508060000180546111f6906130ce565b80601f0160208091040260200160405190810160405280929190818152602001828054611222906130ce565b801561126f5780601f106112445761010080835404028352916020019161126f565b820191906000526020600020905b81548152906001019060200180831161125257829003601f168201915b5050505050908060010154908060020160009054906101000a900473ffffffffffffffffffffffffffffffffffffffff16908060030154908060040180546112b6906130ce565b80601f01602080910402602001604051908101604052809291908181526020018280546112e2906130ce565b801561132f5780601f106113045761010080835404028352916020019161132f565b820191906000526020600020905b81548152906001019060200180831161131257829003601f168201915b505050505090806005018054611344906130ce565b80601f0160208091040260200160405190810160405280929190818152602001828054611370906130ce565b80156113bd5780601f10611392576101008083540402835291602001916113bd565b820191906000526020600020905b8154815290600101906020018083116113a057829003601f168201915b5050505050908060060160009054906101000a900460ff16908060060160019054906101000a900460ff16908060070180546113f8906130ce565b80601f0160208091040260200160405190810160405280929190818152602001828054611424906130ce565b80156114715780601f1061144657610100808354040283529160200191611471565b820191906000526020600020905b81548152906001019060200180831161145457829003601f168201915b5050505050908060080160009054906101000a900473ffffffffffffffffffffffffffffffffffffffff169080600901549080600a015490508c565b600088889050036114f3576040517f08c379a00000000000000000000000000000000000000000000000000000000081526004016114ea9061342e565b60405180910390fd5b621e8480861015611539576040517f08c379a00000000000000000000000000000000000000000000000000000000081526004016115309061349a565b60405180910390fd5b4281101561157c576040517f08c379a000000000000000000000000000000000000000000000000000000000815260040161157390613506565b60405180910390fd5b61158c88888888888888886121cc565b60036000600654815260200190815260200160002060008201518160000190805190602001906115bd92919061234b565b506020820151816001015560408201518160020160006101000a81548173ffffffffffffffffffffffffffffffffffffffff021916908373ffffffffffffffffffffffffffffffffffffffff16021790555060608201518160030155608082015181600401908051906020019061163592919061234b565b5060a08201518160050190805190602001906116529291906123d1565b5060c08201518160060160006101000a81548160ff02191690831515021790555060e08201518160060160016101000a81548160ff0219169083151502179055506101008201518160070190805190602001906116b09291906123d1565b506101208201518160080160006101000a81548173ffffffffffffffffffffffffffffffffffffffff021916908373ffffffffffffffffffffffffffffffffffffffff160217905550610140820151816009015561016082015181600a0155905050600460003373ffffffffffffffffffffffffffffffffffffffff1673ffffffffffffffffffffffffffffffffffffffff16815260200190815260200160002060065490806001815401808255809150506001900390600052602060002001600090919091909150557f0bdd03d34418de4e37692923185ccdd7efa31d93f02a21636cfaf39cd2ee2041888888336006546040516117b3959493929190613553565b60405180910390a16001600660008282546117ce919061332c565b925050819055505050505050505050565b60008060009054906101000a900473ffffffffffffffffffffffffffffffffffffffff16905090565b85600073ffffffffffffffffffffffffffffffffffffffff166003600083815260200190815260200160002060020160009054906101000a900473ffffffffffffffffffffffffffffffffffffffff1673ffffffffffffffffffffffffffffffffffffffff16036118ae576040517f08c379a00000000000000000000000000000000000000000000000000000000081526004016118a590612ea0565b60405180910390fd5b600073ffffffffffffffffffffffffffffffffffffffff16600160009054906101000a900473ffffffffffffffffffffffffffffffffffffffff1673ffffffffffffffffffffffffffffffffffffffff160361193f576040517f08c379a000000000000000000000000000000000000000000000000000000000815260040161193690612f0c565b60405180910390fd5b600073ffffffffffffffffffffffffffffffffffffffff16600160009054906101000a900473ffffffffffffffffffffffffffffffffffffffff1673ffffffffffffffffffffffffffffffffffffffff1663b8fcf9376040518163ffffffff1660e01b8152600401602060405180830381865afa1580156119c4573d6000803e3d6000fd5b505050506040513d601f19601f820116820180604052508101906119e89190612f41565b73ffffffffffffffffffffffffffffffffffffffff1603611a3e576040517f08c379a0000000000000000000000000000000000000000000000000000000008152600401611a3590612fba565b60405180910390fd5b60006003600089815260200190815260200160002090504281600a015411611a9b576040517f08c379a0000000000000000000000000000000000000000000000000000000008152600401611a92906135ed565b60405180910390fd5b8060010154851015611ae2576040517f08c379a0000000000000000000000000000000000000000000000000000000008152600401611ad990613659565b60405180910390fd5b80600901548511611b28576040517f08c379a0000000000000000000000000000000000000000000000000000000008152600401611b1f90613659565b60405180910390fd5b60008787905003611b6e576040517f08c379a0000000000000000000000000000000000000000000000000000000008152600401611b65906136c5565b60405180910390fd5b6000308987604051602001611b859392919061374e565b6040516020818303038152906040528051906020012090508787836007019190611bb0929190612457565b506000600160009054906101000a900473ffffffffffffffffffffffffffffffffffffffff1673ffffffffffffffffffffffffffffffffffffffff1663b8fcf9376040518163ffffffff1660e01b8152600401602060405180830381865afa158015611c20573d6000803e3d6000fd5b505050506040513d601f19601f82011682018060405250810190611c449190612f41565b90508073ffffffffffffffffffffffffffffffffffffffff16639f4fae1284600a0154848a8a308b6040518763ffffffff1660e01b8152600401611c8d969594939291906137a4565b600060405180830381600087803b158015611ca757600080fd5b505af1158015611cbb573d6000803e3d6000fd5b50505050600073ffffffffffffffffffffffffffffffffffffffff168360080160009054906101000a900473ffffffffffffffffffffffffffffffffffffffff1673ffffffffffffffffffffffffffffffffffffffff1614611e39576000600560008560080160009054906101000a900473ffffffffffffffffffffffffffffffffffffffff1673ffffffffffffffffffffffffffffffffffffffff1673ffffffffffffffffffffffffffffffffffffffff16815260200190815260200160002060008c8152602001908152602001600020819055508073ffffffffffffffffffffffffffffffffffffffff1663a9059cbb8460080160009054906101000a900473ffffffffffffffffffffffffffffffffffffffff1685600901546040518363ffffffff1660e01b8152600401611df4929190613382565b6020604051808303816000875af1158015611e13573d6000803e3d6000fd5b505050506040513d601f19601f82011682018060405250810190611e379190613006565b505b86600560008873ffffffffffffffffffffffffffffffffffffffff1673ffffffffffffffffffffffffffffffffffffffff16815260200190815260200160002060008c815260200190815260200160002081905550868360090181905550858360080160006101000a81548173ffffffffffffffffffffffffffffffffffffffff021916908373ffffffffffffffffffffffffffffffffffffffff1602179055507f6e92a982037abe8146d71f1d6163b2760c6fb6b79d71a369fe6f0b79a545b79a8a8789604051611f0d9392919061380c565b60405180910390a150505050505050505050565b611f2961208a565b600073ffffffffffffffffffffffffffffffffffffffff168173ffffffffffffffffffffffffffffffffffffffff1603611f98576040517f08c379a0000000000000000000000000000000000000000000000000000000008152600401611f8f9061388f565b60405180910390fd5b80600160006101000a81548173ffffffffffffffffffffffffffffffffffffffff021916908373ffffffffffffffffffffffffffffffffffffffff16021790555050565b6005602052816000526040600020602052806000526040600020600091509150505481565b60065481565b61200f61208a565b600073ffffffffffffffffffffffffffffffffffffffff168173ffffffffffffffffffffffffffffffffffffffff160361207e576040517f08c379a000000000000000000000000000000000000000000000000000000000815260040161207590613921565b60405180910390fd5b61208781612108565b50565b612092612343565b73ffffffffffffffffffffffffffffffffffffffff166120b06117df565b73ffffffffffffffffffffffffffffffffffffffff1614612106576040517f08c379a00000000000000000000000000000000000000000000000000000000081526004016120fd9061398d565b60405180910390fd5b565b60008060009054906101000a900473ffffffffffffffffffffffffffffffffffffffff169050816000806101000a81548173ffffffffffffffffffffffffffffffffffffffff021916908373ffffffffffffffffffffffffffffffffffffffff1602179055508173ffffffffffffffffffffffffffffffffffffffff168173ffffffffffffffffffffffffffffffffffffffff167f8be0079c531659141344cd1fd0a4f28419497f9722a3daafe3b4186f6b6457e060405160405180910390a35050565b6121d46124dd565b6040518061018001604052808a8a8080601f016020809104026020016040519081016040528093929190818152602001838380828437600081840152601f19601f8201169050808301925050505050505081526020018881526020013373ffffffffffffffffffffffffffffffffffffffff16815260200142815260200187878080601f016020809104026020016040519081016040528093929190818152602001838380828437600081840152601f19601f82011690508083019250505050505050815260200185858080601f016020809104026020016040519081016040528093929190818152602001838380828437600081840152601f19601f820116905080830192505050505050508152602001600015158152602001600015158152602001604051806020016040528060008152508152602001600073ffffffffffffffffffffffffffffffffffffffff1681526020016000815260200183815250905098975050505050505050565b600033905090565b828054612357906130ce565b90600052602060002090601f01602090048101928261237957600085556123c0565b82601f1061239257805160ff19168380011785556123c0565b828001600101855582156123c0579182015b828111156123bf5782518255916020019190600101906123a4565b5b5090506123cd919061256e565b5090565b8280546123dd906130ce565b90600052602060002090601f0160209004810192826123ff5760008555612446565b82601f1061241857805160ff1916838001178555612446565b82800160010185558215612446579182015b8281111561244557825182559160200191906001019061242a565b5b509050612453919061256e565b5090565b828054612463906130ce565b90600052602060002090601f01602090048101928261248557600085556124cc565b82601f1061249e57803560ff19168380011785556124cc565b828001600101855582156124cc579182015b828111156124cb5782358255916020019190600101906124b0565b5b5090506124d9919061256e565b5090565b6040518061018001604052806060815260200160008152602001600073ffffffffffffffffffffffffffffffffffffffff16815260200160008152602001606081526020016060815260200160001515815260200160001515815260200160608152602001600073ffffffffffffffffffffffffffffffffffffffff16815260200160008152602001600081525090565b5b8082111561258757600081600090555060010161256f565b5090565b6000604051905090565b600080fd5b600080fd5b6000819050919050565b6125b28161259f565b81146125bd57600080fd5b50565b6000813590506125cf816125a9565b92915050565b6000602082840312156125eb576125ea612595565b5b60006125f9848285016125c0565b91505092915050565b61260b8161259f565b82525050565b60006020820190506126266000830184612602565b92915050565b600073ffffffffffffffffffffffffffffffffffffffff82169050919050565b60006126578261262c565b9050919050565b6126678161264c565b811461267257600080fd5b50565b6000813590506126848161265e565b92915050565b600080604083850312156126a1576126a0612595565b5b60006126af85828601612675565b92505060206126c0858286016125c0565b9150509250929050565b6000819050919050565b60006126ef6126ea6126e58461262c565b6126ca565b61262c565b9050919050565b6000612701826126d4565b9050919050565b6000612713826126f6565b9050919050565b61272381612708565b82525050565b600060208201905061273e600083018461271a565b92915050565b60006020828403121561275a57612759612595565b5b600061276884828501612675565b91505092915050565b600081519050919050565b600082825260208201905092915050565b6000819050602082019050919050565b6127a68161259f565b82525050565b60006127b8838361279d565b60208301905092915050565b6000602082019050919050565b60006127dc82612771565b6127e6818561277c565b93506127f18361278d565b8060005b8381101561282257815161280988826127ac565b9750612814836127c4565b9250506001810190506127f5565b5085935050505092915050565b6000602082019050818103600083015261284981846127d1565b905092915050565b600081519050919050565b600082825260208201905092915050565b60005b8381101561288b578082015181840152602081019050612870565b8381111561289a576000848401525b50505050565b6000601f19601f8301169050919050565b60006128bc82612851565b6128c6818561285c565b93506128d681856020860161286d565b6128df816128a0565b840191505092915050565b6128f38161264c565b82525050565b600081519050919050565b600082825260208201905092915050565b6000612920826128f9565b61292a8185612904565b935061293a81856020860161286d565b612943816128a0565b840191505092915050565b60008115159050919050565b6129638161294e565b82525050565b6000610180820190508181036000830152612984818f6128b1565b9050612993602083018e612602565b6129a0604083018d6128ea565b6129ad606083018c612602565b81810360808301526129bf818b6128b1565b905081810360a08301526129d3818a612915565b90506129e260c083018961295a565b6129ef60e083018861295a565b818103610100830152612a028187612915565b9050612a126101208301866128ea565b612a20610140830185612602565b612a2e610160830184612602565b9d9c50505050505050505050505050565b600080fd5b600080fd5b600080fd5b60008083601f840112612a6457612a63612a3f565b5b8235905067ffffffffffffffff811115612a8157612a80612a44565b5b602083019150836001820283011115612a9d57612a9c612a49565b5b9250929050565b60008083601f840112612aba57612ab9612a3f565b5b8235905067ffffffffffffffff811115612ad757612ad6612a44565b5b602083019150836001820283011115612af357612af2612a49565b5b9250929050565b60008060008060008060008060a0898b031215612b1a57612b19612595565b5b600089013567ffffffffffffffff811115612b3857612b3761259a565b5b612b448b828c01612a4e565b98509850506020612b578b828c016125c0565b965050604089013567ffffffffffffffff811115612b7857612b7761259a565b5b612b848b828c01612a4e565b9550955050606089013567ffffffffffffffff811115612ba757612ba661259a565b5b612bb38b828c01612aa4565b93509350506080612bc68b828c016125c0565b9150509295985092959890939650565b6000602082019050612beb60008301846128ea565b92915050565b600080fd5b7f4e487b7100000000000000000000000000000000000000000000000000000000600052604160045260246000fd5b612c2e826128a0565b810181811067ffffffffffffffff82111715612c4d57612c4c612bf6565b5b80604052505050565b6000612c6061258b565b9050612c6c8282612c25565b919050565b600067ffffffffffffffff821115612c8c57612c8b612bf6565b5b612c95826128a0565b9050602081019050919050565b82818337600083830152505050565b6000612cc4612cbf84612c71565b612c56565b905082815260208101848484011115612ce057612cdf612bf1565b5b612ceb848285612ca2565b509392505050565b600082601f830112612d0857612d07612a3f565b5b8135612d18848260208601612cb1565b91505092915050565b60008060008060008060a08789031215612d3e57612d3d612595565b5b6000612d4c89828a016125c0565b965050602087013567ffffffffffffffff811115612d6d57612d6c61259a565b5b612d7989828a01612aa4565b95509550506040612d8c89828a016125c0565b9350506060612d9d89828a01612675565b925050608087013567ffffffffffffffff811115612dbe57612dbd61259a565b5b612dca89828a01612cf3565b9150509295509295509295565b6000612de28261262c565b9050919050565b6000612df482612dd7565b9050919050565b612e0481612de9565b8114612e0f57600080fd5b50565b600081359050612e2181612dfb565b92915050565b600060208284031215612e3d57612e3c612595565b5b6000612e4b84828501612e12565b91505092915050565b7f4e6f20737563682070726f647563740000000000000000000000000000000000600082015250565b6000612e8a600f8361285c565b9150612e9582612e54565b602082019050919050565b60006020820190508181036000830152612eb981612e7d565b9050919050565b7f446f65736e27742068617665206f776e6572206d61726b6574706c6163650000600082015250565b6000612ef6601e8361285c565b9150612f0182612ec0565b602082019050919050565b60006020820190508181036000830152612f2581612ee9565b9050919050565b600081519050612f3b8161265e565b92915050565b600060208284031215612f5757612f56612595565b5b6000612f6584828501612f2c565b91505092915050565b7f4e6f20746f6b656e207370656369666965640000000000000000000000000000600082015250565b6000612fa460128361285c565b9150612faf82612f6e565b602082019050919050565b60006020820190508181036000830152612fd381612f97565b9050919050565b612fe38161294e565b8114612fee57600080fd5b50565b60008151905061300081612fda565b92915050565b60006020828403121561301c5761301b612595565b5b600061302a84828501612ff1565b91505092915050565b7f4e6f7420616e20617574686f72697a656420636f757269657200000000000000600082015250565b600061306960198361285c565b915061307482613033565b602082019050919050565b600060208201905081810360008301526130988161305c565b9050919050565b7f4e487b7100000000000000000000000000000000000000000000000000000000600052602260045260246000fd5b600060028204905060018216806130e657607f821691505b6020821081036130f9576130f861309f565b5b50919050565b7f41756374696f6e206e6f742066696e6973686564000000000000000000000000600082015250565b600061313560148361285c565b9150613140826130ff565b602082019050919050565b6000602082019050818103600083015261316481613128565b9050919050565b7f4e6f20626964732c207468657265666f72652063616e27742064656c69766572600082015250565b60006131a160208361285c565b91506131ac8261316b565b602082019050919050565b600060208201905081810360008301526131d081613194565b9050919050565b7f50726f6475637420616c72656164792064656c69766572656400000000000000600082015250565b600061320d60198361285c565b9150613218826131d7565b602082019050919050565b6000602082019050818103600083015261323c81613200565b9050919050565b7f4e487b7100000000000000000000000000000000000000000000000000000000600052601160045260246000fd5b600061327d8261259f565b91506132888361259f565b9250817fffffffffffffffffffffffffffffffffffffffffffffffffffffffffffffffff04831182151516156132c1576132c0613243565b5b828202905092915050565b7f4e487b7100000000000000000000000000000000000000000000000000000000600052601260045260246000fd5b60006133068261259f565b91506133118361259f565b925082613321576133206132cc565b5b828204905092915050565b60006133378261259f565b91506133428361259f565b9250827fffffffffffffffffffffffffffffffffffffffffffffffffffffffffffffffff0382111561337757613376613243565b5b828201905092915050565b600060408201905061339760008301856128ea565b6133a46020830184612602565b9392505050565b60006060820190506133c06000830186612602565b6133cd60208301856128ea565b6133da60408301846128ea565b949350505050565b7f4e616d652073686f756c646e277420626520656d707479000000000000000000600082015250565b600061341860178361285c565b9150613423826133e2565b602082019050919050565b600060208201905081810360008301526134478161340b565b9050919050565b7f50726963652073686f756c64206265203e3d3230303030303000000000000000600082015250565b600061348460198361285c565b915061348f8261344e565b602082019050919050565b600060208201905081810360008301526134b381613477565b9050919050565b7f456e642073686f756c6420626520696e20746865206675747572650000000000600082015250565b60006134f0601b8361285c565b91506134fb826134ba565b602082019050919050565b6000602082019050818103600083015261351f816134e3565b9050919050565b6000613532838561285c565b935061353f838584612ca2565b613548836128a0565b840190509392505050565b6000608082019050818103600083015261356e818789613526565b905061357d6020830186612602565b61358a60408301856128ea565b6135976060830184612602565b9695505050505050565b7f41756374696f6e20616c72656164792066696e69736865640000000000000000600082015250565b60006135d760188361285c565b91506135e2826135a1565b602082019050919050565b60006020820190508181036000830152613606816135ca565b9050919050565b7f426964206d757374206265206c61726765720000000000000000000000000000600082015250565b600061364360128361285c565b915061364e8261360d565b602082019050919050565b6000602082019050818103600083015261367281613636565b9050919050565b7f4e6f2064656c697665727920696e737472756374696f6e730000000000000000600082015250565b60006136af60188361285c565b91506136ba82613679565b602082019050919050565b600060208201905081810360008301526136de816136a2565b9050919050565b60008160601b9050919050565b60006136fd826136e5565b9050919050565b600061370f826136f2565b9050919050565b6137276137228261264c565b613704565b82525050565b6000819050919050565b6137486137438261259f565b61372d565b82525050565b600061375a8286613716565b60148201915061376a8285613737565b60208201915061377a8284613737565b602082019150819050949350505050565b6000819050919050565b61379e8161378b565b82525050565b600060c0820190506137b96000830189612602565b6137c66020830188613795565b6137d36040830187612602565b6137e060608301866128ea565b6137ed60808301856128ea565b81810360a08301526137ff8184612915565b9050979650505050505050565b60006060820190506138216000830186612602565b61382e60208301856128ea565b61383b6040830184612602565b949350505050565b7f416464726573732073686f756c646e2774206265203000000000000000000000600082015250565b600061387960168361285c565b915061388482613843565b602082019050919050565b600060208201905081810360008301526138a88161386c565b9050919050565b7f4f776e61626c653a206e6577206f776e657220697320746865207a65726f206160008201527f6464726573730000000000000000000000000000000000000000000000000000602082015250565b600061390b60268361285c565b9150613916826138af565b604082019050919050565b6000602082019050818103600083015261393a816138fe565b9050919050565b7f4f776e61626c653a2063616c6c6572206973206e6f7420746865206f776e6572600082015250565b600061397760208361285c565b915061398282613941565b602082019050919050565b600060208201905081810360008301526139a68161396a565b905091905056fea26469706673582212200caedae5c17aad063685f2b79ab906d4fa198f8109193050ae0b429943f43bf364736f6c634300080d0033",
  "linkReferences": {},
  "deployedLinkReferences": {}
}