{
  "_format": "hh-sol-artifact-1",
  "contractName": "SimpleSeller",
  "sourceName": "contracts/SimpleSeller.sol",
  "abi": [
    {
      "anonymous": false,
      "inputs": [
        {
          "indexed": true,
          "internalType": "address",
          "name": "previousOwner",
          "type": "address"
        },
        {
          "indexed": true,
          "internalType": "address",
          "name": "newOwner",
          "type": "address"
        }
      ],
      "name": "OwnershipTransferred",
      "type": "event"
    },
    {
      "anonymous": false,
      "inputs": [
        {
          "indexed": false,
          "internalType": "string",
          "name": "name",
          "type": "string"
        },
        {
          "indexed": false,
          "internalType": "uint256",
          "name": "price",
          "type": "uint256"
        },
        {
          "indexed": false,
          "internalType": "address",
          "name": "seller",
          "type": "address"
        },
        {
          "indexed": false,
          "internalType": "uint256",
          "name": "index",
          "type": "uint256"
        }
      ],
      "name": "sellerProductAdded",
      "type": "event"
    },
    {
      "anonymous": false,
      "inputs": [
        {
          "indexed": false,
          "internalType": "uint256",
          "name": "index",
          "type": "uint256"
        },
        {
          "indexed": false,
          "internalType": "address",
          "name": "seller",
          "type": "address"
        },
        {
          "indexed": false,
          "internalType": "address",
          "name": "courier",
          "type": "address"
        }
      ],
      "name": "sellerProductDelivered",
      "type": "event"
    },
    {
      "anonymous": false,
      "inputs": [
        {
          "indexed": false,
          "internalType": "uint256",
          "name": "index",
          "type": "uint256"
        },
        {
          "indexed": false,
          "internalType": "address",
          "name": "buyer",
          "type": "address"
        }
      ],
      "name": "sellerProductSold",
      "type": "event"
    },
    {
      "inputs": [
        {
          "internalType": "string",
          "name": "name",
          "type": "string"
        },
        {
          "internalType": "uint256",
          "name": "price",
          "type": "uint256"
        },
        {
          "internalType": "string",
          "name": "link",
          "type": "string"
        },
        {
          "internalType": "bytes32",
          "name": "marketHashOfData",
          "type": "bytes32"
        }
      ],
      "name": "addProduct",
      "outputs": [],
      "stateMutability": "nonpayable",
      "type": "function"
    },
    {
      "inputs": [],
      "name": "belongsToContract",
      "outputs": [
        {
          "internalType": "uint256",
          "name": "",
          "type": "uint256"
        }
      ],
      "stateMutability": "view",
      "type": "function"
    },
    {
      "inputs": [
        {
          "internalType": "uint256",
          "name": "index",
          "type": "uint256"
        }
      ],
      "name": "deliverProduct",
      "outputs": [],
      "stateMutability": "nonpayable",
      "type": "function"
    },
    {
      "inputs": [
        {
          "internalType": "address",
          "name": "seller",
          "type": "address"
        }
      ],
      "name": "getIndexesFromSellerAddress",
      "outputs": [
        {
          "internalType": "uint256[]",
          "name": "indexes",
          "type": "uint256[]"
        }
      ],
      "stateMutability": "view",
      "type": "function"
    },
    {
      "inputs": [
        {
          "internalType": "contract Marketplace",
          "name": "marketplace",
          "type": "address"
        }
      ],
      "name": "joinMarketplace",
      "outputs": [],
      "stateMutability": "nonpayable",
      "type": "function"
    },
    {
      "inputs": [
        {
          "internalType": "address",
          "name": "",
          "type": "address"
        },
        {
          "internalType": "uint256",
          "name": "",
          "type": "uint256"
        }
      ],
      "name": "owedMoneyToBuyers",
      "outputs": [
        {
          "internalType": "uint256",
          "name": "",
          "type": "uint256"
        }
      ],
      "stateMutability": "view",
      "type": "function"
    },
    {
      "inputs": [
        {
          "internalType": "address",
          "name": "",
          "type": "address"
        },
        {
          "internalType": "uint256",
          "name": "",
          "type": "uint256"
        }
      ],
      "name": "owedMoneyToSellers",
      "outputs": [
        {
          "internalType": "uint256",
          "name": "",
          "type": "uint256"
        }
      ],
      "stateMutability": "view",
      "type": "function"
    },
    {
      "inputs": [],
      "name": "owner",
      "outputs": [
        {
          "internalType": "address",
          "name": "",
          "type": "address"
        }
      ],
      "stateMutability": "view",
      "type": "function"
    },
    {
      "inputs": [],
      "name": "ownerMarketplace",
      "outputs": [
        {
          "internalType": "contract Marketplace",
          "name": "",
          "type": "address"
        }
      ],
      "stateMutability": "view",
      "type": "function"
    },
    {
      "inputs": [
        {
          "internalType": "uint256",
          "name": "index",
          "type": "uint256"
        },
        {
          "internalType": "bytes",
          "name": "deliveryInstructions",
          "type": "bytes"
        },
        {
          "internalType": "uint256",
          "name": "expiration",
          "type": "uint256"
        },
        {
          "internalType": "bytes32",
          "name": "nonce",
          "type": "bytes32"
        },
        {
          "internalType": "uint256",
          "name": "amount",
          "type": "uint256"
        },
        {
          "internalType": "address",
          "name": "from",
          "type": "address"
        },
        {
          "internalType": "bytes",
          "name": "sig",
          "type": "bytes"
        }
      ],
      "name": "payProduct",
      "outputs": [],
      "stateMutability": "payable",
      "type": "function"
    },
    {
      "inputs": [],
      "name": "productCount",
      "outputs": [
        {
          "internalType": "uint256",
          "name": "",
          "type": "uint256"
        }
      ],
      "stateMutability": "view",
      "type": "function"
    },
    {
      "inputs": [
        {
          "internalType": "uint256",
          "name": "",
          "type": "uint256"
        }
      ],
      "name": "products",
      "outputs": [
        {
          "internalType": "string",
          "name": "name",
          "type": "string"
        },
        {
          "internalType": "uint256",
          "name": "price",
          "type": "uint256"
        },
        {
          "internalType": "address",
          "name": "seller",
          "type": "address"
        },
        {
          "internalType": "address",
          "name": "buyer",
          "type": "address"
        },
        {
          "internalType": "uint256",
          "name": "addDate",
          "type": "uint256"
        },
        {
          "internalType": "string",
          "name": "linkForMedia",
          "type": "string"
        },
        {
          "internalType": "bytes32",
          "name": "marketHashOfData",
          "type": "bytes32"
        },
        {
          "internalType": "bool",
          "name": "approved",
          "type": "bool"
        },
        {
          "internalType": "bool",
          "name": "paid",
          "type": "bool"
        },
        {
          "internalType": "bool",
          "name": "delivered",
          "type": "bool"
        },
        {
          "internalType": "bytes",
          "name": "deliveryInstructions",
          "type": "bytes"
        }
      ],
      "stateMutability": "view",
      "type": "function"
    },
    {
      "inputs": [],
      "name": "renounceOwnership",
      "outputs": [],
      "stateMutability": "nonpayable",
      "type": "function"
    },
    {
      "inputs": [
        {
          "internalType": "address",
          "name": "",
          "type": "address"
        },
        {
          "internalType": "uint256",
          "name": "",
          "type": "uint256"
        }
      ],
      "name": "sellerToProductIndexes",
      "outputs": [
        {
          "internalType": "uint256",
          "name": "",
          "type": "uint256"
        }
      ],
      "stateMutability": "view",
      "type": "function"
    },
    {
      "inputs": [],
      "name": "transferFunds",
      "outputs": [],
      "stateMutability": "nonpayable",
      "type": "function"
    },
    {
      "inputs": [
        {
          "internalType": "address",
          "name": "newOwner",
          "type": "address"
        }
      ],
      "name": "transferOwnership",
      "outputs": [],
      "stateMutability": "nonpayable",
      "type": "function"
    }
  ],
  "bytecode": "0x6080604052600060015560006007553480156200001b57600080fd5b506200003c620000306200004260201b60201c565b6200004a60201b60201c565b6200010e565b600033905090565b60008060009054906101000a900473ffffffffffffffffffffffffffffffffffffffff169050816000806101000a81548173ffffffffffffffffffffffffffffffffffffffff021916908373ffffffffffffffffffffffffffffffffffffffff1602179055508173ffffffffffffffffffffffffffffffffffffffff168173ffffffffffffffffffffffffffffffffffffffff167f8be0079c531659141344cd1fd0a4f28419497f9722a3daafe3b4186f6b6457e060405160405180910390a35050565b6136af806200011e6000396000f3fe6080604052600436106100f35760003560e01c80637acc0b201161008a578063ac0b044511610059578063ac0b044514610334578063e0f6ef871461035d578063ea43f06d14610388578063f2fde38b146103a4576100f3565b80637acc0b201461025c5780637c044577146102a35780638da5cb5b146102e05780639d42a8bd1461030b576100f3565b80634353c0ee116100c65780634353c0ee146101a0578063660eb4a3146101dd578063715018a6146102085780637a653f101461021f576100f3565b80630f563197146100f85780631c96fb1f146101355780633c1b52c41461015e5780633c68eb8114610189575b600080fd5b34801561010457600080fd5b5061011f600480360381019061011a91906122e1565b6103cd565b60405161012c9190612330565b60405180910390f35b34801561014157600080fd5b5061015c6004803603810190610157919061234b565b6103f2565b005b34801561016a57600080fd5b50610173610bec565b6040516101809190612330565b60405180910390f35b34801561019557600080fd5b5061019e610bf2565b005b3480156101ac57600080fd5b506101c760048036038101906101c291906122e1565b610ecd565b6040516101d49190612330565b60405180910390f35b3480156101e957600080fd5b506101f2610efe565b6040516101ff91906123d7565b60405180910390f35b34801561021457600080fd5b5061021d610f24565b005b34801561022b57600080fd5b50610246600480360381019061024191906123f2565b610f38565b60405161025391906124dd565b60405180910390f35b34801561026857600080fd5b50610283600480360381019061027e919061234b565b610fcf565b60405161029a9b9a99989796959493929190612630565b60405180910390f35b3480156102af57600080fd5b506102ca60048036038101906102c591906122e1565b611228565b6040516102d79190612330565b60405180910390f35b3480156102ec57600080fd5b506102f561124d565b60405161030291906126f0565b60405180910390f35b34801561031757600080fd5b50610332600480360381019061032d919061279c565b611276565b005b34801561034057600080fd5b5061035b60048036038101906103569190612893565b611559565b005b34801561036957600080fd5b50610372611614565b60405161037f9190612330565b60405180910390f35b6103a2600480360381019061039d9190612a46565b61161a565b005b3480156103b057600080fd5b506103cb60048036038101906103c691906123f2565b611d01565b005b6006602052816000526040600020602052806000526040600020600091509150505481565b6000600360008381526020019081526020016000206040518061016001604052908160008201805461042390612b53565b80601f016020809104026020016040519081016040528092919081815260200182805461044f90612b53565b801561049c5780601f106104715761010080835404028352916020019161049c565b820191906000526020600020905b81548152906001019060200180831161047f57829003601f168201915b50505050508152602001600182015481526020016002820160009054906101000a900473ffffffffffffffffffffffffffffffffffffffff1673ffffffffffffffffffffffffffffffffffffffff1673ffffffffffffffffffffffffffffffffffffffff1681526020016003820160009054906101000a900473ffffffffffffffffffffffffffffffffffffffff1673ffffffffffffffffffffffffffffffffffffffff1673ffffffffffffffffffffffffffffffffffffffff1681526020016004820154815260200160058201805461057590612b53565b80601f01602080910402602001604051908101604052809291908181526020018280546105a190612b53565b80156105ee5780601f106105c3576101008083540402835291602001916105ee565b820191906000526020600020905b8154815290600101906020018083116105d157829003601f168201915b50505050508152602001600682015481526020016007820160009054906101000a900460ff161515151581526020016007820160019054906101000a900460ff161515151581526020016007820160029054906101000a900460ff1615151515815260200160088201805461066290612b53565b80601f016020809104026020016040519081016040528092919081815260200182805461068e90612b53565b80156106db5780601f106106b0576101008083540402835291602001916106db565b820191906000526020600020905b8154815290600101906020018083116106be57829003601f168201915b5050505050815250509050600073ffffffffffffffffffffffffffffffffffffffff16816040015173ffffffffffffffffffffffffffffffffffffffff1603610759576040517f08c379a000000000000000000000000000000000000000000000000000000000815260040161075090612bd0565b60405180910390fd5b600115158161010001511515146107a5576040517f08c379a000000000000000000000000000000000000000000000000000000000815260040161079c90612c3c565b60405180910390fd5b600015158161012001511515146107f1576040517f08c379a00000000000000000000000000000000000000000000000000000000081526004016107e890612ca8565b60405180910390fd5b600073ffffffffffffffffffffffffffffffffffffffff16600260009054906101000a900473ffffffffffffffffffffffffffffffffffffffff1673ffffffffffffffffffffffffffffffffffffffff160361084e5760006108f2565b60011515600260009054906101000a900473ffffffffffffffffffffffffffffffffffffffff1673ffffffffffffffffffffffffffffffffffffffff1663ccd5fcb9336040518263ffffffff1660e01b81526004016108ad91906126f0565b602060405180830381865afa1580156108ca573d6000803e3d6000fd5b505050506040513d601f19601f820116820180604052508101906108ee9190612cf4565b1515145b610931576040517f08c379a000000000000000000000000000000000000000000000000000000000815260040161092890612d6d565b60405180910390fd5b600060056000836040015173ffffffffffffffffffffffffffffffffffffffff1673ffffffffffffffffffffffffffffffffffffffff168152602001908152602001600020600084815260200190815260200160002054905080826020015161099a9190612dbc565b600160008282546109ab9190612df0565b92505081905550600060056000846040015173ffffffffffffffffffffffffffffffffffffffff1673ffffffffffffffffffffffffffffffffffffffff168152602001908152602001600020600085815260200190815260200160002081905550600060066000846060015173ffffffffffffffffffffffffffffffffffffffff1673ffffffffffffffffffffffffffffffffffffffff16815260200190815260200160002060008581526020019081526020016000208190555060016003600085815260200190815260200160002060070160026101000a81548160ff021916908315150217905550600260009054906101000a900473ffffffffffffffffffffffffffffffffffffffff1673ffffffffffffffffffffffffffffffffffffffff1663b8fcf9376040518163ffffffff1660e01b8152600401602060405180830381865afa158015610b02573d6000803e3d6000fd5b505050506040513d601f19601f82011682018060405250810190610b269190612e5b565b73ffffffffffffffffffffffffffffffffffffffff1663a9059cbb8360400151836040518363ffffffff1660e01b8152600401610b64929190612e88565b6020604051808303816000875af1158015610b83573d6000803e3d6000fd5b505050506040513d601f19601f82011682018060405250810190610ba79190612cf4565b507f79ea1e63534a5791aeb2fa76310349fa28bd6cef2156f4240adfa686cb8a451a83836040015133604051610bdf93929190612eb1565b60405180910390a1505050565b60015481565b610bfa611d84565b600073ffffffffffffffffffffffffffffffffffffffff16600260009054906101000a900473ffffffffffffffffffffffffffffffffffffffff1673ffffffffffffffffffffffffffffffffffffffff1603610c8b576040517f08c379a0000000000000000000000000000000000000000000000000000000008152600401610c8290612f34565b60405180910390fd5b6000600260009054906101000a900473ffffffffffffffffffffffffffffffffffffffff1673ffffffffffffffffffffffffffffffffffffffff1663b8fcf9376040518163ffffffff1660e01b8152600401602060405180830381865afa158015610cfa573d6000803e3d6000fd5b505050506040513d601f19601f82011682018060405250810190610d1e9190612e5b565b9050600073ffffffffffffffffffffffffffffffffffffffff16600260009054906101000a900473ffffffffffffffffffffffffffffffffffffffff1673ffffffffffffffffffffffffffffffffffffffff1663b8fcf9376040518163ffffffff1660e01b8152600401602060405180830381865afa158015610da5573d6000803e3d6000fd5b505050506040513d601f19601f82011682018060405250810190610dc99190612e5b565b73ffffffffffffffffffffffffffffffffffffffff1603610e1f576040517f08c379a0000000000000000000000000000000000000000000000000000000008152600401610e1690612fa0565b60405180910390fd5b8073ffffffffffffffffffffffffffffffffffffffff1663a9059cbb600260009054906101000a900473ffffffffffffffffffffffffffffffffffffffff166001546040518363ffffffff1660e01b8152600401610e7e929190612e88565b6020604051808303816000875af1158015610e9d573d6000803e3d6000fd5b505050506040513d601f19601f82011682018060405250810190610ec19190612cf4565b50600060018190555050565b60046020528160005260406000208181548110610ee957600080fd5b90600052602060002001600091509150505481565b600260009054906101000a900473ffffffffffffffffffffffffffffffffffffffff1681565b610f2c611d84565b610f366000611e02565b565b6060600460008373ffffffffffffffffffffffffffffffffffffffff1673ffffffffffffffffffffffffffffffffffffffff168152602001908152602001600020805480602002602001604051908101604052809291908181526020018280548015610fc357602002820191906000526020600020905b815481526020019060010190808311610faf575b50505050509050919050565b6003602052806000526040600020600091509050806000018054610ff290612b53565b80601f016020809104026020016040519081016040528092919081815260200182805461101e90612b53565b801561106b5780601f106110405761010080835404028352916020019161106b565b820191906000526020600020905b81548152906001019060200180831161104e57829003601f168201915b5050505050908060010154908060020160009054906101000a900473ffffffffffffffffffffffffffffffffffffffff16908060030160009054906101000a900473ffffffffffffffffffffffffffffffffffffffff16908060040154908060050180546110d890612b53565b80601f016020809104026020016040519081016040528092919081815260200182805461110490612b53565b80156111515780601f1061112657610100808354040283529160200191611151565b820191906000526020600020905b81548152906001019060200180831161113457829003601f168201915b5050505050908060060154908060070160009054906101000a900460ff16908060070160019054906101000a900460ff16908060070160029054906101000a900460ff16908060080180546111a590612b53565b80601f01602080910402602001604051908101604052809291908181526020018280546111d190612b53565b801561121e5780601f106111f35761010080835404028352916020019161121e565b820191906000526020600020905b81548152906001019060200180831161120157829003601f168201915b505050505090508b565b6005602052816000526040600020602052806000526040600020600091509150505481565b60008060009054906101000a900473ffffffffffffffffffffffffffffffffffffffff16905090565b600086869050036112bc576040517f08c379a00000000000000000000000000000000000000000000000000000000081526004016112b39061300c565b60405180910390fd5b621e8480841015611302576040517f08c379a00000000000000000000000000000000000000000000000000000000081526004016112f990613078565b60405180910390fd5b611310868686868686611ec6565b6003600060075481526020019081526020016000206000820151816000019080519060200190611341929190611ffb565b506020820151816001015560408201518160020160006101000a81548173ffffffffffffffffffffffffffffffffffffffff021916908373ffffffffffffffffffffffffffffffffffffffff16021790555060608201518160030160006101000a81548173ffffffffffffffffffffffffffffffffffffffff021916908373ffffffffffffffffffffffffffffffffffffffff1602179055506080820151816004015560a0820151816005019080519060200190611400929190611ffb565b5060c0820151816006015560e08201518160070160006101000a81548160ff0219169083151502179055506101008201518160070160016101000a81548160ff0219169083151502179055506101208201518160070160026101000a81548160ff02191690831515021790555061014082015181600801908051906020019061148a929190612081565b50905050600460003373ffffffffffffffffffffffffffffffffffffffff1673ffffffffffffffffffffffffffffffffffffffff16815260200190815260200160002060075490806001815401808255809150506001900390600052602060002001600090919091909150557f4652437f761c98c9da0cbf58e43dd666358d175a79342439f8d7048fd5a546818686863360075460405161152f9594939291906130c5565b60405180910390a160016007600082825461154a9190612df0565b92505081905550505050505050565b611561611d84565b600073ffffffffffffffffffffffffffffffffffffffff168173ffffffffffffffffffffffffffffffffffffffff16036115d0576040517f08c379a00000000000000000000000000000000000000000000000000000000081526004016115c79061315f565b60405180910390fd5b80600260006101000a81548173ffffffffffffffffffffffffffffffffffffffff021916908373ffffffffffffffffffffffffffffffffffffffff16021790555050565b60075481565b6000600360008a81526020019081526020016000209050600073ffffffffffffffffffffffffffffffffffffffff168160020160009054906101000a900473ffffffffffffffffffffffffffffffffffffffff1673ffffffffffffffffffffffffffffffffffffffff16036116c4576040517f08c379a00000000000000000000000000000000000000000000000000000000081526004016116bb90612bd0565b60405180910390fd5b600015158160070160019054906101000a900460ff1615151461171c576040517f08c379a0000000000000000000000000000000000000000000000000000000008152600401611713906131cb565b60405180910390fd5b8060010154841015611763576040517f08c379a000000000000000000000000000000000000000000000000000000000815260040161175a90613237565b60405180910390fd5b600088889050036117a9576040517f08c379a00000000000000000000000000000000000000000000000000000000081526004016117a0906132a3565b60405180910390fd5b30896040516020016117bc92919061332c565b604051602081830303815290604052805190602001208514611813576040517f08c379a000000000000000000000000000000000000000000000000000000000815260040161180a906133a4565b60405180910390fd5b600073ffffffffffffffffffffffffffffffffffffffff16600260009054906101000a900473ffffffffffffffffffffffffffffffffffffffff1673ffffffffffffffffffffffffffffffffffffffff16036118a4576040517f08c379a000000000000000000000000000000000000000000000000000000000815260040161189b90613410565b60405180910390fd5b600073ffffffffffffffffffffffffffffffffffffffff16600260009054906101000a900473ffffffffffffffffffffffffffffffffffffffff1673ffffffffffffffffffffffffffffffffffffffff1663b8fcf9376040518163ffffffff1660e01b8152600401602060405180830381865afa158015611929573d6000803e3d6000fd5b505050506040513d601f19601f8201168201806040525081019061194d9190612e5b565b73ffffffffffffffffffffffffffffffffffffffff16036119a3576040517f08c379a000000000000000000000000000000000000000000000000000000000815260040161199a90612fa0565b60405180910390fd5b87878260080191906119b6929190612107565b5060018160070160016101000a81548160ff0219169083151502179055506064606382600101546119e79190613430565b6119f191906134b9565b600560008360020160009054906101000a900473ffffffffffffffffffffffffffffffffffffffff1673ffffffffffffffffffffffffffffffffffffffff1673ffffffffffffffffffffffffffffffffffffffff16815260200190815260200160002060008b8152602001908152602001600020819055508060010154600660008573ffffffffffffffffffffffffffffffffffffffff1673ffffffffffffffffffffffffffffffffffffffff16815260200190815260200160002060008b81526020019081526020016000208190555082600360008b815260200190815260200160002060030160006101000a81548173ffffffffffffffffffffffffffffffffffffffff021916908373ffffffffffffffffffffffffffffffffffffffff1602179055506000600260009054906101000a900473ffffffffffffffffffffffffffffffffffffffff1673ffffffffffffffffffffffffffffffffffffffff1663b8fcf9376040518163ffffffff1660e01b8152600401602060405180830381865afa158015611b86573d6000803e3d6000fd5b505050506040513d601f19601f82011682018060405250810190611baa9190612e5b565b90508073ffffffffffffffffffffffffffffffffffffffff16639f4fae128888888830896040518763ffffffff1660e01b8152600401611bef969594939291906134ea565b600060405180830381600087803b158015611c0957600080fd5b505af1158015611c1d573d6000803e3d6000fd5b505050508160010154851115611cbc578073ffffffffffffffffffffffffffffffffffffffff1663a9059cbb85846001015488611c5a9190612dbc565b6040518363ffffffff1660e01b8152600401611c77929190612e88565b6020604051808303816000875af1158015611c96573d6000803e3d6000fd5b505050506040513d601f19601f82011682018060405250810190611cba9190612cf4565b505b7f7ec1ccbaefa3247177339d05656f4035327987c9d315294231c54e78cc87927a8a85604051611ced929190613552565b60405180910390a150505050505050505050565b611d09611d84565b600073ffffffffffffffffffffffffffffffffffffffff168173ffffffffffffffffffffffffffffffffffffffff1603611d78576040517f08c379a0000000000000000000000000000000000000000000000000000000008152600401611d6f906135ed565b60405180910390fd5b611d8181611e02565b50565b611d8c611ff3565b73ffffffffffffffffffffffffffffffffffffffff16611daa61124d565b73ffffffffffffffffffffffffffffffffffffffff1614611e00576040517f08c379a0000000000000000000000000000000000000000000000000000000008152600401611df790613659565b60405180910390fd5b565b60008060009054906101000a900473ffffffffffffffffffffffffffffffffffffffff169050816000806101000a81548173ffffffffffffffffffffffffffffffffffffffff021916908373ffffffffffffffffffffffffffffffffffffffff1602179055508173ffffffffffffffffffffffffffffffffffffffff168173ffffffffffffffffffffffffffffffffffffffff167f8be0079c531659141344cd1fd0a4f28419497f9722a3daafe3b4186f6b6457e060405160405180910390a35050565b611ece61218d565b60405180610160016040528088888080601f016020809104026020016040519081016040528093929190818152602001838380828437600081840152601f19601f8201169050808301925050505050505081526020018681526020013373ffffffffffffffffffffffffffffffffffffffff168152602001600073ffffffffffffffffffffffffffffffffffffffff16815260200142815260200185858080601f016020809104026020016040519081016040528093929190818152602001838380828437600081840152601f19601f8201169050808301925050505050505081526020018381526020016000151581526020016000151581526020016000151581526020016040518060200160405280600081525081525090509695505050505050565b600033905090565b82805461200790612b53565b90600052602060002090601f0160209004810192826120295760008555612070565b82601f1061204257805160ff1916838001178555612070565b82800160010185558215612070579182015b8281111561206f578251825591602001919060010190612054565b5b50905061207d919061221c565b5090565b82805461208d90612b53565b90600052602060002090601f0160209004810192826120af57600085556120f6565b82601f106120c857805160ff19168380011785556120f6565b828001600101855582156120f6579182015b828111156120f55782518255916020019190600101906120da565b5b509050612103919061221c565b5090565b82805461211390612b53565b90600052602060002090601f016020900481019282612135576000855561217c565b82601f1061214e57803560ff191683800117855561217c565b8280016001018555821561217c579182015b8281111561217b578235825591602001919060010190612160565b5b509050612189919061221c565b5090565b6040518061016001604052806060815260200160008152602001600073ffffffffffffffffffffffffffffffffffffffff168152602001600073ffffffffffffffffffffffffffffffffffffffff168152602001600081526020016060815260200160008019168152602001600015158152602001600015158152602001600015158152602001606081525090565b5b8082111561223557600081600090555060010161221d565b5090565b6000604051905090565b600080fd5b600080fd5b600073ffffffffffffffffffffffffffffffffffffffff82169050919050565b60006122788261224d565b9050919050565b6122888161226d565b811461229357600080fd5b50565b6000813590506122a58161227f565b92915050565b6000819050919050565b6122be816122ab565b81146122c957600080fd5b50565b6000813590506122db816122b5565b92915050565b600080604083850312156122f8576122f7612243565b5b600061230685828601612296565b9250506020612317858286016122cc565b9150509250929050565b61232a816122ab565b82525050565b60006020820190506123456000830184612321565b92915050565b60006020828403121561236157612360612243565b5b600061236f848285016122cc565b91505092915050565b6000819050919050565b600061239d6123986123938461224d565b612378565b61224d565b9050919050565b60006123af82612382565b9050919050565b60006123c1826123a4565b9050919050565b6123d1816123b6565b82525050565b60006020820190506123ec60008301846123c8565b92915050565b60006020828403121561240857612407612243565b5b600061241684828501612296565b91505092915050565b600081519050919050565b600082825260208201905092915050565b6000819050602082019050919050565b612454816122ab565b82525050565b6000612466838361244b565b60208301905092915050565b6000602082019050919050565b600061248a8261241f565b612494818561242a565b935061249f8361243b565b8060005b838110156124d05781516124b7888261245a565b97506124c283612472565b9250506001810190506124a3565b5085935050505092915050565b600060208201905081810360008301526124f7818461247f565b905092915050565b600081519050919050565b600082825260208201905092915050565b60005b8381101561253957808201518184015260208101905061251e565b83811115612548576000848401525b50505050565b6000601f19601f8301169050919050565b600061256a826124ff565b612574818561250a565b935061258481856020860161251b565b61258d8161254e565b840191505092915050565b6125a18161226d565b82525050565b6000819050919050565b6125ba816125a7565b82525050565b60008115159050919050565b6125d5816125c0565b82525050565b600081519050919050565b600082825260208201905092915050565b6000612602826125db565b61260c81856125e6565b935061261c81856020860161251b565b6126258161254e565b840191505092915050565b600061016082019050818103600083015261264b818e61255f565b905061265a602083018d612321565b612667604083018c612598565b612674606083018b612598565b612681608083018a612321565b81810360a0830152612693818961255f565b90506126a260c08301886125b1565b6126af60e08301876125cc565b6126bd6101008301866125cc565b6126cb6101208301856125cc565b8181036101408301526126de81846125f7565b90509c9b505050505050505050505050565b60006020820190506127056000830184612598565b92915050565b600080fd5b600080fd5b600080fd5b60008083601f8401126127305761272f61270b565b5b8235905067ffffffffffffffff81111561274d5761274c612710565b5b60208301915083600182028301111561276957612768612715565b5b9250929050565b612779816125a7565b811461278457600080fd5b50565b60008135905061279681612770565b92915050565b600080600080600080608087890312156127b9576127b8612243565b5b600087013567ffffffffffffffff8111156127d7576127d6612248565b5b6127e389828a0161271a565b965096505060206127f689828a016122cc565b945050604087013567ffffffffffffffff81111561281757612816612248565b5b61282389828a0161271a565b9350935050606061283689828a01612787565b9150509295509295509295565b600061284e8261224d565b9050919050565b600061286082612843565b9050919050565b61287081612855565b811461287b57600080fd5b50565b60008135905061288d81612867565b92915050565b6000602082840312156128a9576128a8612243565b5b60006128b78482850161287e565b91505092915050565b60008083601f8401126128d6576128d561270b565b5b8235905067ffffffffffffffff8111156128f3576128f2612710565b5b60208301915083600182028301111561290f5761290e612715565b5b9250929050565b600080fd5b7f4e487b7100000000000000000000000000000000000000000000000000000000600052604160045260246000fd5b6129538261254e565b810181811067ffffffffffffffff821117156129725761297161291b565b5b80604052505050565b6000612985612239565b9050612991828261294a565b919050565b600067ffffffffffffffff8211156129b1576129b061291b565b5b6129ba8261254e565b9050602081019050919050565b82818337600083830152505050565b60006129e96129e484612996565b61297b565b905082815260208101848484011115612a0557612a04612916565b5b612a108482856129c7565b509392505050565b600082601f830112612a2d57612a2c61270b565b5b8135612a3d8482602086016129d6565b91505092915050565b60008060008060008060008060e0898b031215612a6657612a65612243565b5b6000612a748b828c016122cc565b985050602089013567ffffffffffffffff811115612a9557612a94612248565b5b612aa18b828c016128c0565b97509750506040612ab48b828c016122cc565b9550506060612ac58b828c01612787565b9450506080612ad68b828c016122cc565b93505060a0612ae78b828c01612296565b92505060c089013567ffffffffffffffff811115612b0857612b07612248565b5b612b148b828c01612a18565b9150509295985092959890939650565b7f4e487b7100000000000000000000000000000000000000000000000000000000600052602260045260246000fd5b60006002820490506001821680612b6b57607f821691505b602082108103612b7e57612b7d612b24565b5b50919050565b7f4e6f20737563682070726f647563740000000000000000000000000000000000600082015250565b6000612bba600f8361250a565b9150612bc582612b84565b602082019050919050565b60006020820190508181036000830152612be981612bad565b9050919050565b7f50726f64756374206e6f74207061696400000000000000000000000000000000600082015250565b6000612c2660108361250a565b9150612c3182612bf0565b602082019050919050565b60006020820190508181036000830152612c5581612c19565b9050919050565b7f50726f6475637420616c72656164792064656c69766572656400000000000000600082015250565b6000612c9260198361250a565b9150612c9d82612c5c565b602082019050919050565b60006020820190508181036000830152612cc181612c85565b9050919050565b612cd1816125c0565b8114612cdc57600080fd5b50565b600081519050612cee81612cc8565b92915050565b600060208284031215612d0a57612d09612243565b5b6000612d1884828501612cdf565b91505092915050565b7f4e6f7420616e20617574686f72697a656420636f757269657200000000000000600082015250565b6000612d5760198361250a565b9150612d6282612d21565b602082019050919050565b60006020820190508181036000830152612d8681612d4a565b9050919050565b7f4e487b7100000000000000000000000000000000000000000000000000000000600052601160045260246000fd5b6000612dc7826122ab565b9150612dd2836122ab565b925082821015612de557612de4612d8d565b5b828203905092915050565b6000612dfb826122ab565b9150612e06836122ab565b9250827fffffffffffffffffffffffffffffffffffffffffffffffffffffffffffffffff03821115612e3b57612e3a612d8d565b5b828201905092915050565b600081519050612e558161227f565b92915050565b600060208284031215612e7157612e70612243565b5b6000612e7f84828501612e46565b91505092915050565b6000604082019050612e9d6000830185612598565b612eaa6020830184612321565b9392505050565b6000606082019050612ec66000830186612321565b612ed36020830185612598565b612ee06040830184612598565b949350505050565b7f446f65736e27742068617665206f776e6572206d61726b6574706c6163650000600082015250565b6000612f1e601e8361250a565b9150612f2982612ee8565b602082019050919050565b60006020820190508181036000830152612f4d81612f11565b9050919050565b7f4e6f20746f6b656e207370656369666965640000000000000000000000000000600082015250565b6000612f8a60128361250a565b9150612f9582612f54565b602082019050919050565b60006020820190508181036000830152612fb981612f7d565b9050919050565b7f4e616d652073686f756c646e277420626520656d707479000000000000000000600082015250565b6000612ff660178361250a565b915061300182612fc0565b602082019050919050565b6000602082019050818103600083015261302581612fe9565b9050919050565b7f50726963652073686f756c64206265203e3d3230303030303000000000000000600082015250565b600061306260198361250a565b915061306d8261302c565b602082019050919050565b6000602082019050818103600083015261309181613055565b9050919050565b60006130a4838561250a565b93506130b18385846129c7565b6130ba8361254e565b840190509392505050565b600060808201905081810360008301526130e0818789613098565b90506130ef6020830186612321565b6130fc6040830185612598565b6131096060830184612321565b9695505050505050565b7f416464726573732073686f756c646e2774206265203000000000000000000000600082015250565b600061314960168361250a565b915061315482613113565b602082019050919050565b600060208201905081810360008301526131788161313c565b9050919050565b7f50726f6475637420616c726561647920626f7567687400000000000000000000600082015250565b60006131b560168361250a565b91506131c08261317f565b602082019050919050565b600060208201905081810360008301526131e4816131a8565b9050919050565b7f4e6f7420656e6f75676820657468000000000000000000000000000000000000600082015250565b6000613221600e8361250a565b915061322c826131eb565b602082019050919050565b6000602082019050818103600083015261325081613214565b9050919050565b7f4e6f2064656c697665727920696e737472756374696f6e730000000000000000600082015250565b600061328d60188361250a565b915061329882613257565b602082019050919050565b600060208201905081810360008301526132bc81613280565b9050919050565b60008160601b9050919050565b60006132db826132c3565b9050919050565b60006132ed826132d0565b9050919050565b6133056133008261226d565b6132e2565b82525050565b6000819050919050565b613326613321826122ab565b61330b565b82525050565b600061333882856132f4565b6014820191506133488284613315565b6020820191508190509392505050565b7f57726f6e67206e6f6e6365000000000000000000000000000000000000000000600082015250565b600061338e600b8361250a565b915061339982613358565b602082019050919050565b600060208201905081810360008301526133bd81613381565b9050919050565b7f4e6f206d61726b6574706c616365000000000000000000000000000000000000600082015250565b60006133fa600e8361250a565b9150613405826133c4565b602082019050919050565b60006020820190508181036000830152613429816133ed565b9050919050565b600061343b826122ab565b9150613446836122ab565b9250817fffffffffffffffffffffffffffffffffffffffffffffffffffffffffffffffff048311821515161561347f5761347e612d8d565b5b828202905092915050565b7f4e487b7100000000000000000000000000000000000000000000000000000000600052601260045260246000fd5b60006134c4826122ab565b91506134cf836122ab565b9250826134df576134de61348a565b5b828204905092915050565b600060c0820190506134ff6000830189612321565b61350c60208301886125b1565b6135196040830187612321565b6135266060830186612598565b6135336080830185612598565b81810360a083015261354581846125f7565b9050979650505050505050565b60006040820190506135676000830185612321565b6135746020830184612598565b9392505050565b7f4f776e61626c653a206e6577206f776e657220697320746865207a65726f206160008201527f6464726573730000000000000000000000000000000000000000000000000000602082015250565b60006135d760268361250a565b91506135e28261357b565b604082019050919050565b60006020820190508181036000830152613606816135ca565b9050919050565b7f4f776e61626c653a2063616c6c6572206973206e6f7420746865206f776e6572600082015250565b600061364360208361250a565b915061364e8261360d565b602082019050919050565b6000602082019050818103600083015261367281613636565b905091905056fea26469706673582212205792b224e4d2a2e57bb95ef87be6a0dba611094a3f57d908711903c530f0d4cc64736f6c634300080d0033",
  "linkReferences": {},
  "deployedLinkReferences": {}
}