{
  "_format": "hh-sol-artifact-1",
  "contractName": "AgoraToken",
  "sourceName": "contracts/AgoraToken.sol",
  "abi": [
    {
      "inputs": [],
      "stateMutability": "nonpayable",
      "type": "constructor"
    },
    {
      "anonymous": false,
      "inputs": [
        {
          "indexed": true,
          "internalType": "address",
          "name": "owner",
          "type": "address"
        },
        {
          "indexed": true,
          "internalType": "address",
          "name": "spender",
          "type": "address"
        },
        {
          "indexed": false,
          "internalType": "uint256",
          "name": "value",
          "type": "uint256"
        }
      ],
      "name": "Approval",
      "type": "event"
    },
    {
      "anonymous": false,
      "inputs": [
        {
          "indexed": true,
          "internalType": "address",
          "name": "from",
          "type": "address"
        },
        {
          "indexed": true,
          "internalType": "address",
          "name": "to",
          "type": "address"
        },
        {
          "indexed": false,
          "internalType": "uint256",
          "name": "value",
          "type": "uint256"
        }
      ],
      "name": "Transfer",
      "type": "event"
    },
    {
      "inputs": [
        {
          "internalType": "address",
          "name": "owner",
          "type": "address"
        },
        {
          "internalType": "address",
          "name": "spender",
          "type": "address"
        }
      ],
      "name": "allowance",
      "outputs": [
        {
          "internalType": "uint256",
          "name": "",
          "type": "uint256"
        }
      ],
      "stateMutability": "view",
      "type": "function"
    },
    {
      "inputs": [
        {
          "internalType": "address",
          "name": "spender",
          "type": "address"
        },
        {
          "internalType": "uint256",
          "name": "amount",
          "type": "uint256"
        }
      ],
      "name": "approve",
      "outputs": [
        {
          "internalType": "bool",
          "name": "",
          "type": "bool"
        }
      ],
      "stateMutability": "nonpayable",
      "type": "function"
    },
    {
      "inputs": [
        {
          "internalType": "address",
          "name": "account",
          "type": "address"
        }
      ],
      "name": "balanceOf",
      "outputs": [
        {
          "internalType": "uint256",
          "name": "",
          "type": "uint256"
        }
      ],
      "stateMutability": "view",
      "type": "function"
    },
    {
      "inputs": [],
      "name": "buyTokens",
      "outputs": [],
      "stateMutability": "payable",
      "type": "function"
    },
    {
      "inputs": [],
      "name": "decimals",
      "outputs": [
        {
          "internalType": "uint8",
          "name": "",
          "type": "uint8"
        }
      ],
      "stateMutability": "view",
      "type": "function"
    },
    {
      "inputs": [
        {
          "internalType": "address",
          "name": "spender",
          "type": "address"
        },
        {
          "internalType": "uint256",
          "name": "subtractedValue",
          "type": "uint256"
        }
      ],
      "name": "decreaseAllowance",
      "outputs": [
        {
          "internalType": "bool",
          "name": "",
          "type": "bool"
        }
      ],
      "stateMutability": "nonpayable",
      "type": "function"
    },
    {
      "inputs": [
        {
          "internalType": "address",
          "name": "spender",
          "type": "address"
        },
        {
          "internalType": "uint256",
          "name": "addedValue",
          "type": "uint256"
        }
      ],
      "name": "increaseAllowance",
      "outputs": [
        {
          "internalType": "bool",
          "name": "",
          "type": "bool"
        }
      ],
      "stateMutability": "nonpayable",
      "type": "function"
    },
    {
      "inputs": [],
      "name": "name",
      "outputs": [
        {
          "internalType": "string",
          "name": "",
          "type": "string"
        }
      ],
      "stateMutability": "view",
      "type": "function"
    },
    {
      "inputs": [
        {
          "internalType": "uint256",
          "name": "amount",
          "type": "uint256"
        }
      ],
      "name": "sellTokens",
      "outputs": [],
      "stateMutability": "nonpayable",
      "type": "function"
    },
    {
      "inputs": [],
      "name": "symbol",
      "outputs": [
        {
          "internalType": "string",
          "name": "",
          "type": "string"
        }
      ],
      "stateMutability": "view",
      "type": "function"
    },
    {
      "inputs": [],
      "name": "totalSupply",
      "outputs": [
        {
          "internalType": "uint256",
          "name": "",
          "type": "uint256"
        }
      ],
      "stateMutability": "view",
      "type": "function"
    },
    {
      "inputs": [
        {
          "internalType": "uint256",
          "name": "expiration",
          "type": "uint256"
        },
        {
          "internalType": "bytes32",
          "name": "nonce",
          "type": "bytes32"
        },
        {
          "internalType": "uint256",
          "name": "amount",
          "type": "uint256"
        },
        {
          "internalType": "address",
          "name": "from",
          "type": "address"
        },
        {
          "internalType": "address",
          "name": "to",
          "type": "address"
        },
        {
          "internalType": "bytes",
          "name": "signature",
          "type": "bytes"
        }
      ],
      "name": "transactiWithSignature",
      "outputs": [],
      "stateMutability": "nonpayable",
      "type": "function"
    },
    {
      "inputs": [
        {
          "internalType": "address",
          "name": "to",
          "type": "address"
        },
        {
          "internalType": "uint256",
          "name": "amount",
          "type": "uint256"
        }
      ],
      "name": "transfer",
      "outputs": [
        {
          "internalType": "bool",
          "name": "",
          "type": "bool"
        }
      ],
      "stateMutability": "nonpayable",
      "type": "function"
    },
    {
      "inputs": [
        {
          "internalType": "address",
          "name": "from",
          "type": "address"
        },
        {
          "internalType": "address",
          "name": "to",
          "type": "address"
        },
        {
          "internalType": "uint256",
          "name": "amount",
          "type": "uint256"
        }
      ],
      "name": "transferFrom",
      "outputs": [
        {
          "internalType": "bool",
          "name": "",
          "type": "bool"
        }
      ],
      "stateMutability": "nonpayable",
      "type": "function"
    }
  ],
  "bytecode": "0x60806040523480156200001157600080fd5b506040518060400160405280600a81526020017f41676f7261546f6b656e000000000000000000000000000000000000000000008152506040518060400160405280600381526020017f4147520000000000000000000000000000000000000000000000000000000000815250816003908051906020019062000096929190620000b8565b508060049080519060200190620000af929190620000b8565b505050620001cc565b828054620000c69062000197565b90600052602060002090601f016020900481019282620000ea576000855562000136565b82601f106200010557805160ff191683800117855562000136565b8280016001018555821562000136579182015b828111156200013557825182559160200191906001019062000118565b5b50905062000145919062000149565b5090565b5b80821115620001645760008160009055506001016200014a565b5090565b7f4e487b7100000000000000000000000000000000000000000000000000000000600052602260045260246000fd5b60006002820490506001821680620001b057607f821691505b602082108103620001c657620001c562000168565b5b50919050565b61278280620001dc6000396000f3fe6080604052600436106100dd5760003560e01c806370a082311161007f578063a457c2d711610059578063a457c2d7146102d4578063a9059cbb14610311578063d0febe4c1461034e578063dd62ed3e14610358576100dd565b806370a082311461024357806395d89b41146102805780639f4fae12146102ab576100dd565b806323b872dd116100bb57806323b872dd14610175578063313ce567146101b257806339509351146101dd5780636c11bcd31461021a576100dd565b806306fdde03146100e2578063095ea7b31461010d57806318160ddd1461014a575b600080fd5b3480156100ee57600080fd5b506100f7610395565b6040516101049190611555565b60405180910390f35b34801561011957600080fd5b50610134600480360381019061012f919061161f565b610427565b604051610141919061167a565b60405180910390f35b34801561015657600080fd5b5061015f61044a565b60405161016c91906116a4565b60405180910390f35b34801561018157600080fd5b5061019c600480360381019061019791906116bf565b610454565b6040516101a9919061167a565b60405180910390f35b3480156101be57600080fd5b506101c7610483565b6040516101d4919061172e565b60405180910390f35b3480156101e957600080fd5b5061020460048036038101906101ff919061161f565b61048c565b604051610211919061167a565b60405180910390f35b34801561022657600080fd5b50610241600480360381019061023c9190611749565b6104c3565b005b34801561024f57600080fd5b5061026a60048036038101906102659190611776565b610616565b60405161027791906116a4565b60405180910390f35b34801561028c57600080fd5b5061029561065e565b6040516102a29190611555565b60405180910390f35b3480156102b757600080fd5b506102d260048036038101906102cd919061190e565b6106f0565b005b3480156102e057600080fd5b506102fb60048036038101906102f6919061161f565b6109f5565b604051610308919061167a565b60405180910390f35b34801561031d57600080fd5b506103386004803603810190610333919061161f565b610a6c565b604051610345919061167a565b60405180910390f35b610356610a8f565b005b34801561036457600080fd5b5061037f600480360381019061037a91906119b7565b610ade565b60405161038c91906116a4565b60405180910390f35b6060600380546103a490611a26565b80601f01602080910402602001604051908101604052809291908181526020018280546103d090611a26565b801561041d5780601f106103f25761010080835404028352916020019161041d565b820191906000526020600020905b81548152906001019060200180831161040057829003601f168201915b5050505050905090565b600080610432610b65565b905061043f818585610b6d565b600191505092915050565b6000600254905090565b60008061045f610b65565b905061046c858285610d36565b610477858585610dc2565b60019150509392505050565b60006012905090565b600080610497610b65565b90506104b88185856104a98589610ade565b6104b39190611a86565b610b6d565b600191505092915050565b60008111610506576040517f08c379a00000000000000000000000000000000000000000000000000000000081526004016104fd90611b28565b60405180910390fd5b803073ffffffffffffffffffffffffffffffffffffffff166370a08231336040518263ffffffff1660e01b81526004016105409190611b57565b602060405180830381865afa15801561055d573d6000803e3d6000fd5b505050506040513d601f19601f820116820180604052508101906105819190611b87565b10156105c2576040517f08c379a00000000000000000000000000000000000000000000000000000000081526004016105b990611c26565b60405180910390fd5b6105cc3382611038565b3373ffffffffffffffffffffffffffffffffffffffff166108fc829081150290604051600060405180830381858888f19350505050158015610612573d6000803e3d6000fd5b5050565b60008060008373ffffffffffffffffffffffffffffffffffffffff1673ffffffffffffffffffffffffffffffffffffffff168152602001908152602001600020549050919050565b60606004805461066d90611a26565b80601f016020809104026020016040519081016040528092919081815260200182805461069990611a26565b80156106e65780601f106106bb576101008083540402835291602001916106e6565b820191906000526020600020905b8154815290600101906020018083116106c957829003601f168201915b5050505050905090565b428611610732576040517f08c379a000000000000000000000000000000000000000000000000000000000815260040161072990611c92565b60405180910390fd5b600015156005600087815260200190815260200160002060009054906101000a900460ff16151514610799576040517f08c379a000000000000000000000000000000000000000000000000000000000815260040161079090611cfe565b60405180910390fd5b600084116107dc576040517f08c379a00000000000000000000000000000000000000000000000000000000081526004016107d390611d6a565b60405180910390fd5b600073ffffffffffffffffffffffffffffffffffffffff168373ffffffffffffffffffffffffffffffffffffffff160361084b576040517f08c379a000000000000000000000000000000000000000000000000000000000815260040161084290611dd6565b60405180910390fd5b600073ffffffffffffffffffffffffffffffffffffffff168273ffffffffffffffffffffffffffffffffffffffff16036108ba576040517f08c379a00000000000000000000000000000000000000000000000000000000081526004016108b190611e42565b60405180910390fd5b6108c383610616565b841115610905576040517f08c379a00000000000000000000000000000000000000000000000000000000081526004016108fc90611eae565b60405180910390fd5b60008686868686604051602001610920959493929190611f58565b60405160208183030381529060405280519060200120905060006109448284611205565b90508473ffffffffffffffffffffffffffffffffffffffff168173ffffffffffffffffffffffffffffffffffffffff16146109b4576040517f08c379a00000000000000000000000000000000000000000000000000000000081526004016109ab90612029565b60405180910390fd5b60016005600089815260200190815260200160002060006101000a81548160ff0219169083151502179055506109eb858588610dc2565b5050505050505050565b600080610a00610b65565b90506000610a0e8286610ade565b905083811015610a53576040517f08c379a0000000000000000000000000000000000000000000000000000000008152600401610a4a906120bb565b60405180910390fd5b610a608286868403610b6d565b60019250505092915050565b600080610a77610b65565b9050610a84818585610dc2565b600191505092915050565b60003411610ad2576040517f08c379a0000000000000000000000000000000000000000000000000000000008152600401610ac990612127565b60405180910390fd5b610adc3334611288565b565b6000600160008473ffffffffffffffffffffffffffffffffffffffff1673ffffffffffffffffffffffffffffffffffffffff16815260200190815260200160002060008373ffffffffffffffffffffffffffffffffffffffff1673ffffffffffffffffffffffffffffffffffffffff16815260200190815260200160002054905092915050565b600033905090565b600073ffffffffffffffffffffffffffffffffffffffff168373ffffffffffffffffffffffffffffffffffffffff1603610bdc576040517f08c379a0000000000000000000000000000000000000000000000000000000008152600401610bd3906121b9565b60405180910390fd5b600073ffffffffffffffffffffffffffffffffffffffff168273ffffffffffffffffffffffffffffffffffffffff1603610c4b576040517f08c379a0000000000000000000000000000000000000000000000000000000008152600401610c429061224b565b60405180910390fd5b80600160008573ffffffffffffffffffffffffffffffffffffffff1673ffffffffffffffffffffffffffffffffffffffff16815260200190815260200160002060008473ffffffffffffffffffffffffffffffffffffffff1673ffffffffffffffffffffffffffffffffffffffff168152602001908152602001600020819055508173ffffffffffffffffffffffffffffffffffffffff168373ffffffffffffffffffffffffffffffffffffffff167f8c5be1e5ebec7d5bd14f71427d1e84f3dd0314c0f7b2291e5b200ac8c7c3b92583604051610d2991906116a4565b60405180910390a3505050565b6000610d428484610ade565b90507fffffffffffffffffffffffffffffffffffffffffffffffffffffffffffffffff8114610dbc5781811015610dae576040517f08c379a0000000000000000000000000000000000000000000000000000000008152600401610da5906122b7565b60405180910390fd5b610dbb8484848403610b6d565b5b50505050565b600073ffffffffffffffffffffffffffffffffffffffff168373ffffffffffffffffffffffffffffffffffffffff1603610e31576040517f08c379a0000000000000000000000000000000000000000000000000000000008152600401610e2890612349565b60405180910390fd5b600073ffffffffffffffffffffffffffffffffffffffff168273ffffffffffffffffffffffffffffffffffffffff1603610ea0576040517f08c379a0000000000000000000000000000000000000000000000000000000008152600401610e97906123db565b60405180910390fd5b610eab8383836113de565b60008060008573ffffffffffffffffffffffffffffffffffffffff1673ffffffffffffffffffffffffffffffffffffffff16815260200190815260200160002054905081811015610f31576040517f08c379a0000000000000000000000000000000000000000000000000000000008152600401610f289061246d565b60405180910390fd5b8181036000808673ffffffffffffffffffffffffffffffffffffffff1673ffffffffffffffffffffffffffffffffffffffff16815260200190815260200160002081905550816000808573ffffffffffffffffffffffffffffffffffffffff1673ffffffffffffffffffffffffffffffffffffffff168152602001908152602001600020600082825401925050819055508273ffffffffffffffffffffffffffffffffffffffff168473ffffffffffffffffffffffffffffffffffffffff167fddf252ad1be2c89b69c2b068fc378daa952ba7f163c4a11628f55a4df523b3ef8460405161101f91906116a4565b60405180910390a36110328484846113e3565b50505050565b600073ffffffffffffffffffffffffffffffffffffffff168273ffffffffffffffffffffffffffffffffffffffff16036110a7576040517f08c379a000000000000000000000000000000000000000000000000000000000815260040161109e906124ff565b60405180910390fd5b6110b3826000836113de565b60008060008473ffffffffffffffffffffffffffffffffffffffff1673ffffffffffffffffffffffffffffffffffffffff16815260200190815260200160002054905081811015611139576040517f08c379a000000000000000000000000000000000000000000000000000000000815260040161113090612591565b60405180910390fd5b8181036000808573ffffffffffffffffffffffffffffffffffffffff1673ffffffffffffffffffffffffffffffffffffffff1681526020019081526020016000208190555081600260008282540392505081905550600073ffffffffffffffffffffffffffffffffffffffff168373ffffffffffffffffffffffffffffffffffffffff167fddf252ad1be2c89b69c2b068fc378daa952ba7f163c4a11628f55a4df523b3ef846040516111ec91906116a4565b60405180910390a3611200836000846113e3565b505050565b600080611211846113e8565b9050600080600061122186611454565b92509250925060006001858585856040516000815260200160405260405161124c94939291906125c0565b6020604051602081039080840390855afa15801561126e573d6000803e3d6000fd5b505050602060405103519050809550505050505092915050565b600073ffffffffffffffffffffffffffffffffffffffff168273ffffffffffffffffffffffffffffffffffffffff16036112f7576040517f08c379a00000000000000000000000000000000000000000000000000000000081526004016112ee90612651565b60405180910390fd5b611303600083836113de565b80600260008282546113159190611a86565b92505081905550806000808473ffffffffffffffffffffffffffffffffffffffff1673ffffffffffffffffffffffffffffffffffffffff168152602001908152602001600020600082825401925050819055508173ffffffffffffffffffffffffffffffffffffffff16600073ffffffffffffffffffffffffffffffffffffffff167fddf252ad1be2c89b69c2b068fc378daa952ba7f163c4a11628f55a4df523b3ef836040516113c691906116a4565b60405180910390a36113da600083836113e3565b5050565b505050565b505050565b6000806040518060400160405280601c81526020017f19457468657265756d205369676e6564204d6573736167653a0a333200000000815250905080836040516020016114369291906126b8565b60405160208183030381529060405280519060200120915050919050565b6000806000604184511461149d576040517f08c379a00000000000000000000000000000000000000000000000000000000081526004016114949061272c565b60405180910390fd5b6020840151915060408401519050606084015160001a92509193909250565b600081519050919050565b600082825260208201905092915050565b60005b838110156114f65780820151818401526020810190506114db565b83811115611505576000848401525b50505050565b6000601f19601f8301169050919050565b6000611527826114bc565b61153181856114c7565b93506115418185602086016114d8565b61154a8161150b565b840191505092915050565b6000602082019050818103600083015261156f818461151c565b905092915050565b6000604051905090565b600080fd5b600080fd5b600073ffffffffffffffffffffffffffffffffffffffff82169050919050565b60006115b68261158b565b9050919050565b6115c6816115ab565b81146115d157600080fd5b50565b6000813590506115e3816115bd565b92915050565b6000819050919050565b6115fc816115e9565b811461160757600080fd5b50565b600081359050611619816115f3565b92915050565b6000806040838503121561163657611635611581565b5b6000611644858286016115d4565b92505060206116558582860161160a565b9150509250929050565b60008115159050919050565b6116748161165f565b82525050565b600060208201905061168f600083018461166b565b92915050565b61169e816115e9565b82525050565b60006020820190506116b96000830184611695565b92915050565b6000806000606084860312156116d8576116d7611581565b5b60006116e6868287016115d4565b93505060206116f7868287016115d4565b92505060406117088682870161160a565b9150509250925092565b600060ff82169050919050565b61172881611712565b82525050565b6000602082019050611743600083018461171f565b92915050565b60006020828403121561175f5761175e611581565b5b600061176d8482850161160a565b91505092915050565b60006020828403121561178c5761178b611581565b5b600061179a848285016115d4565b91505092915050565b6000819050919050565b6117b6816117a3565b81146117c157600080fd5b50565b6000813590506117d3816117ad565b92915050565b600080fd5b600080fd5b7f4e487b7100000000000000000000000000000000000000000000000000000000600052604160045260246000fd5b61181b8261150b565b810181811067ffffffffffffffff8211171561183a576118396117e3565b5b80604052505050565b600061184d611577565b90506118598282611812565b919050565b600067ffffffffffffffff821115611879576118786117e3565b5b6118828261150b565b9050602081019050919050565b82818337600083830152505050565b60006118b16118ac8461185e565b611843565b9050828152602081018484840111156118cd576118cc6117de565b5b6118d884828561188f565b509392505050565b600082601f8301126118f5576118f46117d9565b5b813561190584826020860161189e565b91505092915050565b60008060008060008060c0878903121561192b5761192a611581565b5b600061193989828a0161160a565b965050602061194a89828a016117c4565b955050604061195b89828a0161160a565b945050606061196c89828a016115d4565b935050608061197d89828a016115d4565b92505060a087013567ffffffffffffffff81111561199e5761199d611586565b5b6119aa89828a016118e0565b9150509295509295509295565b600080604083850312156119ce576119cd611581565b5b60006119dc858286016115d4565b92505060206119ed858286016115d4565b9150509250929050565b7f4e487b7100000000000000000000000000000000000000000000000000000000600052602260045260246000fd5b60006002820490506001821680611a3e57607f821691505b602082108103611a5157611a506119f7565b5b50919050565b7f4e487b7100000000000000000000000000000000000000000000000000000000600052601160045260246000fd5b6000611a91826115e9565b9150611a9c836115e9565b9250827fffffffffffffffffffffffffffffffffffffffffffffffffffffffffffffffff03821115611ad157611ad0611a57565b5b828201905092915050565b7f416d6f756e74206d757374206265203e30000000000000000000000000000000600082015250565b6000611b126011836114c7565b9150611b1d82611adc565b602082019050919050565b60006020820190508181036000830152611b4181611b05565b9050919050565b611b51816115ab565b82525050565b6000602082019050611b6c6000830184611b48565b92915050565b600081519050611b81816115f3565b92915050565b600060208284031215611b9d57611b9c611581565b5b6000611bab84828501611b72565b91505092915050565b7f596f75722062616c616e6365206973203c20616d6f756e7420796f752077616e60008201527f7420746f2073656c6c0000000000000000000000000000000000000000000000602082015250565b6000611c106029836114c7565b9150611c1b82611bb4565b604082019050919050565b60006020820190508181036000830152611c3f81611c03565b9050919050565b7f5369676e61747572652065787069726564000000000000000000000000000000600082015250565b6000611c7c6011836114c7565b9150611c8782611c46565b602082019050919050565b60006020820190508181036000830152611cab81611c6f565b9050919050565b7f4e6f6e6365207573656400000000000000000000000000000000000000000000600082015250565b6000611ce8600a836114c7565b9150611cf382611cb2565b602082019050919050565b60006020820190508181036000830152611d1781611cdb565b9050919050565b7f416d6f756e742073686f756c64206265203e3000000000000000000000000000600082015250565b6000611d546013836114c7565b9150611d5f82611d1e565b602082019050919050565b60006020820190508181036000830152611d8381611d47565b9050919050565b7f46726f6d2063616e277420626520616464726573732830290000000000000000600082015250565b6000611dc06018836114c7565b9150611dcb82611d8a565b602082019050919050565b60006020820190508181036000830152611def81611db3565b9050919050565b7f546f2063616e2774206265206164647265737328302900000000000000000000600082015250565b6000611e2c6016836114c7565b9150611e3782611df6565b602082019050919050565b60006020820190508181036000830152611e5b81611e1f565b9050919050565b7f4e6f7420656e6f75676820746f6b656e73000000000000000000000000000000600082015250565b6000611e986011836114c7565b9150611ea382611e62565b602082019050919050565b60006020820190508181036000830152611ec781611e8b565b9050919050565b6000819050919050565b611ee9611ee4826115e9565b611ece565b82525050565b6000819050919050565b611f0a611f05826117a3565b611eef565b82525050565b60008160601b9050919050565b6000611f2882611f10565b9050919050565b6000611f3a82611f1d565b9050919050565b611f52611f4d826115ab565b611f2f565b82525050565b6000611f648288611ed8565b602082019150611f748287611ef9565b602082019150611f848286611ed8565b602082019150611f948285611f41565b601482019150611fa48284611f41565b6014820191508190509695505050505050565b7f57726f6e6720617267756d656e747320287265636f766572656441646472657360008201527f73213d66726f6d29000000000000000000000000000000000000000000000000602082015250565b60006120136028836114c7565b915061201e82611fb7565b604082019050919050565b6000602082019050818103600083015261204281612006565b9050919050565b7f45524332303a2064656372656173656420616c6c6f77616e63652062656c6f7760008201527f207a65726f000000000000000000000000000000000000000000000000000000602082015250565b60006120a56025836114c7565b91506120b082612049565b604082019050919050565b600060208201905081810360008301526120d481612098565b9050919050565b7f53686f756c642073656e6420736f6d6520657468000000000000000000000000600082015250565b60006121116014836114c7565b915061211c826120db565b602082019050919050565b6000602082019050818103600083015261214081612104565b9050919050565b7f45524332303a20617070726f76652066726f6d20746865207a65726f2061646460008201527f7265737300000000000000000000000000000000000000000000000000000000602082015250565b60006121a36024836114c7565b91506121ae82612147565b604082019050919050565b600060208201905081810360008301526121d281612196565b9050919050565b7f45524332303a20617070726f766520746f20746865207a65726f20616464726560008201527f7373000000000000000000000000000000000000000000000000000000000000602082015250565b60006122356022836114c7565b9150612240826121d9565b604082019050919050565b6000602082019050818103600083015261226481612228565b9050919050565b7f45524332303a20696e73756666696369656e7420616c6c6f77616e6365000000600082015250565b60006122a1601d836114c7565b91506122ac8261226b565b602082019050919050565b600060208201905081810360008301526122d081612294565b9050919050565b7f45524332303a207472616e736665722066726f6d20746865207a65726f20616460008201527f6472657373000000000000000000000000000000000000000000000000000000602082015250565b60006123336025836114c7565b915061233e826122d7565b604082019050919050565b6000602082019050818103600083015261236281612326565b9050919050565b7f45524332303a207472616e7366657220746f20746865207a65726f206164647260008201527f6573730000000000000000000000000000000000000000000000000000000000602082015250565b60006123c56023836114c7565b91506123d082612369565b604082019050919050565b600060208201905081810360008301526123f4816123b8565b9050919050565b7f45524332303a207472616e7366657220616d6f756e742065786365656473206260008201527f616c616e63650000000000000000000000000000000000000000000000000000602082015250565b60006124576026836114c7565b9150612462826123fb565b604082019050919050565b600060208201905081810360008301526124868161244a565b9050919050565b7f45524332303a206275726e2066726f6d20746865207a65726f2061646472657360008201527f7300000000000000000000000000000000000000000000000000000000000000602082015250565b60006124e96021836114c7565b91506124f48261248d565b604082019050919050565b60006020820190508181036000830152612518816124dc565b9050919050565b7f45524332303a206275726e20616d6f756e7420657863656564732062616c616e60008201527f6365000000000000000000000000000000000000000000000000000000000000602082015250565b600061257b6022836114c7565b91506125868261251f565b604082019050919050565b600060208201905081810360008301526125aa8161256e565b9050919050565b6125ba816117a3565b82525050565b60006080820190506125d560008301876125b1565b6125e2602083018661171f565b6125ef60408301856125b1565b6125fc60608301846125b1565b95945050505050565b7f45524332303a206d696e7420746f20746865207a65726f206164647265737300600082015250565b600061263b601f836114c7565b915061264682612605565b602082019050919050565b6000602082019050818103600083015261266a8161262e565b9050919050565b600081519050919050565b600081905092915050565b600061269282612671565b61269c818561267c565b93506126ac8185602086016114d8565b80840191505092915050565b60006126c48285612687565b91506126d08284611ef9565b6020820191508190509392505050565b7f5369676e61747572652068617320626164206c656e6774680000000000000000600082015250565b60006127166018836114c7565b9150612721826126e0565b602082019050919050565b6000602082019050818103600083015261274581612709565b905091905056fea2646970667358221220b16bc0a3fe1ee09d061d4e9934ebbca51a47dc0df74c1fb21cccf7749c70039e64736f6c634300080d0033",
  "linkReferences": {},
  "deployedLinkReferences": {}
}