{
  "_format": "hh-sol-artifact-1",
  "contractName": "Marketplace",
  "sourceName": "contracts/Marketplace.sol",
  "abi": [
    {
      "anonymous": false,
      "inputs": [
        {
          "indexed": true,
          "internalType": "address",
          "name": "previousOwner",
          "type": "address"
        },
        {
          "indexed": true,
          "internalType": "address",
          "name": "newOwner",
          "type": "address"
        }
      ],
      "name": "OwnershipTransferred",
      "type": "event"
    },
    {
      "inputs": [
        {
          "internalType": "address",
          "name": "contractAddress",
          "type": "address"
        },
        {
          "internalType": "string",
          "name": "name",
          "type": "string"
        }
      ],
      "name": "addContract",
      "outputs": [],
      "stateMutability": "nonpayable",
      "type": "function"
    },
    {
      "inputs": [
        {
          "internalType": "address",
          "name": "courier",
          "type": "address"
        }
      ],
      "name": "addCourier",
      "outputs": [],
      "stateMutability": "nonpayable",
      "type": "function"
    },
    {
      "inputs": [
        {
          "internalType": "address",
          "name": "",
          "type": "address"
        }
      ],
      "name": "couriers",
      "outputs": [
        {
          "internalType": "bool",
          "name": "",
          "type": "bool"
        }
      ],
      "stateMutability": "view",
      "type": "function"
    },
    {
      "inputs": [],
      "name": "getMarketAddresses",
      "outputs": [
        {
          "internalType": "address[]",
          "name": "",
          "type": "address[]"
        }
      ],
      "stateMutability": "view",
      "type": "function"
    },
    {
      "inputs": [
        {
          "internalType": "uint256",
          "name": "",
          "type": "uint256"
        }
      ],
      "name": "marketAddresses",
      "outputs": [
        {
          "internalType": "address",
          "name": "",
          "type": "address"
        }
      ],
      "stateMutability": "view",
      "type": "function"
    },
    {
      "inputs": [],
      "name": "marketCount",
      "outputs": [
        {
          "internalType": "uint256",
          "name": "",
          "type": "uint256"
        }
      ],
      "stateMutability": "view",
      "type": "function"
    },
    {
      "inputs": [
        {
          "internalType": "address",
          "name": "",
          "type": "address"
        }
      ],
      "name": "markets",
      "outputs": [
        {
          "internalType": "address",
          "name": "contractAddress",
          "type": "address"
        },
        {
          "internalType": "address",
          "name": "addedBy",
          "type": "address"
        },
        {
          "internalType": "string",
          "name": "name",
          "type": "string"
        },
        {
          "internalType": "uint256",
          "name": "addDate",
          "type": "uint256"
        }
      ],
      "stateMutability": "view",
      "type": "function"
    },
    {
      "inputs": [],
      "name": "myToken",
      "outputs": [
        {
          "internalType": "address",
          "name": "",
          "type": "address"
        }
      ],
      "stateMutability": "view",
      "type": "function"
    },
    {
      "inputs": [],
      "name": "owner",
      "outputs": [
        {
          "internalType": "address",
          "name": "",
          "type": "address"
        }
      ],
      "stateMutability": "view",
      "type": "function"
    },
    {
      "inputs": [
        {
          "internalType": "address",
          "name": "courier",
          "type": "address"
        }
      ],
      "name": "removeCourier",
      "outputs": [],
      "stateMutability": "nonpayable",
      "type": "function"
    },
    {
      "inputs": [],
      "name": "renounceOwnership",
      "outputs": [],
      "stateMutability": "nonpayable",
      "type": "function"
    },
    {
      "inputs": [
        {
          "internalType": "address",
          "name": "_token",
          "type": "address"
        }
      ],
      "name": "setToken",
      "outputs": [],
      "stateMutability": "nonpayable",
      "type": "function"
    },
    {
      "inputs": [
        {
          "internalType": "address",
          "name": "newOwner",
          "type": "address"
        }
      ],
      "name": "transferOwnership",
      "outputs": [],
      "stateMutability": "nonpayable",
      "type": "function"
    },
    {
      "stateMutability": "payable",
      "type": "receive"
    }
  ],
  "bytecode": "0x608060405234801561001057600080fd5b5061002d61002261003260201b60201c565b61003a60201b60201c565b6100fe565b600033905090565b60008060009054906101000a900473ffffffffffffffffffffffffffffffffffffffff169050816000806101000a81548173ffffffffffffffffffffffffffffffffffffffff021916908373ffffffffffffffffffffffffffffffffffffffff1602179055508173ffffffffffffffffffffffffffffffffffffffff168173ffffffffffffffffffffffffffffffffffffffff167f8be0079c531659141344cd1fd0a4f28419497f9722a3daafe3b4186f6b6457e060405160405180910390a35050565b61155d8061010d6000396000f3fe6080604052600436106100c65760003560e01c80638da5cb5b1161007f578063b8fcf93711610059578063b8fcf93714610260578063ccd5fcb91461028b578063ec979082146102c8578063f2fde38b146102f3576100cd565b80638da5cb5b146101ca5780638e8f294b146101f557806397ce0d3114610235576100cd565b8063144fa6d7146100d25780632445d6d7146100fb578063350293a1146101245780634300e8ef146101615780636fd5483a1461018a578063715018a6146101b3576100cd565b366100cd57005b600080fd5b3480156100de57600080fd5b506100f960048036038101906100f49190610dca565b61031c565b005b34801561010757600080fd5b50610122600480360381019061011d9190610dca565b6103d7565b005b34801561013057600080fd5b5061014b60048036038101906101469190610e2d565b6104a9565b6040516101589190610e69565b60405180910390f35b34801561016d57600080fd5b5061018860048036038101906101839190610ee9565b6104e8565b005b34801561019657600080fd5b506101b160048036038101906101ac9190610dca565b610880565b005b3480156101bf57600080fd5b506101c86108e3565b005b3480156101d657600080fd5b506101df6108f7565b6040516101ec9190610e69565b60405180910390f35b34801561020157600080fd5b5061021c60048036038101906102179190610dca565b610920565b60405161022c9493929190610ff1565b60405180910390f35b34801561024157600080fd5b5061024a610a18565b60405161025791906110fb565b60405180910390f35b34801561026c57600080fd5b50610275610aa6565b6040516102829190610e69565b60405180910390f35b34801561029757600080fd5b506102b260048036038101906102ad9190610dca565b610acc565b6040516102bf9190611138565b60405180910390f35b3480156102d457600080fd5b506102dd610aec565b6040516102ea9190611153565b60405180910390f35b3480156102ff57600080fd5b5061031a60048036038101906103159190610dca565b610af2565b005b610324610b75565b600073ffffffffffffffffffffffffffffffffffffffff168173ffffffffffffffffffffffffffffffffffffffff1603610393576040517f08c379a000000000000000000000000000000000000000000000000000000000815260040161038a906111e0565b60405180910390fd5b80600160006101000a81548173ffffffffffffffffffffffffffffffffffffffff021916908373ffffffffffffffffffffffffffffffffffffffff16021790555050565b6103df610b75565b600073ffffffffffffffffffffffffffffffffffffffff168173ffffffffffffffffffffffffffffffffffffffff160361044e576040517f08c379a00000000000000000000000000000000000000000000000000000000081526004016104459061124c565b60405180910390fd5b6001600560008373ffffffffffffffffffffffffffffffffffffffff1673ffffffffffffffffffffffffffffffffffffffff16815260200190815260200160002060006101000a81548160ff02191690831515021790555050565b600281815481106104b957600080fd5b906000526020600020016000915054906101000a900473ffffffffffffffffffffffffffffffffffffffff1681565b6104f0610b75565b600073ffffffffffffffffffffffffffffffffffffffff168373ffffffffffffffffffffffffffffffffffffffff160361055f576040517f08c379a00000000000000000000000000000000000000000000000000000000081526004016105569061124c565b60405180910390fd5b600082829050036105a5576040517f08c379a000000000000000000000000000000000000000000000000000000000815260040161059c906112b8565b60405180910390fd5b600073ffffffffffffffffffffffffffffffffffffffff16600460008573ffffffffffffffffffffffffffffffffffffffff1673ffffffffffffffffffffffffffffffffffffffff16815260200190815260200160002060000160009054906101000a900473ffffffffffffffffffffffffffffffffffffffff1673ffffffffffffffffffffffffffffffffffffffff1614610676576040517f08c379a000000000000000000000000000000000000000000000000000000000815260040161066d90611324565b60405180910390fd5b60405180608001604052808473ffffffffffffffffffffffffffffffffffffffff1681526020013373ffffffffffffffffffffffffffffffffffffffff16815260200183838080601f016020809104026020016040519081016040528093929190818152602001838380828437600081840152601f19601f82011690508083019250505050505050815260200142815250600460008573ffffffffffffffffffffffffffffffffffffffff1673ffffffffffffffffffffffffffffffffffffffff16815260200190815260200160002060008201518160000160006101000a81548173ffffffffffffffffffffffffffffffffffffffff021916908373ffffffffffffffffffffffffffffffffffffffff16021790555060208201518160010160006101000a81548173ffffffffffffffffffffffffffffffffffffffff021916908373ffffffffffffffffffffffffffffffffffffffff16021790555060408201518160020190805190602001906107f0929190610cbf565b50606082015181600301559050506002839080600181540180825580915050600190039060005260206000200160009091909190916101000a81548173ffffffffffffffffffffffffffffffffffffffff021916908373ffffffffffffffffffffffffffffffffffffffff1602179055506001600360008282546108749190611373565b92505081905550505050565b610888610b75565b6000600560008373ffffffffffffffffffffffffffffffffffffffff1673ffffffffffffffffffffffffffffffffffffffff16815260200190815260200160002060006101000a81548160ff02191690831515021790555050565b6108eb610b75565b6108f56000610bf3565b565b60008060009054906101000a900473ffffffffffffffffffffffffffffffffffffffff16905090565b60046020528060005260406000206000915090508060000160009054906101000a900473ffffffffffffffffffffffffffffffffffffffff16908060010160009054906101000a900473ffffffffffffffffffffffffffffffffffffffff169080600201805461098f906113f8565b80601f01602080910402602001604051908101604052809291908181526020018280546109bb906113f8565b8015610a085780601f106109dd57610100808354040283529160200191610a08565b820191906000526020600020905b8154815290600101906020018083116109eb57829003601f168201915b5050505050908060030154905084565b60606002805480602002602001604051908101604052809291908181526020018280548015610a9c57602002820191906000526020600020905b8160009054906101000a900473ffffffffffffffffffffffffffffffffffffffff1673ffffffffffffffffffffffffffffffffffffffff1681526020019060010190808311610a52575b5050505050905090565b600160009054906101000a900473ffffffffffffffffffffffffffffffffffffffff1681565b60056020528060005260406000206000915054906101000a900460ff1681565b60035481565b610afa610b75565b600073ffffffffffffffffffffffffffffffffffffffff168173ffffffffffffffffffffffffffffffffffffffff1603610b69576040517f08c379a0000000000000000000000000000000000000000000000000000000008152600401610b609061149b565b60405180910390fd5b610b7281610bf3565b50565b610b7d610cb7565b73ffffffffffffffffffffffffffffffffffffffff16610b9b6108f7565b73ffffffffffffffffffffffffffffffffffffffff1614610bf1576040517f08c379a0000000000000000000000000000000000000000000000000000000008152600401610be890611507565b60405180910390fd5b565b60008060009054906101000a900473ffffffffffffffffffffffffffffffffffffffff169050816000806101000a81548173ffffffffffffffffffffffffffffffffffffffff021916908373ffffffffffffffffffffffffffffffffffffffff1602179055508173ffffffffffffffffffffffffffffffffffffffff168173ffffffffffffffffffffffffffffffffffffffff167f8be0079c531659141344cd1fd0a4f28419497f9722a3daafe3b4186f6b6457e060405160405180910390a35050565b600033905090565b828054610ccb906113f8565b90600052602060002090601f016020900481019282610ced5760008555610d34565b82601f10610d0657805160ff1916838001178555610d34565b82800160010185558215610d34579182015b82811115610d33578251825591602001919060010190610d18565b5b509050610d419190610d45565b5090565b5b80821115610d5e576000816000905550600101610d46565b5090565b600080fd5b600080fd5b600073ffffffffffffffffffffffffffffffffffffffff82169050919050565b6000610d9782610d6c565b9050919050565b610da781610d8c565b8114610db257600080fd5b50565b600081359050610dc481610d9e565b92915050565b600060208284031215610de057610ddf610d62565b5b6000610dee84828501610db5565b91505092915050565b6000819050919050565b610e0a81610df7565b8114610e1557600080fd5b50565b600081359050610e2781610e01565b92915050565b600060208284031215610e4357610e42610d62565b5b6000610e5184828501610e18565b91505092915050565b610e6381610d8c565b82525050565b6000602082019050610e7e6000830184610e5a565b92915050565b600080fd5b600080fd5b600080fd5b60008083601f840112610ea957610ea8610e84565b5b8235905067ffffffffffffffff811115610ec657610ec5610e89565b5b602083019150836001820283011115610ee257610ee1610e8e565b5b9250929050565b600080600060408486031215610f0257610f01610d62565b5b6000610f1086828701610db5565b935050602084013567ffffffffffffffff811115610f3157610f30610d67565b5b610f3d86828701610e93565b92509250509250925092565b600081519050919050565b600082825260208201905092915050565b60005b83811015610f83578082015181840152602081019050610f68565b83811115610f92576000848401525b50505050565b6000601f19601f8301169050919050565b6000610fb482610f49565b610fbe8185610f54565b9350610fce818560208601610f65565b610fd781610f98565b840191505092915050565b610feb81610df7565b82525050565b60006080820190506110066000830187610e5a565b6110136020830186610e5a565b81810360408301526110258185610fa9565b90506110346060830184610fe2565b95945050505050565b600081519050919050565b600082825260208201905092915050565b6000819050602082019050919050565b61107281610d8c565b82525050565b60006110848383611069565b60208301905092915050565b6000602082019050919050565b60006110a88261103d565b6110b28185611048565b93506110bd83611059565b8060005b838110156110ee5781516110d58882611078565b97506110e083611090565b9250506001810190506110c1565b5085935050505092915050565b60006020820190508181036000830152611115818461109d565b905092915050565b60008115159050919050565b6111328161111d565b82525050565b600060208201905061114d6000830184611129565b92915050565b60006020820190506111686000830184610fe2565b92915050565b7f546f6b656e20616464726573732073686f756c646e277420626520616464726560008201527f7373283029000000000000000000000000000000000000000000000000000000602082015250565b60006111ca602583610f54565b91506111d58261116e565b604082019050919050565b600060208201905081810360008301526111f9816111bd565b9050919050565b7f416464726573732073686f756c646e2774206265203000000000000000000000600082015250565b6000611236601683610f54565b915061124182611200565b602082019050919050565b6000602082019050818103600083015261126581611229565b9050919050565b7f4e616d65206c656e6774682073686f756c646e27742062652030000000000000600082015250565b60006112a2601a83610f54565b91506112ad8261126c565b602082019050919050565b600060208201905081810360008301526112d181611295565b9050919050565b7f4d61726b657420616c7265616479206164646564000000000000000000000000600082015250565b600061130e601483610f54565b9150611319826112d8565b602082019050919050565b6000602082019050818103600083015261133d81611301565b9050919050565b7f4e487b7100000000000000000000000000000000000000000000000000000000600052601160045260246000fd5b600061137e82610df7565b915061138983610df7565b9250827fffffffffffffffffffffffffffffffffffffffffffffffffffffffffffffffff038211156113be576113bd611344565b5b828201905092915050565b7f4e487b7100000000000000000000000000000000000000000000000000000000600052602260045260246000fd5b6000600282049050600182168061141057607f821691505b602082108103611423576114226113c9565b5b50919050565b7f4f776e61626c653a206e6577206f776e657220697320746865207a65726f206160008201527f6464726573730000000000000000000000000000000000000000000000000000602082015250565b6000611485602683610f54565b915061149082611429565b604082019050919050565b600060208201905081810360008301526114b481611478565b9050919050565b7f4f776e61626c653a2063616c6c6572206973206e6f7420746865206f776e6572600082015250565b60006114f1602083610f54565b91506114fc826114bb565b602082019050919050565b60006020820190508181036000830152611520816114e4565b905091905056fea26469706673582212204fbe40bd46bcce2bf2242002f3e74dd19095eadf519eb12685ce7b3e7c02567f64736f6c634300080d0033",
  "linkReferences": {},
  "deployedLinkReferences": {}
}