{
  "_format": "hh-sol-artifact-1",
  "contractName": "Marketplace",
  "sourceName": "contracts/Marketplace.sol",
  "abi": [
    {
      "inputs": [
        {
          "internalType": "bytes",
          "name": "_publicKey",
          "type": "bytes"
        }
      ],
      "stateMutability": "nonpayable",
      "type": "constructor"
    },
    {
      "anonymous": false,
      "inputs": [
        {
          "indexed": true,
          "internalType": "address",
          "name": "previousOwner",
          "type": "address"
        },
        {
          "indexed": true,
          "internalType": "address",
          "name": "newOwner",
          "type": "address"
        }
      ],
      "name": "OwnershipTransferred",
      "type": "event"
    },
    {
      "anonymous": false,
      "inputs": [
        {
          "indexed": false,
          "internalType": "address",
          "name": "adder",
          "type": "address"
        },
        {
          "indexed": false,
          "internalType": "address",
          "name": "admin",
          "type": "address"
        }
      ],
      "name": "addedAdmin",
      "type": "event"
    },
    {
      "anonymous": false,
      "inputs": [
        {
          "indexed": false,
          "internalType": "address",
          "name": "adder",
          "type": "address"
        },
        {
          "indexed": false,
          "internalType": "address",
          "name": "courier",
          "type": "address"
        }
      ],
      "name": "addedCourier",
      "type": "event"
    },
    {
      "anonymous": false,
      "inputs": [
        {
          "indexed": false,
          "internalType": "address",
          "name": "remover",
          "type": "address"
        },
        {
          "indexed": false,
          "internalType": "address",
          "name": "admin",
          "type": "address"
        }
      ],
      "name": "removedAdmin",
      "type": "event"
    },
    {
      "anonymous": false,
      "inputs": [
        {
          "indexed": false,
          "internalType": "address",
          "name": "remover",
          "type": "address"
        },
        {
          "indexed": false,
          "internalType": "address",
          "name": "courier",
          "type": "address"
        }
      ],
      "name": "removedCourier",
      "type": "event"
    },
    {
      "inputs": [
        {
          "internalType": "address",
          "name": "admin",
          "type": "address"
        }
      ],
      "name": "addAdmin",
      "outputs": [],
      "stateMutability": "nonpayable",
      "type": "function"
    },
    {
      "inputs": [
        {
          "internalType": "address",
          "name": "contractAddress",
          "type": "address"
        },
        {
          "internalType": "string",
          "name": "name",
          "type": "string"
        }
      ],
      "name": "addContract",
      "outputs": [],
      "stateMutability": "nonpayable",
      "type": "function"
    },
    {
      "inputs": [
        {
          "internalType": "address",
          "name": "courier",
          "type": "address"
        }
      ],
      "name": "addCourier",
      "outputs": [],
      "stateMutability": "nonpayable",
      "type": "function"
    },
    {
      "inputs": [
        {
          "internalType": "address",
          "name": "",
          "type": "address"
        }
      ],
      "name": "admins",
      "outputs": [
        {
          "internalType": "bool",
          "name": "",
          "type": "bool"
        }
      ],
      "stateMutability": "view",
      "type": "function"
    },
    {
      "inputs": [
        {
          "internalType": "bytes",
          "name": "_publicKey",
          "type": "bytes"
        }
      ],
      "name": "changePublicKey",
      "outputs": [],
      "stateMutability": "nonpayable",
      "type": "function"
    },
    {
      "inputs": [
        {
          "internalType": "address",
          "name": "",
          "type": "address"
        }
      ],
      "name": "couriers",
      "outputs": [
        {
          "internalType": "bool",
          "name": "",
          "type": "bool"
        }
      ],
      "stateMutability": "view",
      "type": "function"
    },
    {
      "inputs": [],
      "name": "getMarketAddresses",
      "outputs": [
        {
          "internalType": "address[]",
          "name": "",
          "type": "address[]"
        }
      ],
      "stateMutability": "view",
      "type": "function"
    },
    {
      "inputs": [
        {
          "internalType": "uint256",
          "name": "",
          "type": "uint256"
        }
      ],
      "name": "marketAddresses",
      "outputs": [
        {
          "internalType": "address",
          "name": "",
          "type": "address"
        }
      ],
      "stateMutability": "view",
      "type": "function"
    },
    {
      "inputs": [],
      "name": "marketCount",
      "outputs": [
        {
          "internalType": "uint256",
          "name": "",
          "type": "uint256"
        }
      ],
      "stateMutability": "view",
      "type": "function"
    },
    {
      "inputs": [
        {
          "internalType": "address",
          "name": "",
          "type": "address"
        }
      ],
      "name": "markets",
      "outputs": [
        {
          "internalType": "address",
          "name": "contractAddress",
          "type": "address"
        },
        {
          "internalType": "address",
          "name": "addedBy",
          "type": "address"
        },
        {
          "internalType": "string",
          "name": "name",
          "type": "string"
        },
        {
          "internalType": "uint256",
          "name": "addDate",
          "type": "uint256"
        }
      ],
      "stateMutability": "view",
      "type": "function"
    },
    {
      "inputs": [],
      "name": "myToken",
      "outputs": [
        {
          "internalType": "address",
          "name": "",
          "type": "address"
        }
      ],
      "stateMutability": "view",
      "type": "function"
    },
    {
      "inputs": [],
      "name": "owner",
      "outputs": [
        {
          "internalType": "address",
          "name": "",
          "type": "address"
        }
      ],
      "stateMutability": "view",
      "type": "function"
    },
    {
      "inputs": [],
      "name": "publicKey",
      "outputs": [
        {
          "internalType": "bytes",
          "name": "",
          "type": "bytes"
        }
      ],
      "stateMutability": "view",
      "type": "function"
    },
    {
      "inputs": [
        {
          "internalType": "address",
          "name": "admin",
          "type": "address"
        }
      ],
      "name": "removeAdmin",
      "outputs": [],
      "stateMutability": "nonpayable",
      "type": "function"
    },
    {
      "inputs": [
        {
          "internalType": "address",
          "name": "courier",
          "type": "address"
        }
      ],
      "name": "removeCourier",
      "outputs": [],
      "stateMutability": "nonpayable",
      "type": "function"
    },
    {
      "inputs": [],
      "name": "renounceOwnership",
      "outputs": [],
      "stateMutability": "nonpayable",
      "type": "function"
    },
    {
      "inputs": [
        {
          "internalType": "address",
          "name": "_token",
          "type": "address"
        }
      ],
      "name": "setToken",
      "outputs": [],
      "stateMutability": "nonpayable",
      "type": "function"
    },
    {
      "inputs": [
        {
          "internalType": "address",
          "name": "newOwner",
          "type": "address"
        }
      ],
      "name": "transferOwnership",
      "outputs": [],
      "stateMutability": "nonpayable",
      "type": "function"
    },
    {
      "stateMutability": "payable",
      "type": "receive"
    }
  ],
  "bytecode": "0x60806040523480156200001157600080fd5b506040516200236a3803806200236a8339818101604052810190620000379190620003d7565b620000576200004b620000be60201b60201c565b620000c660201b60201c565b60418151146200009e576040517f08c379a0000000000000000000000000000000000000000000000000000000008152600401620000959062000489565b60405180910390fd5b8060019080519060200190620000b69291906200018a565b50506200050f565b600033905090565b60008060009054906101000a900473ffffffffffffffffffffffffffffffffffffffff169050816000806101000a81548173ffffffffffffffffffffffffffffffffffffffff021916908373ffffffffffffffffffffffffffffffffffffffff1602179055508173ffffffffffffffffffffffffffffffffffffffff168173ffffffffffffffffffffffffffffffffffffffff167f8be0079c531659141344cd1fd0a4f28419497f9722a3daafe3b4186f6b6457e060405160405180910390a35050565b8280546200019890620004da565b90600052602060002090601f016020900481019282620001bc576000855562000208565b82601f10620001d757805160ff191683800117855562000208565b8280016001018555821562000208579182015b8281111562000207578251825591602001919060010190620001ea565b5b5090506200021791906200021b565b5090565b5b80821115620002365760008160009055506001016200021c565b5090565b6000604051905090565b600080fd5b600080fd5b600080fd5b600080fd5b6000601f19601f8301169050919050565b7f4e487b7100000000000000000000000000000000000000000000000000000000600052604160045260246000fd5b620002a38262000258565b810181811067ffffffffffffffff82111715620002c557620002c462000269565b5b80604052505050565b6000620002da6200023a565b9050620002e8828262000298565b919050565b600067ffffffffffffffff8211156200030b576200030a62000269565b5b620003168262000258565b9050602081019050919050565b60005b838110156200034357808201518184015260208101905062000326565b8381111562000353576000848401525b50505050565b6000620003706200036a84620002ed565b620002ce565b9050828152602081018484840111156200038f576200038e62000253565b5b6200039c84828562000323565b509392505050565b600082601f830112620003bc57620003bb6200024e565b5b8151620003ce84826020860162000359565b91505092915050565b600060208284031215620003f057620003ef62000244565b5b600082015167ffffffffffffffff81111562000411576200041062000249565b5b6200041f84828501620003a4565b91505092915050565b600082825260208201905092915050565b7f426164207075626c6963206b6579000000000000000000000000000000000000600082015250565b600062000471600e8362000428565b91506200047e8262000439565b602082019050919050565b60006020820190508181036000830152620004a48162000462565b9050919050565b7f4e487b7100000000000000000000000000000000000000000000000000000000600052602260045260246000fd5b60006002820490506001821680620004f357607f821691505b602082108103620005095762000508620004ab565b5b50919050565b611e4b806200051f6000396000f3fe60806040526004361061010d5760003560e01c8063715018a611610095578063b8fcf93711610064578063b8fcf93714610361578063ccd5fcb91461038c578063d2fa9d2e146103c9578063ec979082146103f2578063f2fde38b1461041d57610114565b8063715018a6146102b45780638da5cb5b146102cb5780638e8f294b146102f657806397ce0d311461033657610114565b8063429b62e5116100dc578063429b62e5146101d15780634300e8ef1461020e57806363ffab31146102375780636fd5483a14610262578063704802751461028b57610114565b8063144fa6d7146101195780631785f53c146101425780632445d6d71461016b578063350293a11461019457610114565b3661011457005b600080fd5b34801561012557600080fd5b50610140600480360381019061013b91906113c7565b610446565b005b34801561014e57600080fd5b50610169600480360381019061016491906113c7565b610501565b005b34801561017757600080fd5b50610192600480360381019061018d91906113c7565b61059d565b005b3480156101a057600080fd5b506101bb60048036038101906101b6919061142a565b610733565b6040516101c89190611466565b60405180910390f35b3480156101dd57600080fd5b506101f860048036038101906101f391906113c7565b610772565b604051610205919061149c565b60405180910390f35b34801561021a57600080fd5b506102356004803603810190610230919061151c565b610792565b005b34801561024357600080fd5b5061024c610b2a565b6040516102599190611615565b60405180910390f35b34801561026e57600080fd5b50610289600480360381019061028491906113c7565b610bb8565b005b34801561029757600080fd5b506102b260048036038101906102ad91906113c7565b610cdf565b005b3480156102c057600080fd5b506102c9610dea565b005b3480156102d757600080fd5b506102e0610dfe565b6040516102ed9190611466565b60405180910390f35b34801561030257600080fd5b5061031d600480360381019061031891906113c7565b610e27565b60405161032d949392919061169b565b60405180910390f35b34801561034257600080fd5b5061034b610f1f565b60405161035891906117a5565b60405180910390f35b34801561036d57600080fd5b50610376610fad565b6040516103839190611466565b60405180910390f35b34801561039857600080fd5b506103b360048036038101906103ae91906113c7565b610fd3565b6040516103c0919061149c565b60405180910390f35b3480156103d557600080fd5b506103f060048036038101906103eb91906118f7565b610ff3565b005b3480156103fe57600080fd5b50610407611059565b6040516104149190611940565b60405180910390f35b34801561042957600080fd5b50610444600480360381019061043f91906113c7565b61105f565b005b61044e6110e2565b600073ffffffffffffffffffffffffffffffffffffffff168173ffffffffffffffffffffffffffffffffffffffff16036104bd576040517f08c379a00000000000000000000000000000000000000000000000000000000081526004016104b4906119cd565b60405180910390fd5b80600260006101000a81548173ffffffffffffffffffffffffffffffffffffffff021916908373ffffffffffffffffffffffffffffffffffffffff16021790555050565b6105096110e2565b6000600760008373ffffffffffffffffffffffffffffffffffffffff1673ffffffffffffffffffffffffffffffffffffffff16815260200190815260200160002060006101000a81548160ff0219169083151502179055507fa26741003178aa4bede371460351ef25dbbd75d8e9a6509b200d36564efb0d8933826040516105929291906119ed565b60405180910390a150565b60011515600760003373ffffffffffffffffffffffffffffffffffffffff1673ffffffffffffffffffffffffffffffffffffffff16815260200190815260200160002060009054906101000a900460ff16151514610630576040517f08c379a000000000000000000000000000000000000000000000000000000000815260040161062790611a62565b60405180910390fd5b600073ffffffffffffffffffffffffffffffffffffffff168173ffffffffffffffffffffffffffffffffffffffff160361069f576040517f08c379a000000000000000000000000000000000000000000000000000000000815260040161069690611ace565b60405180910390fd5b6001600660008373ffffffffffffffffffffffffffffffffffffffff1673ffffffffffffffffffffffffffffffffffffffff16815260200190815260200160002060006101000a81548160ff0219169083151502179055507f202a64435606eca406f1f3e4e6ad1260a474db2ab3b7652e903868ba1d0ad13933826040516107289291906119ed565b60405180910390a150565b6003818154811061074357600080fd5b906000526020600020016000915054906101000a900473ffffffffffffffffffffffffffffffffffffffff1681565b60076020528060005260406000206000915054906101000a900460ff1681565b61079a6110e2565b600073ffffffffffffffffffffffffffffffffffffffff168373ffffffffffffffffffffffffffffffffffffffff1603610809576040517f08c379a000000000000000000000000000000000000000000000000000000000815260040161080090611ace565b60405180910390fd5b6000828290500361084f576040517f08c379a000000000000000000000000000000000000000000000000000000000815260040161084690611b3a565b60405180910390fd5b600073ffffffffffffffffffffffffffffffffffffffff16600560008573ffffffffffffffffffffffffffffffffffffffff1673ffffffffffffffffffffffffffffffffffffffff16815260200190815260200160002060000160009054906101000a900473ffffffffffffffffffffffffffffffffffffffff1673ffffffffffffffffffffffffffffffffffffffff1614610920576040517f08c379a000000000000000000000000000000000000000000000000000000000815260040161091790611ba6565b60405180910390fd5b60405180608001604052808473ffffffffffffffffffffffffffffffffffffffff1681526020013373ffffffffffffffffffffffffffffffffffffffff16815260200183838080601f016020809104026020016040519081016040528093929190818152602001838380828437600081840152601f19601f82011690508083019250505050505050815260200142815250600560008573ffffffffffffffffffffffffffffffffffffffff1673ffffffffffffffffffffffffffffffffffffffff16815260200190815260200160002060008201518160000160006101000a81548173ffffffffffffffffffffffffffffffffffffffff021916908373ffffffffffffffffffffffffffffffffffffffff16021790555060208201518160010160006101000a81548173ffffffffffffffffffffffffffffffffffffffff021916908373ffffffffffffffffffffffffffffffffffffffff1602179055506040820151816002019080519060200190610a9a92919061122c565b50606082015181600301559050506003839080600181540180825580915050600190039060005260206000200160009091909190916101000a81548173ffffffffffffffffffffffffffffffffffffffff021916908373ffffffffffffffffffffffffffffffffffffffff160217905550600160046000828254610b1e9190611bf5565b92505081905550505050565b60018054610b3790611c7a565b80601f0160208091040260200160405190810160405280929190818152602001828054610b6390611c7a565b8015610bb05780601f10610b8557610100808354040283529160200191610bb0565b820191906000526020600020905b815481529060010190602001808311610b9357829003601f168201915b505050505081565b60011515600760003373ffffffffffffffffffffffffffffffffffffffff1673ffffffffffffffffffffffffffffffffffffffff16815260200190815260200160002060009054906101000a900460ff16151514610c4b576040517f08c379a0000000000000000000000000000000000000000000000000000000008152600401610c4290611a62565b60405180910390fd5b6000600660008373ffffffffffffffffffffffffffffffffffffffff1673ffffffffffffffffffffffffffffffffffffffff16815260200190815260200160002060006101000a81548160ff0219169083151502179055507f54f505827a06b8103699d7c737e591eaff7f2f13b6fb05708854f9f665878d1e3382604051610cd49291906119ed565b60405180910390a150565b610ce76110e2565b600073ffffffffffffffffffffffffffffffffffffffff168173ffffffffffffffffffffffffffffffffffffffff1603610d56576040517f08c379a0000000000000000000000000000000000000000000000000000000008152600401610d4d90611ace565b60405180910390fd5b6001600760008373ffffffffffffffffffffffffffffffffffffffff1673ffffffffffffffffffffffffffffffffffffffff16815260200190815260200160002060006101000a81548160ff0219169083151502179055507f9c1a6b2e4bce2b7d007290449237072bfbf0d7704dd366ed4da0149046c3aad93382604051610ddf9291906119ed565b60405180910390a150565b610df26110e2565b610dfc6000611160565b565b60008060009054906101000a900473ffffffffffffffffffffffffffffffffffffffff16905090565b60056020528060005260406000206000915090508060000160009054906101000a900473ffffffffffffffffffffffffffffffffffffffff16908060010160009054906101000a900473ffffffffffffffffffffffffffffffffffffffff1690806002018054610e9690611c7a565b80601f0160208091040260200160405190810160405280929190818152602001828054610ec290611c7a565b8015610f0f5780601f10610ee457610100808354040283529160200191610f0f565b820191906000526020600020905b815481529060010190602001808311610ef257829003601f168201915b5050505050908060030154905084565b60606003805480602002602001604051908101604052809291908181526020018280548015610fa357602002820191906000526020600020905b8160009054906101000a900473ffffffffffffffffffffffffffffffffffffffff1673ffffffffffffffffffffffffffffffffffffffff1681526020019060010190808311610f59575b5050505050905090565b600260009054906101000a900473ffffffffffffffffffffffffffffffffffffffff1681565b60066020528060005260406000206000915054906101000a900460ff1681565b610ffb6110e2565b604181511461103f576040517f08c379a000000000000000000000000000000000000000000000000000000000815260040161103690611cf7565b60405180910390fd5b80600190805190602001906110559291906112b2565b5050565b60045481565b6110676110e2565b600073ffffffffffffffffffffffffffffffffffffffff168173ffffffffffffffffffffffffffffffffffffffff16036110d6576040517f08c379a00000000000000000000000000000000000000000000000000000000081526004016110cd90611d89565b60405180910390fd5b6110df81611160565b50565b6110ea611224565b73ffffffffffffffffffffffffffffffffffffffff16611108610dfe565b73ffffffffffffffffffffffffffffffffffffffff161461115e576040517f08c379a000000000000000000000000000000000000000000000000000000000815260040161115590611df5565b60405180910390fd5b565b60008060009054906101000a900473ffffffffffffffffffffffffffffffffffffffff169050816000806101000a81548173ffffffffffffffffffffffffffffffffffffffff021916908373ffffffffffffffffffffffffffffffffffffffff1602179055508173ffffffffffffffffffffffffffffffffffffffff168173ffffffffffffffffffffffffffffffffffffffff167f8be0079c531659141344cd1fd0a4f28419497f9722a3daafe3b4186f6b6457e060405160405180910390a35050565b600033905090565b82805461123890611c7a565b90600052602060002090601f01602090048101928261125a57600085556112a1565b82601f1061127357805160ff19168380011785556112a1565b828001600101855582156112a1579182015b828111156112a0578251825591602001919060010190611285565b5b5090506112ae9190611338565b5090565b8280546112be90611c7a565b90600052602060002090601f0160209004810192826112e05760008555611327565b82601f106112f957805160ff1916838001178555611327565b82800160010185558215611327579182015b8281111561132657825182559160200191906001019061130b565b5b5090506113349190611338565b5090565b5b80821115611351576000816000905550600101611339565b5090565b6000604051905090565b600080fd5b600080fd5b600073ffffffffffffffffffffffffffffffffffffffff82169050919050565b600061139482611369565b9050919050565b6113a481611389565b81146113af57600080fd5b50565b6000813590506113c18161139b565b92915050565b6000602082840312156113dd576113dc61135f565b5b60006113eb848285016113b2565b91505092915050565b6000819050919050565b611407816113f4565b811461141257600080fd5b50565b600081359050611424816113fe565b92915050565b6000602082840312156114405761143f61135f565b5b600061144e84828501611415565b91505092915050565b61146081611389565b82525050565b600060208201905061147b6000830184611457565b92915050565b60008115159050919050565b61149681611481565b82525050565b60006020820190506114b1600083018461148d565b92915050565b600080fd5b600080fd5b600080fd5b60008083601f8401126114dc576114db6114b7565b5b8235905067ffffffffffffffff8111156114f9576114f86114bc565b5b602083019150836001820283011115611515576115146114c1565b5b9250929050565b6000806000604084860312156115355761153461135f565b5b6000611543868287016113b2565b935050602084013567ffffffffffffffff81111561156457611563611364565b5b611570868287016114c6565b92509250509250925092565b600081519050919050565b600082825260208201905092915050565b60005b838110156115b657808201518184015260208101905061159b565b838111156115c5576000848401525b50505050565b6000601f19601f8301169050919050565b60006115e78261157c565b6115f18185611587565b9350611601818560208601611598565b61160a816115cb565b840191505092915050565b6000602082019050818103600083015261162f81846115dc565b905092915050565b600081519050919050565b600082825260208201905092915050565b600061165e82611637565b6116688185611642565b9350611678818560208601611598565b611681816115cb565b840191505092915050565b611695816113f4565b82525050565b60006080820190506116b06000830187611457565b6116bd6020830186611457565b81810360408301526116cf8185611653565b90506116de606083018461168c565b95945050505050565b600081519050919050565b600082825260208201905092915050565b6000819050602082019050919050565b61171c81611389565b82525050565b600061172e8383611713565b60208301905092915050565b6000602082019050919050565b6000611752826116e7565b61175c81856116f2565b935061176783611703565b8060005b8381101561179857815161177f8882611722565b975061178a8361173a565b92505060018101905061176b565b5085935050505092915050565b600060208201905081810360008301526117bf8184611747565b905092915050565b600080fd5b7f4e487b7100000000000000000000000000000000000000000000000000000000600052604160045260246000fd5b611804826115cb565b810181811067ffffffffffffffff82111715611823576118226117cc565b5b80604052505050565b6000611836611355565b905061184282826117fb565b919050565b600067ffffffffffffffff821115611862576118616117cc565b5b61186b826115cb565b9050602081019050919050565b82818337600083830152505050565b600061189a61189584611847565b61182c565b9050828152602081018484840111156118b6576118b56117c7565b5b6118c1848285611878565b509392505050565b600082601f8301126118de576118dd6114b7565b5b81356118ee848260208601611887565b91505092915050565b60006020828403121561190d5761190c61135f565b5b600082013567ffffffffffffffff81111561192b5761192a611364565b5b611937848285016118c9565b91505092915050565b6000602082019050611955600083018461168c565b92915050565b7f546f6b656e20616464726573732073686f756c646e277420626520616464726560008201527f7373283029000000000000000000000000000000000000000000000000000000602082015250565b60006119b7602583611642565b91506119c28261195b565b604082019050919050565b600060208201905081810360008301526119e6816119aa565b9050919050565b6000604082019050611a026000830185611457565b611a0f6020830184611457565b9392505050565b7f53656e646572206973206e6f7420616e2061646d696e21000000000000000000600082015250565b6000611a4c601783611642565b9150611a5782611a16565b602082019050919050565b60006020820190508181036000830152611a7b81611a3f565b9050919050565b7f416464726573732073686f756c646e2774206265203000000000000000000000600082015250565b6000611ab8601683611642565b9150611ac382611a82565b602082019050919050565b60006020820190508181036000830152611ae781611aab565b9050919050565b7f4e616d65206c656e6774682073686f756c646e27742062652030000000000000600082015250565b6000611b24601a83611642565b9150611b2f82611aee565b602082019050919050565b60006020820190508181036000830152611b5381611b17565b9050919050565b7f4d61726b657420616c7265616479206164646564000000000000000000000000600082015250565b6000611b90601483611642565b9150611b9b82611b5a565b602082019050919050565b60006020820190508181036000830152611bbf81611b83565b9050919050565b7f4e487b7100000000000000000000000000000000000000000000000000000000600052601160045260246000fd5b6000611c00826113f4565b9150611c0b836113f4565b9250827fffffffffffffffffffffffffffffffffffffffffffffffffffffffffffffffff03821115611c4057611c3f611bc6565b5b828201905092915050565b7f4e487b7100000000000000000000000000000000000000000000000000000000600052602260045260246000fd5b60006002820490506001821680611c9257607f821691505b602082108103611ca557611ca4611c4b565b5b50919050565b7f426164207075626c6963206b6579000000000000000000000000000000000000600082015250565b6000611ce1600e83611642565b9150611cec82611cab565b602082019050919050565b60006020820190508181036000830152611d1081611cd4565b9050919050565b7f4f776e61626c653a206e6577206f776e657220697320746865207a65726f206160008201527f6464726573730000000000000000000000000000000000000000000000000000602082015250565b6000611d73602683611642565b9150611d7e82611d17565b604082019050919050565b60006020820190508181036000830152611da281611d66565b9050919050565b7f4f776e61626c653a2063616c6c6572206973206e6f7420746865206f776e6572600082015250565b6000611ddf602083611642565b9150611dea82611da9565b602082019050919050565b60006020820190508181036000830152611e0e81611dd2565b905091905056fea26469706673582212209862c0c97f780be4814da8bd0ee0bc29c130f52f57d57266adad5c1bf3b8103c64736f6c634300080d0033",
  "linkReferences": {},
  "deployedLinkReferences": {}
}