{
  "_format": "hh-sol-artifact-1",
  "contractName": "Marketplace",
  "sourceName": "contracts/Marketplace.sol",
  "abi": [
    {
      "inputs": [
        {
          "internalType": "bytes",
          "name": "_publicKey",
          "type": "bytes"
        }
      ],
      "stateMutability": "nonpayable",
      "type": "constructor"
    },
    {
      "anonymous": false,
      "inputs": [
        {
          "indexed": true,
          "internalType": "address",
          "name": "previousOwner",
          "type": "address"
        },
        {
          "indexed": true,
          "internalType": "address",
          "name": "newOwner",
          "type": "address"
        }
      ],
      "name": "OwnershipTransferred",
      "type": "event"
    },
    {
      "anonymous": false,
      "inputs": [
        {
          "indexed": false,
          "internalType": "address",
          "name": "adder",
          "type": "address"
        },
        {
          "indexed": false,
          "internalType": "address",
          "name": "courier",
          "type": "address"
        }
      ],
      "name": "addedCourier",
      "type": "event"
    },
    {
      "anonymous": false,
      "inputs": [
        {
          "indexed": false,
          "internalType": "address",
          "name": "remover",
          "type": "address"
        },
        {
          "indexed": false,
          "internalType": "address",
          "name": "courier",
          "type": "address"
        }
      ],
      "name": "removedCourier",
      "type": "event"
    },
    {
      "inputs": [
        {
          "internalType": "address",
          "name": "admin",
          "type": "address"
        }
      ],
      "name": "addAdmin",
      "outputs": [],
      "stateMutability": "nonpayable",
      "type": "function"
    },
    {
      "inputs": [
        {
          "internalType": "address",
          "name": "contractAddress",
          "type": "address"
        },
        {
          "internalType": "string",
          "name": "name",
          "type": "string"
        }
      ],
      "name": "addContract",
      "outputs": [],
      "stateMutability": "nonpayable",
      "type": "function"
    },
    {
      "inputs": [
        {
          "internalType": "address",
          "name": "courier",
          "type": "address"
        }
      ],
      "name": "addCourier",
      "outputs": [],
      "stateMutability": "nonpayable",
      "type": "function"
    },
    {
      "inputs": [
        {
          "internalType": "address",
          "name": "",
          "type": "address"
        }
      ],
      "name": "admins",
      "outputs": [
        {
          "internalType": "bool",
          "name": "",
          "type": "bool"
        }
      ],
      "stateMutability": "view",
      "type": "function"
    },
    {
      "inputs": [
        {
          "internalType": "bytes",
          "name": "_publicKey",
          "type": "bytes"
        }
      ],
      "name": "changePublicKey",
      "outputs": [],
      "stateMutability": "nonpayable",
      "type": "function"
    },
    {
      "inputs": [
        {
          "internalType": "address",
          "name": "",
          "type": "address"
        }
      ],
      "name": "couriers",
      "outputs": [
        {
          "internalType": "bool",
          "name": "",
          "type": "bool"
        }
      ],
      "stateMutability": "view",
      "type": "function"
    },
    {
      "inputs": [],
      "name": "getMarketAddresses",
      "outputs": [
        {
          "internalType": "address[]",
          "name": "",
          "type": "address[]"
        }
      ],
      "stateMutability": "view",
      "type": "function"
    },
    {
      "inputs": [
        {
          "internalType": "uint256",
          "name": "",
          "type": "uint256"
        }
      ],
      "name": "marketAddresses",
      "outputs": [
        {
          "internalType": "address",
          "name": "",
          "type": "address"
        }
      ],
      "stateMutability": "view",
      "type": "function"
    },
    {
      "inputs": [],
      "name": "marketCount",
      "outputs": [
        {
          "internalType": "uint256",
          "name": "",
          "type": "uint256"
        }
      ],
      "stateMutability": "view",
      "type": "function"
    },
    {
      "inputs": [
        {
          "internalType": "address",
          "name": "",
          "type": "address"
        }
      ],
      "name": "markets",
      "outputs": [
        {
          "internalType": "address",
          "name": "contractAddress",
          "type": "address"
        },
        {
          "internalType": "address",
          "name": "addedBy",
          "type": "address"
        },
        {
          "internalType": "string",
          "name": "name",
          "type": "string"
        },
        {
          "internalType": "uint256",
          "name": "addDate",
          "type": "uint256"
        }
      ],
      "stateMutability": "view",
      "type": "function"
    },
    {
      "inputs": [],
      "name": "myToken",
      "outputs": [
        {
          "internalType": "address",
          "name": "",
          "type": "address"
        }
      ],
      "stateMutability": "view",
      "type": "function"
    },
    {
      "inputs": [],
      "name": "owner",
      "outputs": [
        {
          "internalType": "address",
          "name": "",
          "type": "address"
        }
      ],
      "stateMutability": "view",
      "type": "function"
    },
    {
      "inputs": [],
      "name": "publicKey",
      "outputs": [
        {
          "internalType": "bytes",
          "name": "",
          "type": "bytes"
        }
      ],
      "stateMutability": "view",
      "type": "function"
    },
    {
      "inputs": [
        {
          "internalType": "address",
          "name": "admin",
          "type": "address"
        }
      ],
      "name": "removeAdmin",
      "outputs": [],
      "stateMutability": "nonpayable",
      "type": "function"
    },
    {
      "inputs": [
        {
          "internalType": "address",
          "name": "courier",
          "type": "address"
        }
      ],
      "name": "removeCourier",
      "outputs": [],
      "stateMutability": "nonpayable",
      "type": "function"
    },
    {
      "inputs": [],
      "name": "renounceOwnership",
      "outputs": [],
      "stateMutability": "nonpayable",
      "type": "function"
    },
    {
      "inputs": [
        {
          "internalType": "address",
          "name": "_token",
          "type": "address"
        }
      ],
      "name": "setToken",
      "outputs": [],
      "stateMutability": "nonpayable",
      "type": "function"
    },
    {
      "inputs": [
        {
          "internalType": "address",
          "name": "newOwner",
          "type": "address"
        }
      ],
      "name": "transferOwnership",
      "outputs": [],
      "stateMutability": "nonpayable",
      "type": "function"
    },
    {
      "stateMutability": "payable",
      "type": "receive"
    }
  ],
  "bytecode": "0x60806040523480156200001157600080fd5b50604051620022f8380380620022f88339818101604052810190620000379190620003d7565b620000576200004b620000be60201b60201c565b620000c660201b60201c565b60418151146200009e576040517f08c379a0000000000000000000000000000000000000000000000000000000008152600401620000959062000489565b60405180910390fd5b8060019080519060200190620000b69291906200018a565b50506200050f565b600033905090565b60008060009054906101000a900473ffffffffffffffffffffffffffffffffffffffff169050816000806101000a81548173ffffffffffffffffffffffffffffffffffffffff021916908373ffffffffffffffffffffffffffffffffffffffff1602179055508173ffffffffffffffffffffffffffffffffffffffff168173ffffffffffffffffffffffffffffffffffffffff167f8be0079c531659141344cd1fd0a4f28419497f9722a3daafe3b4186f6b6457e060405160405180910390a35050565b8280546200019890620004da565b90600052602060002090601f016020900481019282620001bc576000855562000208565b82601f10620001d757805160ff191683800117855562000208565b8280016001018555821562000208579182015b8281111562000207578251825591602001919060010190620001ea565b5b5090506200021791906200021b565b5090565b5b80821115620002365760008160009055506001016200021c565b5090565b6000604051905090565b600080fd5b600080fd5b600080fd5b600080fd5b6000601f19601f8301169050919050565b7f4e487b7100000000000000000000000000000000000000000000000000000000600052604160045260246000fd5b620002a38262000258565b810181811067ffffffffffffffff82111715620002c557620002c462000269565b5b80604052505050565b6000620002da6200023a565b9050620002e8828262000298565b919050565b600067ffffffffffffffff8211156200030b576200030a62000269565b5b620003168262000258565b9050602081019050919050565b60005b838110156200034357808201518184015260208101905062000326565b8381111562000353576000848401525b50505050565b6000620003706200036a84620002ed565b620002ce565b9050828152602081018484840111156200038f576200038e62000253565b5b6200039c84828562000323565b509392505050565b600082601f830112620003bc57620003bb6200024e565b5b8151620003ce84826020860162000359565b91505092915050565b600060208284031215620003f057620003ef62000244565b5b600082015167ffffffffffffffff81111562000411576200041062000249565b5b6200041f84828501620003a4565b91505092915050565b600082825260208201905092915050565b7f426164207075626c6963206b6579000000000000000000000000000000000000600082015250565b600062000471600e8362000428565b91506200047e8262000439565b602082019050919050565b60006020820190508181036000830152620004a48162000462565b9050919050565b7f4e487b7100000000000000000000000000000000000000000000000000000000600052602260045260246000fd5b60006002820490506001821680620004f357607f821691505b602082108103620005095762000508620004ab565b5b50919050565b611dd9806200051f6000396000f3fe60806040526004361061010d5760003560e01c8063715018a611610095578063b8fcf93711610064578063b8fcf93714610361578063ccd5fcb91461038c578063d2fa9d2e146103c9578063ec979082146103f2578063f2fde38b1461041d57610114565b8063715018a6146102b45780638da5cb5b146102cb5780638e8f294b146102f657806397ce0d311461033657610114565b8063429b62e5116100dc578063429b62e5146101d15780634300e8ef1461020e57806363ffab31146102375780636fd5483a14610262578063704802751461028b57610114565b8063144fa6d7146101195780631785f53c146101425780632445d6d71461016b578063350293a11461019457610114565b3661011457005b600080fd5b34801561012557600080fd5b50610140600480360381019061013b9190611355565b610446565b005b34801561014e57600080fd5b5061016960048036038101906101649190611355565b610501565b005b34801561017757600080fd5b50610192600480360381019061018d9190611355565b610564565b005b3480156101a057600080fd5b506101bb60048036038101906101b691906113b8565b6106fa565b6040516101c891906113f4565b60405180910390f35b3480156101dd57600080fd5b506101f860048036038101906101f39190611355565b610739565b604051610205919061142a565b60405180910390f35b34801561021a57600080fd5b50610235600480360381019061023091906114aa565b610759565b005b34801561024357600080fd5b5061024c610af1565b60405161025991906115a3565b60405180910390f35b34801561026e57600080fd5b5061028960048036038101906102849190611355565b610b7f565b005b34801561029757600080fd5b506102b260048036038101906102ad9190611355565b610ca6565b005b3480156102c057600080fd5b506102c9610d78565b005b3480156102d757600080fd5b506102e0610d8c565b6040516102ed91906113f4565b60405180910390f35b34801561030257600080fd5b5061031d60048036038101906103189190611355565b610db5565b60405161032d9493929190611629565b60405180910390f35b34801561034257600080fd5b5061034b610ead565b6040516103589190611733565b60405180910390f35b34801561036d57600080fd5b50610376610f3b565b60405161038391906113f4565b60405180910390f35b34801561039857600080fd5b506103b360048036038101906103ae9190611355565b610f61565b6040516103c0919061142a565b60405180910390f35b3480156103d557600080fd5b506103f060048036038101906103eb9190611885565b610f81565b005b3480156103fe57600080fd5b50610407610fe7565b60405161041491906118ce565b60405180910390f35b34801561042957600080fd5b50610444600480360381019061043f9190611355565b610fed565b005b61044e611070565b600073ffffffffffffffffffffffffffffffffffffffff168173ffffffffffffffffffffffffffffffffffffffff16036104bd576040517f08c379a00000000000000000000000000000000000000000000000000000000081526004016104b49061195b565b60405180910390fd5b80600260006101000a81548173ffffffffffffffffffffffffffffffffffffffff021916908373ffffffffffffffffffffffffffffffffffffffff16021790555050565b610509611070565b6000600760008373ffffffffffffffffffffffffffffffffffffffff1673ffffffffffffffffffffffffffffffffffffffff16815260200190815260200160002060006101000a81548160ff02191690831515021790555050565b60011515600760003373ffffffffffffffffffffffffffffffffffffffff1673ffffffffffffffffffffffffffffffffffffffff16815260200190815260200160002060009054906101000a900460ff161515146105f7576040517f08c379a00000000000000000000000000000000000000000000000000000000081526004016105ee906119c7565b60405180910390fd5b600073ffffffffffffffffffffffffffffffffffffffff168173ffffffffffffffffffffffffffffffffffffffff1603610666576040517f08c379a000000000000000000000000000000000000000000000000000000000815260040161065d90611a33565b60405180910390fd5b6001600660008373ffffffffffffffffffffffffffffffffffffffff1673ffffffffffffffffffffffffffffffffffffffff16815260200190815260200160002060006101000a81548160ff0219169083151502179055507f202a64435606eca406f1f3e4e6ad1260a474db2ab3b7652e903868ba1d0ad13933826040516106ef929190611a53565b60405180910390a150565b6003818154811061070a57600080fd5b906000526020600020016000915054906101000a900473ffffffffffffffffffffffffffffffffffffffff1681565b60076020528060005260406000206000915054906101000a900460ff1681565b610761611070565b600073ffffffffffffffffffffffffffffffffffffffff168373ffffffffffffffffffffffffffffffffffffffff16036107d0576040517f08c379a00000000000000000000000000000000000000000000000000000000081526004016107c790611a33565b60405180910390fd5b60008282905003610816576040517f08c379a000000000000000000000000000000000000000000000000000000000815260040161080d90611ac8565b60405180910390fd5b600073ffffffffffffffffffffffffffffffffffffffff16600560008573ffffffffffffffffffffffffffffffffffffffff1673ffffffffffffffffffffffffffffffffffffffff16815260200190815260200160002060000160009054906101000a900473ffffffffffffffffffffffffffffffffffffffff1673ffffffffffffffffffffffffffffffffffffffff16146108e7576040517f08c379a00000000000000000000000000000000000000000000000000000000081526004016108de90611b34565b60405180910390fd5b60405180608001604052808473ffffffffffffffffffffffffffffffffffffffff1681526020013373ffffffffffffffffffffffffffffffffffffffff16815260200183838080601f016020809104026020016040519081016040528093929190818152602001838380828437600081840152601f19601f82011690508083019250505050505050815260200142815250600560008573ffffffffffffffffffffffffffffffffffffffff1673ffffffffffffffffffffffffffffffffffffffff16815260200190815260200160002060008201518160000160006101000a81548173ffffffffffffffffffffffffffffffffffffffff021916908373ffffffffffffffffffffffffffffffffffffffff16021790555060208201518160010160006101000a81548173ffffffffffffffffffffffffffffffffffffffff021916908373ffffffffffffffffffffffffffffffffffffffff1602179055506040820151816002019080519060200190610a619291906111ba565b50606082015181600301559050506003839080600181540180825580915050600190039060005260206000200160009091909190916101000a81548173ffffffffffffffffffffffffffffffffffffffff021916908373ffffffffffffffffffffffffffffffffffffffff160217905550600160046000828254610ae59190611b83565b92505081905550505050565b60018054610afe90611c08565b80601f0160208091040260200160405190810160405280929190818152602001828054610b2a90611c08565b8015610b775780601f10610b4c57610100808354040283529160200191610b77565b820191906000526020600020905b815481529060010190602001808311610b5a57829003601f168201915b505050505081565b60011515600760003373ffffffffffffffffffffffffffffffffffffffff1673ffffffffffffffffffffffffffffffffffffffff16815260200190815260200160002060009054906101000a900460ff16151514610c12576040517f08c379a0000000000000000000000000000000000000000000000000000000008152600401610c09906119c7565b60405180910390fd5b6000600660008373ffffffffffffffffffffffffffffffffffffffff1673ffffffffffffffffffffffffffffffffffffffff16815260200190815260200160002060006101000a81548160ff0219169083151502179055507f54f505827a06b8103699d7c737e591eaff7f2f13b6fb05708854f9f665878d1e3382604051610c9b929190611a53565b60405180910390a150565b610cae611070565b600073ffffffffffffffffffffffffffffffffffffffff168173ffffffffffffffffffffffffffffffffffffffff1603610d1d576040517f08c379a0000000000000000000000000000000000000000000000000000000008152600401610d1490611a33565b60405180910390fd5b6001600760008373ffffffffffffffffffffffffffffffffffffffff1673ffffffffffffffffffffffffffffffffffffffff16815260200190815260200160002060006101000a81548160ff02191690831515021790555050565b610d80611070565b610d8a60006110ee565b565b60008060009054906101000a900473ffffffffffffffffffffffffffffffffffffffff16905090565b60056020528060005260406000206000915090508060000160009054906101000a900473ffffffffffffffffffffffffffffffffffffffff16908060010160009054906101000a900473ffffffffffffffffffffffffffffffffffffffff1690806002018054610e2490611c08565b80601f0160208091040260200160405190810160405280929190818152602001828054610e5090611c08565b8015610e9d5780601f10610e7257610100808354040283529160200191610e9d565b820191906000526020600020905b815481529060010190602001808311610e8057829003601f168201915b5050505050908060030154905084565b60606003805480602002602001604051908101604052809291908181526020018280548015610f3157602002820191906000526020600020905b8160009054906101000a900473ffffffffffffffffffffffffffffffffffffffff1673ffffffffffffffffffffffffffffffffffffffff1681526020019060010190808311610ee7575b5050505050905090565b600260009054906101000a900473ffffffffffffffffffffffffffffffffffffffff1681565b60066020528060005260406000206000915054906101000a900460ff1681565b610f89611070565b6041815114610fcd576040517f08c379a0000000000000000000000000000000000000000000000000000000008152600401610fc490611c85565b60405180910390fd5b8060019080519060200190610fe3929190611240565b5050565b60045481565b610ff5611070565b600073ffffffffffffffffffffffffffffffffffffffff168173ffffffffffffffffffffffffffffffffffffffff1603611064576040517f08c379a000000000000000000000000000000000000000000000000000000000815260040161105b90611d17565b60405180910390fd5b61106d816110ee565b50565b6110786111b2565b73ffffffffffffffffffffffffffffffffffffffff16611096610d8c565b73ffffffffffffffffffffffffffffffffffffffff16146110ec576040517f08c379a00000000000000000000000000000000000000000000000000000000081526004016110e390611d83565b60405180910390fd5b565b60008060009054906101000a900473ffffffffffffffffffffffffffffffffffffffff169050816000806101000a81548173ffffffffffffffffffffffffffffffffffffffff021916908373ffffffffffffffffffffffffffffffffffffffff1602179055508173ffffffffffffffffffffffffffffffffffffffff168173ffffffffffffffffffffffffffffffffffffffff167f8be0079c531659141344cd1fd0a4f28419497f9722a3daafe3b4186f6b6457e060405160405180910390a35050565b600033905090565b8280546111c690611c08565b90600052602060002090601f0160209004810192826111e8576000855561122f565b82601f1061120157805160ff191683800117855561122f565b8280016001018555821561122f579182015b8281111561122e578251825591602001919060010190611213565b5b50905061123c91906112c6565b5090565b82805461124c90611c08565b90600052602060002090601f01602090048101928261126e57600085556112b5565b82601f1061128757805160ff19168380011785556112b5565b828001600101855582156112b5579182015b828111156112b4578251825591602001919060010190611299565b5b5090506112c291906112c6565b5090565b5b808211156112df5760008160009055506001016112c7565b5090565b6000604051905090565b600080fd5b600080fd5b600073ffffffffffffffffffffffffffffffffffffffff82169050919050565b6000611322826112f7565b9050919050565b61133281611317565b811461133d57600080fd5b50565b60008135905061134f81611329565b92915050565b60006020828403121561136b5761136a6112ed565b5b600061137984828501611340565b91505092915050565b6000819050919050565b61139581611382565b81146113a057600080fd5b50565b6000813590506113b28161138c565b92915050565b6000602082840312156113ce576113cd6112ed565b5b60006113dc848285016113a3565b91505092915050565b6113ee81611317565b82525050565b600060208201905061140960008301846113e5565b92915050565b60008115159050919050565b6114248161140f565b82525050565b600060208201905061143f600083018461141b565b92915050565b600080fd5b600080fd5b600080fd5b60008083601f84011261146a57611469611445565b5b8235905067ffffffffffffffff8111156114875761148661144a565b5b6020830191508360018202830111156114a3576114a261144f565b5b9250929050565b6000806000604084860312156114c3576114c26112ed565b5b60006114d186828701611340565b935050602084013567ffffffffffffffff8111156114f2576114f16112f2565b5b6114fe86828701611454565b92509250509250925092565b600081519050919050565b600082825260208201905092915050565b60005b83811015611544578082015181840152602081019050611529565b83811115611553576000848401525b50505050565b6000601f19601f8301169050919050565b60006115758261150a565b61157f8185611515565b935061158f818560208601611526565b61159881611559565b840191505092915050565b600060208201905081810360008301526115bd818461156a565b905092915050565b600081519050919050565b600082825260208201905092915050565b60006115ec826115c5565b6115f681856115d0565b9350611606818560208601611526565b61160f81611559565b840191505092915050565b61162381611382565b82525050565b600060808201905061163e60008301876113e5565b61164b60208301866113e5565b818103604083015261165d81856115e1565b905061166c606083018461161a565b95945050505050565b600081519050919050565b600082825260208201905092915050565b6000819050602082019050919050565b6116aa81611317565b82525050565b60006116bc83836116a1565b60208301905092915050565b6000602082019050919050565b60006116e082611675565b6116ea8185611680565b93506116f583611691565b8060005b8381101561172657815161170d88826116b0565b9750611718836116c8565b9250506001810190506116f9565b5085935050505092915050565b6000602082019050818103600083015261174d81846116d5565b905092915050565b600080fd5b7f4e487b7100000000000000000000000000000000000000000000000000000000600052604160045260246000fd5b61179282611559565b810181811067ffffffffffffffff821117156117b1576117b061175a565b5b80604052505050565b60006117c46112e3565b90506117d08282611789565b919050565b600067ffffffffffffffff8211156117f0576117ef61175a565b5b6117f982611559565b9050602081019050919050565b82818337600083830152505050565b6000611828611823846117d5565b6117ba565b90508281526020810184848401111561184457611843611755565b5b61184f848285611806565b509392505050565b600082601f83011261186c5761186b611445565b5b813561187c848260208601611815565b91505092915050565b60006020828403121561189b5761189a6112ed565b5b600082013567ffffffffffffffff8111156118b9576118b86112f2565b5b6118c584828501611857565b91505092915050565b60006020820190506118e3600083018461161a565b92915050565b7f546f6b656e20616464726573732073686f756c646e277420626520616464726560008201527f7373283029000000000000000000000000000000000000000000000000000000602082015250565b60006119456025836115d0565b9150611950826118e9565b604082019050919050565b6000602082019050818103600083015261197481611938565b9050919050565b7f53656e646572206973206e6f7420616e2061646d696e21000000000000000000600082015250565b60006119b16017836115d0565b91506119bc8261197b565b602082019050919050565b600060208201905081810360008301526119e0816119a4565b9050919050565b7f416464726573732073686f756c646e2774206265203000000000000000000000600082015250565b6000611a1d6016836115d0565b9150611a28826119e7565b602082019050919050565b60006020820190508181036000830152611a4c81611a10565b9050919050565b6000604082019050611a6860008301856113e5565b611a7560208301846113e5565b9392505050565b7f4e616d65206c656e6774682073686f756c646e27742062652030000000000000600082015250565b6000611ab2601a836115d0565b9150611abd82611a7c565b602082019050919050565b60006020820190508181036000830152611ae181611aa5565b9050919050565b7f4d61726b657420616c7265616479206164646564000000000000000000000000600082015250565b6000611b1e6014836115d0565b9150611b2982611ae8565b602082019050919050565b60006020820190508181036000830152611b4d81611b11565b9050919050565b7f4e487b7100000000000000000000000000000000000000000000000000000000600052601160045260246000fd5b6000611b8e82611382565b9150611b9983611382565b9250827fffffffffffffffffffffffffffffffffffffffffffffffffffffffffffffffff03821115611bce57611bcd611b54565b5b828201905092915050565b7f4e487b7100000000000000000000000000000000000000000000000000000000600052602260045260246000fd5b60006002820490506001821680611c2057607f821691505b602082108103611c3357611c32611bd9565b5b50919050565b7f426164207075626c6963206b6579000000000000000000000000000000000000600082015250565b6000611c6f600e836115d0565b9150611c7a82611c39565b602082019050919050565b60006020820190508181036000830152611c9e81611c62565b9050919050565b7f4f776e61626c653a206e6577206f776e657220697320746865207a65726f206160008201527f6464726573730000000000000000000000000000000000000000000000000000602082015250565b6000611d016026836115d0565b9150611d0c82611ca5565b604082019050919050565b60006020820190508181036000830152611d3081611cf4565b9050919050565b7f4f776e61626c653a2063616c6c6572206973206e6f7420746865206f776e6572600082015250565b6000611d6d6020836115d0565b9150611d7882611d37565b602082019050919050565b60006020820190508181036000830152611d9c81611d60565b905091905056fea2646970667358221220b0b34194963399a1455af84ecbc3b55217f7d59648cd6ca0f380ac75fde0fb1c64736f6c634300080d0033",
  "linkReferences": {},
  "deployedLinkReferences": {}
}