{
  "_format": "hh-sol-artifact-1",
  "contractName": "SimpleAuction",
  "sourceName": "contracts/SimpleAuction.sol",
  "abi": [
    {
      "anonymous": false,
      "inputs": [
        {
          "indexed": true,
          "internalType": "address",
          "name": "previousOwner",
          "type": "address"
        },
        {
          "indexed": true,
          "internalType": "address",
          "name": "newOwner",
          "type": "address"
        }
      ],
      "name": "OwnershipTransferred",
      "type": "event"
    },
    {
      "anonymous": false,
      "inputs": [
        {
          "indexed": false,
          "internalType": "string",
          "name": "name",
          "type": "string"
        },
        {
          "indexed": false,
          "internalType": "uint256",
          "name": "minimalPrice",
          "type": "uint256"
        },
        {
          "indexed": false,
          "internalType": "address",
          "name": "seller",
          "type": "address"
        },
        {
          "indexed": false,
          "internalType": "uint256",
          "name": "index",
          "type": "uint256"
        }
      ],
      "name": "auctionProductAdded",
      "type": "event"
    },
    {
      "anonymous": false,
      "inputs": [
        {
          "indexed": false,
          "internalType": "uint256",
          "name": "index",
          "type": "uint256"
        },
        {
          "indexed": false,
          "internalType": "address",
          "name": "bidder",
          "type": "address"
        },
        {
          "indexed": false,
          "internalType": "uint256",
          "name": "amount",
          "type": "uint256"
        }
      ],
      "name": "auctionProductBid",
      "type": "event"
    },
    {
      "anonymous": false,
      "inputs": [
        {
          "indexed": false,
          "internalType": "uint256",
          "name": "index",
          "type": "uint256"
        },
        {
          "indexed": false,
          "internalType": "address",
          "name": "buyer",
          "type": "address"
        },
        {
          "indexed": false,
          "internalType": "address",
          "name": "courier",
          "type": "address"
        }
      ],
      "name": "auctionProductDelivered",
      "type": "event"
    },
    {
      "inputs": [
        {
          "internalType": "string",
          "name": "name",
          "type": "string"
        },
        {
          "internalType": "uint256",
          "name": "minimalPrice",
          "type": "uint256"
        },
        {
          "internalType": "string",
          "name": "link",
          "type": "string"
        },
        {
          "internalType": "bytes",
          "name": "marketHashOfData",
          "type": "bytes"
        },
        {
          "internalType": "uint256",
          "name": "finishDate",
          "type": "uint256"
        }
      ],
      "name": "addProduct",
      "outputs": [],
      "stateMutability": "nonpayable",
      "type": "function"
    },
    {
      "inputs": [],
      "name": "belongsToContract",
      "outputs": [
        {
          "internalType": "uint256",
          "name": "",
          "type": "uint256"
        }
      ],
      "stateMutability": "view",
      "type": "function"
    },
    {
      "inputs": [
        {
          "internalType": "uint256",
          "name": "index",
          "type": "uint256"
        },
        {
          "internalType": "bytes",
          "name": "deliveryInstructions",
          "type": "bytes"
        },
        {
          "internalType": "uint256",
          "name": "amount",
          "type": "uint256"
        },
        {
          "internalType": "address",
          "name": "from",
          "type": "address"
        },
        {
          "internalType": "bytes",
          "name": "sig",
          "type": "bytes"
        }
      ],
      "name": "bidForProduct",
      "outputs": [],
      "stateMutability": "payable",
      "type": "function"
    },
    {
      "inputs": [
        {
          "internalType": "uint256",
          "name": "index",
          "type": "uint256"
        }
      ],
      "name": "deliverProduct",
      "outputs": [],
      "stateMutability": "nonpayable",
      "type": "function"
    },
    {
      "inputs": [
        {
          "internalType": "address",
          "name": "seller",
          "type": "address"
        }
      ],
      "name": "getIndexesFromSellerAddress",
      "outputs": [
        {
          "internalType": "uint256[]",
          "name": "indexes",
          "type": "uint256[]"
        }
      ],
      "stateMutability": "view",
      "type": "function"
    },
    {
      "inputs": [
        {
          "internalType": "contract Marketplace",
          "name": "marketplace",
          "type": "address"
        }
      ],
      "name": "joinMarketplace",
      "outputs": [],
      "stateMutability": "nonpayable",
      "type": "function"
    },
    {
      "inputs": [
        {
          "internalType": "address",
          "name": "",
          "type": "address"
        },
        {
          "internalType": "uint256",
          "name": "",
          "type": "uint256"
        }
      ],
      "name": "owedMoneyToBidders",
      "outputs": [
        {
          "internalType": "uint256",
          "name": "",
          "type": "uint256"
        }
      ],
      "stateMutability": "view",
      "type": "function"
    },
    {
      "inputs": [],
      "name": "owner",
      "outputs": [
        {
          "internalType": "address",
          "name": "",
          "type": "address"
        }
      ],
      "stateMutability": "view",
      "type": "function"
    },
    {
      "inputs": [],
      "name": "ownerMarketplace",
      "outputs": [
        {
          "internalType": "contract Marketplace",
          "name": "",
          "type": "address"
        }
      ],
      "stateMutability": "view",
      "type": "function"
    },
    {
      "inputs": [],
      "name": "productCount",
      "outputs": [
        {
          "internalType": "uint256",
          "name": "",
          "type": "uint256"
        }
      ],
      "stateMutability": "view",
      "type": "function"
    },
    {
      "inputs": [
        {
          "internalType": "uint256",
          "name": "",
          "type": "uint256"
        }
      ],
      "name": "products",
      "outputs": [
        {
          "internalType": "string",
          "name": "name",
          "type": "string"
        },
        {
          "internalType": "uint256",
          "name": "minimalPrice",
          "type": "uint256"
        },
        {
          "internalType": "address",
          "name": "seller",
          "type": "address"
        },
        {
          "internalType": "uint256",
          "name": "addDate",
          "type": "uint256"
        },
        {
          "internalType": "string",
          "name": "linkForMedia",
          "type": "string"
        },
        {
          "internalType": "bytes",
          "name": "marketHashOfData",
          "type": "bytes"
        },
        {
          "internalType": "bool",
          "name": "approved",
          "type": "bool"
        },
        {
          "internalType": "bool",
          "name": "delivered",
          "type": "bool"
        },
        {
          "internalType": "bytes",
          "name": "deliveryInstructions",
          "type": "bytes"
        },
        {
          "internalType": "address",
          "name": "currentBidder",
          "type": "address"
        },
        {
          "internalType": "uint256",
          "name": "bidAmount",
          "type": "uint256"
        },
        {
          "internalType": "uint256",
          "name": "finishDate",
          "type": "uint256"
        }
      ],
      "stateMutability": "view",
      "type": "function"
    },
    {
      "inputs": [],
      "name": "renounceOwnership",
      "outputs": [],
      "stateMutability": "nonpayable",
      "type": "function"
    },
    {
      "inputs": [
        {
          "internalType": "address",
          "name": "",
          "type": "address"
        },
        {
          "internalType": "uint256",
          "name": "",
          "type": "uint256"
        }
      ],
      "name": "sellerToProductIndexes",
      "outputs": [
        {
          "internalType": "uint256",
          "name": "",
          "type": "uint256"
        }
      ],
      "stateMutability": "view",
      "type": "function"
    },
    {
      "inputs": [],
      "name": "transferFunds",
      "outputs": [],
      "stateMutability": "nonpayable",
      "type": "function"
    },
    {
      "inputs": [
        {
          "internalType": "address",
          "name": "newOwner",
          "type": "address"
        }
      ],
      "name": "transferOwnership",
      "outputs": [],
      "stateMutability": "nonpayable",
      "type": "function"
    }
  ],
  "bytecode": "0x6080604052600060025560006006553480156200001b57600080fd5b506200003c620000306200004260201b60201c565b6200004a60201b60201c565b6200010e565b600033905090565b60008060009054906101000a900473ffffffffffffffffffffffffffffffffffffffff169050816000806101000a81548173ffffffffffffffffffffffffffffffffffffffff021916908373ffffffffffffffffffffffffffffffffffffffff1602179055508173ffffffffffffffffffffffffffffffffffffffff168173ffffffffffffffffffffffffffffffffffffffff167f8be0079c531659141344cd1fd0a4f28419497f9722a3daafe3b4186f6b6457e060405160405180910390a35050565b613915806200011e6000396000f3fe6080604052600436106100e85760003560e01c80637acc0b201161008a578063ac0b044511610059578063ac0b0445146102cc578063cb502b91146102f5578063e0f6ef8714610332578063f2fde38b1461035d576100e8565b80637acc0b20146102145780638d41b7eb1461025c5780638da5cb5b146102855780638e76078b146102b0576100e8565b80634353c0ee116100c65780634353c0ee14610158578063660eb4a314610195578063715018a6146101c05780637a653f10146101d7576100e8565b80631c96fb1f146100ed5780633c1b52c4146101165780633c68eb8114610141575b600080fd5b3480156100f957600080fd5b50610114600480360381019061010f919061242f565b610386565b005b34801561012257600080fd5b5061012b610c5e565b604051610138919061246b565b60405180910390f35b34801561014d57600080fd5b50610156610c64565b005b34801561016457600080fd5b5061017f600480360381019061017a91906124e4565b610f3f565b60405161018c919061246b565b60405180910390f35b3480156101a157600080fd5b506101aa610f70565b6040516101b79190612583565b60405180910390f35b3480156101cc57600080fd5b506101d5610f96565b005b3480156101e357600080fd5b506101fe60048036038101906101f9919061259e565b610faa565b60405161020b9190612689565b60405180910390f35b34801561022057600080fd5b5061023b6004803603810190610236919061242f565b611041565b6040516102539c9b9a999897969594939291906127c3565b60405180910390f35b34801561026857600080fd5b50610283600480360381019061027e9190612954565b61131b565b005b34801561029157600080fd5b5061029a61164d565b6040516102a79190612a30565b60405180910390f35b6102ca60048036038101906102c59190612b7b565b611676565b005b3480156102d857600080fd5b506102f360048036038101906102ee9190612c81565b611d7b565b005b34801561030157600080fd5b5061031c600480360381019061031791906124e4565b611e36565b604051610329919061246b565b60405180910390f35b34801561033e57600080fd5b50610347611e5b565b604051610354919061246b565b60405180910390f35b34801561036957600080fd5b50610384600480360381019061037f919061259e565b611e61565b005b600073ffffffffffffffffffffffffffffffffffffffff16600160009054906101000a900473ffffffffffffffffffffffffffffffffffffffff1673ffffffffffffffffffffffffffffffffffffffff1603610417576040517f08c379a000000000000000000000000000000000000000000000000000000000815260040161040e90612cfa565b60405180910390fd5b600160009054906101000a900473ffffffffffffffffffffffffffffffffffffffff1673ffffffffffffffffffffffffffffffffffffffff1663ccd5fcb9336040518263ffffffff1660e01b81526004016104729190612a30565b602060405180830381865afa15801561048f573d6000803e3d6000fd5b505050506040513d601f19601f820116820180604052508101906104b39190612d46565b6104f2576040517f08c379a00000000000000000000000000000000000000000000000000000000081526004016104e990612dbf565b60405180910390fd5b6000600360008381526020019081526020016000206040518061018001604052908160008201805461052390612e0e565b80601f016020809104026020016040519081016040528092919081815260200182805461054f90612e0e565b801561059c5780601f106105715761010080835404028352916020019161059c565b820191906000526020600020905b81548152906001019060200180831161057f57829003601f168201915b50505050508152602001600182015481526020016002820160009054906101000a900473ffffffffffffffffffffffffffffffffffffffff1673ffffffffffffffffffffffffffffffffffffffff1673ffffffffffffffffffffffffffffffffffffffff1681526020016003820154815260200160048201805461061f90612e0e565b80601f016020809104026020016040519081016040528092919081815260200182805461064b90612e0e565b80156106985780601f1061066d57610100808354040283529160200191610698565b820191906000526020600020905b81548152906001019060200180831161067b57829003601f168201915b505050505081526020016005820180546106b190612e0e565b80601f01602080910402602001604051908101604052809291908181526020018280546106dd90612e0e565b801561072a5780601f106106ff5761010080835404028352916020019161072a565b820191906000526020600020905b81548152906001019060200180831161070d57829003601f168201915b505050505081526020016006820160009054906101000a900460ff161515151581526020016006820160019054906101000a900460ff1615151515815260200160078201805461077990612e0e565b80601f01602080910402602001604051908101604052809291908181526020018280546107a590612e0e565b80156107f25780601f106107c7576101008083540402835291602001916107f2565b820191906000526020600020905b8154815290600101906020018083116107d557829003601f168201915b505050505081526020016008820160009054906101000a900473ffffffffffffffffffffffffffffffffffffffff1673ffffffffffffffffffffffffffffffffffffffff1673ffffffffffffffffffffffffffffffffffffffff16815260200160098201548152602001600a820154815250509050600073ffffffffffffffffffffffffffffffffffffffff16816040015173ffffffffffffffffffffffffffffffffffffffff16036108da576040517f08c379a00000000000000000000000000000000000000000000000000000000081526004016108d190612e8b565b60405180910390fd5b4281610160015110610921576040517f08c379a000000000000000000000000000000000000000000000000000000000815260040161091890612ef7565b60405180910390fd5b600073ffffffffffffffffffffffffffffffffffffffff1681610120015173ffffffffffffffffffffffffffffffffffffffff1603610995576040517f08c379a000000000000000000000000000000000000000000000000000000000815260040161098c90612f63565b60405180910390fd5b600015158160e001511515146109e0576040517f08c379a00000000000000000000000000000000000000000000000000000000081526004016109d790612fcf565b60405180910390fd5b6000606460636005600085610120015173ffffffffffffffffffffffffffffffffffffffff1673ffffffffffffffffffffffffffffffffffffffff168152602001908152602001600020600086815260200190815260200160002054610a46919061301e565b610a5091906130a7565b90506064826101400151610a6491906130a7565b60026000828254610a7591906130d8565b9250508190555060006005600084610120015173ffffffffffffffffffffffffffffffffffffffff1673ffffffffffffffffffffffffffffffffffffffff16815260200190815260200160002060008581526020019081526020016000208190555060016003600085815260200190815260200160002060060160016101000a81548160ff021916908315150217905550600160009054906101000a900473ffffffffffffffffffffffffffffffffffffffff1673ffffffffffffffffffffffffffffffffffffffff1663b8fcf9376040518163ffffffff1660e01b8152600401602060405180830381865afa158015610b73573d6000803e3d6000fd5b505050506040513d601f19601f82011682018060405250810190610b979190613143565b73ffffffffffffffffffffffffffffffffffffffff1663a9059cbb8360400151836040518363ffffffff1660e01b8152600401610bd5929190613170565b6020604051808303816000875af1158015610bf4573d6000803e3d6000fd5b505050506040513d601f19601f82011682018060405250810190610c189190612d46565b507f9d95947801b2af7d1ed03cfed8027ebe75cd4a16100de3a0ffdb30f58c6a01928383610120015133604051610c5193929190613199565b60405180910390a1505050565b60025481565b610c6c611ee4565b600073ffffffffffffffffffffffffffffffffffffffff16600160009054906101000a900473ffffffffffffffffffffffffffffffffffffffff1673ffffffffffffffffffffffffffffffffffffffff1603610cfd576040517f08c379a0000000000000000000000000000000000000000000000000000000008152600401610cf49061321c565b60405180910390fd5b6000600160009054906101000a900473ffffffffffffffffffffffffffffffffffffffff1673ffffffffffffffffffffffffffffffffffffffff1663b8fcf9376040518163ffffffff1660e01b8152600401602060405180830381865afa158015610d6c573d6000803e3d6000fd5b505050506040513d601f19601f82011682018060405250810190610d909190613143565b9050600073ffffffffffffffffffffffffffffffffffffffff16600160009054906101000a900473ffffffffffffffffffffffffffffffffffffffff1673ffffffffffffffffffffffffffffffffffffffff1663b8fcf9376040518163ffffffff1660e01b8152600401602060405180830381865afa158015610e17573d6000803e3d6000fd5b505050506040513d601f19601f82011682018060405250810190610e3b9190613143565b73ffffffffffffffffffffffffffffffffffffffff1603610e91576040517f08c379a0000000000000000000000000000000000000000000000000000000008152600401610e8890613288565b60405180910390fd5b8073ffffffffffffffffffffffffffffffffffffffff1663a9059cbb600160009054906101000a900473ffffffffffffffffffffffffffffffffffffffff166002546040518363ffffffff1660e01b8152600401610ef0929190613170565b6020604051808303816000875af1158015610f0f573d6000803e3d6000fd5b505050506040513d601f19601f82011682018060405250810190610f339190612d46565b50600060028190555050565b60046020528160005260406000208181548110610f5b57600080fd5b90600052602060002001600091509150505481565b600160009054906101000a900473ffffffffffffffffffffffffffffffffffffffff1681565b610f9e611ee4565b610fa86000611f62565b565b6060600460008373ffffffffffffffffffffffffffffffffffffffff1673ffffffffffffffffffffffffffffffffffffffff16815260200190815260200160002080548060200260200160405190810160405280929190818152602001828054801561103557602002820191906000526020600020905b815481526020019060010190808311611021575b50505050509050919050565b600360205280600052604060002060009150905080600001805461106490612e0e565b80601f016020809104026020016040519081016040528092919081815260200182805461109090612e0e565b80156110dd5780601f106110b2576101008083540402835291602001916110dd565b820191906000526020600020905b8154815290600101906020018083116110c057829003601f168201915b5050505050908060010154908060020160009054906101000a900473ffffffffffffffffffffffffffffffffffffffff169080600301549080600401805461112490612e0e565b80601f016020809104026020016040519081016040528092919081815260200182805461115090612e0e565b801561119d5780601f106111725761010080835404028352916020019161119d565b820191906000526020600020905b81548152906001019060200180831161118057829003601f168201915b5050505050908060050180546111b290612e0e565b80601f01602080910402602001604051908101604052809291908181526020018280546111de90612e0e565b801561122b5780601f106112005761010080835404028352916020019161122b565b820191906000526020600020905b81548152906001019060200180831161120e57829003601f168201915b5050505050908060060160009054906101000a900460ff16908060060160019054906101000a900460ff169080600701805461126690612e0e565b80601f016020809104026020016040519081016040528092919081815260200182805461129290612e0e565b80156112df5780601f106112b4576101008083540402835291602001916112df565b820191906000526020600020905b8154815290600101906020018083116112c257829003601f168201915b5050505050908060080160009054906101000a900473ffffffffffffffffffffffffffffffffffffffff169080600901549080600a015490508c565b60008888905003611361576040517f08c379a0000000000000000000000000000000000000000000000000000000008152600401611358906132f4565b60405180910390fd5b621e84808610156113a7576040517f08c379a000000000000000000000000000000000000000000000000000000000815260040161139e90613360565b60405180910390fd5b428110156113ea576040517f08c379a00000000000000000000000000000000000000000000000000000000081526004016113e1906133cc565b60405180910390fd5b6113fa8888888888888888612026565b600360006006548152602001908152602001600020600082015181600001908051906020019061142b9291906121a5565b506020820151816001015560408201518160020160006101000a81548173ffffffffffffffffffffffffffffffffffffffff021916908373ffffffffffffffffffffffffffffffffffffffff1602179055506060820151816003015560808201518160040190805190602001906114a39291906121a5565b5060a08201518160050190805190602001906114c092919061222b565b5060c08201518160060160006101000a81548160ff02191690831515021790555060e08201518160060160016101000a81548160ff02191690831515021790555061010082015181600701908051906020019061151e92919061222b565b506101208201518160080160006101000a81548173ffffffffffffffffffffffffffffffffffffffff021916908373ffffffffffffffffffffffffffffffffffffffff160217905550610140820151816009015561016082015181600a0155905050600460003373ffffffffffffffffffffffffffffffffffffffff1673ffffffffffffffffffffffffffffffffffffffff16815260200190815260200160002060065490806001815401808255809150506001900390600052602060002001600090919091909150557f0bdd03d34418de4e37692923185ccdd7efa31d93f02a21636cfaf39cd2ee204188888833600654604051611621959493929190613419565b60405180910390a160016006600082825461163c91906130d8565b925050819055505050505050505050565b60008060009054906101000a900473ffffffffffffffffffffffffffffffffffffffff16905090565b6000600360008881526020019081526020016000209050600073ffffffffffffffffffffffffffffffffffffffff168160020160009054906101000a900473ffffffffffffffffffffffffffffffffffffffff1673ffffffffffffffffffffffffffffffffffffffff1603611720576040517f08c379a000000000000000000000000000000000000000000000000000000000815260040161171790612e8b565b60405180910390fd5b4281600a015411611766576040517f08c379a000000000000000000000000000000000000000000000000000000000815260040161175d906134b3565b60405180910390fd5b80600101548410156117ad576040517f08c379a00000000000000000000000000000000000000000000000000000000081526004016117a49061351f565b60405180910390fd5b806009015484116117f3576040517f08c379a00000000000000000000000000000000000000000000000000000000081526004016117ea9061351f565b60405180910390fd5b60008686905003611839576040517f08c379a00000000000000000000000000000000000000000000000000000000081526004016118309061358b565b60405180910390fd5b600030888660405160200161185093929190613614565b604051602081830303815290604052805190602001209050600073ffffffffffffffffffffffffffffffffffffffff16600160009054906101000a900473ffffffffffffffffffffffffffffffffffffffff1673ffffffffffffffffffffffffffffffffffffffff16036118f9576040517f08c379a00000000000000000000000000000000000000000000000000000000081526004016118f09061369d565b60405180910390fd5b600073ffffffffffffffffffffffffffffffffffffffff16600160009054906101000a900473ffffffffffffffffffffffffffffffffffffffff1673ffffffffffffffffffffffffffffffffffffffff1663b8fcf9376040518163ffffffff1660e01b8152600401602060405180830381865afa15801561197e573d6000803e3d6000fd5b505050506040513d601f19601f820116820180604052508101906119a29190613143565b73ffffffffffffffffffffffffffffffffffffffff16036119f8576040517f08c379a00000000000000000000000000000000000000000000000000000000081526004016119ef90613288565b60405180910390fd5b8686836007019190611a0b9291906122b1565b506000600160009054906101000a900473ffffffffffffffffffffffffffffffffffffffff1673ffffffffffffffffffffffffffffffffffffffff1663b8fcf9376040518163ffffffff1660e01b8152600401602060405180830381865afa158015611a7b573d6000803e3d6000fd5b505050506040513d601f19601f82011682018060405250810190611a9f9190613143565b90508073ffffffffffffffffffffffffffffffffffffffff16639f4fae1284600a0154848989308a6040518763ffffffff1660e01b8152600401611ae8969594939291906136d6565b600060405180830381600087803b158015611b0257600080fd5b505af1158015611b16573d6000803e3d6000fd5b50505050600073ffffffffffffffffffffffffffffffffffffffff168360080160009054906101000a900473ffffffffffffffffffffffffffffffffffffffff1673ffffffffffffffffffffffffffffffffffffffff1614611c94576000600560008560080160009054906101000a900473ffffffffffffffffffffffffffffffffffffffff1673ffffffffffffffffffffffffffffffffffffffff1673ffffffffffffffffffffffffffffffffffffffff16815260200190815260200160002060008b8152602001908152602001600020819055508073ffffffffffffffffffffffffffffffffffffffff1663a9059cbb8460080160009054906101000a900473ffffffffffffffffffffffffffffffffffffffff1685600901546040518363ffffffff1660e01b8152600401611c4f929190613170565b6020604051808303816000875af1158015611c6e573d6000803e3d6000fd5b505050506040513d601f19601f82011682018060405250810190611c929190612d46565b505b85600560008773ffffffffffffffffffffffffffffffffffffffff1673ffffffffffffffffffffffffffffffffffffffff16815260200190815260200160002060008b815260200190815260200160002081905550858360090181905550848360080160006101000a81548173ffffffffffffffffffffffffffffffffffffffff021916908373ffffffffffffffffffffffffffffffffffffffff1602179055507f6e92a982037abe8146d71f1d6163b2760c6fb6b79d71a369fe6f0b79a545b79a898688604051611d689392919061373e565b60405180910390a1505050505050505050565b611d83611ee4565b600073ffffffffffffffffffffffffffffffffffffffff168173ffffffffffffffffffffffffffffffffffffffff1603611df2576040517f08c379a0000000000000000000000000000000000000000000000000000000008152600401611de9906137c1565b60405180910390fd5b80600160006101000a81548173ffffffffffffffffffffffffffffffffffffffff021916908373ffffffffffffffffffffffffffffffffffffffff16021790555050565b6005602052816000526040600020602052806000526040600020600091509150505481565b60065481565b611e69611ee4565b600073ffffffffffffffffffffffffffffffffffffffff168173ffffffffffffffffffffffffffffffffffffffff1603611ed8576040517f08c379a0000000000000000000000000000000000000000000000000000000008152600401611ecf90613853565b60405180910390fd5b611ee181611f62565b50565b611eec61219d565b73ffffffffffffffffffffffffffffffffffffffff16611f0a61164d565b73ffffffffffffffffffffffffffffffffffffffff1614611f60576040517f08c379a0000000000000000000000000000000000000000000000000000000008152600401611f57906138bf565b60405180910390fd5b565b60008060009054906101000a900473ffffffffffffffffffffffffffffffffffffffff169050816000806101000a81548173ffffffffffffffffffffffffffffffffffffffff021916908373ffffffffffffffffffffffffffffffffffffffff1602179055508173ffffffffffffffffffffffffffffffffffffffff168173ffffffffffffffffffffffffffffffffffffffff167f8be0079c531659141344cd1fd0a4f28419497f9722a3daafe3b4186f6b6457e060405160405180910390a35050565b61202e612337565b6040518061018001604052808a8a8080601f016020809104026020016040519081016040528093929190818152602001838380828437600081840152601f19601f8201169050808301925050505050505081526020018881526020013373ffffffffffffffffffffffffffffffffffffffff16815260200142815260200187878080601f016020809104026020016040519081016040528093929190818152602001838380828437600081840152601f19601f82011690508083019250505050505050815260200185858080601f016020809104026020016040519081016040528093929190818152602001838380828437600081840152601f19601f820116905080830192505050505050508152602001600015158152602001600015158152602001604051806020016040528060008152508152602001600073ffffffffffffffffffffffffffffffffffffffff1681526020016000815260200183815250905098975050505050505050565b600033905090565b8280546121b190612e0e565b90600052602060002090601f0160209004810192826121d3576000855561221a565b82601f106121ec57805160ff191683800117855561221a565b8280016001018555821561221a579182015b828111156122195782518255916020019190600101906121fe565b5b50905061222791906123c8565b5090565b82805461223790612e0e565b90600052602060002090601f01602090048101928261225957600085556122a0565b82601f1061227257805160ff19168380011785556122a0565b828001600101855582156122a0579182015b8281111561229f578251825591602001919060010190612284565b5b5090506122ad91906123c8565b5090565b8280546122bd90612e0e565b90600052602060002090601f0160209004810192826122df5760008555612326565b82601f106122f857803560ff1916838001178555612326565b82800160010185558215612326579182015b8281111561232557823582559160200191906001019061230a565b5b50905061233391906123c8565b5090565b6040518061018001604052806060815260200160008152602001600073ffffffffffffffffffffffffffffffffffffffff16815260200160008152602001606081526020016060815260200160001515815260200160001515815260200160608152602001600073ffffffffffffffffffffffffffffffffffffffff16815260200160008152602001600081525090565b5b808211156123e15760008160009055506001016123c9565b5090565b6000604051905090565b600080fd5b600080fd5b6000819050919050565b61240c816123f9565b811461241757600080fd5b50565b60008135905061242981612403565b92915050565b600060208284031215612445576124446123ef565b5b60006124538482850161241a565b91505092915050565b612465816123f9565b82525050565b6000602082019050612480600083018461245c565b92915050565b600073ffffffffffffffffffffffffffffffffffffffff82169050919050565b60006124b182612486565b9050919050565b6124c1816124a6565b81146124cc57600080fd5b50565b6000813590506124de816124b8565b92915050565b600080604083850312156124fb576124fa6123ef565b5b6000612509858286016124cf565b925050602061251a8582860161241a565b9150509250929050565b6000819050919050565b600061254961254461253f84612486565b612524565b612486565b9050919050565b600061255b8261252e565b9050919050565b600061256d82612550565b9050919050565b61257d81612562565b82525050565b60006020820190506125986000830184612574565b92915050565b6000602082840312156125b4576125b36123ef565b5b60006125c2848285016124cf565b91505092915050565b600081519050919050565b600082825260208201905092915050565b6000819050602082019050919050565b612600816123f9565b82525050565b600061261283836125f7565b60208301905092915050565b6000602082019050919050565b6000612636826125cb565b61264081856125d6565b935061264b836125e7565b8060005b8381101561267c5781516126638882612606565b975061266e8361261e565b92505060018101905061264f565b5085935050505092915050565b600060208201905081810360008301526126a3818461262b565b905092915050565b600081519050919050565b600082825260208201905092915050565b60005b838110156126e55780820151818401526020810190506126ca565b838111156126f4576000848401525b50505050565b6000601f19601f8301169050919050565b6000612716826126ab565b61272081856126b6565b93506127308185602086016126c7565b612739816126fa565b840191505092915050565b61274d816124a6565b82525050565b600081519050919050565b600082825260208201905092915050565b600061277a82612753565b612784818561275e565b93506127948185602086016126c7565b61279d816126fa565b840191505092915050565b60008115159050919050565b6127bd816127a8565b82525050565b60006101808201905081810360008301526127de818f61270b565b90506127ed602083018e61245c565b6127fa604083018d612744565b612807606083018c61245c565b8181036080830152612819818b61270b565b905081810360a083015261282d818a61276f565b905061283c60c08301896127b4565b61284960e08301886127b4565b81810361010083015261285c818761276f565b905061286c610120830186612744565b61287a61014083018561245c565b61288861016083018461245c565b9d9c50505050505050505050505050565b600080fd5b600080fd5b600080fd5b60008083601f8401126128be576128bd612899565b5b8235905067ffffffffffffffff8111156128db576128da61289e565b5b6020830191508360018202830111156128f7576128f66128a3565b5b9250929050565b60008083601f84011261291457612913612899565b5b8235905067ffffffffffffffff8111156129315761293061289e565b5b60208301915083600182028301111561294d5761294c6128a3565b5b9250929050565b60008060008060008060008060a0898b031215612974576129736123ef565b5b600089013567ffffffffffffffff811115612992576129916123f4565b5b61299e8b828c016128a8565b985098505060206129b18b828c0161241a565b965050604089013567ffffffffffffffff8111156129d2576129d16123f4565b5b6129de8b828c016128a8565b9550955050606089013567ffffffffffffffff811115612a0157612a006123f4565b5b612a0d8b828c016128fe565b93509350506080612a208b828c0161241a565b9150509295985092959890939650565b6000602082019050612a456000830184612744565b92915050565b600080fd5b7f4e487b7100000000000000000000000000000000000000000000000000000000600052604160045260246000fd5b612a88826126fa565b810181811067ffffffffffffffff82111715612aa757612aa6612a50565b5b80604052505050565b6000612aba6123e5565b9050612ac68282612a7f565b919050565b600067ffffffffffffffff821115612ae657612ae5612a50565b5b612aef826126fa565b9050602081019050919050565b82818337600083830152505050565b6000612b1e612b1984612acb565b612ab0565b905082815260208101848484011115612b3a57612b39612a4b565b5b612b45848285612afc565b509392505050565b600082601f830112612b6257612b61612899565b5b8135612b72848260208601612b0b565b91505092915050565b60008060008060008060a08789031215612b9857612b976123ef565b5b6000612ba689828a0161241a565b965050602087013567ffffffffffffffff811115612bc757612bc66123f4565b5b612bd389828a016128fe565b95509550506040612be689828a0161241a565b9350506060612bf789828a016124cf565b925050608087013567ffffffffffffffff811115612c1857612c176123f4565b5b612c2489828a01612b4d565b9150509295509295509295565b6000612c3c82612486565b9050919050565b6000612c4e82612c31565b9050919050565b612c5e81612c43565b8114612c6957600080fd5b50565b600081359050612c7b81612c55565b92915050565b600060208284031215612c9757612c966123ef565b5b6000612ca584828501612c6c565b91505092915050565b7f4e6f206f776e6572206d61726b6574706c616365000000000000000000000000600082015250565b6000612ce46014836126b6565b9150612cef82612cae565b602082019050919050565b60006020820190508181036000830152612d1381612cd7565b9050919050565b612d23816127a8565b8114612d2e57600080fd5b50565b600081519050612d4081612d1a565b92915050565b600060208284031215612d5c57612d5b6123ef565b5b6000612d6a84828501612d31565b91505092915050565b7f4e6f7420616e20617574686f72697a656420636f757269657200000000000000600082015250565b6000612da96019836126b6565b9150612db482612d73565b602082019050919050565b60006020820190508181036000830152612dd881612d9c565b9050919050565b7f4e487b7100000000000000000000000000000000000000000000000000000000600052602260045260246000fd5b60006002820490506001821680612e2657607f821691505b602082108103612e3957612e38612ddf565b5b50919050565b7f4e6f20737563682070726f647563740000000000000000000000000000000000600082015250565b6000612e75600f836126b6565b9150612e8082612e3f565b602082019050919050565b60006020820190508181036000830152612ea481612e68565b9050919050565b7f41756374696f6e206e6f742066696e6973686564000000000000000000000000600082015250565b6000612ee16014836126b6565b9150612eec82612eab565b602082019050919050565b60006020820190508181036000830152612f1081612ed4565b9050919050565b7f4e6f20626964732c207468657265666f72652063616e27742064656c69766572600082015250565b6000612f4d6020836126b6565b9150612f5882612f17565b602082019050919050565b60006020820190508181036000830152612f7c81612f40565b9050919050565b7f50726f6475637420616c72656164792064656c69766572656400000000000000600082015250565b6000612fb96019836126b6565b9150612fc482612f83565b602082019050919050565b60006020820190508181036000830152612fe881612fac565b9050919050565b7f4e487b7100000000000000000000000000000000000000000000000000000000600052601160045260246000fd5b6000613029826123f9565b9150613034836123f9565b9250817fffffffffffffffffffffffffffffffffffffffffffffffffffffffffffffffff048311821515161561306d5761306c612fef565b5b828202905092915050565b7f4e487b7100000000000000000000000000000000000000000000000000000000600052601260045260246000fd5b60006130b2826123f9565b91506130bd836123f9565b9250826130cd576130cc613078565b5b828204905092915050565b60006130e3826123f9565b91506130ee836123f9565b9250827fffffffffffffffffffffffffffffffffffffffffffffffffffffffffffffffff0382111561312357613122612fef565b5b828201905092915050565b60008151905061313d816124b8565b92915050565b600060208284031215613159576131586123ef565b5b60006131678482850161312e565b91505092915050565b60006040820190506131856000830185612744565b613192602083018461245c565b9392505050565b60006060820190506131ae600083018661245c565b6131bb6020830185612744565b6131c86040830184612744565b949350505050565b7f446f65736e27742068617665206f776e6572206d61726b6574706c6163650000600082015250565b6000613206601e836126b6565b9150613211826131d0565b602082019050919050565b60006020820190508181036000830152613235816131f9565b9050919050565b7f4e6f20746f6b656e207370656369666965640000000000000000000000000000600082015250565b60006132726012836126b6565b915061327d8261323c565b602082019050919050565b600060208201905081810360008301526132a181613265565b9050919050565b7f4e616d652073686f756c646e277420626520656d707479000000000000000000600082015250565b60006132de6017836126b6565b91506132e9826132a8565b602082019050919050565b6000602082019050818103600083015261330d816132d1565b9050919050565b7f50726963652073686f756c64206265203e3d3230303030303000000000000000600082015250565b600061334a6019836126b6565b915061335582613314565b602082019050919050565b600060208201905081810360008301526133798161333d565b9050919050565b7f456e642073686f756c6420626520696e20746865206675747572650000000000600082015250565b60006133b6601b836126b6565b91506133c182613380565b602082019050919050565b600060208201905081810360008301526133e5816133a9565b9050919050565b60006133f883856126b6565b9350613405838584612afc565b61340e836126fa565b840190509392505050565b600060808201905081810360008301526134348187896133ec565b9050613443602083018661245c565b6134506040830185612744565b61345d606083018461245c565b9695505050505050565b7f41756374696f6e20616c72656164792066696e69736865640000000000000000600082015250565b600061349d6018836126b6565b91506134a882613467565b602082019050919050565b600060208201905081810360008301526134cc81613490565b9050919050565b7f426964206d757374206265206c61726765720000000000000000000000000000600082015250565b60006135096012836126b6565b9150613514826134d3565b602082019050919050565b60006020820190508181036000830152613538816134fc565b9050919050565b7f4e6f2064656c697665727920696e737472756374696f6e730000000000000000600082015250565b60006135756018836126b6565b91506135808261353f565b602082019050919050565b600060208201905081810360008301526135a481613568565b9050919050565b60008160601b9050919050565b60006135c3826135ab565b9050919050565b60006135d5826135b8565b9050919050565b6135ed6135e8826124a6565b6135ca565b82525050565b6000819050919050565b61360e613609826123f9565b6135f3565b82525050565b600061362082866135dc565b60148201915061363082856135fd565b60208201915061364082846135fd565b602082019150819050949350505050565b7f4e6f206d61726b6574706c616365000000000000000000000000000000000000600082015250565b6000613687600e836126b6565b915061369282613651565b602082019050919050565b600060208201905081810360008301526136b68161367a565b9050919050565b6000819050919050565b6136d0816136bd565b82525050565b600060c0820190506136eb600083018961245c565b6136f860208301886136c7565b613705604083018761245c565b6137126060830186612744565b61371f6080830185612744565b81810360a0830152613731818461276f565b9050979650505050505050565b6000606082019050613753600083018661245c565b6137606020830185612744565b61376d604083018461245c565b949350505050565b7f416464726573732073686f756c646e2774206265203000000000000000000000600082015250565b60006137ab6016836126b6565b91506137b682613775565b602082019050919050565b600060208201905081810360008301526137da8161379e565b9050919050565b7f4f776e61626c653a206e6577206f776e657220697320746865207a65726f206160008201527f6464726573730000000000000000000000000000000000000000000000000000602082015250565b600061383d6026836126b6565b9150613848826137e1565b604082019050919050565b6000602082019050818103600083015261386c81613830565b9050919050565b7f4f776e61626c653a2063616c6c6572206973206e6f7420746865206f776e6572600082015250565b60006138a96020836126b6565b91506138b482613873565b602082019050919050565b600060208201905081810360008301526138d88161389c565b905091905056fea26469706673582212207be378650832c9974d7e3752f29341659a58bd08884a3c04aacd42cfcc9cf9e564736f6c634300080d0033",
  "linkReferences": {},
  "deployedLinkReferences": {}
}