{
  "_format": "hh-sol-artifact-1",
  "contractName": "SimpleSeller",
  "sourceName": "contracts/SimpleSeller.sol",
  "abi": [
    {
      "anonymous": false,
      "inputs": [
        {
          "indexed": true,
          "internalType": "address",
          "name": "previousOwner",
          "type": "address"
        },
        {
          "indexed": true,
          "internalType": "address",
          "name": "newOwner",
          "type": "address"
        }
      ],
      "name": "OwnershipTransferred",
      "type": "event"
    },
    {
      "anonymous": false,
      "inputs": [
        {
          "indexed": false,
          "internalType": "string",
          "name": "name",
          "type": "string"
        },
        {
          "indexed": false,
          "internalType": "uint256",
          "name": "price",
          "type": "uint256"
        },
        {
          "indexed": false,
          "internalType": "address",
          "name": "seller",
          "type": "address"
        },
        {
          "indexed": false,
          "internalType": "uint256",
          "name": "index",
          "type": "uint256"
        }
      ],
      "name": "sellerProductAdded",
      "type": "event"
    },
    {
      "anonymous": false,
      "inputs": [
        {
          "indexed": false,
          "internalType": "uint256",
          "name": "index",
          "type": "uint256"
        },
        {
          "indexed": false,
          "internalType": "address",
          "name": "seller",
          "type": "address"
        },
        {
          "indexed": false,
          "internalType": "address",
          "name": "courier",
          "type": "address"
        }
      ],
      "name": "sellerProductDelivered",
      "type": "event"
    },
    {
      "anonymous": false,
      "inputs": [
        {
          "indexed": false,
          "internalType": "uint256",
          "name": "index",
          "type": "uint256"
        },
        {
          "indexed": false,
          "internalType": "address",
          "name": "buyer",
          "type": "address"
        }
      ],
      "name": "sellerProductSold",
      "type": "event"
    },
    {
      "inputs": [
        {
          "internalType": "string",
          "name": "name",
          "type": "string"
        },
        {
          "internalType": "uint256",
          "name": "price",
          "type": "uint256"
        },
        {
          "internalType": "string",
          "name": "link",
          "type": "string"
        },
        {
          "internalType": "bytes",
          "name": "marketHashOfData",
          "type": "bytes"
        }
      ],
      "name": "addProduct",
      "outputs": [],
      "stateMutability": "nonpayable",
      "type": "function"
    },
    {
      "inputs": [],
      "name": "belongsToContract",
      "outputs": [
        {
          "internalType": "uint256",
          "name": "",
          "type": "uint256"
        }
      ],
      "stateMutability": "view",
      "type": "function"
    },
    {
      "inputs": [
        {
          "internalType": "uint256",
          "name": "index",
          "type": "uint256"
        }
      ],
      "name": "deliverProduct",
      "outputs": [],
      "stateMutability": "nonpayable",
      "type": "function"
    },
    {
      "inputs": [
        {
          "internalType": "address",
          "name": "seller",
          "type": "address"
        }
      ],
      "name": "getIndexesFromSellerAddress",
      "outputs": [
        {
          "internalType": "uint256[]",
          "name": "indexes",
          "type": "uint256[]"
        }
      ],
      "stateMutability": "view",
      "type": "function"
    },
    {
      "inputs": [
        {
          "internalType": "contract Marketplace",
          "name": "marketplace",
          "type": "address"
        }
      ],
      "name": "joinMarketplace",
      "outputs": [],
      "stateMutability": "nonpayable",
      "type": "function"
    },
    {
      "inputs": [
        {
          "internalType": "address",
          "name": "",
          "type": "address"
        },
        {
          "internalType": "uint256",
          "name": "",
          "type": "uint256"
        }
      ],
      "name": "owedMoneyToBuyers",
      "outputs": [
        {
          "internalType": "uint256",
          "name": "",
          "type": "uint256"
        }
      ],
      "stateMutability": "view",
      "type": "function"
    },
    {
      "inputs": [
        {
          "internalType": "address",
          "name": "",
          "type": "address"
        },
        {
          "internalType": "uint256",
          "name": "",
          "type": "uint256"
        }
      ],
      "name": "owedMoneyToSellers",
      "outputs": [
        {
          "internalType": "uint256",
          "name": "",
          "type": "uint256"
        }
      ],
      "stateMutability": "view",
      "type": "function"
    },
    {
      "inputs": [],
      "name": "owner",
      "outputs": [
        {
          "internalType": "address",
          "name": "",
          "type": "address"
        }
      ],
      "stateMutability": "view",
      "type": "function"
    },
    {
      "inputs": [],
      "name": "ownerMarketplace",
      "outputs": [
        {
          "internalType": "contract Marketplace",
          "name": "",
          "type": "address"
        }
      ],
      "stateMutability": "view",
      "type": "function"
    },
    {
      "inputs": [
        {
          "internalType": "uint256",
          "name": "index",
          "type": "uint256"
        },
        {
          "internalType": "bytes",
          "name": "deliveryInstructions",
          "type": "bytes"
        },
        {
          "internalType": "uint256",
          "name": "expiration",
          "type": "uint256"
        },
        {
          "internalType": "address",
          "name": "from",
          "type": "address"
        },
        {
          "internalType": "bytes",
          "name": "sig",
          "type": "bytes"
        }
      ],
      "name": "payProduct",
      "outputs": [],
      "stateMutability": "nonpayable",
      "type": "function"
    },
    {
      "inputs": [],
      "name": "productCount",
      "outputs": [
        {
          "internalType": "uint256",
          "name": "",
          "type": "uint256"
        }
      ],
      "stateMutability": "view",
      "type": "function"
    },
    {
      "inputs": [
        {
          "internalType": "uint256",
          "name": "",
          "type": "uint256"
        }
      ],
      "name": "products",
      "outputs": [
        {
          "internalType": "string",
          "name": "name",
          "type": "string"
        },
        {
          "internalType": "uint256",
          "name": "price",
          "type": "uint256"
        },
        {
          "internalType": "address",
          "name": "seller",
          "type": "address"
        },
        {
          "internalType": "address",
          "name": "buyer",
          "type": "address"
        },
        {
          "internalType": "uint256",
          "name": "addDate",
          "type": "uint256"
        },
        {
          "internalType": "string",
          "name": "linkForMedia",
          "type": "string"
        },
        {
          "internalType": "bytes",
          "name": "marketHashOfData",
          "type": "bytes"
        },
        {
          "internalType": "bool",
          "name": "approved",
          "type": "bool"
        },
        {
          "internalType": "bool",
          "name": "paid",
          "type": "bool"
        },
        {
          "internalType": "bool",
          "name": "delivered",
          "type": "bool"
        },
        {
          "internalType": "bytes",
          "name": "deliveryInstructions",
          "type": "bytes"
        }
      ],
      "stateMutability": "view",
      "type": "function"
    },
    {
      "inputs": [],
      "name": "renounceOwnership",
      "outputs": [],
      "stateMutability": "nonpayable",
      "type": "function"
    },
    {
      "inputs": [
        {
          "internalType": "address",
          "name": "",
          "type": "address"
        },
        {
          "internalType": "uint256",
          "name": "",
          "type": "uint256"
        }
      ],
      "name": "sellerToProductIndexes",
      "outputs": [
        {
          "internalType": "uint256",
          "name": "",
          "type": "uint256"
        }
      ],
      "stateMutability": "view",
      "type": "function"
    },
    {
      "inputs": [],
      "name": "transferFunds",
      "outputs": [],
      "stateMutability": "nonpayable",
      "type": "function"
    },
    {
      "inputs": [
        {
          "internalType": "address",
          "name": "newOwner",
          "type": "address"
        }
      ],
      "name": "transferOwnership",
      "outputs": [],
      "stateMutability": "nonpayable",
      "type": "function"
    }
  ],
  "bytecode": "0x6080604052600060015560006007553480156200001b57600080fd5b506200003c620000306200004260201b60201c565b6200004a60201b60201c565b6200010e565b600033905090565b60008060009054906101000a900473ffffffffffffffffffffffffffffffffffffffff169050816000806101000a81548173ffffffffffffffffffffffffffffffffffffffff021916908373ffffffffffffffffffffffffffffffffffffffff1602179055508173ffffffffffffffffffffffffffffffffffffffff168173ffffffffffffffffffffffffffffffffffffffff167f8be0079c531659141344cd1fd0a4f28419497f9722a3daafe3b4186f6b6457e060405160405180910390a35050565b613541806200011e6000396000f3fe608060405234801561001057600080fd5b50600436106101005760003560e01c806372b9e2fc116100975780638da5cb5b116100665780638da5cb5b146102a3578063ac0b0445146102c1578063e0f6ef87146102dd578063f2fde38b146102fb57610100565b806372b9e2fc146101ed5780637a653f10146102095780637acc0b20146102395780637c0445771461027357610100565b80633dd9fa65116100d35780633dd9fa65146101795780634353c0ee14610195578063660eb4a3146101c5578063715018a6146101e357610100565b80630f563197146101055780631c96fb1f146101355780633c1b52c4146101515780633c68eb811461016f575b600080fd5b61011f600480360381019061011a9190612276565b610317565b60405161012c91906122c5565b60405180910390f35b61014f600480360381019061014a91906122e0565b61033c565b005b610159610bbe565b60405161016691906122c5565b60405180910390f35b610177610bc4565b005b610193600480360381019061018e91906123c8565b610e9f565b005b6101af60048036038101906101aa9190612276565b611197565b6040516101bc91906122c5565b60405180910390f35b6101cd6111c8565b6040516101da91906124f0565b60405180910390f35b6101eb6111ee565b005b6102076004803603810190610202919061264c565b611202565b005b610223600480360381019061021e9190612702565b6117cd565b60405161023091906127ed565b60405180910390f35b610253600480360381019061024e91906122e0565b611864565b60405161026a9b9a99989796959493929190612916565b60405180910390f35b61028d60048036038101906102889190612276565b611b45565b60405161029a91906122c5565b60405180910390f35b6102ab611b6a565b6040516102b891906129dd565b60405180910390f35b6102db60048036038101906102d69190612a48565b611b93565b005b6102e5611c4e565b6040516102f291906122c5565b60405180910390f35b61031560048036038101906103109190612702565b611c54565b005b6006602052816000526040600020602052806000526040600020600091509150505481565b6000600360008381526020019081526020016000206040518061016001604052908160008201805461036d90612aa4565b80601f016020809104026020016040519081016040528092919081815260200182805461039990612aa4565b80156103e65780601f106103bb576101008083540402835291602001916103e6565b820191906000526020600020905b8154815290600101906020018083116103c957829003601f168201915b50505050508152602001600182015481526020016002820160009054906101000a900473ffffffffffffffffffffffffffffffffffffffff1673ffffffffffffffffffffffffffffffffffffffff1673ffffffffffffffffffffffffffffffffffffffff1681526020016003820160009054906101000a900473ffffffffffffffffffffffffffffffffffffffff1673ffffffffffffffffffffffffffffffffffffffff1673ffffffffffffffffffffffffffffffffffffffff168152602001600482015481526020016005820180546104bf90612aa4565b80601f01602080910402602001604051908101604052809291908181526020018280546104eb90612aa4565b80156105385780601f1061050d57610100808354040283529160200191610538565b820191906000526020600020905b81548152906001019060200180831161051b57829003601f168201915b5050505050815260200160068201805461055190612aa4565b80601f016020809104026020016040519081016040528092919081815260200182805461057d90612aa4565b80156105ca5780601f1061059f576101008083540402835291602001916105ca565b820191906000526020600020905b8154815290600101906020018083116105ad57829003601f168201915b505050505081526020016007820160009054906101000a900460ff161515151581526020016007820160019054906101000a900460ff161515151581526020016007820160029054906101000a900460ff1615151515815260200160088201805461063490612aa4565b80601f016020809104026020016040519081016040528092919081815260200182805461066090612aa4565b80156106ad5780601f10610682576101008083540402835291602001916106ad565b820191906000526020600020905b81548152906001019060200180831161069057829003601f168201915b5050505050815250509050600073ffffffffffffffffffffffffffffffffffffffff16816040015173ffffffffffffffffffffffffffffffffffffffff160361072b576040517f08c379a000000000000000000000000000000000000000000000000000000000815260040161072290612b21565b60405180910390fd5b60011515816101000151151514610777576040517f08c379a000000000000000000000000000000000000000000000000000000000815260040161076e90612b8d565b60405180910390fd5b600015158161012001511515146107c3576040517f08c379a00000000000000000000000000000000000000000000000000000000081526004016107ba90612bf9565b60405180910390fd5b600073ffffffffffffffffffffffffffffffffffffffff16600260009054906101000a900473ffffffffffffffffffffffffffffffffffffffff1673ffffffffffffffffffffffffffffffffffffffff16036108205760006108c4565b60011515600260009054906101000a900473ffffffffffffffffffffffffffffffffffffffff1673ffffffffffffffffffffffffffffffffffffffff1663ccd5fcb9336040518263ffffffff1660e01b815260040161087f91906129dd565b602060405180830381865afa15801561089c573d6000803e3d6000fd5b505050506040513d601f19601f820116820180604052508101906108c09190612c45565b1515145b610903576040517f08c379a00000000000000000000000000000000000000000000000000000000081526004016108fa90612cbe565b60405180910390fd5b600060056000836040015173ffffffffffffffffffffffffffffffffffffffff1673ffffffffffffffffffffffffffffffffffffffff168152602001908152602001600020600084815260200190815260200160002054905080826020015161096c9190612d0d565b6001600082825461097d9190612d41565b92505081905550600060056000846040015173ffffffffffffffffffffffffffffffffffffffff1673ffffffffffffffffffffffffffffffffffffffff168152602001908152602001600020600085815260200190815260200160002081905550600060066000846060015173ffffffffffffffffffffffffffffffffffffffff1673ffffffffffffffffffffffffffffffffffffffff16815260200190815260200160002060008581526020019081526020016000208190555060016003600085815260200190815260200160002060070160026101000a81548160ff021916908315150217905550600260009054906101000a900473ffffffffffffffffffffffffffffffffffffffff1673ffffffffffffffffffffffffffffffffffffffff1663b8fcf9376040518163ffffffff1660e01b8152600401602060405180830381865afa158015610ad4573d6000803e3d6000fd5b505050506040513d601f19601f82011682018060405250810190610af89190612dac565b73ffffffffffffffffffffffffffffffffffffffff1663a9059cbb8360400151836040518363ffffffff1660e01b8152600401610b36929190612dd9565b6020604051808303816000875af1158015610b55573d6000803e3d6000fd5b505050506040513d601f19601f82011682018060405250810190610b799190612c45565b507f79ea1e63534a5791aeb2fa76310349fa28bd6cef2156f4240adfa686cb8a451a83836040015133604051610bb193929190612e02565b60405180910390a1505050565b60015481565b610bcc611cd7565b600073ffffffffffffffffffffffffffffffffffffffff16600260009054906101000a900473ffffffffffffffffffffffffffffffffffffffff1673ffffffffffffffffffffffffffffffffffffffff1603610c5d576040517f08c379a0000000000000000000000000000000000000000000000000000000008152600401610c5490612e85565b60405180910390fd5b6000600260009054906101000a900473ffffffffffffffffffffffffffffffffffffffff1673ffffffffffffffffffffffffffffffffffffffff1663b8fcf9376040518163ffffffff1660e01b8152600401602060405180830381865afa158015610ccc573d6000803e3d6000fd5b505050506040513d601f19601f82011682018060405250810190610cf09190612dac565b9050600073ffffffffffffffffffffffffffffffffffffffff16600260009054906101000a900473ffffffffffffffffffffffffffffffffffffffff1673ffffffffffffffffffffffffffffffffffffffff1663b8fcf9376040518163ffffffff1660e01b8152600401602060405180830381865afa158015610d77573d6000803e3d6000fd5b505050506040513d601f19601f82011682018060405250810190610d9b9190612dac565b73ffffffffffffffffffffffffffffffffffffffff1603610df1576040517f08c379a0000000000000000000000000000000000000000000000000000000008152600401610de890612ef1565b60405180910390fd5b8073ffffffffffffffffffffffffffffffffffffffff1663a9059cbb600260009054906101000a900473ffffffffffffffffffffffffffffffffffffffff166001546040518363ffffffff1660e01b8152600401610e50929190612dd9565b6020604051808303816000875af1158015610e6f573d6000803e3d6000fd5b505050506040513d601f19601f82011682018060405250810190610e939190612c45565b50600060018190555050565b60008787905003610ee5576040517f08c379a0000000000000000000000000000000000000000000000000000000008152600401610edc90612f5d565b60405180910390fd5b621e8480851015610f2b576040517f08c379a0000000000000000000000000000000000000000000000000000000008152600401610f2290612fc9565b60405180910390fd5b610f3a87878787878787611d55565b6003600060075481526020019081526020016000206000820151816000019080519060200190610f6b929190611f93565b506020820151816001015560408201518160020160006101000a81548173ffffffffffffffffffffffffffffffffffffffff021916908373ffffffffffffffffffffffffffffffffffffffff16021790555060608201518160030160006101000a81548173ffffffffffffffffffffffffffffffffffffffff021916908373ffffffffffffffffffffffffffffffffffffffff1602179055506080820151816004015560a082015181600501908051906020019061102a929190611f93565b5060c0820151816006019080519060200190611047929190612019565b5060e08201518160070160006101000a81548160ff0219169083151502179055506101008201518160070160016101000a81548160ff0219169083151502179055506101208201518160070160026101000a81548160ff0219169083151502179055506101408201518160080190805190602001906110c7929190612019565b50905050600460003373ffffffffffffffffffffffffffffffffffffffff1673ffffffffffffffffffffffffffffffffffffffff16815260200190815260200160002060075490806001815401808255809150506001900390600052602060002001600090919091909150557f4652437f761c98c9da0cbf58e43dd666358d175a79342439f8d7048fd5a546818787873360075460405161116c959493929190613016565b60405180910390a16001600760008282546111879190612d41565b9250508190555050505050505050565b600460205281600052604060002081815481106111b357600080fd5b90600052602060002001600091509150505481565b600260009054906101000a900473ffffffffffffffffffffffffffffffffffffffff1681565b6111f6611cd7565b6112006000611ec7565b565b6000600360008881526020019081526020016000209050600073ffffffffffffffffffffffffffffffffffffffff168160020160009054906101000a900473ffffffffffffffffffffffffffffffffffffffff1673ffffffffffffffffffffffffffffffffffffffff16036112ac576040517f08c379a00000000000000000000000000000000000000000000000000000000081526004016112a390612b21565b60405180910390fd5b600015158160070160019054906101000a900460ff16151514611304576040517f08c379a00000000000000000000000000000000000000000000000000000000081526004016112fb906130b0565b60405180910390fd5b6000868690500361134a576040517f08c379a00000000000000000000000000000000000000000000000000000000081526004016113419061311c565b60405180910390fd5b6000308860405160200161135f9291906131a5565b604051602081830303815290604052805190602001209050600073ffffffffffffffffffffffffffffffffffffffff16600260009054906101000a900473ffffffffffffffffffffffffffffffffffffffff1673ffffffffffffffffffffffffffffffffffffffff1603611408576040517f08c379a00000000000000000000000000000000000000000000000000000000081526004016113ff9061321d565b60405180910390fd5b600073ffffffffffffffffffffffffffffffffffffffff16600260009054906101000a900473ffffffffffffffffffffffffffffffffffffffff1673ffffffffffffffffffffffffffffffffffffffff1663b8fcf9376040518163ffffffff1660e01b8152600401602060405180830381865afa15801561148d573d6000803e3d6000fd5b505050506040513d601f19601f820116820180604052508101906114b19190612dac565b73ffffffffffffffffffffffffffffffffffffffff1603611507576040517f08c379a00000000000000000000000000000000000000000000000000000000081526004016114fe90612ef1565b60405180910390fd5b868683600801919061151a92919061209f565b5060018260070160016101000a81548160ff02191690831515021790555060646063836001015461154b919061323d565b61155591906132c6565b600560008460020160009054906101000a900473ffffffffffffffffffffffffffffffffffffffff1673ffffffffffffffffffffffffffffffffffffffff1673ffffffffffffffffffffffffffffffffffffffff16815260200190815260200160002060008a8152602001908152602001600020819055508160010154600660008673ffffffffffffffffffffffffffffffffffffffff1673ffffffffffffffffffffffffffffffffffffffff16815260200190815260200160002060008a81526020019081526020016000208190555083600360008a815260200190815260200160002060030160006101000a81548173ffffffffffffffffffffffffffffffffffffffff021916908373ffffffffffffffffffffffffffffffffffffffff1602179055506000600260009054906101000a900473ffffffffffffffffffffffffffffffffffffffff1673ffffffffffffffffffffffffffffffffffffffff1663b8fcf9376040518163ffffffff1660e01b8152600401602060405180830381865afa1580156116ea573d6000803e3d6000fd5b505050506040513d601f19601f8201168201806040525081019061170e9190612dac565b90508073ffffffffffffffffffffffffffffffffffffffff16639f4fae128784866001015489308a6040518763ffffffff1660e01b815260040161175796959493929190613310565b600060405180830381600087803b15801561177157600080fd5b505af1158015611785573d6000803e3d6000fd5b505050507f7ec1ccbaefa3247177339d05656f4035327987c9d315294231c54e78cc87927a89866040516117ba929190613378565b60405180910390a1505050505050505050565b6060600460008373ffffffffffffffffffffffffffffffffffffffff1673ffffffffffffffffffffffffffffffffffffffff16815260200190815260200160002080548060200260200160405190810160405280929190818152602001828054801561185857602002820191906000526020600020905b815481526020019060010190808311611844575b50505050509050919050565b600360205280600052604060002060009150905080600001805461188790612aa4565b80601f01602080910402602001604051908101604052809291908181526020018280546118b390612aa4565b80156119005780601f106118d557610100808354040283529160200191611900565b820191906000526020600020905b8154815290600101906020018083116118e357829003601f168201915b5050505050908060010154908060020160009054906101000a900473ffffffffffffffffffffffffffffffffffffffff16908060030160009054906101000a900473ffffffffffffffffffffffffffffffffffffffff169080600401549080600501805461196d90612aa4565b80601f016020809104026020016040519081016040528092919081815260200182805461199990612aa4565b80156119e65780601f106119bb576101008083540402835291602001916119e6565b820191906000526020600020905b8154815290600101906020018083116119c957829003601f168201915b5050505050908060060180546119fb90612aa4565b80601f0160208091040260200160405190810160405280929190818152602001828054611a2790612aa4565b8015611a745780601f10611a4957610100808354040283529160200191611a74565b820191906000526020600020905b815481529060010190602001808311611a5757829003601f168201915b5050505050908060070160009054906101000a900460ff16908060070160019054906101000a900460ff16908060070160029054906101000a900460ff1690806008018054611ac290612aa4565b80601f0160208091040260200160405190810160405280929190818152602001828054611aee90612aa4565b8015611b3b5780601f10611b1057610100808354040283529160200191611b3b565b820191906000526020600020905b815481529060010190602001808311611b1e57829003601f168201915b505050505090508b565b6005602052816000526040600020602052806000526040600020600091509150505481565b60008060009054906101000a900473ffffffffffffffffffffffffffffffffffffffff16905090565b611b9b611cd7565b600073ffffffffffffffffffffffffffffffffffffffff168173ffffffffffffffffffffffffffffffffffffffff1603611c0a576040517f08c379a0000000000000000000000000000000000000000000000000000000008152600401611c01906133ed565b60405180910390fd5b80600260006101000a81548173ffffffffffffffffffffffffffffffffffffffff021916908373ffffffffffffffffffffffffffffffffffffffff16021790555050565b60075481565b611c5c611cd7565b600073ffffffffffffffffffffffffffffffffffffffff168173ffffffffffffffffffffffffffffffffffffffff1603611ccb576040517f08c379a0000000000000000000000000000000000000000000000000000000008152600401611cc29061347f565b60405180910390fd5b611cd481611ec7565b50565b611cdf611f8b565b73ffffffffffffffffffffffffffffffffffffffff16611cfd611b6a565b73ffffffffffffffffffffffffffffffffffffffff1614611d53576040517f08c379a0000000000000000000000000000000000000000000000000000000008152600401611d4a906134eb565b60405180910390fd5b565b611d5d612125565b60405180610160016040528089898080601f016020809104026020016040519081016040528093929190818152602001838380828437600081840152601f19601f8201169050808301925050505050505081526020018781526020013373ffffffffffffffffffffffffffffffffffffffff168152602001600073ffffffffffffffffffffffffffffffffffffffff16815260200142815260200186868080601f016020809104026020016040519081016040528093929190818152602001838380828437600081840152601f19601f82011690508083019250505050505050815260200184848080601f016020809104026020016040519081016040528093929190818152602001838380828437600081840152601f19601f820116905080830192505050505050508152602001600015158152602001600015158152602001600015158152602001604051806020016040528060008152508152509050979650505050505050565b60008060009054906101000a900473ffffffffffffffffffffffffffffffffffffffff169050816000806101000a81548173ffffffffffffffffffffffffffffffffffffffff021916908373ffffffffffffffffffffffffffffffffffffffff1602179055508173ffffffffffffffffffffffffffffffffffffffff168173ffffffffffffffffffffffffffffffffffffffff167f8be0079c531659141344cd1fd0a4f28419497f9722a3daafe3b4186f6b6457e060405160405180910390a35050565b600033905090565b828054611f9f90612aa4565b90600052602060002090601f016020900481019282611fc15760008555612008565b82601f10611fda57805160ff1916838001178555612008565b82800160010185558215612008579182015b82811115612007578251825591602001919060010190611fec565b5b50905061201591906121b1565b5090565b82805461202590612aa4565b90600052602060002090601f016020900481019282612047576000855561208e565b82601f1061206057805160ff191683800117855561208e565b8280016001018555821561208e579182015b8281111561208d578251825591602001919060010190612072565b5b50905061209b91906121b1565b5090565b8280546120ab90612aa4565b90600052602060002090601f0160209004810192826120cd5760008555612114565b82601f106120e657803560ff1916838001178555612114565b82800160010185558215612114579182015b828111156121135782358255916020019190600101906120f8565b5b50905061212191906121b1565b5090565b6040518061016001604052806060815260200160008152602001600073ffffffffffffffffffffffffffffffffffffffff168152602001600073ffffffffffffffffffffffffffffffffffffffff168152602001600081526020016060815260200160608152602001600015158152602001600015158152602001600015158152602001606081525090565b5b808211156121ca5760008160009055506001016121b2565b5090565b6000604051905090565b600080fd5b600080fd5b600073ffffffffffffffffffffffffffffffffffffffff82169050919050565b600061220d826121e2565b9050919050565b61221d81612202565b811461222857600080fd5b50565b60008135905061223a81612214565b92915050565b6000819050919050565b61225381612240565b811461225e57600080fd5b50565b6000813590506122708161224a565b92915050565b6000806040838503121561228d5761228c6121d8565b5b600061229b8582860161222b565b92505060206122ac85828601612261565b9150509250929050565b6122bf81612240565b82525050565b60006020820190506122da60008301846122b6565b92915050565b6000602082840312156122f6576122f56121d8565b5b600061230484828501612261565b91505092915050565b600080fd5b600080fd5b600080fd5b60008083601f8401126123325761233161230d565b5b8235905067ffffffffffffffff81111561234f5761234e612312565b5b60208301915083600182028301111561236b5761236a612317565b5b9250929050565b60008083601f8401126123885761238761230d565b5b8235905067ffffffffffffffff8111156123a5576123a4612312565b5b6020830191508360018202830111156123c1576123c0612317565b5b9250929050565b60008060008060008060006080888a0312156123e7576123e66121d8565b5b600088013567ffffffffffffffff811115612405576124046121dd565b5b6124118a828b0161231c565b975097505060206124248a828b01612261565b955050604088013567ffffffffffffffff811115612445576124446121dd565b5b6124518a828b0161231c565b9450945050606088013567ffffffffffffffff811115612474576124736121dd565b5b6124808a828b01612372565b925092505092959891949750929550565b6000819050919050565b60006124b66124b16124ac846121e2565b612491565b6121e2565b9050919050565b60006124c88261249b565b9050919050565b60006124da826124bd565b9050919050565b6124ea816124cf565b82525050565b600060208201905061250560008301846124e1565b92915050565b600080fd5b6000601f19601f8301169050919050565b7f4e487b7100000000000000000000000000000000000000000000000000000000600052604160045260246000fd5b61255982612510565b810181811067ffffffffffffffff8211171561257857612577612521565b5b80604052505050565b600061258b6121ce565b90506125978282612550565b919050565b600067ffffffffffffffff8211156125b7576125b6612521565b5b6125c082612510565b9050602081019050919050565b82818337600083830152505050565b60006125ef6125ea8461259c565b612581565b90508281526020810184848401111561260b5761260a61250b565b5b6126168482856125cd565b509392505050565b600082601f8301126126335761263261230d565b5b81356126438482602086016125dc565b91505092915050565b60008060008060008060a08789031215612669576126686121d8565b5b600061267789828a01612261565b965050602087013567ffffffffffffffff811115612698576126976121dd565b5b6126a489828a01612372565b955095505060406126b789828a01612261565b93505060606126c889828a0161222b565b925050608087013567ffffffffffffffff8111156126e9576126e86121dd565b5b6126f589828a0161261e565b9150509295509295509295565b600060208284031215612718576127176121d8565b5b60006127268482850161222b565b91505092915050565b600081519050919050565b600082825260208201905092915050565b6000819050602082019050919050565b61276481612240565b82525050565b6000612776838361275b565b60208301905092915050565b6000602082019050919050565b600061279a8261272f565b6127a4818561273a565b93506127af8361274b565b8060005b838110156127e05781516127c7888261276a565b97506127d283612782565b9250506001810190506127b3565b5085935050505092915050565b60006020820190508181036000830152612807818461278f565b905092915050565b600081519050919050565b600082825260208201905092915050565b60005b8381101561284957808201518184015260208101905061282e565b83811115612858576000848401525b50505050565b60006128698261280f565b612873818561281a565b935061288381856020860161282b565b61288c81612510565b840191505092915050565b6128a081612202565b82525050565b600081519050919050565b600082825260208201905092915050565b60006128cd826128a6565b6128d781856128b1565b93506128e781856020860161282b565b6128f081612510565b840191505092915050565b60008115159050919050565b612910816128fb565b82525050565b6000610160820190508181036000830152612931818e61285e565b9050612940602083018d6122b6565b61294d604083018c612897565b61295a606083018b612897565b612967608083018a6122b6565b81810360a0830152612979818961285e565b905081810360c083015261298d81886128c2565b905061299c60e0830187612907565b6129aa610100830186612907565b6129b8610120830185612907565b8181036101408301526129cb81846128c2565b90509c9b505050505050505050505050565b60006020820190506129f26000830184612897565b92915050565b6000612a03826121e2565b9050919050565b6000612a15826129f8565b9050919050565b612a2581612a0a565b8114612a3057600080fd5b50565b600081359050612a4281612a1c565b92915050565b600060208284031215612a5e57612a5d6121d8565b5b6000612a6c84828501612a33565b91505092915050565b7f4e487b7100000000000000000000000000000000000000000000000000000000600052602260045260246000fd5b60006002820490506001821680612abc57607f821691505b602082108103612acf57612ace612a75565b5b50919050565b7f4e6f20737563682070726f647563740000000000000000000000000000000000600082015250565b6000612b0b600f8361281a565b9150612b1682612ad5565b602082019050919050565b60006020820190508181036000830152612b3a81612afe565b9050919050565b7f50726f64756374206e6f74207061696400000000000000000000000000000000600082015250565b6000612b7760108361281a565b9150612b8282612b41565b602082019050919050565b60006020820190508181036000830152612ba681612b6a565b9050919050565b7f50726f6475637420616c72656164792064656c69766572656400000000000000600082015250565b6000612be360198361281a565b9150612bee82612bad565b602082019050919050565b60006020820190508181036000830152612c1281612bd6565b9050919050565b612c22816128fb565b8114612c2d57600080fd5b50565b600081519050612c3f81612c19565b92915050565b600060208284031215612c5b57612c5a6121d8565b5b6000612c6984828501612c30565b91505092915050565b7f4e6f7420616e20617574686f72697a656420636f757269657200000000000000600082015250565b6000612ca860198361281a565b9150612cb382612c72565b602082019050919050565b60006020820190508181036000830152612cd781612c9b565b9050919050565b7f4e487b7100000000000000000000000000000000000000000000000000000000600052601160045260246000fd5b6000612d1882612240565b9150612d2383612240565b925082821015612d3657612d35612cde565b5b828203905092915050565b6000612d4c82612240565b9150612d5783612240565b9250827fffffffffffffffffffffffffffffffffffffffffffffffffffffffffffffffff03821115612d8c57612d8b612cde565b5b828201905092915050565b600081519050612da681612214565b92915050565b600060208284031215612dc257612dc16121d8565b5b6000612dd084828501612d97565b91505092915050565b6000604082019050612dee6000830185612897565b612dfb60208301846122b6565b9392505050565b6000606082019050612e1760008301866122b6565b612e246020830185612897565b612e316040830184612897565b949350505050565b7f446f65736e27742068617665206f776e6572206d61726b6574706c6163650000600082015250565b6000612e6f601e8361281a565b9150612e7a82612e39565b602082019050919050565b60006020820190508181036000830152612e9e81612e62565b9050919050565b7f4e6f20746f6b656e207370656369666965640000000000000000000000000000600082015250565b6000612edb60128361281a565b9150612ee682612ea5565b602082019050919050565b60006020820190508181036000830152612f0a81612ece565b9050919050565b7f4e616d652073686f756c646e277420626520656d707479000000000000000000600082015250565b6000612f4760178361281a565b9150612f5282612f11565b602082019050919050565b60006020820190508181036000830152612f7681612f3a565b9050919050565b7f50726963652073686f756c64206265203e3d3230303030303000000000000000600082015250565b6000612fb360198361281a565b9150612fbe82612f7d565b602082019050919050565b60006020820190508181036000830152612fe281612fa6565b9050919050565b6000612ff5838561281a565b93506130028385846125cd565b61300b83612510565b840190509392505050565b60006080820190508181036000830152613031818789612fe9565b905061304060208301866122b6565b61304d6040830185612897565b61305a60608301846122b6565b9695505050505050565b7f50726f6475637420616c726561647920626f7567687400000000000000000000600082015250565b600061309a60168361281a565b91506130a582613064565b602082019050919050565b600060208201905081810360008301526130c98161308d565b9050919050565b7f4e6f2064656c697665727920696e737472756374696f6e730000000000000000600082015250565b600061310660188361281a565b9150613111826130d0565b602082019050919050565b60006020820190508181036000830152613135816130f9565b9050919050565b60008160601b9050919050565b60006131548261313c565b9050919050565b600061316682613149565b9050919050565b61317e61317982612202565b61315b565b82525050565b6000819050919050565b61319f61319a82612240565b613184565b82525050565b60006131b1828561316d565b6014820191506131c1828461318e565b6020820191508190509392505050565b7f4e6f206d61726b6574706c616365000000000000000000000000000000000000600082015250565b6000613207600e8361281a565b9150613212826131d1565b602082019050919050565b60006020820190508181036000830152613236816131fa565b9050919050565b600061324882612240565b915061325383612240565b9250817fffffffffffffffffffffffffffffffffffffffffffffffffffffffffffffffff048311821515161561328c5761328b612cde565b5b828202905092915050565b7f4e487b7100000000000000000000000000000000000000000000000000000000600052601260045260246000fd5b60006132d182612240565b91506132dc83612240565b9250826132ec576132eb613297565b5b828204905092915050565b6000819050919050565b61330a816132f7565b82525050565b600060c08201905061332560008301896122b6565b6133326020830188613301565b61333f60408301876122b6565b61334c6060830186612897565b6133596080830185612897565b81810360a083015261336b81846128c2565b9050979650505050505050565b600060408201905061338d60008301856122b6565b61339a6020830184612897565b9392505050565b7f416464726573732073686f756c646e2774206265203000000000000000000000600082015250565b60006133d760168361281a565b91506133e2826133a1565b602082019050919050565b60006020820190508181036000830152613406816133ca565b9050919050565b7f4f776e61626c653a206e6577206f776e657220697320746865207a65726f206160008201527f6464726573730000000000000000000000000000000000000000000000000000602082015250565b600061346960268361281a565b91506134748261340d565b604082019050919050565b600060208201905081810360008301526134988161345c565b9050919050565b7f4f776e61626c653a2063616c6c6572206973206e6f7420746865206f776e6572600082015250565b60006134d560208361281a565b91506134e08261349f565b602082019050919050565b60006020820190508181036000830152613504816134c8565b905091905056fea26469706673582212204a943a1a1432dbf62a05290a39d4bfa59e14dc4be565008237e666cfc1a4440464736f6c634300080d0033",
  "linkReferences": {},
  "deployedLinkReferences": {}
}