{
  "_format": "hh-sol-artifact-1",
  "contractName": "SimpleAuction",
  "sourceName": "contracts/SimpleAuction.sol",
  "abi": [
    {
      "anonymous": false,
      "inputs": [
        {
          "indexed": true,
          "internalType": "address",
          "name": "previousOwner",
          "type": "address"
        },
        {
          "indexed": true,
          "internalType": "address",
          "name": "newOwner",
          "type": "address"
        }
      ],
      "name": "OwnershipTransferred",
      "type": "event"
    },
    {
      "anonymous": false,
      "inputs": [
        {
          "indexed": false,
          "internalType": "string",
          "name": "name",
          "type": "string"
        },
        {
          "indexed": false,
          "internalType": "uint256",
          "name": "minimalPrice",
          "type": "uint256"
        },
        {
          "indexed": false,
          "internalType": "address",
          "name": "seller",
          "type": "address"
        },
        {
          "indexed": false,
          "internalType": "uint256",
          "name": "index",
          "type": "uint256"
        }
      ],
      "name": "auctionProductAdded",
      "type": "event"
    },
    {
      "anonymous": false,
      "inputs": [
        {
          "indexed": false,
          "internalType": "uint256",
          "name": "index",
          "type": "uint256"
        },
        {
          "indexed": false,
          "internalType": "address",
          "name": "bidder",
          "type": "address"
        },
        {
          "indexed": false,
          "internalType": "uint256",
          "name": "amount",
          "type": "uint256"
        }
      ],
      "name": "auctionProductBid",
      "type": "event"
    },
    {
      "anonymous": false,
      "inputs": [
        {
          "indexed": false,
          "internalType": "uint256",
          "name": "index",
          "type": "uint256"
        },
        {
          "indexed": false,
          "internalType": "address",
          "name": "buyer",
          "type": "address"
        },
        {
          "indexed": false,
          "internalType": "address",
          "name": "courier",
          "type": "address"
        }
      ],
      "name": "auctionProductDelivered",
      "type": "event"
    },
    {
      "inputs": [
        {
          "internalType": "string",
          "name": "name",
          "type": "string"
        },
        {
          "internalType": "uint256",
          "name": "minimalPrice",
          "type": "uint256"
        },
        {
          "internalType": "string",
          "name": "link",
          "type": "string"
        },
        {
          "internalType": "bytes32",
          "name": "marketHashOfData",
          "type": "bytes32"
        },
        {
          "internalType": "uint256",
          "name": "finishDate",
          "type": "uint256"
        }
      ],
      "name": "addProduct",
      "outputs": [],
      "stateMutability": "nonpayable",
      "type": "function"
    },
    {
      "inputs": [],
      "name": "belongsToContract",
      "outputs": [
        {
          "internalType": "uint256",
          "name": "",
          "type": "uint256"
        }
      ],
      "stateMutability": "view",
      "type": "function"
    },
    {
      "inputs": [
        {
          "internalType": "uint256",
          "name": "index",
          "type": "uint256"
        },
        {
          "internalType": "bytes",
          "name": "deliveryInstructions",
          "type": "bytes"
        },
        {
          "internalType": "uint256",
          "name": "amount",
          "type": "uint256"
        },
        {
          "internalType": "address",
          "name": "from",
          "type": "address"
        },
        {
          "internalType": "bytes",
          "name": "sig",
          "type": "bytes"
        }
      ],
      "name": "bidForProduct",
      "outputs": [],
      "stateMutability": "payable",
      "type": "function"
    },
    {
      "inputs": [
        {
          "internalType": "uint256",
          "name": "index",
          "type": "uint256"
        }
      ],
      "name": "deliverProduct",
      "outputs": [],
      "stateMutability": "nonpayable",
      "type": "function"
    },
    {
      "inputs": [
        {
          "internalType": "address",
          "name": "seller",
          "type": "address"
        }
      ],
      "name": "getIndexesFromSellerAddress",
      "outputs": [
        {
          "internalType": "uint256[]",
          "name": "indexes",
          "type": "uint256[]"
        }
      ],
      "stateMutability": "view",
      "type": "function"
    },
    {
      "inputs": [
        {
          "internalType": "contract Marketplace",
          "name": "marketplace",
          "type": "address"
        }
      ],
      "name": "joinMarketplace",
      "outputs": [],
      "stateMutability": "nonpayable",
      "type": "function"
    },
    {
      "inputs": [
        {
          "internalType": "address",
          "name": "",
          "type": "address"
        },
        {
          "internalType": "uint256",
          "name": "",
          "type": "uint256"
        }
      ],
      "name": "owedMoneyToBidders",
      "outputs": [
        {
          "internalType": "uint256",
          "name": "",
          "type": "uint256"
        }
      ],
      "stateMutability": "view",
      "type": "function"
    },
    {
      "inputs": [],
      "name": "owner",
      "outputs": [
        {
          "internalType": "address",
          "name": "",
          "type": "address"
        }
      ],
      "stateMutability": "view",
      "type": "function"
    },
    {
      "inputs": [],
      "name": "ownerMarketplace",
      "outputs": [
        {
          "internalType": "contract Marketplace",
          "name": "",
          "type": "address"
        }
      ],
      "stateMutability": "view",
      "type": "function"
    },
    {
      "inputs": [],
      "name": "productCount",
      "outputs": [
        {
          "internalType": "uint256",
          "name": "",
          "type": "uint256"
        }
      ],
      "stateMutability": "view",
      "type": "function"
    },
    {
      "inputs": [
        {
          "internalType": "uint256",
          "name": "",
          "type": "uint256"
        }
      ],
      "name": "products",
      "outputs": [
        {
          "internalType": "string",
          "name": "name",
          "type": "string"
        },
        {
          "internalType": "uint256",
          "name": "minimalPrice",
          "type": "uint256"
        },
        {
          "internalType": "address",
          "name": "seller",
          "type": "address"
        },
        {
          "internalType": "uint256",
          "name": "addDate",
          "type": "uint256"
        },
        {
          "internalType": "string",
          "name": "linkForMedia",
          "type": "string"
        },
        {
          "internalType": "bytes32",
          "name": "marketHashOfData",
          "type": "bytes32"
        },
        {
          "internalType": "bool",
          "name": "approved",
          "type": "bool"
        },
        {
          "internalType": "bool",
          "name": "delivered",
          "type": "bool"
        },
        {
          "internalType": "bytes",
          "name": "deliveryInstructions",
          "type": "bytes"
        },
        {
          "internalType": "address",
          "name": "currentBidder",
          "type": "address"
        },
        {
          "internalType": "uint256",
          "name": "bidAmount",
          "type": "uint256"
        },
        {
          "internalType": "uint256",
          "name": "finishDate",
          "type": "uint256"
        }
      ],
      "stateMutability": "view",
      "type": "function"
    },
    {
      "inputs": [],
      "name": "renounceOwnership",
      "outputs": [],
      "stateMutability": "nonpayable",
      "type": "function"
    },
    {
      "inputs": [
        {
          "internalType": "address",
          "name": "",
          "type": "address"
        },
        {
          "internalType": "uint256",
          "name": "",
          "type": "uint256"
        }
      ],
      "name": "sellerToProductIndexes",
      "outputs": [
        {
          "internalType": "uint256",
          "name": "",
          "type": "uint256"
        }
      ],
      "stateMutability": "view",
      "type": "function"
    },
    {
      "inputs": [],
      "name": "transferFunds",
      "outputs": [],
      "stateMutability": "nonpayable",
      "type": "function"
    },
    {
      "inputs": [
        {
          "internalType": "address",
          "name": "newOwner",
          "type": "address"
        }
      ],
      "name": "transferOwnership",
      "outputs": [],
      "stateMutability": "nonpayable",
      "type": "function"
    }
  ],
  "bytecode": "0x6080604052600060025560006006553480156200001b57600080fd5b506200003c620000306200004260201b60201c565b6200004a60201b60201c565b6200010e565b600033905090565b60008060009054906101000a900473ffffffffffffffffffffffffffffffffffffffff169050816000806101000a81548173ffffffffffffffffffffffffffffffffffffffff021916908373ffffffffffffffffffffffffffffffffffffffff1602179055508173ffffffffffffffffffffffffffffffffffffffff168173ffffffffffffffffffffffffffffffffffffffff167f8be0079c531659141344cd1fd0a4f28419497f9722a3daafe3b4186f6b6457e060405160405180910390a35050565b614f17806200011e6000396000f3fe6080604052600436106100e85760003560e01c80637a653f101161008a578063ac0b044511610059578063ac0b0445146102cc578063cb502b91146102f5578063e0f6ef8714610332578063f2fde38b1461035d576100e8565b80637a653f10146102005780637acc0b201461023d5780638da5cb5b146102855780638e76078b146102b0576100e8565b80634353c0ee116100c65780634353c0ee146101585780635e7bef8a14610195578063660eb4a3146101be578063715018a6146101e9576100e8565b80631c96fb1f146100ed5780633c1b52c4146101165780633c68eb8114610141575b600080fd5b3480156100f957600080fd5b50610114600480360381019061010f9190613a98565b610386565b005b34801561012257600080fd5b5061012b6111be565b6040516101389190613ad4565b60405180910390f35b34801561014d57600080fd5b506101566111c4565b005b34801561016457600080fd5b5061017f600480360381019061017a9190613b4d565b611733565b60405161018c9190613ad4565b60405180910390f35b3480156101a157600080fd5b506101bc60048036038101906101b79190613c28565b611764565b005b3480156101ca57600080fd5b506101d3611e1d565b6040516101e09190613d43565b60405180910390f35b3480156101f557600080fd5b506101fe611e43565b005b34801561020c57600080fd5b5061022760048036038101906102229190613d5e565b611e57565b6040516102349190613e49565b60405180910390f35b34801561024957600080fd5b50610264600480360381019061025f9190613a98565b611f72565b60405161027c9c9b9a99989796959493929190613f92565b60405180910390f35b34801561029157600080fd5b5061029a6121c4565b6040516102a79190614061565b60405180910390f35b6102ca60048036038101906102c59190614202565b6121ed565b005b3480156102d857600080fd5b506102f360048036038101906102ee9190614308565b61326b565b005b34801561030157600080fd5b5061031c60048036038101906103179190613b4d565b61345a565b6040516103299190613ad4565b60405180910390f35b34801561033e57600080fd5b5061034761347f565b6040516103549190613ad4565b60405180910390f35b34801561036957600080fd5b50610384600480360381019061037f9190613d5e565b613485565b005b6103b27f588f57de03f34e48756855aadbda16c2e83931192b26ed4691458bc513ba2a8960001b613508565b6103de7ff6a6851bdeb5b99ba186741a30df534f4fc92f90db9af865854fdbfa46f83e0560001b613508565b61040a7f70257c4a73909db73709a60de18fd261a343c65ed12cf2db5084c2208230433b60001b613508565b6104367fee99c53ad98ef763db36db8dc6a260638674fe43cb07bc7e5fe3cbc2c4dca42960001b613508565b600073ffffffffffffffffffffffffffffffffffffffff16600160009054906101000a900473ffffffffffffffffffffffffffffffffffffffff1673ffffffffffffffffffffffffffffffffffffffff16036104c7576040517f08c379a00000000000000000000000000000000000000000000000000000000081526004016104be90614381565b60405180910390fd5b6104f37fde4011912a3dd708433baa7e36d0ff333e0f61844d4fefab6572cc7afceff32f60001b613508565b61051f7fc743618a6abd8100bd5b8f6d75c39482dd1c1676613891082310c728f272b18d60001b613508565b61054b7fbade50b1d10cf4175abf84638c1d1457fcebb87aac991df442a708bd16a01d0b60001b613508565b6105777f294a78231ed03fad264fe991d817311937886a144567d3937db76569f1ff647360001b613508565b600160009054906101000a900473ffffffffffffffffffffffffffffffffffffffff1673ffffffffffffffffffffffffffffffffffffffff1663ccd5fcb9336040518263ffffffff1660e01b81526004016105d29190614061565b602060405180830381865afa1580156105ef573d6000803e3d6000fd5b505050506040513d601f19601f8201168201806040525081019061061391906143cd565b610652576040517f08c379a000000000000000000000000000000000000000000000000000000000815260040161064990614446565b60405180910390fd5b61067e7f489149cffbf9d192f4807ea5be27eed4c17b93462ba3ef9ef7c7497efcf4d39360001b613508565b6106aa7fe522bcc537002985bfd722a0c01842ac127dc6a8d340796c23a86c737859d1b960001b613508565b6106d67f13f84d7a4f269511b8f418e6e480cf683cd1089856d822e116f9ce18ce67b61860001b613508565b6107027f60029ed68d4351ef132fdd2f66a7bc6cb81970bfb6b2a95fb452b4d9fa696c2b60001b613508565b61072e7f6a37ec98b6b3b8170d2260bebb09169e28257be00c44cf7e233e3eb2e8a1b62a60001b613508565b6000600360008381526020019081526020016000206040518061018001604052908160008201805461075f90614495565b80601f016020809104026020016040519081016040528092919081815260200182805461078b90614495565b80156107d85780601f106107ad576101008083540402835291602001916107d8565b820191906000526020600020905b8154815290600101906020018083116107bb57829003601f168201915b50505050508152602001600182015481526020016002820160009054906101000a900473ffffffffffffffffffffffffffffffffffffffff1673ffffffffffffffffffffffffffffffffffffffff1673ffffffffffffffffffffffffffffffffffffffff1681526020016003820154815260200160048201805461085b90614495565b80601f016020809104026020016040519081016040528092919081815260200182805461088790614495565b80156108d45780601f106108a9576101008083540402835291602001916108d4565b820191906000526020600020905b8154815290600101906020018083116108b757829003601f168201915b50505050508152602001600582015481526020016006820160009054906101000a900460ff161515151581526020016006820160019054906101000a900460ff1615151515815260200160078201805461092d90614495565b80601f016020809104026020016040519081016040528092919081815260200182805461095990614495565b80156109a65780601f1061097b576101008083540402835291602001916109a6565b820191906000526020600020905b81548152906001019060200180831161098957829003601f168201915b505050505081526020016008820160009054906101000a900473ffffffffffffffffffffffffffffffffffffffff1673ffffffffffffffffffffffffffffffffffffffff1673ffffffffffffffffffffffffffffffffffffffff16815260200160098201548152602001600a820154815250509050610a477f1ed6932305fe483c01f7a3a4d4ae96b2bb0558a725198aa29472aff46c5c51ef60001b613508565b610a737ff063e7591b7d3bb90ea104915d58a18cfc3995d9c521079eac9477a471a989f160001b613508565b610a9f7f8577e1b6d358e413c40f2fdd275139a0df43411f319105aa460b47a2d8b4dac460001b613508565b600073ffffffffffffffffffffffffffffffffffffffff16816040015173ffffffffffffffffffffffffffffffffffffffff1603610b12576040517f08c379a0000000000000000000000000000000000000000000000000000000008152600401610b0990614512565b60405180910390fd5b610b3e7f56778ecd54b244d29df9e5126936533bded13076dc675d9f0039082cda6323db60001b613508565b610b6a7feb0da3f1ad97770762eb6e4a7ead4dd393e650675104983a70cd6c1058ed0f3760001b613508565b610b967f80f5d26b2636af0f5d4d279754de8ee4d8820e2751f036e39d60eef1d84b141a60001b613508565b610bc27f48fa0a1d63b6e991b00b50e590816baa6855669f1e8f621dcd287897cfe9ba3660001b613508565b4281610160015110610c09576040517f08c379a0000000000000000000000000000000000000000000000000000000008152600401610c009061457e565b60405180910390fd5b610c357f22f863ce2428ff37d5b8f1644ed490229fd83d5d5b12ae16379e1964d1cae7f960001b613508565b610c617f6903f422fba9a5d92dd4442cf7b2e3d2ef5317d1c8a8397ca18eca49abf906d960001b613508565b610c8d7fef0f374f1a8fed0e7f4b0506776c407b45fd4d193effb4962028c0d80c1be3b060001b613508565b610cb97f344f1a7af20f99f67efbd22001cf9fd68b369d7b29ae717cd679420578f002ca60001b613508565b600015158160e00151151514610d04576040517f08c379a0000000000000000000000000000000000000000000000000000000008152600401610cfb906145ea565b60405180910390fd5b610d307fa82cf66462756d99ad6d4f7d25e64f8a1e5d85218b5d5319f160981aa1b315e560001b613508565b610d5c7f550b3c7cac9147d7883aac29aade3c59ff6bf69406c85c8c09077c3fcf7a0a8960001b613508565b610d887fd57cf932bbdbe9b75591f4ef216047ef8193b39a1e25d3cc245916beda9371cd60001b613508565b6000606460636005600085610120015173ffffffffffffffffffffffffffffffffffffffff1673ffffffffffffffffffffffffffffffffffffffff168152602001908152602001600020600086815260200190815260200160002054610dee9190614639565b610df891906146c2565b9050610e267f2b9f902c86470bf30c156c8bf23a9cd499484c118bdb016e4e143f882bcee09e60001b613508565b610e527fe3d4215b8455cec22889bfe5c9a0fb7ea9afb4e2c577cea7c05d70c3d7465b7760001b613508565b6064826101400151610e6491906146c2565b60026000828254610e7591906146f3565b92505081905550610ea87fff0057e9dc8edce796824c057cfc867d35b0376fb173dd4e2e734a76304c3c7360001b613508565b610ed47f5b1f306841e73baf382b6b75a44cdc965aa7363e73295b3805a2df55e1f9059660001b613508565b60006005600084610120015173ffffffffffffffffffffffffffffffffffffffff1673ffffffffffffffffffffffffffffffffffffffff168152602001908152602001600020600085815260200190815260200160002081905550610f5b7fc3a3b59f57ace18de523906ce2ec3b45986be58f48e3eb3e73aad3b0b4ed77f160001b613508565b610f877f79fab545c573153bea9e4ee414c75a3075e90ee22beb500cf0851e103e8a131160001b613508565b60016003600085815260200190815260200160002060060160016101000a81548160ff021916908315150217905550610fe27f22e9debf7fbe7998761338dcd7d74671b478e599962722f48b0e139a89c2439060001b613508565b61100e7f1dced47071b590b182ddb0cb5ac35383888b7e99902cac8ff20fb5ffa637f39460001b613508565b600160009054906101000a900473ffffffffffffffffffffffffffffffffffffffff1673ffffffffffffffffffffffffffffffffffffffff1663b8fcf9376040518163ffffffff1660e01b8152600401602060405180830381865afa15801561107b573d6000803e3d6000fd5b505050506040513d601f19601f8201168201806040525081019061109f919061475e565b73ffffffffffffffffffffffffffffffffffffffff1663a9059cbb8360400151836040518363ffffffff1660e01b81526004016110dd92919061478b565b6020604051808303816000875af11580156110fc573d6000803e3d6000fd5b505050506040513d601f19601f8201168201806040525081019061112091906143cd565b5061114d7f5044492aca56d834dc5fe0380d5cec54401d5ebe8cf1e879223cf5264abee04160001b613508565b6111797f817f6f8e589934ed47ba0f5a0ebf930aeb977245b895dbce5e1a670f2dbf227b60001b613508565b7f9d95947801b2af7d1ed03cfed8027ebe75cd4a16100de3a0ffdb30f58c6a019283836101200151336040516111b1939291906147b4565b60405180910390a1505050565b60025481565b6111cc61350b565b6111f87fbf1328dcf459003b0447a0aef89583e27bcb61497089251f3dd1b8894ab368b460001b613508565b6112247f6230d763beb3e5aba42172b0699857d0110ff3388ba50dc311aa5682b26e10bf60001b613508565b6112507f33de731693ab883fa787cc0f17deb97b7dc64ebce6b92660fef72e9c057db43a60001b613508565b61127c7f601c6c695bc3efb99cabcc5faaf9bde08ed61a5008526212e9cf9e2b3f911bc660001b613508565b600073ffffffffffffffffffffffffffffffffffffffff16600160009054906101000a900473ffffffffffffffffffffffffffffffffffffffff1673ffffffffffffffffffffffffffffffffffffffff160361130d576040517f08c379a000000000000000000000000000000000000000000000000000000000815260040161130490614837565b60405180910390fd5b6113397fc3d4c684d7decba36e39edcf00050143cce22351b8624d6d81cd697de94466b060001b613508565b6113657f2f424ee5dbfee485bc8e069912f2ffb7d771440fcb5ea1b3f14dc9744647350f60001b613508565b6113917f8c589333d8ba648c09342ebb360832335acaa5f7cd35594a87311028565db29160001b613508565b6000600160009054906101000a900473ffffffffffffffffffffffffffffffffffffffff1673ffffffffffffffffffffffffffffffffffffffff1663b8fcf9376040518163ffffffff1660e01b8152600401602060405180830381865afa158015611400573d6000803e3d6000fd5b505050506040513d601f19601f82011682018060405250810190611424919061475e565b90506114527f0880ce0c9c04ba9e753f2f7059f7ce27f01e3e998649cc071db559a74f28730f60001b613508565b61147e7f7a8227761e7a16bfe677e311f29d91527a9f149260a5e4000a69e34ae4418b5f60001b613508565b6114aa7fee3e5c3ab5daba7bad9ecb371e926ffc492de4b4955bfb8a2dffc96030db48f960001b613508565b600073ffffffffffffffffffffffffffffffffffffffff16600160009054906101000a900473ffffffffffffffffffffffffffffffffffffffff1673ffffffffffffffffffffffffffffffffffffffff1663b8fcf9376040518163ffffffff1660e01b8152600401602060405180830381865afa15801561152f573d6000803e3d6000fd5b505050506040513d601f19601f82011682018060405250810190611553919061475e565b73ffffffffffffffffffffffffffffffffffffffff16036115a9576040517f08c379a00000000000000000000000000000000000000000000000000000000081526004016115a0906148a3565b60405180910390fd5b6115d57f1b3c577e025070be7e61fd6a6f73922326859fb5cb843bf215b8c5a920ff288960001b613508565b6116017f8da41d3d44b4da7e3c70bece730227b40eea41d5d35daff93ae5406a2372925360001b613508565b61162d7f83991b94a6b125cacd9fdd14bf45c54643b16b9bad0322deeed5db204b222ecb60001b613508565b8073ffffffffffffffffffffffffffffffffffffffff1663a9059cbb600160009054906101000a900473ffffffffffffffffffffffffffffffffffffffff166002546040518363ffffffff1660e01b815260040161168c92919061478b565b6020604051808303816000875af11580156116ab573d6000803e3d6000fd5b505050506040513d601f19601f820116820180604052508101906116cf91906143cd565b506116fc7f3becce973ae7450719a323568b3f42e8b55c52e4eacc66b8bab9d06d242cd3e660001b613508565b6117287fb7ac14198cf4fe7beafa8ca059e61b2afcd5a341533f93026fa8ffa3a26c3b4560001b613508565b600060028190555050565b6004602052816000526040600020818154811061174f57600080fd5b90600052602060002001600091509150505481565b6117907fcf95a0e70ef033111bcf290a4acd3ee406ec57a3cb4af440bcc4570d7658dfed60001b613508565b6117bc7fe5c4c45a984c708cd1fffc431a76b62af5379d7111c3cf96aadbac5674c43ead60001b613508565b6117e87fd0e3ec9ec6e3254453b5d9767d5f6f801ebaab80e3a8ee74fb4393b2143db95760001b613508565b6118147fc38ad9daf7bee1abbe778981d6232ab2a72ff8bbb498b649ac46c3db917249a560001b613508565b6000878790500361185a576040517f08c379a00000000000000000000000000000000000000000000000000000000081526004016118519061490f565b60405180910390fd5b6118867fa8bce352d4f48d4e4613298dd1353272b5bfa11f7c307434bfde8b8dcc89b59060001b613508565b6118b27f72055d5a0de45c7c8c34efa7c2e12bdee70ef1020de85e80bd061b9a4769895460001b613508565b6118de7f5957b7ced594154814ac02d539ec79f53337d28ebcffe25d2dc53087c4a72c4160001b613508565b61190a7f35a2ba8cabd215c5bc4f10f3fe19c1d3487b091f3135ddd89a7029913e81831160001b613508565b621e8480851015611950576040517f08c379a00000000000000000000000000000000000000000000000000000000081526004016119479061497b565b60405180910390fd5b61197c7fc8a8ed3e2637189150f7f11a27dcd412a680fa48b5ed0ef572538ecfe492f2f560001b613508565b6119a87fbb96f966d8dbbff6986d021814a4c74a85726dadb0716de0942f8f825d32d73760001b613508565b6119d47f037864dd30ee1b7150f50a4e48ab516b98c51a90df13b87ff25d51a6c0cbc53e60001b613508565b611a007f51e7eaf51e6b729553db40f024464e298b57f21bc59573dedcfe6cc2126d7f7460001b613508565b42811015611a43576040517f08c379a0000000000000000000000000000000000000000000000000000000008152600401611a3a906149e7565b60405180910390fd5b611a6f7ffc19fc76429e3e144eb773f1c3451f9580827cd1124b8eca42874a0977cc2aed60001b613508565b611a9b7fac686d83b8001ad2c76f750cd6fd3815f711ab54a0cbbb607ab4f3faa6b2ad5160001b613508565b611ac77f6b0b1c27f0db8095acac80ceaa5a24c857f38755897985530d612983c2acec6160001b613508565b611ad687878787878787613589565b6003600060065481526020019081526020016000206000820151816000019080519060200190611b0792919061380b565b506020820151816001015560408201518160020160006101000a81548173ffffffffffffffffffffffffffffffffffffffff021916908373ffffffffffffffffffffffffffffffffffffffff160217905550606082015181600301556080820151816004019080519060200190611b7f92919061380b565b5060a0820151816005015560c08201518160060160006101000a81548160ff02191690831515021790555060e08201518160060160016101000a81548160ff021916908315150217905550610100820151816007019080519060200190611be7929190613891565b506101208201518160080160006101000a81548173ffffffffffffffffffffffffffffffffffffffff021916908373ffffffffffffffffffffffffffffffffffffffff160217905550610140820151816009015561016082015181600a0155905050611c757f3aa2a72e3d49f122778a0d2bfc45f05b5bb17e7352d3c8a467561a52464210a560001b613508565b611ca17fa8f4379c6d890bfe7c6b7ddaea745fe02c559c325928aadbf83d750524974ab460001b613508565b600460003373ffffffffffffffffffffffffffffffffffffffff1673ffffffffffffffffffffffffffffffffffffffff1681526020019081526020016000206006549080600181540180825580915050600190039060005260206000200160009091909190915055611d357f9ac7343631a7728dca5e728f7e8e3e59a56c64f01e1fc79e335c0b5c20af867b60001b613508565b611d617f5dfe208fba1640a18226c0d23b78406f8d9014d46da5f5e179ef43eb3aa070c660001b613508565b7f0bdd03d34418de4e37692923185ccdd7efa31d93f02a21636cfaf39cd2ee204187878733600654604051611d9a959493929190614a34565b60405180910390a1611dce7f9a6ffcdfa4b955ce2399ba952a765cff650d770ce2e397cb74d24386f4d0c9e360001b613508565b611dfa7f8209ed3915d33e8e7c88bef295f2941ef964ea94f5048eee3a96f943d44d4e4a60001b613508565b600160066000828254611e0d91906146f3565b9250508190555050505050505050565b600160009054906101000a900473ffffffffffffffffffffffffffffffffffffffff1681565b611e4b61350b565b611e55600061373f565b565b6060611e857f8018705ef1868922fb5c794613385a9bd74a9c7a660bca728e55d3ca9398df3260001b613508565b611eb17f822dead08a935efc2b7e9fdfe2ffa8839c5b26e5728307fa22fb4711b796ab6460001b613508565b611edd7ffd376af81240994155fa095d6921e86ee24082ec203888d552e96dce2830b5b060001b613508565b600460008373ffffffffffffffffffffffffffffffffffffffff1673ffffffffffffffffffffffffffffffffffffffff168152602001908152602001600020805480602002602001604051908101604052809291908181526020018280548015611f6657602002820191906000526020600020905b815481526020019060010190808311611f52575b50505050509050919050565b6003602052806000526040600020600091509050806000018054611f9590614495565b80601f0160208091040260200160405190810160405280929190818152602001828054611fc190614495565b801561200e5780601f10611fe35761010080835404028352916020019161200e565b820191906000526020600020905b815481529060010190602001808311611ff157829003601f168201915b5050505050908060010154908060020160009054906101000a900473ffffffffffffffffffffffffffffffffffffffff169080600301549080600401805461205590614495565b80601f016020809104026020016040519081016040528092919081815260200182805461208190614495565b80156120ce5780601f106120a3576101008083540402835291602001916120ce565b820191906000526020600020905b8154815290600101906020018083116120b157829003601f168201915b5050505050908060050154908060060160009054906101000a900460ff16908060060160019054906101000a900460ff169080600701805461210f90614495565b80601f016020809104026020016040519081016040528092919081815260200182805461213b90614495565b80156121885780601f1061215d57610100808354040283529160200191612188565b820191906000526020600020905b81548152906001019060200180831161216b57829003601f168201915b5050505050908060080160009054906101000a900473ffffffffffffffffffffffffffffffffffffffff169080600901549080600a015490508c565b60008060009054906101000a900473ffffffffffffffffffffffffffffffffffffffff16905090565b6122197f0d30b731760d6753b8fe18222db81c74d574939fb771086ad67e4161118bc33660001b613508565b6122457f7551de821cdbbc2eab66438818d2051ae2e48cda6ea11f730a4d188cfc739b9160001b613508565b6122717fb43455518102685f1405d4de54a686e5b639e5fa567810b933895fa9872bf64760001b613508565b60006003600088815260200190815260200160002090506122b47fd79c9eb53e4bc8847bffd065fefebc2ae3f310ce16e81a893c770fdd9cbe721760001b613508565b6122e07fa990b283183f331e281ca9b8a590a94700000bc15fc5599aba3be9dc7f20393460001b613508565b61230c7fc0c6e5eccb052c2a638f944ecc74f6d8115bd720e062a5a8c7433700f2b474d260001b613508565b600073ffffffffffffffffffffffffffffffffffffffff168160020160009054906101000a900473ffffffffffffffffffffffffffffffffffffffff1673ffffffffffffffffffffffffffffffffffffffff160361239f576040517f08c379a000000000000000000000000000000000000000000000000000000000815260040161239690614512565b60405180910390fd5b6123cb7f95a56390187bb0dc586d16c74813d3e319b698aab56efa78b344ecd94e44bff960001b613508565b6123f77f706ef2ff48e53b640463e2e0ddfa77a3960bcd453e0eb31723eb81d74470c8a460001b613508565b6124237fc2b15afe470784ad157b58109fc0fe2e27d74f93278a192da51df6928b4fb25760001b613508565b61244f7f3baf743d5cf92471b767ab677b34451addae3a3fcd5cb2d6b077f2eb4b82607d60001b613508565b4281600a015411612495576040517f08c379a000000000000000000000000000000000000000000000000000000000815260040161248c90614ace565b60405180910390fd5b6124c17f624b4adb6aeadaec74ca2edf87a6ab00dbb0895503da2233c549f24a5eeed63d60001b613508565b6124ed7f57738fa98e0bf1637d62df34478f4592cc69d1e5069c879f313601cfd2986b5560001b613508565b6125197ffaf22854628f3462a406560d4344659affc622935c581c3b57f50eddc743140260001b613508565b6125457f7984cbdda734b46e69439a2d9bd8732725b6abaac458e928a9b7158fee14874960001b613508565b806001015484101561258c576040517f08c379a000000000000000000000000000000000000000000000000000000000815260040161258390614b3a565b60405180910390fd5b6125b87ff8d4b94866c585b56f013fdce65b2400b2545c24cbdc74d5e63b58adea608f3260001b613508565b6125e47fc790592b9af166a0fe8a8ef8c01373899b67c90b845a5c4e9815bf9db377a42760001b613508565b6126107f832e7eee03d5d32e9eb44b908f43c879f335a6c95a376c92286d46098730674e60001b613508565b61263c7f0e7fb01c83ece9a5ffac56ad6ef673b0fac0f8086d30334c3e814d2ac966d58260001b613508565b80600901548411612682576040517f08c379a000000000000000000000000000000000000000000000000000000000815260040161267990614b3a565b60405180910390fd5b6126ae7ff10983156db303c2698c84173e42b9dc14289ca611633960e41f45f0983a912960001b613508565b6126da7fb9c66016d394503effd06f5e72b264e6d17e9df7836c552d7a543c394ff69ced60001b613508565b6127067f9598ec53532a708d349a6aedb76d03ec38070654c5199877c704519eb8c215c360001b613508565b6127327fe387343e9e4c9033fdc8818e1751c97224c3cfbc06c7ef262bc9c60ee7b6693060001b613508565b60008686905003612778576040517f08c379a000000000000000000000000000000000000000000000000000000000815260040161276f90614ba6565b60405180910390fd5b6127a47f890076f86d79e8890a9a0a1d599ed1826bf5646ec58b2fb672eec222424a5c9060001b613508565b6127d07f346c52f123a0f95ffedd65caf5fbcc56fdfc81b141f8fc68fbe5219c480c3c4260001b613508565b6127fc7f71d7b68e8fc2894ce41d0e90980b71a7818b5db8515c69ceb87d35f738502d5560001b613508565b600030888660405160200161281393929190614c2f565b6040516020818303038152906040528051906020012090506128577f133c928fc285ea67befc0c68ec9ea83203482444a3f1e6dd8c24e988a3e6f88c60001b613508565b6128837fefad19077035cbf8a5c8a3620f49a6bb58505811de77d5b5e76e13f975b7ee8660001b613508565b6128af7ff360d0e8cd2804988e158117cb91326419838cb7a147adc27f226d45bfce53ab60001b613508565b600073ffffffffffffffffffffffffffffffffffffffff16600160009054906101000a900473ffffffffffffffffffffffffffffffffffffffff1673ffffffffffffffffffffffffffffffffffffffff1603612940576040517f08c379a000000000000000000000000000000000000000000000000000000000815260040161293790614cb8565b60405180910390fd5b61296c7f920bd07a3f99016302004ef57bbcab9c363cca990c7612c284e4640fc328dfe160001b613508565b6129987f270fb19badc75752b755cca059f996e1bc36842640e615d01147728053d16b6d60001b613508565b6129c47ff3f4480e8640d14641a43b05d2f602233421d0d503d31049ef7de5a0eff7e89660001b613508565b6129f07f8001bb091f8632d16b1ea1e15b5ce56e45a3e95165d0b2d807b178966b3e551660001b613508565b600073ffffffffffffffffffffffffffffffffffffffff16600160009054906101000a900473ffffffffffffffffffffffffffffffffffffffff1673ffffffffffffffffffffffffffffffffffffffff1663b8fcf9376040518163ffffffff1660e01b8152600401602060405180830381865afa158015612a75573d6000803e3d6000fd5b505050506040513d601f19601f82011682018060405250810190612a99919061475e565b73ffffffffffffffffffffffffffffffffffffffff1603612aef576040517f08c379a0000000000000000000000000000000000000000000000000000000008152600401612ae6906148a3565b60405180910390fd5b612b1b7faf36b98f5154bae551d0cf12d00e07f1f136e192f06a3df45eceb44eab8f912f60001b613508565b612b477f461bcb40652de0cf0d3e6816482edfbd971c517e4ce26d5e554e2e3b1b41fcae60001b613508565b612b737fa5faf2a4bce3805b446e8d1431fea8a51f152b2d0c237fb519c8ce0a5c2433a960001b613508565b8686836007019190612b86929190613917565b50612bb37f48cd6fa5f413dbb5c1ac82a847c4abde28d935cf5d134d2c99812d0134416f5360001b613508565b612bdf7fdc4f2f7900af4d9d374725db142c955190cff9ab6fbe91159d485cf40b601a2560001b613508565b6000600160009054906101000a900473ffffffffffffffffffffffffffffffffffffffff1673ffffffffffffffffffffffffffffffffffffffff1663b8fcf9376040518163ffffffff1660e01b8152600401602060405180830381865afa158015612c4e573d6000803e3d6000fd5b505050506040513d601f19601f82011682018060405250810190612c72919061475e565b9050612ca07fee74d41939b52a595fee1ff30db72d29d83af86f976ae024dbebe7ddc13d6de160001b613508565b612ccc7f03b1a93f63bbcadb1939d4f2956a7c188abc0df7b73fec86c2404ee50d1d356b60001b613508565b8073ffffffffffffffffffffffffffffffffffffffff16639f4fae1284600a0154848989308a6040518763ffffffff1660e01b8152600401612d1396959493929190614cd8565b600060405180830381600087803b158015612d2d57600080fd5b505af1158015612d41573d6000803e3d6000fd5b50505050612d717fe031b57a063f3826b1a75f9d4bf1f86488b417a8ca8c71567b9fd7912bc8fc8d60001b613508565b612d9d7f9eee9a192996b869bdbe58e707f4c32e1ca8b443ff9f093c64994d2dbdd3e8f560001b613508565b600073ffffffffffffffffffffffffffffffffffffffff168360080160009054906101000a900473ffffffffffffffffffffffffffffffffffffffff1673ffffffffffffffffffffffffffffffffffffffff1614612ff757612e217fab673bfb770113e2b0bcd6984e6a6cb7b22347897e8f09682161ad24fbdf59a960001b613508565b612e4d7f92229c42b8592b218fa9273409166a27db22382740c167ab9866f41e77e4cb0b60001b613508565b612e797f874e9a7220d7fffd549825e9bde426df7af62a4fe592d1fda8ad30cc6e9f53da60001b613508565b6000600560008560080160009054906101000a900473ffffffffffffffffffffffffffffffffffffffff1673ffffffffffffffffffffffffffffffffffffffff1673ffffffffffffffffffffffffffffffffffffffff16815260200190815260200160002060008b815260200190815260200160002081905550612f1f7f127936c5bc0f4f486b1d1bdf3df4c394524bf84c2e45047fba3d28045ab4e82860001b613508565b612f4b7f6135b2f2b56399a74dfae2d6dab29a154815788e5a60005ee0f77b96a654438460001b613508565b8073ffffffffffffffffffffffffffffffffffffffff1663a9059cbb8460080160009054906101000a900473ffffffffffffffffffffffffffffffffffffffff1685600901546040518363ffffffff1660e01b8152600401612fae92919061478b565b6020604051808303816000875af1158015612fcd573d6000803e3d6000fd5b505050506040513d601f19601f82011682018060405250810190612ff191906143cd565b50613024565b6130237f1d2d6485394bdec54e026d938133031a88d719b3db52a6cd7fe43b25d79ba41a60001b613508565b5b6130507f395277a52a0c439e81d26460aae70dcae1ee4a8ed9f83b92350e7147574da30c60001b613508565b61307c7fb215306649503a2e22b41adfa3d6120d9997fb5a2801d5f4c227791b1310653a60001b613508565b85600560008773ffffffffffffffffffffffffffffffffffffffff1673ffffffffffffffffffffffffffffffffffffffff16815260200190815260200160002060008b8152602001908152602001600020819055506130fd7fd986f0baa1c6c19f4048a2a92bfc63c25bb761d6a6e9d640ec2bd9456d179a5360001b613508565b6131297f72777fd84bf657bf1ed0d59a05a1f6b1400f05e1cbfd5191e61bd94f0f4c0fc560001b613508565b85836009018190555061315e7f24f97717027f1ccf2ad2b99f8bcf9c616962e2f787b8fd3d5a893ad7043cbc4b60001b613508565b61318a7f49076aeee8c71bd779753bf079de675a2c3d669828ef3e7288b7624ea18d283b60001b613508565b848360080160006101000a81548173ffffffffffffffffffffffffffffffffffffffff021916908373ffffffffffffffffffffffffffffffffffffffff1602179055506131f97ffac75ed3c6be0af0b89b9ee67bcc4a25d296f53a1765e8d586ccdd8751378d6260001b613508565b6132257f668d698cfc18005342676cdc7526ea9e9b1b317fe80e26c66a79b566a3c960d360001b613508565b7f6e92a982037abe8146d71f1d6163b2760c6fb6b79d71a369fe6f0b79a545b79a89868860405161325893929190614d40565b60405180910390a1505050505050505050565b61327361350b565b61329f7f71f42fb709dd56213a349aa789188f24e3b98d93c6fe8f51984c5bcef31969a260001b613508565b6132cb7f840d9bd6ece7a535e39fc4833b64a6e87c28cef4e95e72ccbfdeff4f5ccc46a660001b613508565b6132f77f1fa407581b211fc6d909ad9a643d4b7a1e1ec0efe5a732ca7a5b4ab74f11e3a960001b613508565b6133237fe6ca4de4f006be4a593f88665c8c426bb836bf88346770eef3a366c96e6448db60001b613508565b600073ffffffffffffffffffffffffffffffffffffffff168173ffffffffffffffffffffffffffffffffffffffff1603613392576040517f08c379a000000000000000000000000000000000000000000000000000000000815260040161338990614dc3565b60405180910390fd5b6133be7fa0f82b3c7bb117b56691a157a0aa48a85203e56d39aa5aaabf0ae57124204b8660001b613508565b6133ea7f8b9ab1c294c6a899f11585b934b74f47ee13d07d66f0c3912090ed390d45fc9d60001b613508565b6134167f8f404096fa80d7eb8dbbfc716c1b3c003c7962af099c38257267e494a1266f9f60001b613508565b80600160006101000a81548173ffffffffffffffffffffffffffffffffffffffff021916908373ffffffffffffffffffffffffffffffffffffffff16021790555050565b6005602052816000526040600020602052806000526040600020600091509150505481565b60065481565b61348d61350b565b600073ffffffffffffffffffffffffffffffffffffffff168173ffffffffffffffffffffffffffffffffffffffff16036134fc576040517f08c379a00000000000000000000000000000000000000000000000000000000081526004016134f390614e55565b60405180910390fd5b6135058161373f565b50565b50565b613513613803565b73ffffffffffffffffffffffffffffffffffffffff166135316121c4565b73ffffffffffffffffffffffffffffffffffffffff1614613587576040517f08c379a000000000000000000000000000000000000000000000000000000000815260040161357e90614ec1565b60405180910390fd5b565b61359161399d565b6135bd7f2afcb1c4a6c4196c6c995da57dc610d358a098ba787b6049768456aa67fec76c60001b613508565b6135e97f33594ee250934e1a4d10f916ef94abe7e61dec842469ea60a34cc136cb0cad4460001b613508565b6136157ffd2e95d7cfec67c5c76a587b5cd18eb5be27c459e6ba42cf09fbbe47501ebc4860001b613508565b60405180610180016040528089898080601f016020809104026020016040519081016040528093929190818152602001838380828437600081840152601f19601f8201169050808301925050505050505081526020018781526020013373ffffffffffffffffffffffffffffffffffffffff16815260200142815260200186868080601f016020809104026020016040519081016040528093929190818152602001838380828437600081840152601f19601f820116905080830192505050505050508152602001848152602001600015158152602001600015158152602001604051806020016040528060008152508152602001600073ffffffffffffffffffffffffffffffffffffffff16815260200160008152602001838152509050979650505050505050565b60008060009054906101000a900473ffffffffffffffffffffffffffffffffffffffff169050816000806101000a81548173ffffffffffffffffffffffffffffffffffffffff021916908373ffffffffffffffffffffffffffffffffffffffff1602179055508173ffffffffffffffffffffffffffffffffffffffff168173ffffffffffffffffffffffffffffffffffffffff167f8be0079c531659141344cd1fd0a4f28419497f9722a3daafe3b4186f6b6457e060405160405180910390a35050565b600033905090565b82805461381790614495565b90600052602060002090601f0160209004810192826138395760008555613880565b82601f1061385257805160ff1916838001178555613880565b82800160010185558215613880579182015b8281111561387f578251825591602001919060010190613864565b5b50905061388d9190613a31565b5090565b82805461389d90614495565b90600052602060002090601f0160209004810192826138bf5760008555613906565b82601f106138d857805160ff1916838001178555613906565b82800160010185558215613906579182015b828111156139055782518255916020019190600101906138ea565b5b5090506139139190613a31565b5090565b82805461392390614495565b90600052602060002090601f016020900481019282613945576000855561398c565b82601f1061395e57803560ff191683800117855561398c565b8280016001018555821561398c579182015b8281111561398b578235825591602001919060010190613970565b5b5090506139999190613a31565b5090565b6040518061018001604052806060815260200160008152602001600073ffffffffffffffffffffffffffffffffffffffff16815260200160008152602001606081526020016000801916815260200160001515815260200160001515815260200160608152602001600073ffffffffffffffffffffffffffffffffffffffff16815260200160008152602001600081525090565b5b80821115613a4a576000816000905550600101613a32565b5090565b6000604051905090565b600080fd5b600080fd5b6000819050919050565b613a7581613a62565b8114613a8057600080fd5b50565b600081359050613a9281613a6c565b92915050565b600060208284031215613aae57613aad613a58565b5b6000613abc84828501613a83565b91505092915050565b613ace81613a62565b82525050565b6000602082019050613ae96000830184613ac5565b92915050565b600073ffffffffffffffffffffffffffffffffffffffff82169050919050565b6000613b1a82613aef565b9050919050565b613b2a81613b0f565b8114613b3557600080fd5b50565b600081359050613b4781613b21565b92915050565b60008060408385031215613b6457613b63613a58565b5b6000613b7285828601613b38565b9250506020613b8385828601613a83565b9150509250929050565b600080fd5b600080fd5b600080fd5b60008083601f840112613bb257613bb1613b8d565b5b8235905067ffffffffffffffff811115613bcf57613bce613b92565b5b602083019150836001820283011115613beb57613bea613b97565b5b9250929050565b6000819050919050565b613c0581613bf2565b8114613c1057600080fd5b50565b600081359050613c2281613bfc565b92915050565b600080600080600080600060a0888a031215613c4757613c46613a58565b5b600088013567ffffffffffffffff811115613c6557613c64613a5d565b5b613c718a828b01613b9c565b97509750506020613c848a828b01613a83565b955050604088013567ffffffffffffffff811115613ca557613ca4613a5d565b5b613cb18a828b01613b9c565b94509450506060613cc48a828b01613c13565b9250506080613cd58a828b01613a83565b91505092959891949750929550565b6000819050919050565b6000613d09613d04613cff84613aef565b613ce4565b613aef565b9050919050565b6000613d1b82613cee565b9050919050565b6000613d2d82613d10565b9050919050565b613d3d81613d22565b82525050565b6000602082019050613d586000830184613d34565b92915050565b600060208284031215613d7457613d73613a58565b5b6000613d8284828501613b38565b91505092915050565b600081519050919050565b600082825260208201905092915050565b6000819050602082019050919050565b613dc081613a62565b82525050565b6000613dd28383613db7565b60208301905092915050565b6000602082019050919050565b6000613df682613d8b565b613e008185613d96565b9350613e0b83613da7565b8060005b83811015613e3c578151613e238882613dc6565b9750613e2e83613dde565b925050600181019050613e0f565b5085935050505092915050565b60006020820190508181036000830152613e638184613deb565b905092915050565b600081519050919050565b600082825260208201905092915050565b60005b83811015613ea5578082015181840152602081019050613e8a565b83811115613eb4576000848401525b50505050565b6000601f19601f8301169050919050565b6000613ed682613e6b565b613ee08185613e76565b9350613ef0818560208601613e87565b613ef981613eba565b840191505092915050565b613f0d81613b0f565b82525050565b613f1c81613bf2565b82525050565b60008115159050919050565b613f3781613f22565b82525050565b600081519050919050565b600082825260208201905092915050565b6000613f6482613f3d565b613f6e8185613f48565b9350613f7e818560208601613e87565b613f8781613eba565b840191505092915050565b6000610180820190508181036000830152613fad818f613ecb565b9050613fbc602083018e613ac5565b613fc9604083018d613f04565b613fd6606083018c613ac5565b8181036080830152613fe8818b613ecb565b9050613ff760a083018a613f13565b61400460c0830189613f2e565b61401160e0830188613f2e565b8181036101008301526140248187613f59565b9050614034610120830186613f04565b614042610140830185613ac5565b614050610160830184613ac5565b9d9c50505050505050505050505050565b60006020820190506140766000830184613f04565b92915050565b60008083601f84011261409257614091613b8d565b5b8235905067ffffffffffffffff8111156140af576140ae613b92565b5b6020830191508360018202830111156140cb576140ca613b97565b5b9250929050565b600080fd5b7f4e487b7100000000000000000000000000000000000000000000000000000000600052604160045260246000fd5b61410f82613eba565b810181811067ffffffffffffffff8211171561412e5761412d6140d7565b5b80604052505050565b6000614141613a4e565b905061414d8282614106565b919050565b600067ffffffffffffffff82111561416d5761416c6140d7565b5b61417682613eba565b9050602081019050919050565b82818337600083830152505050565b60006141a56141a084614152565b614137565b9050828152602081018484840111156141c1576141c06140d2565b5b6141cc848285614183565b509392505050565b600082601f8301126141e9576141e8613b8d565b5b81356141f9848260208601614192565b91505092915050565b60008060008060008060a0878903121561421f5761421e613a58565b5b600061422d89828a01613a83565b965050602087013567ffffffffffffffff81111561424e5761424d613a5d565b5b61425a89828a0161407c565b9550955050604061426d89828a01613a83565b935050606061427e89828a01613b38565b925050608087013567ffffffffffffffff81111561429f5761429e613a5d565b5b6142ab89828a016141d4565b9150509295509295509295565b60006142c382613aef565b9050919050565b60006142d5826142b8565b9050919050565b6142e5816142ca565b81146142f057600080fd5b50565b600081359050614302816142dc565b92915050565b60006020828403121561431e5761431d613a58565b5b600061432c848285016142f3565b91505092915050565b7f4e6f206f776e6572206d61726b6574706c616365000000000000000000000000600082015250565b600061436b601483613e76565b915061437682614335565b602082019050919050565b6000602082019050818103600083015261439a8161435e565b9050919050565b6143aa81613f22565b81146143b557600080fd5b50565b6000815190506143c7816143a1565b92915050565b6000602082840312156143e3576143e2613a58565b5b60006143f1848285016143b8565b91505092915050565b7f4e6f7420616e20617574686f72697a656420636f757269657200000000000000600082015250565b6000614430601983613e76565b915061443b826143fa565b602082019050919050565b6000602082019050818103600083015261445f81614423565b9050919050565b7f4e487b7100000000000000000000000000000000000000000000000000000000600052602260045260246000fd5b600060028204905060018216806144ad57607f821691505b6020821081036144c0576144bf614466565b5b50919050565b7f4e6f20737563682070726f647563740000000000000000000000000000000000600082015250565b60006144fc600f83613e76565b9150614507826144c6565b602082019050919050565b6000602082019050818103600083015261452b816144ef565b9050919050565b7f41756374696f6e206e6f742066696e6973686564000000000000000000000000600082015250565b6000614568601483613e76565b915061457382614532565b602082019050919050565b600060208201905081810360008301526145978161455b565b9050919050565b7f50726f6475637420616c72656164792064656c69766572656400000000000000600082015250565b60006145d4601983613e76565b91506145df8261459e565b602082019050919050565b60006020820190508181036000830152614603816145c7565b9050919050565b7f4e487b7100000000000000000000000000000000000000000000000000000000600052601160045260246000fd5b600061464482613a62565b915061464f83613a62565b9250817fffffffffffffffffffffffffffffffffffffffffffffffffffffffffffffffff04831182151516156146885761468761460a565b5b828202905092915050565b7f4e487b7100000000000000000000000000000000000000000000000000000000600052601260045260246000fd5b60006146cd82613a62565b91506146d883613a62565b9250826146e8576146e7614693565b5b828204905092915050565b60006146fe82613a62565b915061470983613a62565b9250827fffffffffffffffffffffffffffffffffffffffffffffffffffffffffffffffff0382111561473e5761473d61460a565b5b828201905092915050565b60008151905061475881613b21565b92915050565b60006020828403121561477457614773613a58565b5b600061478284828501614749565b91505092915050565b60006040820190506147a06000830185613f04565b6147ad6020830184613ac5565b9392505050565b60006060820190506147c96000830186613ac5565b6147d66020830185613f04565b6147e36040830184613f04565b949350505050565b7f446f65736e27742068617665206f776e6572206d61726b6574706c6163650000600082015250565b6000614821601e83613e76565b915061482c826147eb565b602082019050919050565b6000602082019050818103600083015261485081614814565b9050919050565b7f4e6f20746f6b656e207370656369666965640000000000000000000000000000600082015250565b600061488d601283613e76565b915061489882614857565b602082019050919050565b600060208201905081810360008301526148bc81614880565b9050919050565b7f4e616d652073686f756c646e277420626520656d707479000000000000000000600082015250565b60006148f9601783613e76565b9150614904826148c3565b602082019050919050565b60006020820190508181036000830152614928816148ec565b9050919050565b7f50726963652073686f756c64206265203e3d3230303030303000000000000000600082015250565b6000614965601983613e76565b91506149708261492f565b602082019050919050565b6000602082019050818103600083015261499481614958565b9050919050565b7f456e642073686f756c6420626520696e20746865206675747572650000000000600082015250565b60006149d1601b83613e76565b91506149dc8261499b565b602082019050919050565b60006020820190508181036000830152614a00816149c4565b9050919050565b6000614a138385613e76565b9350614a20838584614183565b614a2983613eba565b840190509392505050565b60006080820190508181036000830152614a4f818789614a07565b9050614a5e6020830186613ac5565b614a6b6040830185613f04565b614a786060830184613ac5565b9695505050505050565b7f41756374696f6e20616c72656164792066696e69736865640000000000000000600082015250565b6000614ab8601883613e76565b9150614ac382614a82565b602082019050919050565b60006020820190508181036000830152614ae781614aab565b9050919050565b7f426964206d757374206265206c61726765720000000000000000000000000000600082015250565b6000614b24601283613e76565b9150614b2f82614aee565b602082019050919050565b60006020820190508181036000830152614b5381614b17565b9050919050565b7f4e6f2064656c697665727920696e737472756374696f6e730000000000000000600082015250565b6000614b90601883613e76565b9150614b9b82614b5a565b602082019050919050565b60006020820190508181036000830152614bbf81614b83565b9050919050565b60008160601b9050919050565b6000614bde82614bc6565b9050919050565b6000614bf082614bd3565b9050919050565b614c08614c0382613b0f565b614be5565b82525050565b6000819050919050565b614c29614c2482613a62565b614c0e565b82525050565b6000614c3b8286614bf7565b601482019150614c4b8285614c18565b602082019150614c5b8284614c18565b602082019150819050949350505050565b7f4e6f206d61726b6574706c616365000000000000000000000000000000000000600082015250565b6000614ca2600e83613e76565b9150614cad82614c6c565b602082019050919050565b60006020820190508181036000830152614cd181614c95565b9050919050565b600060c082019050614ced6000830189613ac5565b614cfa6020830188613f13565b614d076040830187613ac5565b614d146060830186613f04565b614d216080830185613f04565b81810360a0830152614d338184613f59565b9050979650505050505050565b6000606082019050614d556000830186613ac5565b614d626020830185613f04565b614d6f6040830184613ac5565b949350505050565b7f416464726573732073686f756c646e2774206265203000000000000000000000600082015250565b6000614dad601683613e76565b9150614db882614d77565b602082019050919050565b60006020820190508181036000830152614ddc81614da0565b9050919050565b7f4f776e61626c653a206e6577206f776e657220697320746865207a65726f206160008201527f6464726573730000000000000000000000000000000000000000000000000000602082015250565b6000614e3f602683613e76565b9150614e4a82614de3565b604082019050919050565b60006020820190508181036000830152614e6e81614e32565b9050919050565b7f4f776e61626c653a2063616c6c6572206973206e6f7420746865206f776e6572600082015250565b6000614eab602083613e76565b9150614eb682614e75565b602082019050919050565b60006020820190508181036000830152614eda81614e9e565b905091905056fea264697066735822122092cc4f26b0ddb4bb0aa8c40de5e753582b14f407dcd80c79e10a47801edad8fb64736f6c634300080d0033",
  "linkReferences": {},
  "deployedLinkReferences": {}
}