{
  "_format": "hh-sol-artifact-1",
  "contractName": "SimpleAuction",
  "sourceName": "contracts/SimpleAuction.sol",
  "abi": [
    {
      "anonymous": false,
      "inputs": [
        {
          "indexed": true,
          "internalType": "address",
          "name": "previousOwner",
          "type": "address"
        },
        {
          "indexed": true,
          "internalType": "address",
          "name": "newOwner",
          "type": "address"
        }
      ],
      "name": "OwnershipTransferred",
      "type": "event"
    },
    {
      "inputs": [
        {
          "internalType": "string",
          "name": "name",
          "type": "string"
        },
        {
          "internalType": "uint256",
          "name": "minimalPrice",
          "type": "uint256"
        },
        {
          "internalType": "string",
          "name": "link",
          "type": "string"
        },
        {
          "internalType": "bytes32",
          "name": "marketHashOfData",
          "type": "bytes32"
        },
        {
          "internalType": "uint256",
          "name": "finishDate",
          "type": "uint256"
        }
      ],
      "name": "addProduct",
      "outputs": [],
      "stateMutability": "nonpayable",
      "type": "function"
    },
    {
      "inputs": [],
      "name": "belongsToContract",
      "outputs": [
        {
          "internalType": "uint256",
          "name": "",
          "type": "uint256"
        }
      ],
      "stateMutability": "view",
      "type": "function"
    },
    {
      "inputs": [
        {
          "internalType": "uint256",
          "name": "index",
          "type": "uint256"
        },
        {
          "internalType": "bytes",
          "name": "deliveryInstructions",
          "type": "bytes"
        },
        {
          "internalType": "uint256",
          "name": "expiration",
          "type": "uint256"
        },
        {
          "internalType": "bytes32",
          "name": "nonce",
          "type": "bytes32"
        },
        {
          "internalType": "uint256",
          "name": "amount",
          "type": "uint256"
        },
        {
          "internalType": "address",
          "name": "from",
          "type": "address"
        },
        {
          "internalType": "bytes",
          "name": "sig",
          "type": "bytes"
        }
      ],
      "name": "bidForProduct",
      "outputs": [],
      "stateMutability": "payable",
      "type": "function"
    },
    {
      "inputs": [
        {
          "internalType": "uint256",
          "name": "index",
          "type": "uint256"
        }
      ],
      "name": "deliverProduct",
      "outputs": [],
      "stateMutability": "nonpayable",
      "type": "function"
    },
    {
      "inputs": [
        {
          "internalType": "address",
          "name": "seller",
          "type": "address"
        }
      ],
      "name": "getIndexesFromSellerAddress",
      "outputs": [
        {
          "internalType": "uint256[]",
          "name": "indexes",
          "type": "uint256[]"
        }
      ],
      "stateMutability": "view",
      "type": "function"
    },
    {
      "inputs": [
        {
          "internalType": "contract Marketplace",
          "name": "marketplace",
          "type": "address"
        }
      ],
      "name": "joinMarketplace",
      "outputs": [],
      "stateMutability": "nonpayable",
      "type": "function"
    },
    {
      "inputs": [
        {
          "internalType": "address",
          "name": "",
          "type": "address"
        },
        {
          "internalType": "uint256",
          "name": "",
          "type": "uint256"
        }
      ],
      "name": "owedMoneyToBidders",
      "outputs": [
        {
          "internalType": "uint256",
          "name": "",
          "type": "uint256"
        }
      ],
      "stateMutability": "view",
      "type": "function"
    },
    {
      "inputs": [],
      "name": "owner",
      "outputs": [
        {
          "internalType": "address",
          "name": "",
          "type": "address"
        }
      ],
      "stateMutability": "view",
      "type": "function"
    },
    {
      "inputs": [],
      "name": "ownerMarketplace",
      "outputs": [
        {
          "internalType": "contract Marketplace",
          "name": "",
          "type": "address"
        }
      ],
      "stateMutability": "view",
      "type": "function"
    },
    {
      "inputs": [],
      "name": "productCount",
      "outputs": [
        {
          "internalType": "uint256",
          "name": "",
          "type": "uint256"
        }
      ],
      "stateMutability": "view",
      "type": "function"
    },
    {
      "inputs": [
        {
          "internalType": "uint256",
          "name": "",
          "type": "uint256"
        }
      ],
      "name": "products",
      "outputs": [
        {
          "internalType": "string",
          "name": "name",
          "type": "string"
        },
        {
          "internalType": "uint256",
          "name": "minimalPrice",
          "type": "uint256"
        },
        {
          "internalType": "address",
          "name": "seller",
          "type": "address"
        },
        {
          "internalType": "uint256",
          "name": "addDate",
          "type": "uint256"
        },
        {
          "internalType": "string",
          "name": "linkForMedia",
          "type": "string"
        },
        {
          "internalType": "bytes32",
          "name": "marketHashOfData",
          "type": "bytes32"
        },
        {
          "internalType": "bool",
          "name": "approved",
          "type": "bool"
        },
        {
          "internalType": "bool",
          "name": "delivered",
          "type": "bool"
        },
        {
          "internalType": "bytes",
          "name": "deliveryInstructions",
          "type": "bytes"
        },
        {
          "internalType": "address",
          "name": "currentBidder",
          "type": "address"
        },
        {
          "internalType": "uint256",
          "name": "bidAmount",
          "type": "uint256"
        },
        {
          "internalType": "uint256",
          "name": "finishDate",
          "type": "uint256"
        }
      ],
      "stateMutability": "view",
      "type": "function"
    },
    {
      "inputs": [],
      "name": "renounceOwnership",
      "outputs": [],
      "stateMutability": "nonpayable",
      "type": "function"
    },
    {
      "inputs": [
        {
          "internalType": "address",
          "name": "",
          "type": "address"
        },
        {
          "internalType": "uint256",
          "name": "",
          "type": "uint256"
        }
      ],
      "name": "sellerToProductIndexes",
      "outputs": [
        {
          "internalType": "uint256",
          "name": "",
          "type": "uint256"
        }
      ],
      "stateMutability": "view",
      "type": "function"
    },
    {
      "inputs": [],
      "name": "transferFunds",
      "outputs": [],
      "stateMutability": "nonpayable",
      "type": "function"
    },
    {
      "inputs": [
        {
          "internalType": "address",
          "name": "newOwner",
          "type": "address"
        }
      ],
      "name": "transferOwnership",
      "outputs": [],
      "stateMutability": "nonpayable",
      "type": "function"
    }
  ],
  "bytecode": "0x6080604052600060025560006006553480156200001b57600080fd5b506200003c620000306200004260201b60201c565b6200004a60201b60201c565b6200010e565b600033905090565b60008060009054906101000a900473ffffffffffffffffffffffffffffffffffffffff169050816000806101000a81548173ffffffffffffffffffffffffffffffffffffffff021916908373ffffffffffffffffffffffffffffffffffffffff1602179055508173ffffffffffffffffffffffffffffffffffffffff168173ffffffffffffffffffffffffffffffffffffffff167f8be0079c531659141344cd1fd0a4f28419497f9722a3daafe3b4186f6b6457e060405160405180910390a35050565b613564806200011e6000396000f3fe6080604052600436106100e85760003560e01c80637a653f101161008a578063ac0b044511610059578063ac0b0445146102cc578063cb502b91146102f5578063e0f6ef8714610332578063f2fde38b1461035d576100e8565b80637a653f10146102005780637acc0b201461023d5780637c7432f1146102855780638da5cb5b146102a1576100e8565b80634353c0ee116100c65780634353c0ee146101585780635e7bef8a14610195578063660eb4a3146101be578063715018a6146101e9576100e8565b80631c96fb1f146100ed5780633c1b52c4146101165780633c68eb8114610141575b600080fd5b3480156100f957600080fd5b50610114600480360381019061010f91906121a6565b610386565b005b34801561012257600080fd5b5061012b610af6565b60405161013891906121e2565b60405180910390f35b34801561014d57600080fd5b50610156610afc565b005b34801561016457600080fd5b5061017f600480360381019061017a919061225b565b610dd7565b60405161018c91906121e2565b60405180910390f35b3480156101a157600080fd5b506101bc60048036038101906101b79190612336565b610e08565b005b3480156101ca57600080fd5b506101d36110e4565b6040516101e09190612451565b60405180910390f35b3480156101f557600080fd5b506101fe61110a565b005b34801561020c57600080fd5b506102276004803603810190610222919061246c565b61111e565b6040516102349190612557565b60405180910390f35b34801561024957600080fd5b50610264600480360381019061025f91906121a6565b6111b5565b60405161027c9c9b9a999897969594939291906126a0565b60405180910390f35b61029f600480360381019061029a91906128f5565b611407565b005b3480156102ad57600080fd5b506102b6611b0b565b6040516102c391906129d3565b60405180910390f35b3480156102d857600080fd5b506102f360048036038101906102ee9190612a3e565b611b34565b005b34801561030157600080fd5b5061031c6004803603810190610317919061225b565b611bef565b60405161032991906121e2565b60405180910390f35b34801561033e57600080fd5b50610347611c14565b60405161035491906121e2565b60405180910390f35b34801561036957600080fd5b50610384600480360381019061037f919061246c565b611c1a565b005b600060036000838152602001908152602001600020604051806101800160405290816000820180546103b790612a9a565b80601f01602080910402602001604051908101604052809291908181526020018280546103e390612a9a565b80156104305780601f1061040557610100808354040283529160200191610430565b820191906000526020600020905b81548152906001019060200180831161041357829003601f168201915b50505050508152602001600182015481526020016002820160009054906101000a900473ffffffffffffffffffffffffffffffffffffffff1673ffffffffffffffffffffffffffffffffffffffff1673ffffffffffffffffffffffffffffffffffffffff168152602001600382015481526020016004820180546104b390612a9a565b80601f01602080910402602001604051908101604052809291908181526020018280546104df90612a9a565b801561052c5780601f106105015761010080835404028352916020019161052c565b820191906000526020600020905b81548152906001019060200180831161050f57829003601f168201915b50505050508152602001600582015481526020016006820160009054906101000a900460ff161515151581526020016006820160019054906101000a900460ff1615151515815260200160078201805461058590612a9a565b80601f01602080910402602001604051908101604052809291908181526020018280546105b190612a9a565b80156105fe5780601f106105d3576101008083540402835291602001916105fe565b820191906000526020600020905b8154815290600101906020018083116105e157829003601f168201915b505050505081526020016008820160009054906101000a900473ffffffffffffffffffffffffffffffffffffffff1673ffffffffffffffffffffffffffffffffffffffff1673ffffffffffffffffffffffffffffffffffffffff16815260200160098201548152602001600a820154815250509050600073ffffffffffffffffffffffffffffffffffffffff16816040015173ffffffffffffffffffffffffffffffffffffffff16036106e6576040517f08c379a00000000000000000000000000000000000000000000000000000000081526004016106dd90612b17565b60405180910390fd5b428161016001511061072d576040517f08c379a000000000000000000000000000000000000000000000000000000000815260040161072490612b83565b60405180910390fd5b600015158160e00151151514610778576040517f08c379a000000000000000000000000000000000000000000000000000000000815260040161076f90612bef565b60405180910390fd5b600073ffffffffffffffffffffffffffffffffffffffff16600160009054906101000a900473ffffffffffffffffffffffffffffffffffffffff1673ffffffffffffffffffffffffffffffffffffffff16036107d5576000610879565b60011515600160009054906101000a900473ffffffffffffffffffffffffffffffffffffffff1673ffffffffffffffffffffffffffffffffffffffff1663ccd5fcb9336040518263ffffffff1660e01b815260040161083491906129d3565b602060405180830381865afa158015610851573d6000803e3d6000fd5b505050506040513d601f19601f820116820180604052508101906108759190612c3b565b1515145b6108b8576040517f08c379a00000000000000000000000000000000000000000000000000000000081526004016108af90612cb4565b60405180910390fd5b6000606460636005600085610120015173ffffffffffffffffffffffffffffffffffffffff1673ffffffffffffffffffffffffffffffffffffffff16815260200190815260200160002060008681526020019081526020016000205461091e9190612d03565b6109289190612d8c565b9050606482610140015161093c9190612d8c565b6002600082825461094d9190612dbd565b9250508190555060006005600084610120015173ffffffffffffffffffffffffffffffffffffffff1673ffffffffffffffffffffffffffffffffffffffff16815260200190815260200160002060008581526020019081526020016000208190555060016003600085815260200190815260200160002060060160016101000a81548160ff021916908315150217905550600160009054906101000a900473ffffffffffffffffffffffffffffffffffffffff1673ffffffffffffffffffffffffffffffffffffffff1663b8fcf9376040518163ffffffff1660e01b8152600401602060405180830381865afa158015610a4b573d6000803e3d6000fd5b505050506040513d601f19601f82011682018060405250810190610a6f9190612e28565b73ffffffffffffffffffffffffffffffffffffffff1663a9059cbb8360400151836040518363ffffffff1660e01b8152600401610aad929190612e55565b6020604051808303816000875af1158015610acc573d6000803e3d6000fd5b505050506040513d601f19601f82011682018060405250810190610af09190612c3b565b50505050565b60025481565b610b04611c9d565b600073ffffffffffffffffffffffffffffffffffffffff16600160009054906101000a900473ffffffffffffffffffffffffffffffffffffffff1673ffffffffffffffffffffffffffffffffffffffff1603610b95576040517f08c379a0000000000000000000000000000000000000000000000000000000008152600401610b8c90612eca565b60405180910390fd5b6000600160009054906101000a900473ffffffffffffffffffffffffffffffffffffffff1673ffffffffffffffffffffffffffffffffffffffff1663b8fcf9376040518163ffffffff1660e01b8152600401602060405180830381865afa158015610c04573d6000803e3d6000fd5b505050506040513d601f19601f82011682018060405250810190610c289190612e28565b9050600073ffffffffffffffffffffffffffffffffffffffff16600160009054906101000a900473ffffffffffffffffffffffffffffffffffffffff1673ffffffffffffffffffffffffffffffffffffffff1663b8fcf9376040518163ffffffff1660e01b8152600401602060405180830381865afa158015610caf573d6000803e3d6000fd5b505050506040513d601f19601f82011682018060405250810190610cd39190612e28565b73ffffffffffffffffffffffffffffffffffffffff1603610d29576040517f08c379a0000000000000000000000000000000000000000000000000000000008152600401610d2090612f36565b60405180910390fd5b8073ffffffffffffffffffffffffffffffffffffffff1663a9059cbb600160009054906101000a900473ffffffffffffffffffffffffffffffffffffffff166002546040518363ffffffff1660e01b8152600401610d88929190612e55565b6020604051808303816000875af1158015610da7573d6000803e3d6000fd5b505050506040513d601f19601f82011682018060405250810190610dcb9190612c3b565b50600060028190555050565b60046020528160005260406000208181548110610df357600080fd5b90600052602060002001600091509150505481565b60008787905003610e4e576040517f08c379a0000000000000000000000000000000000000000000000000000000008152600401610e4590612fa2565b60405180910390fd5b621e8480851015610e94576040517f08c379a0000000000000000000000000000000000000000000000000000000008152600401610e8b9061300e565b60405180910390fd5b42811015610ed7576040517f08c379a0000000000000000000000000000000000000000000000000000000008152600401610ece9061307a565b60405180910390fd5b610ee687878787878787611d1b565b6003600060065481526020019081526020016000206000820151816000019080519060200190610f17929190611f19565b506020820151816001015560408201518160020160006101000a81548173ffffffffffffffffffffffffffffffffffffffff021916908373ffffffffffffffffffffffffffffffffffffffff160217905550606082015181600301556080820151816004019080519060200190610f8f929190611f19565b5060a0820151816005015560c08201518160060160006101000a81548160ff02191690831515021790555060e08201518160060160016101000a81548160ff021916908315150217905550610100820151816007019080519060200190610ff7929190611f9f565b506101208201518160080160006101000a81548173ffffffffffffffffffffffffffffffffffffffff021916908373ffffffffffffffffffffffffffffffffffffffff160217905550610140820151816009015561016082015181600a0155905050600460003373ffffffffffffffffffffffffffffffffffffffff1673ffffffffffffffffffffffffffffffffffffffff16815260200190815260200160002060065490806001815401808255809150506001900390600052602060002001600090919091909150556001600660008282546110d49190612dbd565b9250508190555050505050505050565b600160009054906101000a900473ffffffffffffffffffffffffffffffffffffffff1681565b611112611c9d565b61111c6000611e4d565b565b6060600460008373ffffffffffffffffffffffffffffffffffffffff1673ffffffffffffffffffffffffffffffffffffffff1681526020019081526020016000208054806020026020016040519081016040528092919081815260200182805480156111a957602002820191906000526020600020905b815481526020019060010190808311611195575b50505050509050919050565b60036020528060005260406000206000915090508060000180546111d890612a9a565b80601f016020809104026020016040519081016040528092919081815260200182805461120490612a9a565b80156112515780601f1061122657610100808354040283529160200191611251565b820191906000526020600020905b81548152906001019060200180831161123457829003601f168201915b5050505050908060010154908060020160009054906101000a900473ffffffffffffffffffffffffffffffffffffffff169080600301549080600401805461129890612a9a565b80601f01602080910402602001604051908101604052809291908181526020018280546112c490612a9a565b80156113115780601f106112e657610100808354040283529160200191611311565b820191906000526020600020905b8154815290600101906020018083116112f457829003601f168201915b5050505050908060050154908060060160009054906101000a900460ff16908060060160019054906101000a900460ff169080600701805461135290612a9a565b80601f016020809104026020016040519081016040528092919081815260200182805461137e90612a9a565b80156113cb5780601f106113a0576101008083540402835291602001916113cb565b820191906000526020600020905b8154815290600101906020018083116113ae57829003601f168201915b5050505050908060080160009054906101000a900473ffffffffffffffffffffffffffffffffffffffff169080600901549080600a015490508c565b6000600360008a81526020019081526020016000209050600073ffffffffffffffffffffffffffffffffffffffff168160020160009054906101000a900473ffffffffffffffffffffffffffffffffffffffff1673ffffffffffffffffffffffffffffffffffffffff16036114b1576040517f08c379a00000000000000000000000000000000000000000000000000000000081526004016114a890612b17565b60405180910390fd5b4281600a0154116114f7576040517f08c379a00000000000000000000000000000000000000000000000000000000081526004016114ee906130e6565b60405180910390fd5b806001015484101561153e576040517f08c379a000000000000000000000000000000000000000000000000000000000815260040161153590613152565b60405180910390fd5b80600901548411611584576040517f08c379a000000000000000000000000000000000000000000000000000000000815260040161157b90613152565b60405180910390fd5b600088889050036115ca576040517f08c379a00000000000000000000000000000000000000000000000000000000081526004016115c1906131be565b60405180910390fd5b3089856040516020016115df93929190613247565b604051602081830303815290604052805190602001208514611636576040517f08c379a000000000000000000000000000000000000000000000000000000000815260040161162d906132d0565b60405180910390fd5b600073ffffffffffffffffffffffffffffffffffffffff16600160009054906101000a900473ffffffffffffffffffffffffffffffffffffffff1673ffffffffffffffffffffffffffffffffffffffff16036116c7576040517f08c379a00000000000000000000000000000000000000000000000000000000081526004016116be9061333c565b60405180910390fd5b600073ffffffffffffffffffffffffffffffffffffffff16600160009054906101000a900473ffffffffffffffffffffffffffffffffffffffff1673ffffffffffffffffffffffffffffffffffffffff1663b8fcf9376040518163ffffffff1660e01b8152600401602060405180830381865afa15801561174c573d6000803e3d6000fd5b505050506040513d601f19601f820116820180604052508101906117709190612e28565b73ffffffffffffffffffffffffffffffffffffffff16036117c6576040517f08c379a00000000000000000000000000000000000000000000000000000000081526004016117bd90612f36565b60405180910390fd5b87878260070191906117d9929190612025565b506000600160009054906101000a900473ffffffffffffffffffffffffffffffffffffffff1673ffffffffffffffffffffffffffffffffffffffff1663b8fcf9376040518163ffffffff1660e01b8152600401602060405180830381865afa158015611849573d6000803e3d6000fd5b505050506040513d601f19601f8201168201806040525081019061186d9190612e28565b90508073ffffffffffffffffffffffffffffffffffffffff16639f4fae128888888830896040518763ffffffff1660e01b81526004016118b29695949392919061335c565b600060405180830381600087803b1580156118cc57600080fd5b505af11580156118e0573d6000803e3d6000fd5b50505050600073ffffffffffffffffffffffffffffffffffffffff168260080160009054906101000a900473ffffffffffffffffffffffffffffffffffffffff1673ffffffffffffffffffffffffffffffffffffffff1614611a5e576000600560008460080160009054906101000a900473ffffffffffffffffffffffffffffffffffffffff1673ffffffffffffffffffffffffffffffffffffffff1673ffffffffffffffffffffffffffffffffffffffff16815260200190815260200160002060008c8152602001908152602001600020819055508073ffffffffffffffffffffffffffffffffffffffff1663a9059cbb8360080160009054906101000a900473ffffffffffffffffffffffffffffffffffffffff1684600901546040518363ffffffff1660e01b8152600401611a19929190612e55565b6020604051808303816000875af1158015611a38573d6000803e3d6000fd5b505050506040513d601f19601f82011682018060405250810190611a5c9190612c3b565b505b84600560008673ffffffffffffffffffffffffffffffffffffffff1673ffffffffffffffffffffffffffffffffffffffff16815260200190815260200160002060008c815260200190815260200160002081905550848260090181905550838260080160006101000a81548173ffffffffffffffffffffffffffffffffffffffff021916908373ffffffffffffffffffffffffffffffffffffffff16021790555050505050505050505050565b60008060009054906101000a900473ffffffffffffffffffffffffffffffffffffffff16905090565b611b3c611c9d565b600073ffffffffffffffffffffffffffffffffffffffff168173ffffffffffffffffffffffffffffffffffffffff1603611bab576040517f08c379a0000000000000000000000000000000000000000000000000000000008152600401611ba290613410565b60405180910390fd5b80600160006101000a81548173ffffffffffffffffffffffffffffffffffffffff021916908373ffffffffffffffffffffffffffffffffffffffff16021790555050565b6005602052816000526040600020602052806000526040600020600091509150505481565b60065481565b611c22611c9d565b600073ffffffffffffffffffffffffffffffffffffffff168173ffffffffffffffffffffffffffffffffffffffff1603611c91576040517f08c379a0000000000000000000000000000000000000000000000000000000008152600401611c88906134a2565b60405180910390fd5b611c9a81611e4d565b50565b611ca5611f11565b73ffffffffffffffffffffffffffffffffffffffff16611cc3611b0b565b73ffffffffffffffffffffffffffffffffffffffff1614611d19576040517f08c379a0000000000000000000000000000000000000000000000000000000008152600401611d109061350e565b60405180910390fd5b565b611d236120ab565b60405180610180016040528089898080601f016020809104026020016040519081016040528093929190818152602001838380828437600081840152601f19601f8201169050808301925050505050505081526020018781526020013373ffffffffffffffffffffffffffffffffffffffff16815260200142815260200186868080601f016020809104026020016040519081016040528093929190818152602001838380828437600081840152601f19601f820116905080830192505050505050508152602001848152602001600015158152602001600015158152602001604051806020016040528060008152508152602001600073ffffffffffffffffffffffffffffffffffffffff16815260200160008152602001838152509050979650505050505050565b60008060009054906101000a900473ffffffffffffffffffffffffffffffffffffffff169050816000806101000a81548173ffffffffffffffffffffffffffffffffffffffff021916908373ffffffffffffffffffffffffffffffffffffffff1602179055508173ffffffffffffffffffffffffffffffffffffffff168173ffffffffffffffffffffffffffffffffffffffff167f8be0079c531659141344cd1fd0a4f28419497f9722a3daafe3b4186f6b6457e060405160405180910390a35050565b600033905090565b828054611f2590612a9a565b90600052602060002090601f016020900481019282611f475760008555611f8e565b82601f10611f6057805160ff1916838001178555611f8e565b82800160010185558215611f8e579182015b82811115611f8d578251825591602001919060010190611f72565b5b509050611f9b919061213f565b5090565b828054611fab90612a9a565b90600052602060002090601f016020900481019282611fcd5760008555612014565b82601f10611fe657805160ff1916838001178555612014565b82800160010185558215612014579182015b82811115612013578251825591602001919060010190611ff8565b5b509050612021919061213f565b5090565b82805461203190612a9a565b90600052602060002090601f016020900481019282612053576000855561209a565b82601f1061206c57803560ff191683800117855561209a565b8280016001018555821561209a579182015b8281111561209957823582559160200191906001019061207e565b5b5090506120a7919061213f565b5090565b6040518061018001604052806060815260200160008152602001600073ffffffffffffffffffffffffffffffffffffffff16815260200160008152602001606081526020016000801916815260200160001515815260200160001515815260200160608152602001600073ffffffffffffffffffffffffffffffffffffffff16815260200160008152602001600081525090565b5b80821115612158576000816000905550600101612140565b5090565b6000604051905090565b600080fd5b600080fd5b6000819050919050565b61218381612170565b811461218e57600080fd5b50565b6000813590506121a08161217a565b92915050565b6000602082840312156121bc576121bb612166565b5b60006121ca84828501612191565b91505092915050565b6121dc81612170565b82525050565b60006020820190506121f760008301846121d3565b92915050565b600073ffffffffffffffffffffffffffffffffffffffff82169050919050565b6000612228826121fd565b9050919050565b6122388161221d565b811461224357600080fd5b50565b6000813590506122558161222f565b92915050565b6000806040838503121561227257612271612166565b5b600061228085828601612246565b925050602061229185828601612191565b9150509250929050565b600080fd5b600080fd5b600080fd5b60008083601f8401126122c0576122bf61229b565b5b8235905067ffffffffffffffff8111156122dd576122dc6122a0565b5b6020830191508360018202830111156122f9576122f86122a5565b5b9250929050565b6000819050919050565b61231381612300565b811461231e57600080fd5b50565b6000813590506123308161230a565b92915050565b600080600080600080600060a0888a03121561235557612354612166565b5b600088013567ffffffffffffffff8111156123735761237261216b565b5b61237f8a828b016122aa565b975097505060206123928a828b01612191565b955050604088013567ffffffffffffffff8111156123b3576123b261216b565b5b6123bf8a828b016122aa565b945094505060606123d28a828b01612321565b92505060806123e38a828b01612191565b91505092959891949750929550565b6000819050919050565b600061241761241261240d846121fd565b6123f2565b6121fd565b9050919050565b6000612429826123fc565b9050919050565b600061243b8261241e565b9050919050565b61244b81612430565b82525050565b60006020820190506124666000830184612442565b92915050565b60006020828403121561248257612481612166565b5b600061249084828501612246565b91505092915050565b600081519050919050565b600082825260208201905092915050565b6000819050602082019050919050565b6124ce81612170565b82525050565b60006124e083836124c5565b60208301905092915050565b6000602082019050919050565b600061250482612499565b61250e81856124a4565b9350612519836124b5565b8060005b8381101561254a57815161253188826124d4565b975061253c836124ec565b92505060018101905061251d565b5085935050505092915050565b6000602082019050818103600083015261257181846124f9565b905092915050565b600081519050919050565b600082825260208201905092915050565b60005b838110156125b3578082015181840152602081019050612598565b838111156125c2576000848401525b50505050565b6000601f19601f8301169050919050565b60006125e482612579565b6125ee8185612584565b93506125fe818560208601612595565b612607816125c8565b840191505092915050565b61261b8161221d565b82525050565b61262a81612300565b82525050565b60008115159050919050565b61264581612630565b82525050565b600081519050919050565b600082825260208201905092915050565b60006126728261264b565b61267c8185612656565b935061268c818560208601612595565b612695816125c8565b840191505092915050565b60006101808201905081810360008301526126bb818f6125d9565b90506126ca602083018e6121d3565b6126d7604083018d612612565b6126e4606083018c6121d3565b81810360808301526126f6818b6125d9565b905061270560a083018a612621565b61271260c083018961263c565b61271f60e083018861263c565b8181036101008301526127328187612667565b9050612742610120830186612612565b6127506101408301856121d3565b61275e6101608301846121d3565b9d9c50505050505050505050505050565b60008083601f8401126127855761278461229b565b5b8235905067ffffffffffffffff8111156127a2576127a16122a0565b5b6020830191508360018202830111156127be576127bd6122a5565b5b9250929050565b600080fd5b7f4e487b7100000000000000000000000000000000000000000000000000000000600052604160045260246000fd5b612802826125c8565b810181811067ffffffffffffffff82111715612821576128206127ca565b5b80604052505050565b600061283461215c565b905061284082826127f9565b919050565b600067ffffffffffffffff8211156128605761285f6127ca565b5b612869826125c8565b9050602081019050919050565b82818337600083830152505050565b600061289861289384612845565b61282a565b9050828152602081018484840111156128b4576128b36127c5565b5b6128bf848285612876565b509392505050565b600082601f8301126128dc576128db61229b565b5b81356128ec848260208601612885565b91505092915050565b60008060008060008060008060e0898b03121561291557612914612166565b5b60006129238b828c01612191565b985050602089013567ffffffffffffffff8111156129445761294361216b565b5b6129508b828c0161276f565b975097505060406129638b828c01612191565b95505060606129748b828c01612321565b94505060806129858b828c01612191565b93505060a06129968b828c01612246565b92505060c089013567ffffffffffffffff8111156129b7576129b661216b565b5b6129c38b828c016128c7565b9150509295985092959890939650565b60006020820190506129e86000830184612612565b92915050565b60006129f9826121fd565b9050919050565b6000612a0b826129ee565b9050919050565b612a1b81612a00565b8114612a2657600080fd5b50565b600081359050612a3881612a12565b92915050565b600060208284031215612a5457612a53612166565b5b6000612a6284828501612a29565b91505092915050565b7f4e487b7100000000000000000000000000000000000000000000000000000000600052602260045260246000fd5b60006002820490506001821680612ab257607f821691505b602082108103612ac557612ac4612a6b565b5b50919050565b7f4e6f20737563682070726f647563740000000000000000000000000000000000600082015250565b6000612b01600f83612584565b9150612b0c82612acb565b602082019050919050565b60006020820190508181036000830152612b3081612af4565b9050919050565b7f41756374696f6e206e6f742066696e6973686564000000000000000000000000600082015250565b6000612b6d601483612584565b9150612b7882612b37565b602082019050919050565b60006020820190508181036000830152612b9c81612b60565b9050919050565b7f50726f6475637420616c72656164792064656c69766572656400000000000000600082015250565b6000612bd9601983612584565b9150612be482612ba3565b602082019050919050565b60006020820190508181036000830152612c0881612bcc565b9050919050565b612c1881612630565b8114612c2357600080fd5b50565b600081519050612c3581612c0f565b92915050565b600060208284031215612c5157612c50612166565b5b6000612c5f84828501612c26565b91505092915050565b7f4e6f7420616e20617574686f72697a656420636f757269657200000000000000600082015250565b6000612c9e601983612584565b9150612ca982612c68565b602082019050919050565b60006020820190508181036000830152612ccd81612c91565b9050919050565b7f4e487b7100000000000000000000000000000000000000000000000000000000600052601160045260246000fd5b6000612d0e82612170565b9150612d1983612170565b9250817fffffffffffffffffffffffffffffffffffffffffffffffffffffffffffffffff0483118215151615612d5257612d51612cd4565b5b828202905092915050565b7f4e487b7100000000000000000000000000000000000000000000000000000000600052601260045260246000fd5b6000612d9782612170565b9150612da283612170565b925082612db257612db1612d5d565b5b828204905092915050565b6000612dc882612170565b9150612dd383612170565b9250827fffffffffffffffffffffffffffffffffffffffffffffffffffffffffffffffff03821115612e0857612e07612cd4565b5b828201905092915050565b600081519050612e228161222f565b92915050565b600060208284031215612e3e57612e3d612166565b5b6000612e4c84828501612e13565b91505092915050565b6000604082019050612e6a6000830185612612565b612e7760208301846121d3565b9392505050565b7f446f65736e27742068617665206f776e6572206d61726b6574706c6163650000600082015250565b6000612eb4601e83612584565b9150612ebf82612e7e565b602082019050919050565b60006020820190508181036000830152612ee381612ea7565b9050919050565b7f4e6f20746f6b656e207370656369666965640000000000000000000000000000600082015250565b6000612f20601283612584565b9150612f2b82612eea565b602082019050919050565b60006020820190508181036000830152612f4f81612f13565b9050919050565b7f4e616d652073686f756c646e277420626520656d707479000000000000000000600082015250565b6000612f8c601783612584565b9150612f9782612f56565b602082019050919050565b60006020820190508181036000830152612fbb81612f7f565b9050919050565b7f50726963652073686f756c64206265203e3d3230303030303000000000000000600082015250565b6000612ff8601983612584565b915061300382612fc2565b602082019050919050565b6000602082019050818103600083015261302781612feb565b9050919050565b7f456e642073686f756c6420626520696e20746865206675747572650000000000600082015250565b6000613064601b83612584565b915061306f8261302e565b602082019050919050565b6000602082019050818103600083015261309381613057565b9050919050565b7f41756374696f6e20616c72656164792066696e69736865640000000000000000600082015250565b60006130d0601883612584565b91506130db8261309a565b602082019050919050565b600060208201905081810360008301526130ff816130c3565b9050919050565b7f426964206d757374206265206c61726765720000000000000000000000000000600082015250565b600061313c601283612584565b915061314782613106565b602082019050919050565b6000602082019050818103600083015261316b8161312f565b9050919050565b7f4e6f2064656c697665727920696e737472756374696f6e730000000000000000600082015250565b60006131a8601883612584565b91506131b382613172565b602082019050919050565b600060208201905081810360008301526131d78161319b565b9050919050565b60008160601b9050919050565b60006131f6826131de565b9050919050565b6000613208826131eb565b9050919050565b61322061321b8261221d565b6131fd565b82525050565b6000819050919050565b61324161323c82612170565b613226565b82525050565b6000613253828661320f565b6014820191506132638285613230565b6020820191506132738284613230565b602082019150819050949350505050565b7f57726f6e67206e6f6e6365000000000000000000000000000000000000000000600082015250565b60006132ba600b83612584565b91506132c582613284565b602082019050919050565b600060208201905081810360008301526132e9816132ad565b9050919050565b7f4e6f206d61726b6574706c616365000000000000000000000000000000000000600082015250565b6000613326600e83612584565b9150613331826132f0565b602082019050919050565b6000602082019050818103600083015261335581613319565b9050919050565b600060c08201905061337160008301896121d3565b61337e6020830188612621565b61338b60408301876121d3565b6133986060830186612612565b6133a56080830185612612565b81810360a08301526133b78184612667565b9050979650505050505050565b7f416464726573732073686f756c646e2774206265203000000000000000000000600082015250565b60006133fa601683612584565b9150613405826133c4565b602082019050919050565b60006020820190508181036000830152613429816133ed565b9050919050565b7f4f776e61626c653a206e6577206f776e657220697320746865207a65726f206160008201527f6464726573730000000000000000000000000000000000000000000000000000602082015250565b600061348c602683612584565b915061349782613430565b604082019050919050565b600060208201905081810360008301526134bb8161347f565b9050919050565b7f4f776e61626c653a2063616c6c6572206973206e6f7420746865206f776e6572600082015250565b60006134f8602083612584565b9150613503826134c2565b602082019050919050565b60006020820190508181036000830152613527816134eb565b905091905056fea26469706673582212207e728d9900ad7d61e60dc3f4e141ada3ca554968d4929543e2caa23d893bef1964736f6c634300080d0033",
  "linkReferences": {},
  "deployedLinkReferences": {}
}