{
  "_format": "hh-sol-artifact-1",
  "contractName": "SimpleAuction",
  "sourceName": "contracts/SimpleAuction.sol",
  "abi": [
    {
      "anonymous": false,
      "inputs": [
        {
          "indexed": true,
          "internalType": "address",
          "name": "previousOwner",
          "type": "address"
        },
        {
          "indexed": true,
          "internalType": "address",
          "name": "newOwner",
          "type": "address"
        }
      ],
      "name": "OwnershipTransferred",
      "type": "event"
    },
    {
      "anonymous": false,
      "inputs": [
        {
          "indexed": false,
          "internalType": "string",
          "name": "name",
          "type": "string"
        },
        {
          "indexed": false,
          "internalType": "uint256",
          "name": "minimalPrice",
          "type": "uint256"
        },
        {
          "indexed": false,
          "internalType": "address",
          "name": "seller",
          "type": "address"
        },
        {
          "indexed": false,
          "internalType": "uint256",
          "name": "index",
          "type": "uint256"
        }
      ],
      "name": "auctionProductAdded",
      "type": "event"
    },
    {
      "anonymous": false,
      "inputs": [
        {
          "indexed": false,
          "internalType": "uint256",
          "name": "index",
          "type": "uint256"
        },
        {
          "indexed": false,
          "internalType": "address",
          "name": "bidder",
          "type": "address"
        },
        {
          "indexed": false,
          "internalType": "uint256",
          "name": "amount",
          "type": "uint256"
        }
      ],
      "name": "auctionProductBid",
      "type": "event"
    },
    {
      "anonymous": false,
      "inputs": [
        {
          "indexed": false,
          "internalType": "uint256",
          "name": "index",
          "type": "uint256"
        },
        {
          "indexed": false,
          "internalType": "address",
          "name": "buyer",
          "type": "address"
        },
        {
          "indexed": false,
          "internalType": "address",
          "name": "courier",
          "type": "address"
        }
      ],
      "name": "auctionProductDelivered",
      "type": "event"
    },
    {
      "inputs": [
        {
          "internalType": "string",
          "name": "name",
          "type": "string"
        },
        {
          "internalType": "uint256",
          "name": "minimalPrice",
          "type": "uint256"
        },
        {
          "internalType": "string",
          "name": "link",
          "type": "string"
        },
        {
          "internalType": "bytes32",
          "name": "marketHashOfData",
          "type": "bytes32"
        },
        {
          "internalType": "uint256",
          "name": "finishDate",
          "type": "uint256"
        }
      ],
      "name": "addProduct",
      "outputs": [],
      "stateMutability": "nonpayable",
      "type": "function"
    },
    {
      "inputs": [],
      "name": "belongsToContract",
      "outputs": [
        {
          "internalType": "uint256",
          "name": "",
          "type": "uint256"
        }
      ],
      "stateMutability": "view",
      "type": "function"
    },
    {
      "inputs": [
        {
          "internalType": "uint256",
          "name": "index",
          "type": "uint256"
        },
        {
          "internalType": "bytes",
          "name": "deliveryInstructions",
          "type": "bytes"
        },
        {
          "internalType": "uint256",
          "name": "amount",
          "type": "uint256"
        },
        {
          "internalType": "address",
          "name": "from",
          "type": "address"
        },
        {
          "internalType": "bytes",
          "name": "sig",
          "type": "bytes"
        }
      ],
      "name": "bidForProduct",
      "outputs": [],
      "stateMutability": "payable",
      "type": "function"
    },
    {
      "inputs": [
        {
          "internalType": "uint256",
          "name": "index",
          "type": "uint256"
        }
      ],
      "name": "deliverProduct",
      "outputs": [],
      "stateMutability": "nonpayable",
      "type": "function"
    },
    {
      "inputs": [
        {
          "internalType": "address",
          "name": "seller",
          "type": "address"
        }
      ],
      "name": "getIndexesFromSellerAddress",
      "outputs": [
        {
          "internalType": "uint256[]",
          "name": "indexes",
          "type": "uint256[]"
        }
      ],
      "stateMutability": "view",
      "type": "function"
    },
    {
      "inputs": [
        {
          "internalType": "contract Marketplace",
          "name": "marketplace",
          "type": "address"
        }
      ],
      "name": "joinMarketplace",
      "outputs": [],
      "stateMutability": "nonpayable",
      "type": "function"
    },
    {
      "inputs": [
        {
          "internalType": "address",
          "name": "",
          "type": "address"
        },
        {
          "internalType": "uint256",
          "name": "",
          "type": "uint256"
        }
      ],
      "name": "owedMoneyToBidders",
      "outputs": [
        {
          "internalType": "uint256",
          "name": "",
          "type": "uint256"
        }
      ],
      "stateMutability": "view",
      "type": "function"
    },
    {
      "inputs": [],
      "name": "owner",
      "outputs": [
        {
          "internalType": "address",
          "name": "",
          "type": "address"
        }
      ],
      "stateMutability": "view",
      "type": "function"
    },
    {
      "inputs": [],
      "name": "ownerMarketplace",
      "outputs": [
        {
          "internalType": "contract Marketplace",
          "name": "",
          "type": "address"
        }
      ],
      "stateMutability": "view",
      "type": "function"
    },
    {
      "inputs": [],
      "name": "productCount",
      "outputs": [
        {
          "internalType": "uint256",
          "name": "",
          "type": "uint256"
        }
      ],
      "stateMutability": "view",
      "type": "function"
    },
    {
      "inputs": [
        {
          "internalType": "uint256",
          "name": "",
          "type": "uint256"
        }
      ],
      "name": "products",
      "outputs": [
        {
          "internalType": "string",
          "name": "name",
          "type": "string"
        },
        {
          "internalType": "uint256",
          "name": "minimalPrice",
          "type": "uint256"
        },
        {
          "internalType": "address",
          "name": "seller",
          "type": "address"
        },
        {
          "internalType": "uint256",
          "name": "addDate",
          "type": "uint256"
        },
        {
          "internalType": "string",
          "name": "linkForMedia",
          "type": "string"
        },
        {
          "internalType": "bytes32",
          "name": "marketHashOfData",
          "type": "bytes32"
        },
        {
          "internalType": "bool",
          "name": "approved",
          "type": "bool"
        },
        {
          "internalType": "bool",
          "name": "delivered",
          "type": "bool"
        },
        {
          "internalType": "bytes",
          "name": "deliveryInstructions",
          "type": "bytes"
        },
        {
          "internalType": "address",
          "name": "currentBidder",
          "type": "address"
        },
        {
          "internalType": "uint256",
          "name": "bidAmount",
          "type": "uint256"
        },
        {
          "internalType": "uint256",
          "name": "finishDate",
          "type": "uint256"
        }
      ],
      "stateMutability": "view",
      "type": "function"
    },
    {
      "inputs": [],
      "name": "renounceOwnership",
      "outputs": [],
      "stateMutability": "nonpayable",
      "type": "function"
    },
    {
      "inputs": [
        {
          "internalType": "address",
          "name": "",
          "type": "address"
        },
        {
          "internalType": "uint256",
          "name": "",
          "type": "uint256"
        }
      ],
      "name": "sellerToProductIndexes",
      "outputs": [
        {
          "internalType": "uint256",
          "name": "",
          "type": "uint256"
        }
      ],
      "stateMutability": "view",
      "type": "function"
    },
    {
      "inputs": [],
      "name": "transferFunds",
      "outputs": [],
      "stateMutability": "nonpayable",
      "type": "function"
    },
    {
      "inputs": [
        {
          "internalType": "address",
          "name": "newOwner",
          "type": "address"
        }
      ],
      "name": "transferOwnership",
      "outputs": [],
      "stateMutability": "nonpayable",
      "type": "function"
    }
  ],
  "bytecode": "0x6080604052600060025560006006553480156200001b57600080fd5b506200003c620000306200004260201b60201c565b6200004a60201b60201c565b6200010e565b600033905090565b60008060009054906101000a900473ffffffffffffffffffffffffffffffffffffffff169050816000806101000a81548173ffffffffffffffffffffffffffffffffffffffff021916908373ffffffffffffffffffffffffffffffffffffffff1602179055508173ffffffffffffffffffffffffffffffffffffffff168173ffffffffffffffffffffffffffffffffffffffff167f8be0079c531659141344cd1fd0a4f28419497f9722a3daafe3b4186f6b6457e060405160405180910390a35050565b6136d3806200011e6000396000f3fe6080604052600436106100e85760003560e01c80637a653f101161008a578063ac0b044511610059578063ac0b0445146102cc578063cb502b91146102f5578063e0f6ef8714610332578063f2fde38b1461035d576100e8565b80637a653f10146102005780637acc0b201461023d5780638da5cb5b146102855780638e76078b146102b0576100e8565b80634353c0ee116100c65780634353c0ee146101585780635e7bef8a14610195578063660eb4a3146101be578063715018a6146101e9576100e8565b80631c96fb1f146100ed5780633c1b52c4146101165780633c68eb8114610141575b600080fd5b3480156100f957600080fd5b50610114600480360381019061010f9190612254565b610386565b005b34801561012257600080fd5b5061012b610b62565b6040516101389190612290565b60405180910390f35b34801561014d57600080fd5b50610156610b68565b005b34801561016457600080fd5b5061017f600480360381019061017a9190612309565b610e43565b60405161018c9190612290565b60405180910390f35b3480156101a157600080fd5b506101bc60048036038101906101b791906123e4565b610e74565b005b3480156101ca57600080fd5b506101d3611191565b6040516101e091906124ff565b60405180910390f35b3480156101f557600080fd5b506101fe6111b7565b005b34801561020c57600080fd5b506102276004803603810190610222919061251a565b6111cb565b6040516102349190612605565b60405180910390f35b34801561024957600080fd5b50610264600480360381019061025f9190612254565b611262565b60405161027c9c9b9a9998979695949392919061274e565b60405180910390f35b34801561029157600080fd5b5061029a6114b4565b6040516102a7919061281d565b60405180910390f35b6102ca60048036038101906102c591906129be565b6114dd565b005b3480156102d857600080fd5b506102f360048036038101906102ee9190612ac4565b611be2565b005b34801561030157600080fd5b5061031c60048036038101906103179190612309565b611c9d565b6040516103299190612290565b60405180910390f35b34801561033e57600080fd5b50610347611cc2565b6040516103549190612290565b60405180910390f35b34801561036957600080fd5b50610384600480360381019061037f919061251a565b611cc8565b005b600073ffffffffffffffffffffffffffffffffffffffff16600160009054906101000a900473ffffffffffffffffffffffffffffffffffffffff1673ffffffffffffffffffffffffffffffffffffffff1603610417576040517f08c379a000000000000000000000000000000000000000000000000000000000815260040161040e90612b3d565b60405180910390fd5b600160009054906101000a900473ffffffffffffffffffffffffffffffffffffffff1673ffffffffffffffffffffffffffffffffffffffff1663ccd5fcb9336040518263ffffffff1660e01b8152600401610472919061281d565b602060405180830381865afa15801561048f573d6000803e3d6000fd5b505050506040513d601f19601f820116820180604052508101906104b39190612b89565b6104f2576040517f08c379a00000000000000000000000000000000000000000000000000000000081526004016104e990612c02565b60405180910390fd5b6000600360008381526020019081526020016000206040518061018001604052908160008201805461052390612c51565b80601f016020809104026020016040519081016040528092919081815260200182805461054f90612c51565b801561059c5780601f106105715761010080835404028352916020019161059c565b820191906000526020600020905b81548152906001019060200180831161057f57829003601f168201915b50505050508152602001600182015481526020016002820160009054906101000a900473ffffffffffffffffffffffffffffffffffffffff1673ffffffffffffffffffffffffffffffffffffffff1673ffffffffffffffffffffffffffffffffffffffff1681526020016003820154815260200160048201805461061f90612c51565b80601f016020809104026020016040519081016040528092919081815260200182805461064b90612c51565b80156106985780601f1061066d57610100808354040283529160200191610698565b820191906000526020600020905b81548152906001019060200180831161067b57829003601f168201915b50505050508152602001600582015481526020016006820160009054906101000a900460ff161515151581526020016006820160019054906101000a900460ff161515151581526020016007820180546106f190612c51565b80601f016020809104026020016040519081016040528092919081815260200182805461071d90612c51565b801561076a5780601f1061073f5761010080835404028352916020019161076a565b820191906000526020600020905b81548152906001019060200180831161074d57829003601f168201915b505050505081526020016008820160009054906101000a900473ffffffffffffffffffffffffffffffffffffffff1673ffffffffffffffffffffffffffffffffffffffff1673ffffffffffffffffffffffffffffffffffffffff16815260200160098201548152602001600a820154815250509050600073ffffffffffffffffffffffffffffffffffffffff16816040015173ffffffffffffffffffffffffffffffffffffffff1603610852576040517f08c379a000000000000000000000000000000000000000000000000000000000815260040161084990612cce565b60405180910390fd5b4281610160015110610899576040517f08c379a000000000000000000000000000000000000000000000000000000000815260040161089090612d3a565b60405180910390fd5b600015158160e001511515146108e4576040517f08c379a00000000000000000000000000000000000000000000000000000000081526004016108db90612da6565b60405180910390fd5b6000606460636005600085610120015173ffffffffffffffffffffffffffffffffffffffff1673ffffffffffffffffffffffffffffffffffffffff16815260200190815260200160002060008681526020019081526020016000205461094a9190612df5565b6109549190612e7e565b905060648261014001516109689190612e7e565b600260008282546109799190612eaf565b9250508190555060006005600084610120015173ffffffffffffffffffffffffffffffffffffffff1673ffffffffffffffffffffffffffffffffffffffff16815260200190815260200160002060008581526020019081526020016000208190555060016003600085815260200190815260200160002060060160016101000a81548160ff021916908315150217905550600160009054906101000a900473ffffffffffffffffffffffffffffffffffffffff1673ffffffffffffffffffffffffffffffffffffffff1663b8fcf9376040518163ffffffff1660e01b8152600401602060405180830381865afa158015610a77573d6000803e3d6000fd5b505050506040513d601f19601f82011682018060405250810190610a9b9190612f1a565b73ffffffffffffffffffffffffffffffffffffffff1663a9059cbb8360400151836040518363ffffffff1660e01b8152600401610ad9929190612f47565b6020604051808303816000875af1158015610af8573d6000803e3d6000fd5b505050506040513d601f19601f82011682018060405250810190610b1c9190612b89565b507f9d95947801b2af7d1ed03cfed8027ebe75cd4a16100de3a0ffdb30f58c6a01928383610120015133604051610b5593929190612f70565b60405180910390a1505050565b60025481565b610b70611d4b565b600073ffffffffffffffffffffffffffffffffffffffff16600160009054906101000a900473ffffffffffffffffffffffffffffffffffffffff1673ffffffffffffffffffffffffffffffffffffffff1603610c01576040517f08c379a0000000000000000000000000000000000000000000000000000000008152600401610bf890612ff3565b60405180910390fd5b6000600160009054906101000a900473ffffffffffffffffffffffffffffffffffffffff1673ffffffffffffffffffffffffffffffffffffffff1663b8fcf9376040518163ffffffff1660e01b8152600401602060405180830381865afa158015610c70573d6000803e3d6000fd5b505050506040513d601f19601f82011682018060405250810190610c949190612f1a565b9050600073ffffffffffffffffffffffffffffffffffffffff16600160009054906101000a900473ffffffffffffffffffffffffffffffffffffffff1673ffffffffffffffffffffffffffffffffffffffff1663b8fcf9376040518163ffffffff1660e01b8152600401602060405180830381865afa158015610d1b573d6000803e3d6000fd5b505050506040513d601f19601f82011682018060405250810190610d3f9190612f1a565b73ffffffffffffffffffffffffffffffffffffffff1603610d95576040517f08c379a0000000000000000000000000000000000000000000000000000000008152600401610d8c9061305f565b60405180910390fd5b8073ffffffffffffffffffffffffffffffffffffffff1663a9059cbb600160009054906101000a900473ffffffffffffffffffffffffffffffffffffffff166002546040518363ffffffff1660e01b8152600401610df4929190612f47565b6020604051808303816000875af1158015610e13573d6000803e3d6000fd5b505050506040513d601f19601f82011682018060405250810190610e379190612b89565b50600060028190555050565b60046020528160005260406000208181548110610e5f57600080fd5b90600052602060002001600091509150505481565b60008787905003610eba576040517f08c379a0000000000000000000000000000000000000000000000000000000008152600401610eb1906130cb565b60405180910390fd5b621e8480851015610f00576040517f08c379a0000000000000000000000000000000000000000000000000000000008152600401610ef790613137565b60405180910390fd5b42811015610f43576040517f08c379a0000000000000000000000000000000000000000000000000000000008152600401610f3a906131a3565b60405180910390fd5b610f5287878787878787611dc9565b6003600060065481526020019081526020016000206000820151816000019080519060200190610f83929190611fc7565b506020820151816001015560408201518160020160006101000a81548173ffffffffffffffffffffffffffffffffffffffff021916908373ffffffffffffffffffffffffffffffffffffffff160217905550606082015181600301556080820151816004019080519060200190610ffb929190611fc7565b5060a0820151816005015560c08201518160060160006101000a81548160ff02191690831515021790555060e08201518160060160016101000a81548160ff02191690831515021790555061010082015181600701908051906020019061106392919061204d565b506101208201518160080160006101000a81548173ffffffffffffffffffffffffffffffffffffffff021916908373ffffffffffffffffffffffffffffffffffffffff160217905550610140820151816009015561016082015181600a0155905050600460003373ffffffffffffffffffffffffffffffffffffffff1673ffffffffffffffffffffffffffffffffffffffff16815260200190815260200160002060065490806001815401808255809150506001900390600052602060002001600090919091909150557f0bdd03d34418de4e37692923185ccdd7efa31d93f02a21636cfaf39cd2ee2041878787336006546040516111669594939291906131f0565b60405180910390a16001600660008282546111819190612eaf565b9250508190555050505050505050565b600160009054906101000a900473ffffffffffffffffffffffffffffffffffffffff1681565b6111bf611d4b565b6111c96000611efb565b565b6060600460008373ffffffffffffffffffffffffffffffffffffffff1673ffffffffffffffffffffffffffffffffffffffff16815260200190815260200160002080548060200260200160405190810160405280929190818152602001828054801561125657602002820191906000526020600020905b815481526020019060010190808311611242575b50505050509050919050565b600360205280600052604060002060009150905080600001805461128590612c51565b80601f01602080910402602001604051908101604052809291908181526020018280546112b190612c51565b80156112fe5780601f106112d3576101008083540402835291602001916112fe565b820191906000526020600020905b8154815290600101906020018083116112e157829003601f168201915b5050505050908060010154908060020160009054906101000a900473ffffffffffffffffffffffffffffffffffffffff169080600301549080600401805461134590612c51565b80601f016020809104026020016040519081016040528092919081815260200182805461137190612c51565b80156113be5780601f10611393576101008083540402835291602001916113be565b820191906000526020600020905b8154815290600101906020018083116113a157829003601f168201915b5050505050908060050154908060060160009054906101000a900460ff16908060060160019054906101000a900460ff16908060070180546113ff90612c51565b80601f016020809104026020016040519081016040528092919081815260200182805461142b90612c51565b80156114785780601f1061144d57610100808354040283529160200191611478565b820191906000526020600020905b81548152906001019060200180831161145b57829003601f168201915b5050505050908060080160009054906101000a900473ffffffffffffffffffffffffffffffffffffffff169080600901549080600a015490508c565b60008060009054906101000a900473ffffffffffffffffffffffffffffffffffffffff16905090565b6000600360008881526020019081526020016000209050600073ffffffffffffffffffffffffffffffffffffffff168160020160009054906101000a900473ffffffffffffffffffffffffffffffffffffffff1673ffffffffffffffffffffffffffffffffffffffff1603611587576040517f08c379a000000000000000000000000000000000000000000000000000000000815260040161157e90612cce565b60405180910390fd5b4281600a0154116115cd576040517f08c379a00000000000000000000000000000000000000000000000000000000081526004016115c49061328a565b60405180910390fd5b8060010154841015611614576040517f08c379a000000000000000000000000000000000000000000000000000000000815260040161160b906132f6565b60405180910390fd5b8060090154841161165a576040517f08c379a0000000000000000000000000000000000000000000000000000000008152600401611651906132f6565b60405180910390fd5b600086869050036116a0576040517f08c379a000000000000000000000000000000000000000000000000000000000815260040161169790613362565b60405180910390fd5b60003088866040516020016116b7939291906133eb565b604051602081830303815290604052805190602001209050600073ffffffffffffffffffffffffffffffffffffffff16600160009054906101000a900473ffffffffffffffffffffffffffffffffffffffff1673ffffffffffffffffffffffffffffffffffffffff1603611760576040517f08c379a000000000000000000000000000000000000000000000000000000000815260040161175790613474565b60405180910390fd5b600073ffffffffffffffffffffffffffffffffffffffff16600160009054906101000a900473ffffffffffffffffffffffffffffffffffffffff1673ffffffffffffffffffffffffffffffffffffffff1663b8fcf9376040518163ffffffff1660e01b8152600401602060405180830381865afa1580156117e5573d6000803e3d6000fd5b505050506040513d601f19601f820116820180604052508101906118099190612f1a565b73ffffffffffffffffffffffffffffffffffffffff160361185f576040517f08c379a00000000000000000000000000000000000000000000000000000000081526004016118569061305f565b60405180910390fd5b86868360070191906118729291906120d3565b506000600160009054906101000a900473ffffffffffffffffffffffffffffffffffffffff1673ffffffffffffffffffffffffffffffffffffffff1663b8fcf9376040518163ffffffff1660e01b8152600401602060405180830381865afa1580156118e2573d6000803e3d6000fd5b505050506040513d601f19601f820116820180604052508101906119069190612f1a565b90508073ffffffffffffffffffffffffffffffffffffffff16639f4fae1284600a0154848989308a6040518763ffffffff1660e01b815260040161194f96959493929190613494565b600060405180830381600087803b15801561196957600080fd5b505af115801561197d573d6000803e3d6000fd5b50505050600073ffffffffffffffffffffffffffffffffffffffff168360080160009054906101000a900473ffffffffffffffffffffffffffffffffffffffff1673ffffffffffffffffffffffffffffffffffffffff1614611afb576000600560008560080160009054906101000a900473ffffffffffffffffffffffffffffffffffffffff1673ffffffffffffffffffffffffffffffffffffffff1673ffffffffffffffffffffffffffffffffffffffff16815260200190815260200160002060008b8152602001908152602001600020819055508073ffffffffffffffffffffffffffffffffffffffff1663a9059cbb8460080160009054906101000a900473ffffffffffffffffffffffffffffffffffffffff1685600901546040518363ffffffff1660e01b8152600401611ab6929190612f47565b6020604051808303816000875af1158015611ad5573d6000803e3d6000fd5b505050506040513d601f19601f82011682018060405250810190611af99190612b89565b505b85600560008773ffffffffffffffffffffffffffffffffffffffff1673ffffffffffffffffffffffffffffffffffffffff16815260200190815260200160002060008b815260200190815260200160002081905550858360090181905550848360080160006101000a81548173ffffffffffffffffffffffffffffffffffffffff021916908373ffffffffffffffffffffffffffffffffffffffff1602179055507f6e92a982037abe8146d71f1d6163b2760c6fb6b79d71a369fe6f0b79a545b79a898688604051611bcf939291906134fc565b60405180910390a1505050505050505050565b611bea611d4b565b600073ffffffffffffffffffffffffffffffffffffffff168173ffffffffffffffffffffffffffffffffffffffff1603611c59576040517f08c379a0000000000000000000000000000000000000000000000000000000008152600401611c509061357f565b60405180910390fd5b80600160006101000a81548173ffffffffffffffffffffffffffffffffffffffff021916908373ffffffffffffffffffffffffffffffffffffffff16021790555050565b6005602052816000526040600020602052806000526040600020600091509150505481565b60065481565b611cd0611d4b565b600073ffffffffffffffffffffffffffffffffffffffff168173ffffffffffffffffffffffffffffffffffffffff1603611d3f576040517f08c379a0000000000000000000000000000000000000000000000000000000008152600401611d3690613611565b60405180910390fd5b611d4881611efb565b50565b611d53611fbf565b73ffffffffffffffffffffffffffffffffffffffff16611d716114b4565b73ffffffffffffffffffffffffffffffffffffffff1614611dc7576040517f08c379a0000000000000000000000000000000000000000000000000000000008152600401611dbe9061367d565b60405180910390fd5b565b611dd1612159565b60405180610180016040528089898080601f016020809104026020016040519081016040528093929190818152602001838380828437600081840152601f19601f8201169050808301925050505050505081526020018781526020013373ffffffffffffffffffffffffffffffffffffffff16815260200142815260200186868080601f016020809104026020016040519081016040528093929190818152602001838380828437600081840152601f19601f820116905080830192505050505050508152602001848152602001600015158152602001600015158152602001604051806020016040528060008152508152602001600073ffffffffffffffffffffffffffffffffffffffff16815260200160008152602001838152509050979650505050505050565b60008060009054906101000a900473ffffffffffffffffffffffffffffffffffffffff169050816000806101000a81548173ffffffffffffffffffffffffffffffffffffffff021916908373ffffffffffffffffffffffffffffffffffffffff1602179055508173ffffffffffffffffffffffffffffffffffffffff168173ffffffffffffffffffffffffffffffffffffffff167f8be0079c531659141344cd1fd0a4f28419497f9722a3daafe3b4186f6b6457e060405160405180910390a35050565b600033905090565b828054611fd390612c51565b90600052602060002090601f016020900481019282611ff5576000855561203c565b82601f1061200e57805160ff191683800117855561203c565b8280016001018555821561203c579182015b8281111561203b578251825591602001919060010190612020565b5b50905061204991906121ed565b5090565b82805461205990612c51565b90600052602060002090601f01602090048101928261207b57600085556120c2565b82601f1061209457805160ff19168380011785556120c2565b828001600101855582156120c2579182015b828111156120c15782518255916020019190600101906120a6565b5b5090506120cf91906121ed565b5090565b8280546120df90612c51565b90600052602060002090601f0160209004810192826121015760008555612148565b82601f1061211a57803560ff1916838001178555612148565b82800160010185558215612148579182015b8281111561214757823582559160200191906001019061212c565b5b50905061215591906121ed565b5090565b6040518061018001604052806060815260200160008152602001600073ffffffffffffffffffffffffffffffffffffffff16815260200160008152602001606081526020016000801916815260200160001515815260200160001515815260200160608152602001600073ffffffffffffffffffffffffffffffffffffffff16815260200160008152602001600081525090565b5b808211156122065760008160009055506001016121ee565b5090565b6000604051905090565b600080fd5b600080fd5b6000819050919050565b6122318161221e565b811461223c57600080fd5b50565b60008135905061224e81612228565b92915050565b60006020828403121561226a57612269612214565b5b60006122788482850161223f565b91505092915050565b61228a8161221e565b82525050565b60006020820190506122a56000830184612281565b92915050565b600073ffffffffffffffffffffffffffffffffffffffff82169050919050565b60006122d6826122ab565b9050919050565b6122e6816122cb565b81146122f157600080fd5b50565b600081359050612303816122dd565b92915050565b600080604083850312156123205761231f612214565b5b600061232e858286016122f4565b925050602061233f8582860161223f565b9150509250929050565b600080fd5b600080fd5b600080fd5b60008083601f84011261236e5761236d612349565b5b8235905067ffffffffffffffff81111561238b5761238a61234e565b5b6020830191508360018202830111156123a7576123a6612353565b5b9250929050565b6000819050919050565b6123c1816123ae565b81146123cc57600080fd5b50565b6000813590506123de816123b8565b92915050565b600080600080600080600060a0888a03121561240357612402612214565b5b600088013567ffffffffffffffff81111561242157612420612219565b5b61242d8a828b01612358565b975097505060206124408a828b0161223f565b955050604088013567ffffffffffffffff81111561246157612460612219565b5b61246d8a828b01612358565b945094505060606124808a828b016123cf565b92505060806124918a828b0161223f565b91505092959891949750929550565b6000819050919050565b60006124c56124c06124bb846122ab565b6124a0565b6122ab565b9050919050565b60006124d7826124aa565b9050919050565b60006124e9826124cc565b9050919050565b6124f9816124de565b82525050565b600060208201905061251460008301846124f0565b92915050565b6000602082840312156125305761252f612214565b5b600061253e848285016122f4565b91505092915050565b600081519050919050565b600082825260208201905092915050565b6000819050602082019050919050565b61257c8161221e565b82525050565b600061258e8383612573565b60208301905092915050565b6000602082019050919050565b60006125b282612547565b6125bc8185612552565b93506125c783612563565b8060005b838110156125f85781516125df8882612582565b97506125ea8361259a565b9250506001810190506125cb565b5085935050505092915050565b6000602082019050818103600083015261261f81846125a7565b905092915050565b600081519050919050565b600082825260208201905092915050565b60005b83811015612661578082015181840152602081019050612646565b83811115612670576000848401525b50505050565b6000601f19601f8301169050919050565b600061269282612627565b61269c8185612632565b93506126ac818560208601612643565b6126b581612676565b840191505092915050565b6126c9816122cb565b82525050565b6126d8816123ae565b82525050565b60008115159050919050565b6126f3816126de565b82525050565b600081519050919050565b600082825260208201905092915050565b6000612720826126f9565b61272a8185612704565b935061273a818560208601612643565b61274381612676565b840191505092915050565b6000610180820190508181036000830152612769818f612687565b9050612778602083018e612281565b612785604083018d6126c0565b612792606083018c612281565b81810360808301526127a4818b612687565b90506127b360a083018a6126cf565b6127c060c08301896126ea565b6127cd60e08301886126ea565b8181036101008301526127e08187612715565b90506127f06101208301866126c0565b6127fe610140830185612281565b61280c610160830184612281565b9d9c50505050505050505050505050565b600060208201905061283260008301846126c0565b92915050565b60008083601f84011261284e5761284d612349565b5b8235905067ffffffffffffffff81111561286b5761286a61234e565b5b60208301915083600182028301111561288757612886612353565b5b9250929050565b600080fd5b7f4e487b7100000000000000000000000000000000000000000000000000000000600052604160045260246000fd5b6128cb82612676565b810181811067ffffffffffffffff821117156128ea576128e9612893565b5b80604052505050565b60006128fd61220a565b905061290982826128c2565b919050565b600067ffffffffffffffff82111561292957612928612893565b5b61293282612676565b9050602081019050919050565b82818337600083830152505050565b600061296161295c8461290e565b6128f3565b90508281526020810184848401111561297d5761297c61288e565b5b61298884828561293f565b509392505050565b600082601f8301126129a5576129a4612349565b5b81356129b584826020860161294e565b91505092915050565b60008060008060008060a087890312156129db576129da612214565b5b60006129e989828a0161223f565b965050602087013567ffffffffffffffff811115612a0a57612a09612219565b5b612a1689828a01612838565b95509550506040612a2989828a0161223f565b9350506060612a3a89828a016122f4565b925050608087013567ffffffffffffffff811115612a5b57612a5a612219565b5b612a6789828a01612990565b9150509295509295509295565b6000612a7f826122ab565b9050919050565b6000612a9182612a74565b9050919050565b612aa181612a86565b8114612aac57600080fd5b50565b600081359050612abe81612a98565b92915050565b600060208284031215612ada57612ad9612214565b5b6000612ae884828501612aaf565b91505092915050565b7f4e6f206f776e6572206d61726b6574706c616365000000000000000000000000600082015250565b6000612b27601483612632565b9150612b3282612af1565b602082019050919050565b60006020820190508181036000830152612b5681612b1a565b9050919050565b612b66816126de565b8114612b7157600080fd5b50565b600081519050612b8381612b5d565b92915050565b600060208284031215612b9f57612b9e612214565b5b6000612bad84828501612b74565b91505092915050565b7f4e6f7420616e20617574686f72697a656420636f757269657200000000000000600082015250565b6000612bec601983612632565b9150612bf782612bb6565b602082019050919050565b60006020820190508181036000830152612c1b81612bdf565b9050919050565b7f4e487b7100000000000000000000000000000000000000000000000000000000600052602260045260246000fd5b60006002820490506001821680612c6957607f821691505b602082108103612c7c57612c7b612c22565b5b50919050565b7f4e6f20737563682070726f647563740000000000000000000000000000000000600082015250565b6000612cb8600f83612632565b9150612cc382612c82565b602082019050919050565b60006020820190508181036000830152612ce781612cab565b9050919050565b7f41756374696f6e206e6f742066696e6973686564000000000000000000000000600082015250565b6000612d24601483612632565b9150612d2f82612cee565b602082019050919050565b60006020820190508181036000830152612d5381612d17565b9050919050565b7f50726f6475637420616c72656164792064656c69766572656400000000000000600082015250565b6000612d90601983612632565b9150612d9b82612d5a565b602082019050919050565b60006020820190508181036000830152612dbf81612d83565b9050919050565b7f4e487b7100000000000000000000000000000000000000000000000000000000600052601160045260246000fd5b6000612e008261221e565b9150612e0b8361221e565b9250817fffffffffffffffffffffffffffffffffffffffffffffffffffffffffffffffff0483118215151615612e4457612e43612dc6565b5b828202905092915050565b7f4e487b7100000000000000000000000000000000000000000000000000000000600052601260045260246000fd5b6000612e898261221e565b9150612e948361221e565b925082612ea457612ea3612e4f565b5b828204905092915050565b6000612eba8261221e565b9150612ec58361221e565b9250827fffffffffffffffffffffffffffffffffffffffffffffffffffffffffffffffff03821115612efa57612ef9612dc6565b5b828201905092915050565b600081519050612f14816122dd565b92915050565b600060208284031215612f3057612f2f612214565b5b6000612f3e84828501612f05565b91505092915050565b6000604082019050612f5c60008301856126c0565b612f696020830184612281565b9392505050565b6000606082019050612f856000830186612281565b612f9260208301856126c0565b612f9f60408301846126c0565b949350505050565b7f446f65736e27742068617665206f776e6572206d61726b6574706c6163650000600082015250565b6000612fdd601e83612632565b9150612fe882612fa7565b602082019050919050565b6000602082019050818103600083015261300c81612fd0565b9050919050565b7f4e6f20746f6b656e207370656369666965640000000000000000000000000000600082015250565b6000613049601283612632565b915061305482613013565b602082019050919050565b600060208201905081810360008301526130788161303c565b9050919050565b7f4e616d652073686f756c646e277420626520656d707479000000000000000000600082015250565b60006130b5601783612632565b91506130c08261307f565b602082019050919050565b600060208201905081810360008301526130e4816130a8565b9050919050565b7f50726963652073686f756c64206265203e3d3230303030303000000000000000600082015250565b6000613121601983612632565b915061312c826130eb565b602082019050919050565b6000602082019050818103600083015261315081613114565b9050919050565b7f456e642073686f756c6420626520696e20746865206675747572650000000000600082015250565b600061318d601b83612632565b915061319882613157565b602082019050919050565b600060208201905081810360008301526131bc81613180565b9050919050565b60006131cf8385612632565b93506131dc83858461293f565b6131e583612676565b840190509392505050565b6000608082019050818103600083015261320b8187896131c3565b905061321a6020830186612281565b61322760408301856126c0565b6132346060830184612281565b9695505050505050565b7f41756374696f6e20616c72656164792066696e69736865640000000000000000600082015250565b6000613274601883612632565b915061327f8261323e565b602082019050919050565b600060208201905081810360008301526132a381613267565b9050919050565b7f426964206d757374206265206c61726765720000000000000000000000000000600082015250565b60006132e0601283612632565b91506132eb826132aa565b602082019050919050565b6000602082019050818103600083015261330f816132d3565b9050919050565b7f4e6f2064656c697665727920696e737472756374696f6e730000000000000000600082015250565b600061334c601883612632565b915061335782613316565b602082019050919050565b6000602082019050818103600083015261337b8161333f565b9050919050565b60008160601b9050919050565b600061339a82613382565b9050919050565b60006133ac8261338f565b9050919050565b6133c46133bf826122cb565b6133a1565b82525050565b6000819050919050565b6133e56133e08261221e565b6133ca565b82525050565b60006133f782866133b3565b60148201915061340782856133d4565b60208201915061341782846133d4565b602082019150819050949350505050565b7f4e6f206d61726b6574706c616365000000000000000000000000000000000000600082015250565b600061345e600e83612632565b915061346982613428565b602082019050919050565b6000602082019050818103600083015261348d81613451565b9050919050565b600060c0820190506134a96000830189612281565b6134b660208301886126cf565b6134c36040830187612281565b6134d060608301866126c0565b6134dd60808301856126c0565b81810360a08301526134ef8184612715565b9050979650505050505050565b60006060820190506135116000830186612281565b61351e60208301856126c0565b61352b6040830184612281565b949350505050565b7f416464726573732073686f756c646e2774206265203000000000000000000000600082015250565b6000613569601683612632565b915061357482613533565b602082019050919050565b600060208201905081810360008301526135988161355c565b9050919050565b7f4f776e61626c653a206e6577206f776e657220697320746865207a65726f206160008201527f6464726573730000000000000000000000000000000000000000000000000000602082015250565b60006135fb602683612632565b91506136068261359f565b604082019050919050565b6000602082019050818103600083015261362a816135ee565b9050919050565b7f4f776e61626c653a2063616c6c6572206973206e6f7420746865206f776e6572600082015250565b6000613667602083612632565b915061367282613631565b602082019050919050565b600060208201905081810360008301526136968161365a565b905091905056fea2646970667358221220ad3b020db03d468bb4d3943b7a11967201eba71aa63a7fa48034ed23260bc7b464736f6c634300080d0033",
  "linkReferences": {},
  "deployedLinkReferences": {}
}