{
  "_format": "hh-sol-artifact-1",
  "contractName": "Marketplace",
  "sourceName": "contracts/Marketplace.sol",
  "abi": [
    {
      "anonymous": false,
      "inputs": [
        {
          "indexed": true,
          "internalType": "address",
          "name": "previousOwner",
          "type": "address"
        },
        {
          "indexed": true,
          "internalType": "address",
          "name": "newOwner",
          "type": "address"
        }
      ],
      "name": "OwnershipTransferred",
      "type": "event"
    },
    {
      "inputs": [
        {
          "internalType": "address",
          "name": "contractAddress",
          "type": "address"
        },
        {
          "internalType": "string",
          "name": "name",
          "type": "string"
        }
      ],
      "name": "addContract",
      "outputs": [],
      "stateMutability": "nonpayable",
      "type": "function"
    },
    {
      "inputs": [],
      "name": "owner",
      "outputs": [
        {
          "internalType": "address",
          "name": "",
          "type": "address"
        }
      ],
      "stateMutability": "view",
      "type": "function"
    },
    {
      "inputs": [],
      "name": "renounceOwnership",
      "outputs": [],
      "stateMutability": "nonpayable",
      "type": "function"
    },
    {
      "inputs": [
        {
          "internalType": "address",
          "name": "newOwner",
          "type": "address"
        }
      ],
      "name": "transferOwnership",
      "outputs": [],
      "stateMutability": "nonpayable",
      "type": "function"
    }
  ],
  "bytecode": "0x608060405234801561001057600080fd5b5061002d61002261003260201b60201c565b61003a60201b60201c565b6100fe565b600033905090565b60008060009054906101000a900473ffffffffffffffffffffffffffffffffffffffff169050816000806101000a81548173ffffffffffffffffffffffffffffffffffffffff021916908373ffffffffffffffffffffffffffffffffffffffff1602179055508173ffffffffffffffffffffffffffffffffffffffff168173ffffffffffffffffffffffffffffffffffffffff167f8be0079c531659141344cd1fd0a4f28419497f9722a3daafe3b4186f6b6457e060405160405180910390a35050565b610deb8061010d6000396000f3fe608060405234801561001057600080fd5b506004361061004c5760003560e01c80634300e8ef14610051578063715018a61461006d5780638da5cb5b14610077578063f2fde38b14610095575b600080fd5b61006b60048036038101906100669190610701565b6100b1565b005b61007561042a565b005b61007f61043e565b60405161008c9190610770565b60405180910390f35b6100af60048036038101906100aa919061078b565b610467565b005b6100b96104ea565b600073ffffffffffffffffffffffffffffffffffffffff168373ffffffffffffffffffffffffffffffffffffffff16036100f257600080fd5b6000828290500361010257600080fd5b60005b6001805490508110156102205760018181548110610126576101256107b8565b5b906000526020600020906005020160020160009054906101000a900473ffffffffffffffffffffffffffffffffffffffff1673ffffffffffffffffffffffffffffffffffffffff168473ffffffffffffffffffffffffffffffffffffffff160361018f57600080fd5b600181815481106101a3576101a26107b8565b5b90600052602060002090600502016001016040516020016101c491906108ea565b6040516020818303038152906040528051906020012083836040516020016101ed929190610935565b604051602081830303815290604052805190602001200361020d57600080fd5b808061021890610987565b915050610105565b5060016040518060a001604052803373ffffffffffffffffffffffffffffffffffffffff16815260200184848080601f016020809104026020016040519081016040528093929190818152602001838380828437600081840152601f19601f8201169050808301925050505050505081526020018573ffffffffffffffffffffffffffffffffffffffff1681526020014281526020016000815250908060018154018082558091505060019003906000526020600020906005020160009091909190915060008201518160000160006101000a81548173ffffffffffffffffffffffffffffffffffffffff021916908373ffffffffffffffffffffffffffffffffffffffff16021790555060208201518160010190816103409190610ba0565b5060408201518160020160006101000a81548173ffffffffffffffffffffffffffffffffffffffff021916908373ffffffffffffffffffffffffffffffffffffffff16021790555060608201518160030155608082015181600401555050600254600360008573ffffffffffffffffffffffffffffffffffffffff1673ffffffffffffffffffffffffffffffffffffffff16815260200190815260200160002081905550600254600483836040516103f9929190610935565b90815260200160405180910390208190555060016002600082825461041e9190610c72565b92505081905550505050565b6104326104ea565b61043c6000610568565b565b60008060009054906101000a900473ffffffffffffffffffffffffffffffffffffffff16905090565b61046f6104ea565b600073ffffffffffffffffffffffffffffffffffffffff168173ffffffffffffffffffffffffffffffffffffffff16036104de576040517f08c379a00000000000000000000000000000000000000000000000000000000081526004016104d590610d29565b60405180910390fd5b6104e781610568565b50565b6104f261062c565b73ffffffffffffffffffffffffffffffffffffffff1661051061043e565b73ffffffffffffffffffffffffffffffffffffffff1614610566576040517f08c379a000000000000000000000000000000000000000000000000000000000815260040161055d90610d95565b60405180910390fd5b565b60008060009054906101000a900473ffffffffffffffffffffffffffffffffffffffff169050816000806101000a81548173ffffffffffffffffffffffffffffffffffffffff021916908373ffffffffffffffffffffffffffffffffffffffff1602179055508173ffffffffffffffffffffffffffffffffffffffff168173ffffffffffffffffffffffffffffffffffffffff167f8be0079c531659141344cd1fd0a4f28419497f9722a3daafe3b4186f6b6457e060405160405180910390a35050565b600033905090565b600080fd5b600080fd5b600073ffffffffffffffffffffffffffffffffffffffff82169050919050565b60006106698261063e565b9050919050565b6106798161065e565b811461068457600080fd5b50565b60008135905061069681610670565b92915050565b600080fd5b600080fd5b600080fd5b60008083601f8401126106c1576106c061069c565b5b8235905067ffffffffffffffff8111156106de576106dd6106a1565b5b6020830191508360018202830111156106fa576106f96106a6565b5b9250929050565b60008060006040848603121561071a57610719610634565b5b600061072886828701610687565b935050602084013567ffffffffffffffff81111561074957610748610639565b5b610755868287016106ab565b92509250509250925092565b61076a8161065e565b82525050565b60006020820190506107856000830184610761565b92915050565b6000602082840312156107a1576107a0610634565b5b60006107af84828501610687565b91505092915050565b7f4e487b7100000000000000000000000000000000000000000000000000000000600052603260045260246000fd5b7f4e487b7100000000000000000000000000000000000000000000000000000000600052602260045260246000fd5b6000600282049050600182168061082e57607f821691505b602082108103610841576108406107e7565b5b50919050565b600081905092915050565b60008190508160005260206000209050919050565b6000815461087481610816565b61087e8186610847565b9450600182166000811461089957600181146108ae576108e1565b60ff19831686528115158202860193506108e1565b6108b785610852565b60005b838110156108d9578154818901526001820191506020810190506108ba565b838801955050505b50505092915050565b60006108f68284610867565b915081905092915050565b82818337600083830152505050565b600061091c8385610847565b9350610929838584610901565b82840190509392505050565b6000610942828486610910565b91508190509392505050565b7f4e487b7100000000000000000000000000000000000000000000000000000000600052601160045260246000fd5b6000819050919050565b60006109928261097d565b91507fffffffffffffffffffffffffffffffffffffffffffffffffffffffffffffffff82036109c4576109c361094e565b5b600182019050919050565b600081519050919050565b7f4e487b7100000000000000000000000000000000000000000000000000000000600052604160045260246000fd5b60006020601f8301049050919050565b600082821b905092915050565b600060088302610a567fffffffffffffffffffffffffffffffffffffffffffffffffffffffffffffffff82610a19565b610a608683610a19565b95508019841693508086168417925050509392505050565b6000819050919050565b6000610a9d610a98610a938461097d565b610a78565b61097d565b9050919050565b6000819050919050565b610ab783610a82565b610acb610ac382610aa4565b848454610a26565b825550505050565b600090565b610ae0610ad3565b610aeb818484610aae565b505050565b5b81811015610b0f57610b04600082610ad8565b600181019050610af1565b5050565b601f821115610b5457610b2581610852565b610b2e84610a09565b81016020851015610b3d578190505b610b51610b4985610a09565b830182610af0565b50505b505050565b600082821c905092915050565b6000610b7760001984600802610b59565b1980831691505092915050565b6000610b908383610b66565b9150826002028217905092915050565b610ba9826109cf565b67ffffffffffffffff811115610bc257610bc16109da565b5b610bcc8254610816565b610bd7828285610b13565b600060209050601f831160018114610c0a5760008415610bf8578287015190505b610c028582610b84565b865550610c6a565b601f198416610c1886610852565b60005b82811015610c4057848901518255600182019150602085019450602081019050610c1b565b86831015610c5d5784890151610c59601f891682610b66565b8355505b6001600288020188555050505b505050505050565b6000610c7d8261097d565b9150610c888361097d565b9250828201905080821115610ca057610c9f61094e565b5b92915050565b600082825260208201905092915050565b7f4f776e61626c653a206e6577206f776e657220697320746865207a65726f206160008201527f6464726573730000000000000000000000000000000000000000000000000000602082015250565b6000610d13602683610ca6565b9150610d1e82610cb7565b604082019050919050565b60006020820190508181036000830152610d4281610d06565b9050919050565b7f4f776e61626c653a2063616c6c6572206973206e6f7420746865206f776e6572600082015250565b6000610d7f602083610ca6565b9150610d8a82610d49565b602082019050919050565b60006020820190508181036000830152610dae81610d72565b905091905056fea2646970667358221220a94347671e862d760e2e1b0c8106cacc4d5769e974e2ee0125a98dff63703f2364736f6c63430008110033",
  "linkReferences": {},
  "deployedLinkReferences": {}
}